{
  "_format": "hh-sol-artifact-1",
  "contractName": "WallPaper",
  "sourceName": "contracts/object/WallPaper.sol",
  "abi": [
    {
      "inputs": [
        {
          "internalType": "address payable",
          "name": "_treasuryAddress",
          "type": "address"
        },
        {
          "internalType": "address",
          "name": "_phiMapAddress",
          "type": "address"
        }
      ],
      "stateMutability": "nonpayable",
      "type": "constructor"
    },
    {
      "inputs": [],
      "name": "ExistentToken",
      "type": "error"
    },
    {
      "inputs": [],
      "name": "InvalidOwner",
      "type": "error"
    },
    {
      "inputs": [],
      "name": "InvalidTokenID",
      "type": "error"
    },
    {
      "inputs": [],
      "name": "NoSetTokenSize",
      "type": "error"
    },
    {
      "inputs": [],
      "name": "NonExistentToken",
      "type": "error"
    },
    {
      "inputs": [],
      "name": "PaymentBalanceZero",
      "type": "error"
    },
    {
      "anonymous": false,
      "inputs": [
        {
          "indexed": true,
          "internalType": "address",
          "name": "account",
          "type": "address"
        },
        {
          "indexed": true,
          "internalType": "address",
          "name": "operator",
          "type": "address"
        },
        {
          "indexed": false,
          "internalType": "bool",
          "name": "approved",
          "type": "bool"
        }
      ],
      "name": "ApprovalForAll",
      "type": "event"
    },
    {
      "anonymous": false,
      "inputs": [
        {
          "indexed": false,
          "internalType": "uint256",
          "name": "tokenId",
          "type": "uint256"
        },
        {
          "indexed": false,
          "internalType": "uint256",
          "name": "newPrice",
          "type": "uint256"
        }
      ],
      "name": "ChangeTokenPrice",
      "type": "event"
    },
    {
      "anonymous": false,
      "inputs": [
        {
          "indexed": false,
          "internalType": "uint256",
          "name": "tokenId",
          "type": "uint256"
        },
        {
          "indexed": false,
          "internalType": "string",
          "name": "tokenUri",
          "type": "string"
        },
        {
          "components": [
            {
              "internalType": "uint8",
              "name": "x",
              "type": "uint8"
            },
            {
              "internalType": "uint8",
              "name": "y",
              "type": "uint8"
            },
            {
              "internalType": "uint8",
              "name": "z",
              "type": "uint8"
            }
          ],
          "indexed": false,
          "internalType": "struct BaseObject.Size",
          "name": "size",
          "type": "tuple"
        },
        {
          "indexed": false,
          "internalType": "address payable",
          "name": "creator",
          "type": "address"
        },
        {
          "indexed": false,
          "internalType": "uint256",
          "name": "maxClaimed",
          "type": "uint256"
        },
        {
          "indexed": false,
          "internalType": "uint256",
          "name": "price",
          "type": "uint256"
        }
      ],
      "name": "CreateWallPaper",
      "type": "event"
    },
    {
      "anonymous": false,
      "inputs": [
        {
          "indexed": true,
          "internalType": "address",
          "name": "sender",
          "type": "address"
        },
        {
          "indexed": false,
          "internalType": "uint256",
          "name": "tokenId",
          "type": "uint256"
        },
        {
          "indexed": false,
          "internalType": "uint256",
          "name": "value",
          "type": "uint256"
        }
      ],
      "name": "LogBuyWallPaper",
      "type": "event"
    },
    {
      "anonymous": false,
      "inputs": [
        {
          "indexed": true,
          "internalType": "address",
          "name": "operator",
          "type": "address"
        },
        {
          "indexed": true,
          "internalType": "address",
          "name": "target",
          "type": "address"
        }
      ],
      "name": "OwnershipGranted",
      "type": "event"
    },
    {
      "anonymous": false,
      "inputs": [
        {
          "indexed": true,
          "internalType": "address",
          "name": "operator",
          "type": "address"
        },
        {
          "indexed": true,
          "internalType": "address",
          "name": "target",
          "type": "address"
        }
      ],
      "name": "OwnershipRemoved",
      "type": "event"
    },
    {
      "anonymous": false,
      "inputs": [
        {
          "indexed": false,
          "internalType": "uint256",
          "name": "amount",
          "type": "uint256"
        }
      ],
      "name": "PaymentReceivedOwner",
      "type": "event"
    },
    {
      "anonymous": false,
      "inputs": [
        {
          "indexed": false,
          "internalType": "uint256",
          "name": "amount",
          "type": "uint256"
        }
      ],
      "name": "PaymentWithdrawnOwner",
      "type": "event"
    },
    {
      "anonymous": false,
      "inputs": [
        {
          "indexed": false,
          "internalType": "uint256",
          "name": "tokenId",
          "type": "uint256"
        },
        {
          "indexed": false,
          "internalType": "address payable",
          "name": "creator",
          "type": "address"
        }
      ],
      "name": "SetCreator",
      "type": "event"
    },
    {
      "anonymous": false,
      "inputs": [
        {
          "indexed": false,
          "internalType": "uint256",
          "name": "tokenId",
          "type": "uint256"
        },
        {
          "indexed": false,
          "internalType": "uint256",
          "name": "exp",
          "type": "uint256"
        }
      ],
      "name": "SetExp",
      "type": "event"
    },
    {
      "anonymous": false,
      "inputs": [
        {
          "indexed": false,
          "internalType": "uint256",
          "name": "tokenId",
          "type": "uint256"
        },
        {
          "indexed": false,
          "internalType": "uint256",
          "name": "newMaxClaimed",
          "type": "uint256"
        }
      ],
      "name": "SetMaxClaimed",
      "type": "event"
    },
    {
      "anonymous": false,
      "inputs": [
        {
          "indexed": false,
          "internalType": "uint256",
          "name": "tokenId",
          "type": "uint256"
        },
        {
          "indexed": false,
          "internalType": "bool",
          "name": "check",
          "type": "bool"
        }
      ],
      "name": "SetOpenForSale",
      "type": "event"
    },
    {
      "anonymous": false,
      "inputs": [
        {
          "indexed": false,
          "internalType": "uint256",
          "name": "royalityFee",
          "type": "uint256"
        }
      ],
      "name": "SetRoyalityFee",
      "type": "event"
    },
    {
      "anonymous": false,
      "inputs": [
        {
          "indexed": false,
          "internalType": "uint256",
          "name": "secondaryRoyalty",
          "type": "uint256"
        }
      ],
      "name": "SetSecondaryRoyalityFee",
      "type": "event"
    },
    {
      "anonymous": false,
      "inputs": [
        {
          "indexed": false,
          "internalType": "address",
          "name": "shopAddress",
          "type": "address"
        }
      ],
      "name": "SetShopAddress",
      "type": "event"
    },
    {
      "anonymous": false,
      "inputs": [
        {
          "indexed": false,
          "internalType": "uint256",
          "name": "tokenId",
          "type": "uint256"
        },
        {
          "indexed": false,
          "internalType": "uint8",
          "name": "x",
          "type": "uint8"
        },
        {
          "indexed": false,
          "internalType": "uint8",
          "name": "y",
          "type": "uint8"
        },
        {
          "indexed": false,
          "internalType": "uint8",
          "name": "z",
          "type": "uint8"
        }
      ],
      "name": "SetSize",
      "type": "event"
    },
    {
      "anonymous": false,
      "inputs": [
        {
          "indexed": false,
          "internalType": "uint256",
          "name": "tokenId",
          "type": "uint256"
        },
        {
          "indexed": false,
          "internalType": "string",
          "name": "uri",
          "type": "string"
        }
      ],
      "name": "SetTokenURI",
      "type": "event"
    },
    {
      "anonymous": false,
      "inputs": [
        {
          "indexed": false,
          "internalType": "address payable",
          "name": "treasuryAddress",
          "type": "address"
        }
      ],
      "name": "SetTreasuryAddress",
      "type": "event"
    },
    {
      "anonymous": false,
      "inputs": [
        {
          "indexed": false,
          "internalType": "string",
          "name": "baseuri",
          "type": "string"
        }
      ],
      "name": "SetbaseMetadataURI",
      "type": "event"
    },
    {
      "anonymous": false,
      "inputs": [
        {
          "indexed": true,
          "internalType": "address",
          "name": "operator",
          "type": "address"
        },
        {
          "indexed": true,
          "internalType": "address",
          "name": "from",
          "type": "address"
        },
        {
          "indexed": true,
          "internalType": "address",
          "name": "to",
          "type": "address"
        },
        {
          "indexed": false,
          "internalType": "uint256[]",
          "name": "ids",
          "type": "uint256[]"
        },
        {
          "indexed": false,
          "internalType": "uint256[]",
          "name": "values",
          "type": "uint256[]"
        }
      ],
      "name": "TransferBatch",
      "type": "event"
    },
    {
      "anonymous": false,
      "inputs": [
        {
          "indexed": true,
          "internalType": "address",
          "name": "operator",
          "type": "address"
        },
        {
          "indexed": true,
          "internalType": "address",
          "name": "from",
          "type": "address"
        },
        {
          "indexed": true,
          "internalType": "address",
          "name": "to",
          "type": "address"
        },
        {
          "indexed": false,
          "internalType": "uint256",
          "name": "id",
          "type": "uint256"
        },
        {
          "indexed": false,
          "internalType": "uint256",
          "name": "value",
          "type": "uint256"
        }
      ],
      "name": "TransferSingle",
      "type": "event"
    },
    {
      "anonymous": false,
      "inputs": [
        {
          "indexed": false,
          "internalType": "string",
          "name": "value",
          "type": "string"
        },
        {
          "indexed": true,
          "internalType": "uint256",
          "name": "id",
          "type": "uint256"
        }
      ],
      "name": "URI",
      "type": "event"
    },
    {
      "inputs": [
        {
          "internalType": "uint256",
          "name": "",
          "type": "uint256"
        }
      ],
      "name": "allObjects",
      "outputs": [
        {
          "internalType": "string",
          "name": "tokenURI",
          "type": "string"
        },
        {
          "components": [
            {
              "internalType": "uint8",
              "name": "x",
              "type": "uint8"
            },
            {
              "internalType": "uint8",
              "name": "y",
              "type": "uint8"
            },
            {
              "internalType": "uint8",
              "name": "z",
              "type": "uint8"
            }
          ],
          "internalType": "struct BaseObject.Size",
          "name": "size",
          "type": "tuple"
        },
        {
          "internalType": "address payable",
          "name": "creator",
          "type": "address"
        },
        {
          "internalType": "uint256",
          "name": "maxClaimed",
          "type": "uint256"
        },
        {
          "internalType": "uint256",
          "name": "price",
          "type": "uint256"
        },
        {
          "internalType": "uint256",
          "name": "exp",
          "type": "uint256"
        },
        {
          "internalType": "bool",
          "name": "forSale",
          "type": "bool"
        }
      ],
      "stateMutability": "view",
      "type": "function"
    },
    {
      "inputs": [
        {
          "internalType": "address",
          "name": "account",
          "type": "address"
        },
        {
          "internalType": "uint256",
          "name": "id",
          "type": "uint256"
        }
      ],
      "name": "balanceOf",
      "outputs": [
        {
          "internalType": "uint256",
          "name": "",
          "type": "uint256"
        }
      ],
      "stateMutability": "view",
      "type": "function"
    },
    {
      "inputs": [
        {
          "internalType": "address[]",
          "name": "accounts",
          "type": "address[]"
        },
        {
          "internalType": "uint256[]",
          "name": "ids",
          "type": "uint256[]"
        }
      ],
      "name": "balanceOfBatch",
      "outputs": [
        {
          "internalType": "uint256[]",
          "name": "",
          "type": "uint256[]"
        }
      ],
      "stateMutability": "view",
      "type": "function"
    },
    {
      "inputs": [],
      "name": "baseMetadataURI",
      "outputs": [
        {
          "internalType": "string",
          "name": "",
          "type": "string"
        }
      ],
      "stateMutability": "view",
      "type": "function"
    },
    {
      "inputs": [
        {
          "internalType": "uint256[]",
          "name": "tokenIds",
          "type": "uint256[]"
        }
      ],
      "name": "batchWallPaper",
      "outputs": [],
      "stateMutability": "payable",
      "type": "function"
    },
    {
      "inputs": [
        {
          "internalType": "address",
          "name": "to",
          "type": "address"
        },
        {
          "internalType": "uint256[]",
          "name": "tokenIds",
          "type": "uint256[]"
        }
      ],
      "name": "batchWallPaperFromShop",
      "outputs": [],
      "stateMutability": "payable",
      "type": "function"
    },
    {
      "inputs": [
        {
          "internalType": "uint256",
          "name": "tokenId",
          "type": "uint256"
        },
        {
          "internalType": "uint256",
          "name": "newPrice",
          "type": "uint256"
        }
      ],
      "name": "changeTokenPrice",
      "outputs": [],
      "stateMutability": "nonpayable",
      "type": "function"
    },
    {
      "inputs": [
        {
          "internalType": "uint256",
          "name": "tokenId",
          "type": "uint256"
        },
        {
          "internalType": "string",
          "name": "tokenUri",
          "type": "string"
        },
        {
          "components": [
            {
              "internalType": "uint8",
              "name": "x",
              "type": "uint8"
            },
            {
              "internalType": "uint8",
              "name": "y",
              "type": "uint8"
            },
            {
              "internalType": "uint8",
              "name": "z",
              "type": "uint8"
            }
          ],
          "internalType": "struct BaseObject.Size",
          "name": "size",
          "type": "tuple"
        },
        {
          "internalType": "address payable",
          "name": "creator",
          "type": "address"
        },
        {
          "internalType": "uint256",
          "name": "maxClaimed",
          "type": "uint256"
        },
        {
          "internalType": "uint256",
          "name": "price",
          "type": "uint256"
        }
      ],
      "name": "createWallPaper",
      "outputs": [],
      "stateMutability": "nonpayable",
      "type": "function"
    },
    {
      "inputs": [
        {
          "internalType": "uint256",
          "name": "",
          "type": "uint256"
        }
      ],
      "name": "created",
      "outputs": [
        {
          "internalType": "bool",
          "name": "",
          "type": "bool"
        }
      ],
      "stateMutability": "view",
      "type": "function"
    },
    {
      "inputs": [
        {
          "internalType": "uint256",
          "name": "id",
          "type": "uint256"
        }
      ],
      "name": "exists",
      "outputs": [
        {
          "internalType": "bool",
          "name": "",
          "type": "bool"
        }
      ],
      "stateMutability": "view",
      "type": "function"
    },
    {
      "inputs": [
        {
          "internalType": "uint256",
          "name": "tokenId",
          "type": "uint256"
        }
      ],
      "name": "getCreatorAddress",
      "outputs": [
        {
          "internalType": "address payable",
          "name": "",
          "type": "address"
        }
      ],
      "stateMutability": "view",
      "type": "function"
    },
    {
      "inputs": [
        {
          "internalType": "uint256",
          "name": "tokenId",
          "type": "uint256"
        }
      ],
      "name": "getExp",
      "outputs": [
        {
          "internalType": "uint256",
          "name": "",
          "type": "uint256"
        }
      ],
      "stateMutability": "view",
      "type": "function"
    },
    {
      "inputs": [
        {
          "internalType": "uint256",
          "name": "tokenId",
          "type": "uint256"
        }
      ],
      "name": "getMaxClaimed",
      "outputs": [
        {
          "internalType": "uint256",
          "name": "",
          "type": "uint256"
        }
      ],
      "stateMutability": "view",
      "type": "function"
    },
    {
      "inputs": [
        {
          "internalType": "uint256",
          "name": "tokenId",
          "type": "uint256"
        }
      ],
      "name": "getObjectInfo",
      "outputs": [
        {
          "components": [
            {
              "internalType": "string",
              "name": "tokenURI",
              "type": "string"
            },
            {
              "components": [
                {
                  "internalType": "uint8",
                  "name": "x",
                  "type": "uint8"
                },
                {
                  "internalType": "uint8",
                  "name": "y",
                  "type": "uint8"
                },
                {
                  "internalType": "uint8",
                  "name": "z",
                  "type": "uint8"
                }
              ],
              "internalType": "struct BaseObject.Size",
              "name": "size",
              "type": "tuple"
            },
            {
              "internalType": "address payable",
              "name": "creator",
              "type": "address"
            },
            {
              "internalType": "uint256",
              "name": "maxClaimed",
              "type": "uint256"
            },
            {
              "internalType": "uint256",
              "name": "price",
              "type": "uint256"
            },
            {
              "internalType": "uint256",
              "name": "exp",
              "type": "uint256"
            },
            {
              "internalType": "bool",
              "name": "forSale",
              "type": "bool"
            }
          ],
          "internalType": "struct BaseObject.Object",
          "name": "",
          "type": "tuple"
        }
      ],
      "stateMutability": "view",
      "type": "function"
    },
    {
      "inputs": [
        {
          "internalType": "uint256[]",
          "name": "tokenIds",
          "type": "uint256[]"
        }
      ],
      "name": "getObjectsPrice",
      "outputs": [
        {
          "internalType": "uint256",
          "name": "",
          "type": "uint256"
        }
      ],
      "stateMutability": "view",
      "type": "function"
    },
    {
      "inputs": [
        {
          "internalType": "uint256",
          "name": "tokenId",
          "type": "uint256"
        }
      ],
      "name": "getOpenForSale",
      "outputs": [
        {
          "internalType": "bool",
          "name": "",
          "type": "bool"
        }
      ],
      "stateMutability": "view",
      "type": "function"
    },
    {
      "inputs": [
        {
          "internalType": "uint256",
          "name": "tokenId",
          "type": "uint256"
        }
      ],
      "name": "getSize",
      "outputs": [
        {
          "components": [
            {
              "internalType": "uint8",
              "name": "x",
              "type": "uint8"
            },
            {
              "internalType": "uint8",
              "name": "y",
              "type": "uint8"
            },
            {
              "internalType": "uint8",
              "name": "z",
              "type": "uint8"
            }
          ],
          "internalType": "struct BaseObject.Size",
          "name": "",
          "type": "tuple"
        }
      ],
      "stateMutability": "view",
      "type": "function"
    },
    {
      "inputs": [
        {
          "internalType": "uint256",
          "name": "tokenId",
          "type": "uint256"
        }
      ],
      "name": "getTokenPrice",
      "outputs": [
        {
          "internalType": "uint256",
          "name": "",
          "type": "uint256"
        }
      ],
      "stateMutability": "view",
      "type": "function"
    },
    {
      "inputs": [
        {
          "internalType": "uint256",
          "name": "tokenId",
          "type": "uint256"
        }
      ],
      "name": "getTokenURI",
      "outputs": [
        {
          "internalType": "string",
          "name": "",
          "type": "string"
        }
      ],
      "stateMutability": "view",
      "type": "function"
    },
    {
      "inputs": [
        {
          "internalType": "address",
          "name": "account",
          "type": "address"
        },
        {
          "internalType": "address",
          "name": "operator",
          "type": "address"
        }
      ],
      "name": "isApprovedForAll",
      "outputs": [
        {
          "internalType": "bool",
          "name": "",
          "type": "bool"
        }
      ],
      "stateMutability": "view",
      "type": "function"
    },
    {
      "inputs": [],
      "name": "name",
      "outputs": [
        {
          "internalType": "string",
          "name": "",
          "type": "string"
        }
      ],
      "stateMutability": "view",
      "type": "function"
    },
    {
      "inputs": [
        {
          "internalType": "address",
          "name": "targetAddress",
          "type": "address"
        }
      ],
      "name": "ownerCheck",
      "outputs": [
        {
          "internalType": "bool",
          "name": "",
          "type": "bool"
        }
      ],
      "stateMutability": "view",
      "type": "function"
    },
    {
      "inputs": [],
      "name": "paymentBalanceOwner",
      "outputs": [
        {
          "internalType": "uint256",
          "name": "",
          "type": "uint256"
        }
      ],
      "stateMutability": "view",
      "type": "function"
    },
    {
      "inputs": [],
      "name": "phiMapAddress",
      "outputs": [
        {
          "internalType": "address",
          "name": "",
          "type": "address"
        }
      ],
      "stateMutability": "view",
      "type": "function"
    },
    {
      "inputs": [
        {
          "internalType": "address",
          "name": "oldOwner",
          "type": "address"
        }
      ],
      "name": "removeOwner",
      "outputs": [],
      "stateMutability": "nonpayable",
      "type": "function"
    },
    {
      "inputs": [],
      "name": "royalityFee",
      "outputs": [
        {
          "internalType": "uint256",
          "name": "",
          "type": "uint256"
        }
      ],
      "stateMutability": "view",
      "type": "function"
    },
    {
      "inputs": [
        {
          "internalType": "uint256",
          "name": "",
          "type": "uint256"
        },
        {
          "internalType": "uint256",
          "name": "salePrice",
          "type": "uint256"
        }
      ],
      "name": "royaltyInfo",
      "outputs": [
        {
          "internalType": "address",
          "name": "receiver",
          "type": "address"
        },
        {
          "internalType": "uint256",
          "name": "royaltyAmount",
          "type": "uint256"
        }
      ],
      "stateMutability": "view",
      "type": "function"
    },
    {
      "inputs": [
        {
          "internalType": "address",
          "name": "from",
          "type": "address"
        },
        {
          "internalType": "address",
          "name": "to",
          "type": "address"
        },
        {
          "internalType": "uint256[]",
          "name": "ids",
          "type": "uint256[]"
        },
        {
          "internalType": "uint256[]",
          "name": "amounts",
          "type": "uint256[]"
        },
        {
          "internalType": "bytes",
          "name": "data",
          "type": "bytes"
        }
      ],
      "name": "safeBatchTransferFrom",
      "outputs": [],
      "stateMutability": "nonpayable",
      "type": "function"
    },
    {
      "inputs": [
        {
          "internalType": "address",
          "name": "from",
          "type": "address"
        },
        {
          "internalType": "address",
          "name": "to",
          "type": "address"
        },
        {
          "internalType": "uint256",
          "name": "id",
          "type": "uint256"
        },
        {
          "internalType": "uint256",
          "name": "amount",
          "type": "uint256"
        },
        {
          "internalType": "bytes",
          "name": "data",
          "type": "bytes"
        }
      ],
      "name": "safeTransferFrom",
      "outputs": [],
      "stateMutability": "nonpayable",
      "type": "function"
    },
    {
      "inputs": [],
      "name": "secondaryRoyalty",
      "outputs": [
        {
          "internalType": "uint256",
          "name": "",
          "type": "uint256"
        }
      ],
      "stateMutability": "view",
      "type": "function"
    },
    {
      "inputs": [
        {
          "internalType": "address",
          "name": "operator",
          "type": "address"
        },
        {
          "internalType": "bool",
          "name": "approved",
          "type": "bool"
        }
      ],
      "name": "setApprovalForAll",
      "outputs": [],
      "stateMutability": "nonpayable",
      "type": "function"
    },
    {
      "inputs": [
        {
          "internalType": "uint256",
          "name": "tokenId",
          "type": "uint256"
        },
        {
          "internalType": "address payable",
          "name": "creator",
          "type": "address"
        }
      ],
      "name": "setCreatorAddress",
      "outputs": [],
      "stateMutability": "nonpayable",
      "type": "function"
    },
    {
      "inputs": [
        {
          "internalType": "uint256",
          "name": "tokenId",
          "type": "uint256"
        },
        {
          "internalType": "uint256",
          "name": "exp",
          "type": "uint256"
        }
      ],
      "name": "setExp",
      "outputs": [],
      "stateMutability": "nonpayable",
      "type": "function"
    },
    {
      "inputs": [
        {
          "internalType": "uint256",
          "name": "tokenId",
          "type": "uint256"
        },
        {
          "internalType": "uint256",
          "name": "newMaxClaimed",
          "type": "uint256"
        }
      ],
      "name": "setMaxClaimed",
      "outputs": [],
      "stateMutability": "nonpayable",
      "type": "function"
    },
    {
      "inputs": [
        {
          "internalType": "uint256",
          "name": "tokenId",
          "type": "uint256"
        },
        {
          "internalType": "bool",
          "name": "check",
          "type": "bool"
        }
      ],
      "name": "setOpenForSale",
      "outputs": [],
      "stateMutability": "nonpayable",
      "type": "function"
    },
    {
      "inputs": [
        {
          "internalType": "address",
          "name": "newOwner",
          "type": "address"
        }
      ],
      "name": "setOwner",
      "outputs": [],
      "stateMutability": "nonpayable",
      "type": "function"
    },
    {
      "inputs": [
        {
          "internalType": "uint256",
          "name": "newRoyalityFee",
          "type": "uint256"
        }
      ],
      "name": "setRoyalityFee",
      "outputs": [],
      "stateMutability": "nonpayable",
      "type": "function"
    },
    {
      "inputs": [
        {
          "internalType": "uint256",
          "name": "newSecondaryRoyalty",
          "type": "uint256"
        }
      ],
      "name": "setSecondaryRoyalityFee",
      "outputs": [],
      "stateMutability": "nonpayable",
      "type": "function"
    },
    {
      "inputs": [
        {
          "internalType": "address",
          "name": "_shopAddress",
          "type": "address"
        }
      ],
      "name": "setShopAddress",
      "outputs": [],
      "stateMutability": "nonpayable",
      "type": "function"
    },
    {
      "inputs": [
        {
          "internalType": "uint256",
          "name": "tokenId",
          "type": "uint256"
        },
        {
          "components": [
            {
              "internalType": "uint8",
              "name": "x",
              "type": "uint8"
            },
            {
              "internalType": "uint8",
              "name": "y",
              "type": "uint8"
            },
            {
              "internalType": "uint8",
              "name": "z",
              "type": "uint8"
            }
          ],
          "internalType": "struct BaseObject.Size",
          "name": "size",
          "type": "tuple"
        }
      ],
      "name": "setSize",
      "outputs": [],
      "stateMutability": "nonpayable",
      "type": "function"
    },
    {
      "inputs": [
        {
          "internalType": "uint256",
          "name": "tokenId",
          "type": "uint256"
        },
        {
          "internalType": "string",
          "name": "uri",
          "type": "string"
        }
      ],
      "name": "setTokenURI",
      "outputs": [],
      "stateMutability": "nonpayable",
      "type": "function"
    },
    {
      "inputs": [
        {
          "internalType": "address payable",
          "name": "newTreasuryAddress",
          "type": "address"
        }
      ],
      "name": "setTreasuryAddress",
      "outputs": [],
      "stateMutability": "nonpayable",
      "type": "function"
    },
    {
      "inputs": [
        {
          "internalType": "string",
          "name": "newBaseMetadataURI",
          "type": "string"
        }
      ],
      "name": "setbaseMetadataURI",
      "outputs": [],
      "stateMutability": "nonpayable",
      "type": "function"
    },
    {
      "inputs": [],
      "name": "shopAddress",
      "outputs": [
        {
          "internalType": "address",
          "name": "",
          "type": "address"
        }
      ],
      "stateMutability": "view",
      "type": "function"
    },
    {
      "inputs": [
        {
          "internalType": "bytes4",
          "name": "interfaceId",
          "type": "bytes4"
        }
      ],
      "name": "supportsInterface",
      "outputs": [
        {
          "internalType": "bool",
          "name": "",
          "type": "bool"
        }
      ],
      "stateMutability": "view",
      "type": "function"
    },
    {
      "inputs": [],
      "name": "symbol",
      "outputs": [
        {
          "internalType": "string",
          "name": "",
          "type": "string"
        }
      ],
      "stateMutability": "view",
      "type": "function"
    },
    {
      "inputs": [
        {
          "internalType": "uint256",
          "name": "id",
          "type": "uint256"
        }
      ],
      "name": "totalSupply",
      "outputs": [
        {
          "internalType": "uint256",
          "name": "",
          "type": "uint256"
        }
      ],
      "stateMutability": "view",
      "type": "function"
    },
    {
      "inputs": [],
      "name": "treasuryAddress",
      "outputs": [
        {
          "internalType": "address payable",
          "name": "",
          "type": "address"
        }
      ],
      "stateMutability": "view",
      "type": "function"
    },
    {
      "inputs": [
        {
          "internalType": "uint256",
          "name": "tokenId",
          "type": "uint256"
        }
      ],
      "name": "uri",
      "outputs": [
        {
          "internalType": "string",
          "name": "",
          "type": "string"
        }
      ],
      "stateMutability": "view",
      "type": "function"
    },
    {
      "inputs": [
        {
          "internalType": "address",
          "name": "withdrawTo",
          "type": "address"
        }
      ],
      "name": "withdrawOwnerBalance",
      "outputs": [],
      "stateMutability": "nonpayable",
      "type": "function"
    },
    {
      "stateMutability": "payable",
      "type": "receive"
    }
  ],
  "bytecode": "0x60a06040523480156200001157600080fd5b50604051620045c7380380620045c78339810160408190526200003491620002c0565b604080516020808201835260008083523381529081905291909120805460ff1916600190811790915580556200006a81620001e8565b506001600160a01b038216620000bc5760405162461bcd60e51b8152602060048201526012602482015271063616e7420736574206164647265737320360741b60448201526064015b60405180910390fd5b6001600160a01b038116620001095760405162461bcd60e51b8152602060048201526012602482015271063616e7420736574206164647265737320360741b6044820152606401620000b3565b60408051808201909152600b8082526a15195cdd0813d89a9958dd60aa1b60209092019182526200013d9160029162000201565b50604080518082019091526008808252675465737420574f5360c01b60209092019182526200016f9160039162000201565b506040805180820190915260188082527f68747470733a2f2f7777772e617277656176652e6e65742f00000000000000006020909201918252620001b69160049162000201565b50600680546001600160a01b0319166001600160a01b039384161790551660805260006007556101f46008556200033b565b8051620001fd90600e90602084019062000201565b5050565b8280546200020f90620002ff565b90600052602060002090601f0160209004810192826200023357600085556200027e565b82601f106200024e57805160ff19168380011785556200027e565b828001600101855582156200027e579182015b828111156200027e57825182559160200191906001019062000261565b506200028c92915062000290565b5090565b5b808211156200028c576000815560010162000291565b6001600160a01b0381168114620002bd57600080fd5b50565b60008060408385031215620002d457600080fd5b8251620002e181620002a7565b6020840151909250620002f481620002a7565b809150509250929050565b600181811c908216806200031457607f821691505b6020821081036200033557634e487b7160e01b600052602260045260246000fd5b50919050565b6080516142696200035e60003960008181610661015261217001526142696000f3fe60806040526004361061032c5760003560e01c80635b2bd79e116101a5578063a22cb465116100ec578063c457fb3711610095578063e0e0bb3b1161006f578063e0e0bb3b146109fb578063e498922f14610a0e578063e985e9c514610a3e578063f242432a14610a5e57600080fd5b8063c457fb3714610978578063c5f956af146109a8578063cbdac710146109c857600080fd5b8063b6ed6da9116100c6578063b6ed6da91461090b578063bd85b0391461092b578063bfdc4fdf1461095857600080fd5b8063a22cb46514610892578063a30b4db9146108b2578063a6a41a29146108eb57600080fd5b80637b92e5491161014e57806395d89b411161012857806395d89b411461082d5780639733faa51461084257806398f246821461087257600080fd5b80637b92e549146107d457806382cb6b72146107e75780639291671a1461081757600080fd5b80636605bfda1161017f5780636605bfda1461077457806367478a35146107945780637061d486146107b457600080fd5b80635b2bd79e1461071f578063604c7f801461073457806362e8e8ac1461075457600080fd5b80631d1b29e0116102745780632eb2c2d61161021d5780633bb3a24d116101f75780633bb3a24d146106835780633ec963cb146106a35780634e1273f4146106c35780634f558e79146106f057600080fd5b80632eb2c2d614610619578063326bb4ad1461063957806339b67b6d1461064f57600080fd5b806323bf2f671161024e57806323bf2f671461056e5780632a55205a146105a75780632c383ee8146105e657600080fd5b80631d1b29e0146104f35780631e4c78871461052057806322446fb81461053657600080fd5b80630d09308e116102d6578063162094c4116102b0578063162094c414610493578063162d6cab146104b3578063173825d9146104d357600080fd5b80630d09308e146104335780630e89341c1461045357806313af40351461047357600080fd5b806306fdde031161030757806306fdde03146103d15780630a1eeb0c146103f35780630b68e7961461041357600080fd5b8062fdd58e1461034157806301ffc9a714610374578063023c23db146103a457600080fd5b3661033c5761033a34610a7e565b005b600080fd5b34801561034d57600080fd5b5061036161035c3660046135ba565b610acb565b6040519081526020015b60405180910390f35b34801561038057600080fd5b5061039461038f3660046135fc565b610b79565b604051901515815260200161036b565b3480156103b057600080fd5b506103c46103bf366004613619565b610bc9565b60405161036b9190613632565b3480156103dd57600080fd5b506103e6610c85565b60405161036b91906136bc565b3480156103ff57600080fd5b5061033a61040e3660046136e4565b610d13565b34801561041f57600080fd5b5061033a61042e366004613710565b610da0565b34801561043f57600080fd5b5061033a61044e366004613710565b610e1b565b34801561045f57600080fd5b506103e661046e366004613619565b610e96565b34801561047f57600080fd5b5061033a61048e366004613732565b610efa565b34801561049f57600080fd5b5061033a6104ae366004613806565b610f77565b3480156104bf57600080fd5b5061033a6104ce3660046138cd565b610ff8565b3480156104df57600080fd5b5061033a6104ee366004613732565b6110f5565b3480156104ff57600080fd5b5061051361050e366004613619565b61116f565b60405161036b919061394b565b34801561052c57600080fd5b5061036160095481565b34801561054257600080fd5b50600554610556906001600160a01b031681565b6040516001600160a01b03909116815260200161036b565b34801561057a57600080fd5b50610394610589366004613732565b6001600160a01b031660009081526020819052604090205460ff1690565b3480156105b357600080fd5b506105c76105c2366004613710565b611302565b604080516001600160a01b03909316835260208301919091520161036b565b3480156105f257600080fd5b50610394610601366004613619565b6000908152600a602052604090206006015460ff1690565b34801561062557600080fd5b5061033a610634366004613a7c565b61132d565b34801561064557600080fd5b5061036160075481565b34801561065b57600080fd5b506105567f000000000000000000000000000000000000000000000000000000000000000081565b34801561068f57600080fd5b506103e661069e366004613619565b6113cf565b3480156106af57600080fd5b5061033a6106be366004613732565b611471565b3480156106cf57600080fd5b506106e36106de366004613b2a565b611503565b60405161036b9190613c28565b3480156106fc57600080fd5b5061039461070b366004613619565b6000908152600f6020526040902054151590565b34801561072b57600080fd5b506103e6611641565b34801561074057600080fd5b5061033a61074f366004613c3b565b61164e565b34801561076057600080fd5b5061033a61076f366004613710565b611710565b34801561078057600080fd5b5061033a61078f366004613732565b61178b565b3480156107a057600080fd5b5061033a6107af366004613732565b611862565b3480156107c057600080fd5b5061033a6107cf366004613619565b611a10565b61033a6107e2366004613c5f565b611a75565b3480156107f357600080fd5b50610394610802366004613619565b600b6020526000908152604090205460ff1681565b34801561082357600080fd5b5061036160085481565b34801561083957600080fd5b506103e6611c82565b34801561084e57600080fd5b5061036161085d366004613619565b6000908152600a602052604090206003015490565b34801561087e57600080fd5b5061033a61088d366004613619565b611c8f565b34801561089e57600080fd5b5061033a6108ad366004613c9c565b611cf4565b3480156108be57600080fd5b506105566108cd366004613619565b6000908152600a60205260409020600201546001600160a01b031690565b3480156108f757600080fd5b50610361610906366004613c5f565b611d03565b34801561091757600080fd5b5061033a610926366004613cc8565b611d6a565b34801561093757600080fd5b50610361610946366004613619565b6000908152600f602052604090205490565b34801561096457600080fd5b5061033a610973366004613cfd565b611ddd565b34801561098457600080fd5b50610361610993366004613619565b6000908152600a602052604090206004015490565b3480156109b457600080fd5b50600654610556906001600160a01b031681565b3480156109d457600080fd5b506109e86109e3366004613619565b611ec8565b60405161036b9796959493929190613d2d565b61033a610a09366004613da6565b611fc6565b348015610a1a57600080fd5b50610361610a29366004613619565b6000908152600a602052604090206005015490565b348015610a4a57600080fd5b50610394610a59366004613dec565b61216c565b348015610a6a57600080fd5b5061033a610a79366004613e1a565b6121e0565b6040518181527faab58724194bfb12b018298382453c333764e73d19ec73cb98d26f8dd10d29cc9060200160405180910390a18060096000828254610ac39190613e99565b909155505050565b60006001600160a01b038316610b4e5760405162461bcd60e51b815260206004820152602b60248201527f455243313135353a2062616c616e636520717565727920666f7220746865207a60448201527f65726f206164647265737300000000000000000000000000000000000000000060648201526084015b60405180910390fd5b506000818152600c602090815260408083206001600160a01b03861684529091529020545b92915050565b60006001600160e01b03198216636cdb3d1360e11b1480610baa57506001600160e01b031982166303a24d0760e21b145b80610b7357506301ffc9a760e01b6001600160e01b0319831614610b73565b60408051606081018252600080825260208201819052918101919091526000828152600a602052604090206001015460ff161580610c1e57506000828152600a6020526040902060010154610100900460ff16155b15610c3c5760405163a8e3a97360e01b815260040160405180910390fd5b506000908152600a6020908152604091829020825160608101845260019091015460ff808216835261010082048116938301939093526201000090049091169181019190915290565b60028054610c9290613eb1565b80601f0160208091040260200160405190810160405280929190818152602001828054610cbe90613eb1565b8015610d0b5780601f10610ce057610100808354040283529160200191610d0b565b820191906000526020600020905b815481529060010190602001808311610cee57829003601f168201915b505050505081565b3360009081526020819052604090205460ff16610d43576040516349e27cff60e01b815260040160405180910390fd5b6000828152600a6020908152604091829020600601805460ff19168415159081179091558251858152918201527fd24cd22e1990320c8f339b920aee0413e3ac1cfdfb6200d6d967befa1fa1573c91015b60405180910390a15050565b3360009081526020819052604090205460ff16610dd0576040516349e27cff60e01b815260040160405180910390fd5b6000828152600a602090815260409182902060050183905581518481529081018390527f1e1ef21dc18e8f45f4e05a47d70fbffe8371dbcc8b4815e8dbca1dbd620c43669101610d94565b3360009081526020819052604090205460ff16610e4b576040516349e27cff60e01b815260040160405180910390fd5b6000828152600a602090815260409182902060030183905581518481529081018390527fad41bb8f5516e8c7946d99bc48fd3ff0a07239c8ffcf2d103a0612b9ab44a60a9101610d94565b6000818152600b602052604090205460609060ff16610ec857604051636aa2a93760e01b815260040160405180910390fd5b6004610ed3836113cf565b604051602001610ee4929190613f07565b6040516020818303038152906040529050919050565b3360009081526020819052604090205460ff16610f2a576040516349e27cff60e01b815260040160405180910390fd5b6001600160a01b038116600081815260208190526040808220805460ff191660011790555133917f619792ba07bec101df538ab277befa333e4cf1c0274f11de7be2a9507b9c9a0691a350565b3360009081526020819052604090205460ff16610fa7576040516349e27cff60e01b815260040160405180910390fd5b6000828152600a602090815260409091208251610fc69284019061350c565b507fd2d827dddfc9c9a02afc5fc68d3251684b36e213a7999ebd90a861f25df4077e8282604051610d94929190613fad565b3360009081526020819052604090205460ff16611028576040516349e27cff60e01b815260040160405180910390fd5b6000868152600f602052604090205415611055576040516387cf36d160e01b815260040160405180910390fd5b61105f8686610f77565b611069868561164e565b6110738684611ddd565b61107d8683610e1b565b6110878682611710565b611092866001610d13565b6000868152600b602052604090819020805460ff19166001179055517f31f6039824f388e11e1263c1c0517cc34345ba83cd17b29c533bcc39d60d31b0906110e590889088908890889088908890613fc6565b60405180910390a1505050505050565b3360009081526020819052604090205460ff16611125576040516349e27cff60e01b815260040160405180910390fd5b6001600160a01b038116600081815260208190526040808220805460ff191690555133917fc191551a88c5609788f3532bd94c06479b61b0040eec65f9cd985428ffea643091a350565b6111d26040805160e08101825260608082528251908101835260008082526020828101829052938201529091820190815260200160006001600160a01b031681526020016000815260200160008152602001600081526020016000151581525090565b6000828152600a602052604090819020815160e081019092528054829082906111fa90613eb1565b80601f016020809104026020016040519081016040528092919081815260200182805461122690613eb1565b80156112735780601f1061124857610100808354040283529160200191611273565b820191906000526020600020905b81548152906001019060200180831161125657829003601f168201915b50505091835250506040805160608082018352600185015460ff808216845261010082048116602085810191909152620100009092048116848601529085019290925260028501546001600160a01b03169284019290925260038401549183019190915260048301546080830152600583015460a0830152600690920154909116151560c09091015292915050565b60008030612710600854856113179190614036565b611321919061406b565b915091505b9250929050565b6001600160a01b0385163314806113495750611349853361216c565b6113bb5760405162461bcd60e51b815260206004820152603260248201527f455243313135353a207472616e736665722063616c6c6572206973206e6f742060448201527f6f776e6572206e6f7220617070726f76656400000000000000000000000000006064820152608401610b45565b6113c8858585858561227b565b5050505050565b6000818152600a602052604090208054606091906113ec90613eb1565b80601f016020809104026020016040519081016040528092919081815260200182805461141890613eb1565b80156114655780601f1061143a57610100808354040283529160200191611465565b820191906000526020600020905b81548152906001019060200180831161144857829003601f168201915b50505050509050919050565b3360009081526020819052604090205460ff166114a1576040516349e27cff60e01b815260040160405180910390fd5b6005805473ffffffffffffffffffffffffffffffffffffffff19166001600160a01b0383169081179091556040519081527fcefd22c602a88b1f72d74d02bad4b2cb1e05e85530bb77114da7c723d2aca9db906020015b60405180910390a150565b6060815183511461157c5760405162461bcd60e51b815260206004820152602960248201527f455243313135353a206163636f756e747320616e6420696473206c656e67746860448201527f206d69736d6174636800000000000000000000000000000000000000000000006064820152608401610b45565b6000835167ffffffffffffffff8111156115985761159861374f565b6040519080825280602002602001820160405280156115c1578160200160208202803683370190505b50905060005b84518110156116395761160c8582815181106115e5576115e561408d565b60200260200101518583815181106115ff576115ff61408d565b6020026020010151610acb565b82828151811061161e5761161e61408d565b6020908102919091010152611632816140a3565b90506115c7565b509392505050565b60048054610c9290613eb1565b3360009081526020819052604090205460ff1661167e576040516349e27cff60e01b815260040160405180910390fd5b6000828152600a6020908152604091829020835160019091018054858401518686015160ff94851661ffff1990931683176101009286169283021762ff000019166201000095909116948502179092558451878152938401529282019290925260608101919091527fd8e7c8605fecaf6228c6b5f990bc7f1e865694cc587ef62fe729b926915ef7e090608001610d94565b3360009081526020819052604090205460ff16611740576040516349e27cff60e01b815260040160405180910390fd5b6000828152600a602090815260409182902060040183905581518481529081018390527f415cf995faccaec43ce108f2713ebcdb2812b0e0689a8fa7dfdcabf78109ebbb9101610d94565b3360009081526020819052604090205460ff166117bb576040516349e27cff60e01b815260040160405180910390fd5b6001600160a01b0381166118075760405162461bcd60e51b815260206004820152601360248201527263616e7420736574206164647265737328302960681b6044820152606401610b45565b6006805473ffffffffffffffffffffffffffffffffffffffff19166001600160a01b0383169081179091556040519081527feee016301a2725a577c64816adf35ccf644d07439731069a31748ec3b9102c60906020016114f8565b3360009081526020819052604090205460ff16611892576040516349e27cff60e01b815260040160405180910390fd5b6002600154036118e45760405162461bcd60e51b815260206004820152601f60248201527f5265656e7472616e637947756172643a207265656e7472616e742063616c6c006044820152606401610b45565b60026001556001600160a01b0381166119355760405162461bcd60e51b815260206004820152601360248201527263616e7420736574206164647265737328302960681b6044820152606401610b45565b60095460000361195857604051632f31015b60e11b815260040160405180910390fd5b600980546000918290556040519091906001600160a01b0384169083908381818185875af1925050503d80600081146119ad576040519150601f19603f3d011682016040523d82523d6000602084013e6119b2565b606091505b50509050806119d457604051632f31015b60e11b815260040160405180910390fd5b6040518281527f2d5923adf91dd211e633a33f2e27918338e6a33e3b3f386e9d466d1bc52eba799060200160405180910390a150506001805550565b3360009081526020819052604090205460ff16611a40576040516349e27cff60e01b815260040160405180910390fd5b60088190556040518181527fb69fdb7c7f7b0e17f64074ea1590642f14193039b234aae7a3c68b26ed055adf906020016114f8565b600260015403611ac75760405162461bcd60e51b815260206004820152601f60248201527f5265656e7472616e637947756172643a207265656e7472616e742063616c6c006044820152606401610b45565b6002600155600033611b1b5760405162461bcd60e51b815260206004820152601860248201527f6d73672073656e64657228302920697320696e76616c696400000000000000006044820152606401610b45565b333214611b6a5760405162461bcd60e51b815260206004820152601260248201527f6d73672073656e64657220696e76616c696400000000000000000000000000006044820152606401610b45565b815160005b81811015611bc457600a6000858381518110611b8d57611b8d61408d565b602002602001015181526020019081526020016000206004015483611bb29190613e99565b9250611bbd816140a3565b9050611b6f565b5081341015611c3b5760405162461bcd60e51b815260206004820152603160248201527f73686f756c6420626520657175616c20746f206f72206d6f7265207468616e2060448201527f74686520746f6b656e27732070726963650000000000000000000000000000006064820152608401610b45565b60005b81811015611c7857611c68848281518110611c5b57611c5b61408d565b60200260200101516124ff565b611c71816140a3565b9050611c3e565b5050600180555050565b60038054610c9290613eb1565b3360009081526020819052604090205460ff16611cbf576040516349e27cff60e01b815260040160405180910390fd5b60078190556040518181527f184fa17d2176718ea1955f61782c763ce239e39e790340793f227b0ba5db53e1906020016114f8565b611cff33838361285e565b5050565b80516000908190815b81811015611d6157600a6000868381518110611d2a57611d2a61408d565b602002602001015181526020019081526020016000206004015483611d4f9190613e99565b9250611d5a816140a3565b9050611d0c565b50909392505050565b3360009081526020819052604090205460ff16611d9a576040516349e27cff60e01b815260040160405180910390fd5b8051611dad90600490602084019061350c565b507ffa52149a99a7016c4576d7bb33adefe5c4372aeded2a98a40f46d6ef33109c4d816040516114f891906136bc565b3360009081526020819052604090205460ff16611e0d576040516349e27cff60e01b815260040160405180910390fd5b6001600160a01b038116611e595760405162461bcd60e51b815260206004820152601360248201527263616e7420736574206164647265737328302960681b6044820152606401610b45565b6000828152600a6020908152604091829020600201805473ffffffffffffffffffffffffffffffffffffffff19166001600160a01b0385169081179091558251858152918201527f02df56823aeec019d75f2c2396e2a9c68868b26ccc5a4cd9412b2a78f8602f739101610d94565b600a60205260009081526040902080548190611ee390613eb1565b80601f0160208091040260200160405190810160405280929190818152602001828054611f0f90613eb1565b8015611f5c5780601f10611f3157610100808354040283529160200191611f5c565b820191906000526020600020905b815481529060010190602001808311611f3f57829003601f168201915b505060408051606081018252600187015460ff80821683526101008204811660208401526201000090910481169282019290925260028701546003880154600489015460058a01546006909a0154989993986001600160a01b039093169750909550935090911687565b6002600154036120185760405162461bcd60e51b815260206004820152601f60248201527f5265656e7472616e637947756172643a207265656e7472616e742063616c6c006044820152606401610b45565b60026001556005546001600160a01b031633146120775760405162461bcd60e51b815260206004820152601260248201527f6d73672073656e64657220696e76616c696400000000000000000000000000006044820152606401610b45565b80516000805b828110156120d257600a600085838151811061209b5761209b61408d565b6020026020010151815260200190815260200160002060040154826120c09190613e99565b91506120cb816140a3565b905061207d565b50803410156121235760405162461bcd60e51b815260206004820152601060248201527f6e6f7420656e6f7567682076616c7565000000000000000000000000000000006044820152606401610b45565b60005b8281101561216157612151858583815181106121445761214461408d565b6020026020010151612952565b61215a816140a3565b9050612126565b505060018055505050565b60007f00000000000000000000000000000000000000000000000000000000000000006001600160a01b0316826001600160a01b0316036121af57506001610b73565b6001600160a01b038084166000908152600d602090815260408083209386168352929052205460ff165b9392505050565b6001600160a01b0385163314806121fc57506121fc853361216c565b61226e5760405162461bcd60e51b815260206004820152602960248201527f455243313135353a2063616c6c6572206973206e6f74206f776e6572206e6f7260448201527f20617070726f76656400000000000000000000000000000000000000000000006064820152608401610b45565b6113c88585858585612cbb565b81518351146122f25760405162461bcd60e51b815260206004820152602860248201527f455243313135353a2069647320616e6420616d6f756e7473206c656e6774682060448201527f6d69736d617463680000000000000000000000000000000000000000000000006064820152608401610b45565b6001600160a01b0384166123565760405162461bcd60e51b815260206004820152602560248201527f455243313135353a207472616e7366657220746f20746865207a65726f206164604482015264647265737360d81b6064820152608401610b45565b33612365818787878787612e78565b60005b84518110156124915760008582815181106123855761238561408d565b6020026020010151905060008583815181106123a3576123a361408d565b6020908102919091018101516000848152600c835260408082206001600160a01b038e1683529093529190912054909150818110156124375760405162461bcd60e51b815260206004820152602a60248201527f455243313135353a20696e73756666696369656e742062616c616e636520666f60448201526939103a3930b739b332b960b11b6064820152608401610b45565b6000838152600c602090815260408083206001600160a01b038e8116855292528083208585039055908b16825281208054849290612476908490613e99565b925050819055505050508061248a906140a3565b9050612368565b50846001600160a01b0316866001600160a01b0316826001600160a01b03167f4a39dc06d4c0dbc64b70af90fd698a233a518aa5d07e595d983b8c0526c8f7fb87876040516124e19291906140bc565b60405180910390a46124f781878787878761300f565b505050505050565b612508816131b4565b6000818152600a602052604090206006015460ff166125695760405162461bcd60e51b815260206004820152601060248201527f6e6f74206f70656e20666f7253616c65000000000000000000000000000000006044820152606401610b45565b6000818152600a6020908152604080832060030154600f9092529091205411156125c85760405162461bcd60e51b815260206004820152601060248201526f1c995858da081b585e10db185a5b595960821b6044820152606401610b45565b6000818152600a602052604081206004015460075482916125e89161322d565b91509150816126265760405162461bcd60e51b815260206004820152600a60248201526931b0b6319032b93937b960b11b6044820152606401610b45565b60008061263583612710613276565b91509150816126735760405162461bcd60e51b815260206004820152600a60248201526931b0b6319032b93937b960b11b6044820152606401610b45565b6000858152600a60205260408082206002015490516001600160a01b039091169083908381818185875af1925050503d80600081146126ce576040519150601f19603f3d011682016040523d82523d6000602084013e6126d3565b606091505b50509050806127245760405162461bcd60e51b815260206004820152601160248201527f63616e742070617920726f79616c6974790000000000000000000000000000006044820152606401610b45565b6006546000878152600a602052604081206004015490916001600160a01b0316906127509085906140e1565b604051600081818185875af1925050503d806000811461278c576040519150601f19603f3d011682016040523d82523d6000602084013e612791565b606091505b50509050806127e25760405162461bcd60e51b815260206004820152601360248201527f63616e74207472616e736665722073616c6573000000000000000000000000006044820152606401610b45565b6128093388600160405180604001604052806002815260200161060f60f31b8152506132a9565b6000878152600a60209081526040918290206004015482518a81529182015233917f1a37ab73fd88dcf4af7f9a8c40ffd42e9a5fedbd8dbeb054a85ebde1c189820d910160405180910390a250505050505050565b816001600160a01b0316836001600160a01b0316036128e55760405162461bcd60e51b815260206004820152602960248201527f455243313135353a2073657474696e6720617070726f76616c2073746174757360448201527f20666f722073656c6600000000000000000000000000000000000000000000006064820152608401610b45565b6001600160a01b038381166000818152600d6020908152604080832094871680845294825291829020805460ff191686151590811790915591519182527f17307eab39ab6107e8899845ad3d59bd9653f200f220920489ca2b5937696c31910160405180910390a3505050565b61295b816131b4565b6000818152600a602052604090206006015460ff166129bc5760405162461bcd60e51b815260206004820152601160248201527f6e6f74206f70656e20666f722073616c650000000000000000000000000000006044820152606401610b45565b6000818152600a6020908152604080832060030154600f909252909120541115612a1b5760405162461bcd60e51b815260206004820152601060248201526f1c995858da081b585e10db185a5b595960821b6044820152606401610b45565b6000818152600a60205260408120600401546007548291612a3b9161322d565b9150915081612a795760405162461bcd60e51b815260206004820152600a60248201526931b0b6319032b93937b960b11b6044820152606401610b45565b600080612a8883612710613276565b9150915081612ac65760405162461bcd60e51b815260206004820152600a60248201526931b0b6319032b93937b960b11b6044820152606401610b45565b6000858152600a60205260408082206002015490516001600160a01b039091169083908381818185875af1925050503d8060008114612b21576040519150601f19603f3d011682016040523d82523d6000602084013e612b26565b606091505b5050905080612b775760405162461bcd60e51b815260206004820152601160248201527f63616e742070617920726f79616c6974790000000000000000000000000000006044820152606401610b45565b6006546000878152600a602052604081206004015490916001600160a01b031690612ba39085906140e1565b604051600081818185875af1925050503d8060008114612bdf576040519150601f19603f3d011682016040523d82523d6000602084013e612be4565b606091505b5050905080612c355760405162461bcd60e51b815260206004820152601360248201527f63616e74207472616e736665722073616c6573000000000000000000000000006044820152606401610b45565b612c5c8888600160405180604001604052806002815260200161060f60f31b8152506132a9565b6000878152600a60209081526040918290206004015482518a8152918201526001600160a01b038a16917f1a37ab73fd88dcf4af7f9a8c40ffd42e9a5fedbd8dbeb054a85ebde1c189820d910160405180910390a25050505050505050565b6001600160a01b038416612d1f5760405162461bcd60e51b815260206004820152602560248201527f455243313135353a207472616e7366657220746f20746865207a65726f206164604482015264647265737360d81b6064820152608401610b45565b336000612d2b856133c5565b90506000612d38856133c5565b9050612d48838989858589612e78565b6000868152600c602090815260408083206001600160a01b038c16845290915290205485811015612dce5760405162461bcd60e51b815260206004820152602a60248201527f455243313135353a20696e73756666696369656e742062616c616e636520666f60448201526939103a3930b739b332b960b11b6064820152608401610b45565b6000878152600c602090815260408083206001600160a01b038d8116855292528083208985039055908a16825281208054889290612e0d908490613e99565b909155505060408051888152602081018890526001600160a01b03808b16928c821692918816917fc3d58168c5ae7397731d063d5bbf3d657854427343f4c083240f7aacaa2d0f62910160405180910390a4612e6d848a8a8a8a8a613410565b505050505050505050565b6001600160a01b038516612eff5760005b8351811015612efd57828181518110612ea457612ea461408d565b6020026020010151600f6000868481518110612ec257612ec261408d565b602002602001015181526020019081526020016000206000828254612ee79190613e99565b90915550612ef69050816140a3565b9050612e89565b505b6001600160a01b0384166124f75760005b8351811015613006576000848281518110612f2d57612f2d61408d565b602002602001015190506000848381518110612f4b57612f4b61408d565b602002602001015190506000600f600084815260200190815260200160002054905081811015612fe35760405162461bcd60e51b815260206004820152602860248201527f455243313135353a206275726e20616d6f756e74206578636565647320746f7460448201527f616c537570706c790000000000000000000000000000000000000000000000006064820152608401610b45565b6000928352600f602052604090922091039055612fff816140a3565b9050612f10565b50505050505050565b6001600160a01b0384163b156124f75760405163bc197c8160e01b81526001600160a01b0385169063bc197c819061305390899089908890889088906004016140f8565b6020604051808303816000875af192505050801561308e575060408051601f3d908101601f1916820190925261308b91810190614156565b60015b6131435761309a614173565b806308c379a0036130d357506130ae61418f565b806130b957506130d5565b8060405162461bcd60e51b8152600401610b4591906136bc565b505b60405162461bcd60e51b815260206004820152603460248201527f455243313135353a207472616e7366657220746f206e6f6e204552433131353560448201527f526563656976657220696d706c656d656e7465720000000000000000000000006064820152608401610b45565b6001600160e01b0319811663bc197c8160e01b146130065760405162461bcd60e51b815260206004820152602860248201527f455243313135353a204552433131353552656365697665722072656a656374656044820152676420746f6b656e7360c01b6064820152608401610b45565b8015806131dd57506000818152600a6020908152604080832060030154600f9092529091205410155b156131fb57604051636aa2a93760e01b815260040160405180910390fd5b6000818152600b602052604090205460ff1661322a57604051636aa2a93760e01b815260040160405180910390fd5b50565b600080836000036132445750600190506000611326565b8383028385828161325757613257614055565b041461326a576000809250925050611326565b60019590945092505050565b6000808260000361328c57506000905080611326565b600183858161329d5761329d614055565b04915091509250929050565b6001600160a01b0384166133095760405162461bcd60e51b815260206004820152602160248201527f455243313135353a206d696e7420746f20746865207a65726f206164647265736044820152607360f81b6064820152608401610b45565b336000613315856133c5565b90506000613322856133c5565b905061333383600089858589612e78565b6000868152600c602090815260408083206001600160a01b038b16845290915281208054879290613365908490613e99565b909155505060408051878152602081018790526001600160a01b03808a1692600092918716917fc3d58168c5ae7397731d063d5bbf3d657854427343f4c083240f7aacaa2d0f62910160405180910390a461300683600089898989613410565b604080516001808252818301909252606091600091906020808301908036833701905050905082816000815181106133ff576133ff61408d565b602090810291909101015292915050565b6001600160a01b0384163b156124f75760405163f23a6e6160e01b81526001600160a01b0385169063f23a6e61906134549089908990889088908890600401614219565b6020604051808303816000875af192505050801561348f575060408051601f3d908101601f1916820190925261348c91810190614156565b60015b61349b5761309a614173565b6001600160e01b0319811663f23a6e6160e01b146130065760405162461bcd60e51b815260206004820152602860248201527f455243313135353a204552433131353552656365697665722072656a656374656044820152676420746f6b656e7360c01b6064820152608401610b45565b82805461351890613eb1565b90600052602060002090601f01602090048101928261353a5760008555613580565b82601f1061355357805160ff1916838001178555613580565b82800160010185558215613580579182015b82811115613580578251825591602001919060010190613565565b5061358c929150613590565b5090565b5b8082111561358c5760008155600101613591565b6001600160a01b038116811461322a57600080fd5b600080604083850312156135cd57600080fd5b82356135d8816135a5565b946020939093013593505050565b6001600160e01b03198116811461322a57600080fd5b60006020828403121561360e57600080fd5b81356121d9816135e6565b60006020828403121561362b57600080fd5b5035919050565b60608101610b73828460ff815116825260ff602082015116602083015260ff60408201511660408301525050565b60005b8381101561367b578181015183820152602001613663565b8381111561368a576000848401525b50505050565b600081518084526136a8816020860160208601613660565b601f01601f19169290920160200192915050565b6020815260006121d96020830184613690565b803580151581146136df57600080fd5b919050565b600080604083850312156136f757600080fd5b82359150613707602084016136cf565b90509250929050565b6000806040838503121561372357600080fd5b50508035926020909101359150565b60006020828403121561374457600080fd5b81356121d9816135a5565b634e487b7160e01b600052604160045260246000fd5b601f8201601f1916810167ffffffffffffffff8111828210171561378b5761378b61374f565b6040525050565b600082601f8301126137a357600080fd5b813567ffffffffffffffff8111156137bd576137bd61374f565b6040516137d4601f8301601f191660200182613765565b8181528460208386010111156137e957600080fd5b816020850160208301376000918101602001919091529392505050565b6000806040838503121561381957600080fd5b82359150602083013567ffffffffffffffff81111561383757600080fd5b61384385828601613792565b9150509250929050565b803560ff811681146136df57600080fd5b60006060828403121561387057600080fd5b6040516060810181811067ffffffffffffffff821117156138935761389361374f565b6040529050806138a28361384d565b81526138b06020840161384d565b60208201526138c16040840161384d565b60408201525092915050565b60008060008060008061010087890312156138e757600080fd5b86359550602087013567ffffffffffffffff81111561390557600080fd5b61391189828a01613792565b955050613921886040890161385e565b935060a0870135613931816135a5565b9598949750929560c08101359460e0909101359350915050565b602081526000825161012080602085015261396a610140850183613690565b9150602085015161399e604086018260ff815116825260ff602082015116602083015260ff60408201511660408301525050565b506001600160a01b0360408601511660a0850152606085015160c0850152608085015160e085015260a085015161010085015260c0850151151581850152508091505092915050565b600067ffffffffffffffff821115613a0157613a0161374f565b5060051b60200190565b600082601f830112613a1c57600080fd5b81356020613a29826139e7565b604051613a368282613765565b83815260059390931b8501820192828101915086841115613a5657600080fd5b8286015b84811015613a715780358352918301918301613a5a565b509695505050505050565b600080600080600060a08688031215613a9457600080fd5b8535613a9f816135a5565b94506020860135613aaf816135a5565b9350604086013567ffffffffffffffff80821115613acc57600080fd5b613ad889838a01613a0b565b94506060880135915080821115613aee57600080fd5b613afa89838a01613a0b565b93506080880135915080821115613b1057600080fd5b50613b1d88828901613792565b9150509295509295909350565b60008060408385031215613b3d57600080fd5b823567ffffffffffffffff80821115613b5557600080fd5b818501915085601f830112613b6957600080fd5b81356020613b76826139e7565b604051613b838282613765565b83815260059390931b8501820192828101915089841115613ba357600080fd5b948201945b83861015613bca578535613bbb816135a5565b82529482019490820190613ba8565b96505086013592505080821115613be057600080fd5b5061384385828601613a0b565b600081518084526020808501945080840160005b83811015613c1d57815187529582019590820190600101613c01565b509495945050505050565b6020815260006121d96020830184613bed565b60008060808385031215613c4e57600080fd5b82359150613707846020850161385e565b600060208284031215613c7157600080fd5b813567ffffffffffffffff811115613c8857600080fd5b613c9484828501613a0b565b949350505050565b60008060408385031215613caf57600080fd5b8235613cba816135a5565b9150613707602084016136cf565b600060208284031215613cda57600080fd5b813567ffffffffffffffff811115613cf157600080fd5b613c9484828501613792565b60008060408385031215613d1057600080fd5b823591506020830135613d22816135a5565b809150509250929050565b6000610120808352613d418184018b613690565b915050613d71602083018960ff815116825260ff602082015116602083015260ff60408201511660408301525050565b6001600160a01b0396909616608082015260a081019490945260c084019290925260e083015215156101009091015292915050565b60008060408385031215613db957600080fd5b8235613dc4816135a5565b9150602083013567ffffffffffffffff811115613de057600080fd5b61384385828601613a0b565b60008060408385031215613dff57600080fd5b8235613e0a816135a5565b91506020830135613d22816135a5565b600080600080600060a08688031215613e3257600080fd5b8535613e3d816135a5565b94506020860135613e4d816135a5565b93506040860135925060608601359150608086013567ffffffffffffffff811115613e7757600080fd5b613b1d88828901613792565b634e487b7160e01b600052601160045260246000fd5b60008219821115613eac57613eac613e83565b500190565b600181811c90821680613ec557607f821691505b602082108103613ee557634e487b7160e01b600052602260045260246000fd5b50919050565b60008151613efd818560208601613660565b9290920192915050565b600080845481600182811c915080831680613f2357607f831692505b60208084108203613f4257634e487b7160e01b86526022600452602486fd5b818015613f565760018114613f6757613f94565b60ff19861689528489019650613f94565b60008b81526020902060005b86811015613f8c5781548b820152908501908301613f73565b505084890196505b505050505050613fa48185613eeb565b95945050505050565b828152604060208201526000613c946040830184613690565b6000610100888352806020840152613fe081840189613690565b915050614010604083018760ff815116825260ff602082015116602083015260ff60408201511660408301525050565b6001600160a01b03851660a08301528360c08301528260e0830152979650505050505050565b600081600019048311821515161561405057614050613e83565b500290565b634e487b7160e01b600052601260045260246000fd5b60008261408857634e487b7160e01b600052601260045260246000fd5b500490565b634e487b7160e01b600052603260045260246000fd5b6000600182016140b5576140b5613e83565b5060010190565b6040815260006140cf6040830185613bed565b8281036020840152613fa48185613bed565b6000828210156140f3576140f3613e83565b500390565b60006001600160a01b03808816835280871660208401525060a0604083015261412460a0830186613bed565b82810360608401526141368186613bed565b9050828103608084015261414a8185613690565b98975050505050505050565b60006020828403121561416857600080fd5b81516121d9816135e6565b600060033d111561418c5760046000803e5060005160e01c5b90565b600060443d101561419d5790565b6040516003193d81016004833e81513d67ffffffffffffffff81602484011181841117156141cd57505050505090565b82850191508151818111156141e55750505050505090565b843d87010160208285010111156141ff5750505050505090565b61420e60208286010187613765565b509095945050505050565b60006001600160a01b03808816835280871660208401525084604083015283606083015260a0608083015261425160a0830184613690565b97965050505050505056fea164736f6c634300080d000a",
  "linkReferences": {},
  "deployedLinkReferences": {}
}