{
  "contractName": "FreeObject",
  "abi": [
    {
      "inputs": [
        {
          "internalType": "address payable",
          "name": "_treasuryAddress",
          "type": "address"
        }
      ],
      "stateMutability": "nonpayable",
      "type": "constructor"
    },
    {
      "inputs": [],
      "name": "ExistentToken",
      "type": "error"
    },
    {
      "inputs": [],
      "name": "InvalidOwner",
      "type": "error"
    },
    {
      "inputs": [],
      "name": "InvalidTokenID",
      "type": "error"
    },
    {
      "inputs": [],
      "name": "NoSetTokenSize",
      "type": "error"
    },
    {
      "inputs": [],
      "name": "NonExistentToken",
      "type": "error"
    },
    {
      "inputs": [],
      "name": "PaymentBalanceZero",
      "type": "error"
    },
    {
      "anonymous": false,
      "inputs": [
        {
          "indexed": true,
          "internalType": "address",
          "name": "account",
          "type": "address"
        },
        {
          "indexed": true,
          "internalType": "address",
          "name": "operator",
          "type": "address"
        },
        {
          "indexed": false,
          "internalType": "bool",
          "name": "approved",
          "type": "bool"
        }
      ],
      "name": "ApprovalForAll",
      "type": "event"
    },
    {
      "anonymous": false,
      "inputs": [
        {
          "indexed": false,
          "internalType": "uint256",
          "name": "tokenId",
          "type": "uint256"
        },
        {
          "indexed": false,
          "internalType": "uint256",
          "name": "newPrice",
          "type": "uint256"
        }
      ],
      "name": "ChangeTokenPrice",
      "type": "event"
    },
    {
      "anonymous": false,
      "inputs": [
        {
          "indexed": true,
          "internalType": "address",
          "name": "operator",
          "type": "address"
        },
        {
          "indexed": true,
          "internalType": "address",
          "name": "target",
          "type": "address"
        }
      ],
      "name": "OwnershipGranted",
      "type": "event"
    },
    {
      "anonymous": false,
      "inputs": [
        {
          "indexed": true,
          "internalType": "address",
          "name": "operator",
          "type": "address"
        },
        {
          "indexed": true,
          "internalType": "address",
          "name": "target",
          "type": "address"
        }
      ],
      "name": "OwnershipRemoved",
      "type": "event"
    },
    {
      "anonymous": false,
      "inputs": [
        {
          "indexed": false,
          "internalType": "uint256",
          "name": "amount",
          "type": "uint256"
        }
      ],
      "name": "PaymentReceivedOwner",
      "type": "event"
    },
    {
      "anonymous": false,
      "inputs": [
        {
          "indexed": false,
          "internalType": "uint256",
          "name": "amount",
          "type": "uint256"
        }
      ],
      "name": "PaymentWithdrawnOwner",
      "type": "event"
    },
    {
      "anonymous": false,
      "inputs": [
        {
          "indexed": false,
          "internalType": "uint256",
          "name": "tokenId",
          "type": "uint256"
        },
        {
          "indexed": false,
          "internalType": "address payable",
          "name": "creator",
          "type": "address"
        }
      ],
      "name": "SetCreator",
      "type": "event"
    },
    {
      "anonymous": false,
      "inputs": [
        {
          "indexed": false,
          "internalType": "uint256",
          "name": "tokenId",
          "type": "uint256"
        },
        {
          "indexed": false,
          "internalType": "uint256",
          "name": "exp",
          "type": "uint256"
        }
      ],
      "name": "SetExp",
      "type": "event"
    },
    {
      "anonymous": false,
      "inputs": [
        {
          "indexed": false,
          "internalType": "uint256",
          "name": "tokenId",
          "type": "uint256"
        },
        {
          "indexed": false,
          "internalType": "uint256",
          "name": "newMaxClaimed",
          "type": "uint256"
        }
      ],
      "name": "SetMaxClaimed",
      "type": "event"
    },
    {
      "anonymous": false,
      "inputs": [
        {
          "indexed": false,
          "internalType": "uint256",
          "name": "royalityFee",
          "type": "uint256"
        }
      ],
      "name": "SetRoyalityFee",
      "type": "event"
    },
    {
      "anonymous": false,
      "inputs": [
        {
          "indexed": false,
          "internalType": "uint256",
          "name": "secondaryRoyalty",
          "type": "uint256"
        }
      ],
      "name": "SetSecondaryRoyalityFee",
      "type": "event"
    },
    {
      "anonymous": false,
      "inputs": [
        {
          "indexed": false,
          "internalType": "uint256",
          "name": "tokenId",
          "type": "uint256"
        },
        {
          "indexed": false,
          "internalType": "uint8",
          "name": "x",
          "type": "uint8"
        },
        {
          "indexed": false,
          "internalType": "uint8",
          "name": "y",
          "type": "uint8"
        },
        {
          "indexed": false,
          "internalType": "uint8",
          "name": "z",
          "type": "uint8"
        }
      ],
      "name": "SetSize",
      "type": "event"
    },
    {
      "anonymous": false,
      "inputs": [
        {
          "indexed": false,
          "internalType": "uint256",
          "name": "tokenId",
          "type": "uint256"
        },
        {
          "indexed": false,
          "internalType": "string",
          "name": "uri",
          "type": "string"
        }
      ],
      "name": "SetTokenURI",
      "type": "event"
    },
    {
      "anonymous": false,
      "inputs": [
        {
          "indexed": false,
          "internalType": "address payable",
          "name": "treasuryAddress",
          "type": "address"
        }
      ],
      "name": "SetTreasuryAddress",
      "type": "event"
    },
    {
      "anonymous": false,
      "inputs": [
        {
          "indexed": false,
          "internalType": "string",
          "name": "baseuri",
          "type": "string"
        }
      ],
      "name": "SetbaseMetadataURI",
      "type": "event"
    },
    {
      "anonymous": false,
      "inputs": [
        {
          "indexed": true,
          "internalType": "address",
          "name": "operator",
          "type": "address"
        },
        {
          "indexed": true,
          "internalType": "address",
          "name": "from",
          "type": "address"
        },
        {
          "indexed": true,
          "internalType": "address",
          "name": "to",
          "type": "address"
        },
        {
          "indexed": false,
          "internalType": "uint256[]",
          "name": "ids",
          "type": "uint256[]"
        },
        {
          "indexed": false,
          "internalType": "uint256[]",
          "name": "values",
          "type": "uint256[]"
        }
      ],
      "name": "TransferBatch",
      "type": "event"
    },
    {
      "anonymous": false,
      "inputs": [
        {
          "indexed": true,
          "internalType": "address",
          "name": "operator",
          "type": "address"
        },
        {
          "indexed": true,
          "internalType": "address",
          "name": "from",
          "type": "address"
        },
        {
          "indexed": true,
          "internalType": "address",
          "name": "to",
          "type": "address"
        },
        {
          "indexed": false,
          "internalType": "uint256",
          "name": "id",
          "type": "uint256"
        },
        {
          "indexed": false,
          "internalType": "uint256",
          "name": "value",
          "type": "uint256"
        }
      ],
      "name": "TransferSingle",
      "type": "event"
    },
    {
      "anonymous": false,
      "inputs": [
        {
          "indexed": false,
          "internalType": "string",
          "name": "value",
          "type": "string"
        },
        {
          "indexed": true,
          "internalType": "uint256",
          "name": "id",
          "type": "uint256"
        }
      ],
      "name": "URI",
      "type": "event"
    },
    {
      "inputs": [
        {
          "internalType": "uint256",
          "name": "",
          "type": "uint256"
        }
      ],
      "name": "allObjects",
      "outputs": [
        {
          "internalType": "string",
          "name": "tokenURI",
          "type": "string"
        },
        {
          "components": [
            {
              "internalType": "uint8",
              "name": "x",
              "type": "uint8"
            },
            {
              "internalType": "uint8",
              "name": "y",
              "type": "uint8"
            },
            {
              "internalType": "uint8",
              "name": "z",
              "type": "uint8"
            }
          ],
          "internalType": "struct BaseObject.Size",
          "name": "size",
          "type": "tuple"
        },
        {
          "internalType": "address payable",
          "name": "creator",
          "type": "address"
        },
        {
          "internalType": "uint256",
          "name": "maxClaimed",
          "type": "uint256"
        },
        {
          "internalType": "uint256",
          "name": "price",
          "type": "uint256"
        },
        {
          "internalType": "uint256",
          "name": "exp",
          "type": "uint256"
        },
        {
          "internalType": "bool",
          "name": "forSale",
          "type": "bool"
        }
      ],
      "stateMutability": "view",
      "type": "function"
    },
    {
      "inputs": [
        {
          "internalType": "address",
          "name": "account",
          "type": "address"
        },
        {
          "internalType": "uint256",
          "name": "id",
          "type": "uint256"
        }
      ],
      "name": "balanceOf",
      "outputs": [
        {
          "internalType": "uint256",
          "name": "",
          "type": "uint256"
        }
      ],
      "stateMutability": "view",
      "type": "function"
    },
    {
      "inputs": [
        {
          "internalType": "address[]",
          "name": "accounts",
          "type": "address[]"
        },
        {
          "internalType": "uint256[]",
          "name": "ids",
          "type": "uint256[]"
        }
      ],
      "name": "balanceOfBatch",
      "outputs": [
        {
          "internalType": "uint256[]",
          "name": "",
          "type": "uint256[]"
        }
      ],
      "stateMutability": "view",
      "type": "function"
    },
    {
      "inputs": [],
      "name": "baseMetadataURI",
      "outputs": [
        {
          "internalType": "string",
          "name": "",
          "type": "string"
        }
      ],
      "stateMutability": "view",
      "type": "function"
    },
    {
      "inputs": [
        {
          "internalType": "uint256[]",
          "name": "tokenIds",
          "type": "uint256[]"
        }
      ],
      "name": "batchGetFreeObject",
      "outputs": [],
      "stateMutability": "nonpayable",
      "type": "function"
    },
    {
      "inputs": [
        {
          "internalType": "uint256",
          "name": "tokenId",
          "type": "uint256"
        },
        {
          "internalType": "uint256",
          "name": "newPrice",
          "type": "uint256"
        }
      ],
      "name": "changeTokenPrice",
      "outputs": [],
      "stateMutability": "nonpayable",
      "type": "function"
    },
    {
      "inputs": [
        {
          "internalType": "uint256",
          "name": "tokenId",
          "type": "uint256"
        },
        {
          "internalType": "string",
          "name": "tokenUri",
          "type": "string"
        },
        {
          "components": [
            {
              "internalType": "uint8",
              "name": "x",
              "type": "uint8"
            },
            {
              "internalType": "uint8",
              "name": "y",
              "type": "uint8"
            },
            {
              "internalType": "uint8",
              "name": "z",
              "type": "uint8"
            }
          ],
          "internalType": "struct BaseObject.Size",
          "name": "size",
          "type": "tuple"
        },
        {
          "internalType": "address payable",
          "name": "creator",
          "type": "address"
        }
      ],
      "name": "createObject",
      "outputs": [],
      "stateMutability": "nonpayable",
      "type": "function"
    },
    {
      "inputs": [
        {
          "internalType": "uint256",
          "name": "",
          "type": "uint256"
        }
      ],
      "name": "created",
      "outputs": [
        {
          "internalType": "bool",
          "name": "",
          "type": "bool"
        }
      ],
      "stateMutability": "view",
      "type": "function"
    },
    {
      "inputs": [
        {
          "internalType": "uint256",
          "name": "id",
          "type": "uint256"
        }
      ],
      "name": "exists",
      "outputs": [
        {
          "internalType": "bool",
          "name": "",
          "type": "bool"
        }
      ],
      "stateMutability": "view",
      "type": "function"
    },
    {
      "inputs": [],
      "name": "getBaseMetadataURI",
      "outputs": [
        {
          "internalType": "string",
          "name": "",
          "type": "string"
        }
      ],
      "stateMutability": "view",
      "type": "function"
    },
    {
      "inputs": [
        {
          "internalType": "uint256",
          "name": "tokenId",
          "type": "uint256"
        }
      ],
      "name": "getCreatorAddress",
      "outputs": [
        {
          "internalType": "address payable",
          "name": "",
          "type": "address"
        }
      ],
      "stateMutability": "view",
      "type": "function"
    },
    {
      "inputs": [
        {
          "internalType": "uint256",
          "name": "tokenId",
          "type": "uint256"
        }
      ],
      "name": "getExp",
      "outputs": [
        {
          "internalType": "uint256",
          "name": "",
          "type": "uint256"
        }
      ],
      "stateMutability": "view",
      "type": "function"
    },
    {
      "inputs": [
        {
          "internalType": "uint256",
          "name": "tokenId",
          "type": "uint256"
        }
      ],
      "name": "getFreeObject",
      "outputs": [],
      "stateMutability": "nonpayable",
      "type": "function"
    },
    {
      "inputs": [
        {
          "internalType": "uint256",
          "name": "tokenId",
          "type": "uint256"
        }
      ],
      "name": "getMaxClaimed",
      "outputs": [
        {
          "internalType": "uint256",
          "name": "",
          "type": "uint256"
        }
      ],
      "stateMutability": "view",
      "type": "function"
    },
    {
      "inputs": [
        {
          "internalType": "uint256",
          "name": "tokenId",
          "type": "uint256"
        }
      ],
      "name": "getObjectInfo",
      "outputs": [
        {
          "components": [
            {
              "internalType": "string",
              "name": "tokenURI",
              "type": "string"
            },
            {
              "components": [
                {
                  "internalType": "uint8",
                  "name": "x",
                  "type": "uint8"
                },
                {
                  "internalType": "uint8",
                  "name": "y",
                  "type": "uint8"
                },
                {
                  "internalType": "uint8",
                  "name": "z",
                  "type": "uint8"
                }
              ],
              "internalType": "struct BaseObject.Size",
              "name": "size",
              "type": "tuple"
            },
            {
              "internalType": "address payable",
              "name": "creator",
              "type": "address"
            },
            {
              "internalType": "uint256",
              "name": "maxClaimed",
              "type": "uint256"
            },
            {
              "internalType": "uint256",
              "name": "price",
              "type": "uint256"
            },
            {
              "internalType": "uint256",
              "name": "exp",
              "type": "uint256"
            },
            {
              "internalType": "bool",
              "name": "forSale",
              "type": "bool"
            }
          ],
          "internalType": "struct BaseObject.Object",
          "name": "",
          "type": "tuple"
        }
      ],
      "stateMutability": "view",
      "type": "function"
    },
    {
      "inputs": [
        {
          "internalType": "uint256",
          "name": "tokenId",
          "type": "uint256"
        }
      ],
      "name": "getSize",
      "outputs": [
        {
          "components": [
            {
              "internalType": "uint8",
              "name": "x",
              "type": "uint8"
            },
            {
              "internalType": "uint8",
              "name": "y",
              "type": "uint8"
            },
            {
              "internalType": "uint8",
              "name": "z",
              "type": "uint8"
            }
          ],
          "internalType": "struct BaseObject.Size",
          "name": "",
          "type": "tuple"
        }
      ],
      "stateMutability": "view",
      "type": "function"
    },
    {
      "inputs": [
        {
          "internalType": "uint256",
          "name": "tokenId",
          "type": "uint256"
        }
      ],
      "name": "getTokenPrice",
      "outputs": [
        {
          "internalType": "uint256",
          "name": "",
          "type": "uint256"
        }
      ],
      "stateMutability": "view",
      "type": "function"
    },
    {
      "inputs": [
        {
          "internalType": "uint256",
          "name": "tokenId",
          "type": "uint256"
        }
      ],
      "name": "getTokenURI",
      "outputs": [
        {
          "internalType": "string",
          "name": "",
          "type": "string"
        }
      ],
      "stateMutability": "view",
      "type": "function"
    },
    {
      "inputs": [
        {
          "internalType": "uint256",
          "name": "tokenId",
          "type": "uint256"
        },
        {
          "internalType": "string",
          "name": "tokenUri",
          "type": "string"
        },
        {
          "components": [
            {
              "internalType": "uint8",
              "name": "x",
              "type": "uint8"
            },
            {
              "internalType": "uint8",
              "name": "y",
              "type": "uint8"
            },
            {
              "internalType": "uint8",
              "name": "z",
              "type": "uint8"
            }
          ],
          "internalType": "struct BaseObject.Size",
          "name": "size",
          "type": "tuple"
        },
        {
          "internalType": "address payable",
          "name": "creator",
          "type": "address"
        }
      ],
      "name": "initObject",
      "outputs": [],
      "stateMutability": "nonpayable",
      "type": "function"
    },
    {
      "inputs": [
        {
          "internalType": "address",
          "name": "account",
          "type": "address"
        },
        {
          "internalType": "address",
          "name": "operator",
          "type": "address"
        }
      ],
      "name": "isApprovedForAll",
      "outputs": [
        {
          "internalType": "bool",
          "name": "",
          "type": "bool"
        }
      ],
      "stateMutability": "view",
      "type": "function"
    },
    {
      "inputs": [],
      "name": "name",
      "outputs": [
        {
          "internalType": "string",
          "name": "",
          "type": "string"
        }
      ],
      "stateMutability": "view",
      "type": "function"
    },
    {
      "inputs": [
        {
          "internalType": "address",
          "name": "targetAddress",
          "type": "address"
        }
      ],
      "name": "owner",
      "outputs": [
        {
          "internalType": "bool",
          "name": "",
          "type": "bool"
        }
      ],
      "stateMutability": "nonpayable",
      "type": "function"
    },
    {
      "inputs": [],
      "name": "paymentBalanceOwner",
      "outputs": [
        {
          "internalType": "uint256",
          "name": "",
          "type": "uint256"
        }
      ],
      "stateMutability": "view",
      "type": "function"
    },
    {
      "inputs": [
        {
          "internalType": "address",
          "name": "oldOwner",
          "type": "address"
        }
      ],
      "name": "removeOwner",
      "outputs": [],
      "stateMutability": "nonpayable",
      "type": "function"
    },
    {
      "inputs": [],
      "name": "royalityFee",
      "outputs": [
        {
          "internalType": "uint256",
          "name": "",
          "type": "uint256"
        }
      ],
      "stateMutability": "view",
      "type": "function"
    },
    {
      "inputs": [
        {
          "internalType": "uint256",
          "name": "",
          "type": "uint256"
        },
        {
          "internalType": "uint256",
          "name": "salePrice",
          "type": "uint256"
        }
      ],
      "name": "royaltyInfo",
      "outputs": [
        {
          "internalType": "address",
          "name": "receiver",
          "type": "address"
        },
        {
          "internalType": "uint256",
          "name": "royaltyAmount",
          "type": "uint256"
        }
      ],
      "stateMutability": "view",
      "type": "function"
    },
    {
      "inputs": [
        {
          "internalType": "address",
          "name": "from",
          "type": "address"
        },
        {
          "internalType": "address",
          "name": "to",
          "type": "address"
        },
        {
          "internalType": "uint256[]",
          "name": "ids",
          "type": "uint256[]"
        },
        {
          "internalType": "uint256[]",
          "name": "amounts",
          "type": "uint256[]"
        },
        {
          "internalType": "bytes",
          "name": "data",
          "type": "bytes"
        }
      ],
      "name": "safeBatchTransferFrom",
      "outputs": [],
      "stateMutability": "nonpayable",
      "type": "function"
    },
    {
      "inputs": [
        {
          "internalType": "address",
          "name": "from",
          "type": "address"
        },
        {
          "internalType": "address",
          "name": "to",
          "type": "address"
        },
        {
          "internalType": "uint256",
          "name": "id",
          "type": "uint256"
        },
        {
          "internalType": "uint256",
          "name": "amount",
          "type": "uint256"
        },
        {
          "internalType": "bytes",
          "name": "data",
          "type": "bytes"
        }
      ],
      "name": "safeTransferFrom",
      "outputs": [],
      "stateMutability": "nonpayable",
      "type": "function"
    },
    {
      "inputs": [],
      "name": "secondaryRoyalty",
      "outputs": [
        {
          "internalType": "uint256",
          "name": "",
          "type": "uint256"
        }
      ],
      "stateMutability": "view",
      "type": "function"
    },
    {
      "inputs": [
        {
          "internalType": "address",
          "name": "operator",
          "type": "address"
        },
        {
          "internalType": "bool",
          "name": "approved",
          "type": "bool"
        }
      ],
      "name": "setApprovalForAll",
      "outputs": [],
      "stateMutability": "nonpayable",
      "type": "function"
    },
    {
      "inputs": [
        {
          "internalType": "uint256",
          "name": "tokenId",
          "type": "uint256"
        },
        {
          "internalType": "address payable",
          "name": "creator",
          "type": "address"
        }
      ],
      "name": "setCreatorAddress",
      "outputs": [],
      "stateMutability": "nonpayable",
      "type": "function"
    },
    {
      "inputs": [
        {
          "internalType": "uint256",
          "name": "tokenId",
          "type": "uint256"
        },
        {
          "internalType": "uint256",
          "name": "exp",
          "type": "uint256"
        }
      ],
      "name": "setExp",
      "outputs": [],
      "stateMutability": "nonpayable",
      "type": "function"
    },
    {
      "inputs": [
        {
          "internalType": "uint256",
          "name": "tokenId",
          "type": "uint256"
        },
        {
          "internalType": "uint256",
          "name": "newMaxClaimed",
          "type": "uint256"
        }
      ],
      "name": "setMaxClaimed",
      "outputs": [],
      "stateMutability": "nonpayable",
      "type": "function"
    },
    {
      "inputs": [
        {
          "internalType": "address",
          "name": "newOwner",
          "type": "address"
        }
      ],
      "name": "setOwner",
      "outputs": [],
      "stateMutability": "nonpayable",
      "type": "function"
    },
    {
      "inputs": [
        {
          "internalType": "uint256",
          "name": "newRoyalityFee",
          "type": "uint256"
        }
      ],
      "name": "setRoyalityFee",
      "outputs": [],
      "stateMutability": "nonpayable",
      "type": "function"
    },
    {
      "inputs": [
        {
          "internalType": "uint256",
          "name": "newSecondaryRoyalty",
          "type": "uint256"
        }
      ],
      "name": "setSecondaryRoyalityFee",
      "outputs": [],
      "stateMutability": "nonpayable",
      "type": "function"
    },
    {
      "inputs": [
        {
          "internalType": "uint256",
          "name": "tokenId",
          "type": "uint256"
        },
        {
          "components": [
            {
              "internalType": "uint8",
              "name": "x",
              "type": "uint8"
            },
            {
              "internalType": "uint8",
              "name": "y",
              "type": "uint8"
            },
            {
              "internalType": "uint8",
              "name": "z",
              "type": "uint8"
            }
          ],
          "internalType": "struct BaseObject.Size",
          "name": "size",
          "type": "tuple"
        }
      ],
      "name": "setSize",
      "outputs": [],
      "stateMutability": "nonpayable",
      "type": "function"
    },
    {
      "inputs": [
        {
          "internalType": "uint256",
          "name": "tokenId",
          "type": "uint256"
        },
        {
          "internalType": "string",
          "name": "uri",
          "type": "string"
        }
      ],
      "name": "setTokenURI",
      "outputs": [],
      "stateMutability": "nonpayable",
      "type": "function"
    },
    {
      "inputs": [
        {
          "internalType": "address payable",
          "name": "newTreasuryAddress",
          "type": "address"
        }
      ],
      "name": "setTreasuryAddress",
      "outputs": [],
      "stateMutability": "nonpayable",
      "type": "function"
    },
    {
      "inputs": [
        {
          "internalType": "string",
          "name": "newBaseMetadataURI",
          "type": "string"
        }
      ],
      "name": "setbaseMetadataURI",
      "outputs": [],
      "stateMutability": "nonpayable",
      "type": "function"
    },
    {
      "inputs": [
        {
          "internalType": "bytes4",
          "name": "interfaceId",
          "type": "bytes4"
        }
      ],
      "name": "supportsInterface",
      "outputs": [
        {
          "internalType": "bool",
          "name": "",
          "type": "bool"
        }
      ],
      "stateMutability": "view",
      "type": "function"
    },
    {
      "inputs": [],
      "name": "symbol",
      "outputs": [
        {
          "internalType": "string",
          "name": "",
          "type": "string"
        }
      ],
      "stateMutability": "view",
      "type": "function"
    },
    {
      "inputs": [
        {
          "internalType": "uint256",
          "name": "id",
          "type": "uint256"
        }
      ],
      "name": "totalSupply",
      "outputs": [
        {
          "internalType": "uint256",
          "name": "",
          "type": "uint256"
        }
      ],
      "stateMutability": "view",
      "type": "function"
    },
    {
      "inputs": [],
      "name": "treasuryAddress",
      "outputs": [
        {
          "internalType": "address payable",
          "name": "",
          "type": "address"
        }
      ],
      "stateMutability": "view",
      "type": "function"
    },
    {
      "inputs": [
        {
          "internalType": "uint256",
          "name": "tokenId",
          "type": "uint256"
        }
      ],
      "name": "uri",
      "outputs": [
        {
          "internalType": "string",
          "name": "",
          "type": "string"
        }
      ],
      "stateMutability": "view",
      "type": "function"
    },
    {
      "inputs": [
        {
          "internalType": "address",
          "name": "withdrawTo",
          "type": "address"
        }
      ],
      "name": "withdrawOwnerBalance",
      "outputs": [],
      "stateMutability": "nonpayable",
      "type": "function"
    },
    {
      "stateMutability": "payable",
      "type": "receive"
    }
  ],
  "bytecode": "60806040523480156200001157600080fd5b50604051620036283803806200362883398101604081905262000034916200015c565b604080516020808201835260008083523381529081905291909120805460ff1916600117905562000065816200014a565b5060016005556001600160a01b0381166200007f57600080fd5b60408051808201909152600b81526a119c99594813d89a9958dd60aa1b6020820152600690620000b0908262000233565b50604080518082019091526003815262464f5360e81b6020820152600790620000da908262000233565b5060408051808201909152601881527f68747470733a2f2f7777772e617277656176652e6e65742f000000000000000060208201526008906200011e908262000233565b50600980546001600160a01b0319166001600160a01b03929092169190911790556064600b55620002ff565b600362000158828262000233565b5050565b6000602082840312156200016f57600080fd5b81516001600160a01b03811681146200018757600080fd5b9392505050565b634e487b7160e01b600052604160045260246000fd5b600181811c90821680620001b957607f821691505b602082108103620001da57634e487b7160e01b600052602260045260246000fd5b50919050565b601f8211156200022e57600081815260208120601f850160051c81016020861015620002095750805b601f850160051c820191505b818110156200022a5782815560010162000215565b5050505b505050565b81516001600160401b038111156200024f576200024f6200018e565b6200026781620002608454620001a4565b84620001e0565b602080601f8311600181146200029f5760008415620002865750858301515b600019600386901b1c1916600185901b1785556200022a565b600085815260208120601f198616915b82811015620002d057888601518255948401946001909101908401620002af565b5085821015620002ef5787850151600019600388901b60f8161c191681555b5050505050600190811b01905550565b613319806200030f6000396000f3fe6080604052600436106102805760003560e01c80636605bfda1161014f578063ab231c32116100c1578063cbdac7101161007a578063cbdac71014610862578063cf467b4314610895578063e498922f146108b5578063e985e9c5146108e5578063ea2fe3cb1461092e578063f242432a1461094357600080fd5b8063ab231c3214610785578063b6ed6da9146107a5578063bd85b039146107c5578063bfdc4fdf146107f2578063c457fb3714610812578063c5f956af1461084257600080fd5b80639291671a116101135780639291671a1461069957806395d89b41146106af5780639733faa5146106c457806398f24682146106f4578063a22cb46514610714578063a30b4db91461073457600080fd5b80636605bfda146105d0578063666e1b39146105f057806367478a35146106295780637061d4861461064957806382cb6b721461066957600080fd5b80631d1b29e0116101f35780633e545f02116101ac5780633e545f02146104ff5780634e1273f41461051f5780634f558e791461054c5780635b2bd79e1461057b578063604c7f801461059057806362e8e8ac146105b057600080fd5b80631d1b29e0146104275780631e4c7887146104545780632a55205a1461046a5780632eb2c2d6146104a9578063326bb4ad146104c95780633bb3a24d146104df57600080fd5b80630b68e796116102455780630b68e796146103675780630d09308e146103875780630e89341c146103a757806313af4035146103c7578063162094c4146103e7578063173825d91461040757600080fd5b8062fdd58e14610295578063013bc6c5146102c857806301ffc9a7146102e8578063023c23db1461031857806306fdde031461034557600080fd5b366102905761028e34610963565b005b600080fd5b3480156102a157600080fd5b506102b56102b0366004612595565b6109b0565b6040519081526020015b60405180910390f35b3480156102d457600080fd5b5061028e6102e3366004612697565b610a4c565b3480156102f457600080fd5b506103086103033660046126e9565b610a90565b60405190151581526020016102bf565b34801561032457600080fd5b5061033861033336600461270d565b610ae0565b6040516102bf9190612726565b34801561035157600080fd5b5061035a610b9c565b6040516102bf91906127ac565b34801561037357600080fd5b5061028e6103823660046127bf565b610c2a565b34801561039357600080fd5b5061028e6103a23660046127bf565b610cad565b3480156103b357600080fd5b5061035a6103c236600461270d565b610d28565b3480156103d357600080fd5b5061028e6103e23660046127e1565b610d8c565b3480156103f357600080fd5b5061028e610402366004612871565b610e09565b34801561041357600080fd5b5061028e6104223660046127e1565b610e83565b34801561043357600080fd5b5061044761044236600461270d565b610efd565b6040516102bf91906128b7565b34801561046057600080fd5b506102b5600c5481565b34801561047657600080fd5b5061048a6104853660046127bf565b611090565b604080516001600160a01b0390931683526020830191909152016102bf565b3480156104b557600080fd5b5061028e6104c4366004612952565b6110ba565b3480156104d557600080fd5b506102b5600a5481565b3480156104eb57600080fd5b5061035a6104fa36600461270d565b611151565b34801561050b57600080fd5b5061028e61051a3660046129ff565b6111f3565b34801561052b57600080fd5b5061053f61053a366004612a74565b6112bb565b6040516102bf9190612b71565b34801561055857600080fd5b5061030861056736600461270d565b600090815260046020526040902054151590565b34801561058757600080fd5b5061035a6113e4565b34801561059c57600080fd5b5061028e6105ab366004612c08565b6113f1565b3480156105bc57600080fd5b5061028e6105cb3660046127bf565b6114b3565b3480156105dc57600080fd5b5061028e6105eb3660046127e1565b61152e565b3480156105fc57600080fd5b5061030861060b3660046127e1565b6001600160a01b031660009081526020819052604090205460ff1690565b34801561063557600080fd5b5061028e6106443660046127e1565b6115c6565b34801561065557600080fd5b5061028e61066436600461270d565b61173c565b34801561067557600080fd5b5061030861068436600461270d565b600e6020526000908152604090205460ff1681565b3480156106a557600080fd5b506102b5600b5481565b3480156106bb57600080fd5b5061035a6117a1565b3480156106d057600080fd5b506102b56106df36600461270d565b6000908152600d602052604090206003015490565b34801561070057600080fd5b5061028e61070f36600461270d565b6117ae565b34801561072057600080fd5b5061028e61072f366004612c35565b611813565b34801561074057600080fd5b5061076d61074f36600461270d565b6000908152600d60205260409020600201546001600160a01b031690565b6040516001600160a01b0390911681526020016102bf565b34801561079157600080fd5b5061028e6107a036600461270d565b61181e565b3480156107b157600080fd5b5061028e6107c0366004612c73565b61187b565b3480156107d157600080fd5b506102b56107e036600461270d565b60009081526004602052604090205490565b3480156107fe57600080fd5b5061028e61080d366004612ca7565b6118e7565b34801561081e57600080fd5b506102b561082d36600461270d565b6000908152600d602052604090206004015490565b34801561084e57600080fd5b5060095461076d906001600160a01b031681565b34801561086e57600080fd5b5061088261087d36600461270d565b611979565b6040516102bf9796959493929190612ccc565b3480156108a157600080fd5b5061028e6108b03660046129ff565b611a77565b3480156108c157600080fd5b506102b56108d036600461270d565b6000908152600d602052604090206005015490565b3480156108f157600080fd5b50610308610900366004612d45565b6001600160a01b03918216600090815260026020908152604080832093909416825291909152205460ff1690565b34801561093a57600080fd5b5061035a611b0e565b34801561094f57600080fd5b5061028e61095e366004612d73565b611ba0565b6040518181527faab58724194bfb12b018298382453c333764e73d19ec73cb98d26f8dd10d29cc9060200160405180910390a180600c60008282546109a89190612df1565b909155505050565b60006001600160a01b038316610a215760405162461bcd60e51b815260206004820152602b60248201527f455243313135353a2062616c616e636520717565727920666f7220746865207a60448201526a65726f206164647265737360a81b60648201526084015b60405180910390fd5b5060008181526001602090815260408083206001600160a01b03861684529091529020545b92915050565b60005b8151811015610a8c57610a7a828281518110610a6d57610a6d612e09565b602002602001015161181e565b80610a8481612e1f565b915050610a4f565b5050565b60006001600160e01b03198216636cdb3d1360e11b1480610ac157506001600160e01b031982166303a24d0760e21b145b80610a4657506301ffc9a760e01b6001600160e01b0319831614610a46565b60408051606081018252600080825260208201819052918101919091526000828152600d602052604090206001015460ff161580610b3557506000828152600d6020526040902060010154610100900460ff16155b15610b535760405163a8e3a97360e01b815260040160405180910390fd5b506000908152600d6020908152604091829020825160608101845260019091015460ff808216835261010082048116938301939093526201000090049091169181019190915290565b60068054610ba990612e38565b80601f0160208091040260200160405190810160405280929190818152602001828054610bd590612e38565b8015610c225780601f10610bf757610100808354040283529160200191610c22565b820191906000526020600020905b815481529060010190602001808311610c0557829003601f168201915b505050505081565b3360009081526020819052604090205460ff16610c5a576040516349e27cff60e01b815260040160405180910390fd5b6000828152600d602090815260409182902060050183905581518481529081018390527f1e1ef21dc18e8f45f4e05a47d70fbffe8371dbcc8b4815e8dbca1dbd620c436691015b60405180910390a15050565b3360009081526020819052604090205460ff16610cdd576040516349e27cff60e01b815260040160405180910390fd5b6000828152600d602090815260409182902060030183905581518481529081018390527fad41bb8f5516e8c7946d99bc48fd3ff0a07239c8ffcf2d103a0612b9ab44a60a9101610ca1565b6000818152600e602052604090205460609060ff16610d5a57604051636aa2a93760e01b815260040160405180910390fd5b6008610d6583611151565b604051602001610d76929190612e72565b6040516020818303038152906040529050919050565b3360009081526020819052604090205460ff16610dbc576040516349e27cff60e01b815260040160405180910390fd5b6001600160a01b038116600081815260208190526040808220805460ff191660011790555133917f619792ba07bec101df538ab277befa333e4cf1c0274f11de7be2a9507b9c9a0691a350565b3360009081526020819052604090205460ff16610e39576040516349e27cff60e01b815260040160405180910390fd5b6000828152600d60205260409020610e518282612f44565b507fd2d827dddfc9c9a02afc5fc68d3251684b36e213a7999ebd90a861f25df4077e8282604051610ca1929190613003565b3360009081526020819052604090205460ff16610eb3576040516349e27cff60e01b815260040160405180910390fd5b6001600160a01b038116600081815260208190526040808220805460ff191690555133917fc191551a88c5609788f3532bd94c06479b61b0040eec65f9cd985428ffea643091a350565b610f606040805160e08101825260608082528251908101835260008082526020828101829052938201529091820190815260200160006001600160a01b031681526020016000815260200160008152602001600081526020016000151581525090565b6000828152600d602052604090819020815160e08101909252805482908290610f8890612e38565b80601f0160208091040260200160405190810160405280929190818152602001828054610fb490612e38565b80156110015780601f10610fd657610100808354040283529160200191611001565b820191906000526020600020905b815481529060010190602001808311610fe457829003601f168201915b50505091835250506040805160608082018352600185015460ff808216845261010082048116602085810191909152620100009092048116848601529085019290925260028501546001600160a01b03169284019290925260038401549183019190915260048301546080830152600583015460a0830152600690920154909116151560c09091015292915050565b60008030612710600b54856110a5919061301c565b6110af919061303b565b915091509250929050565b6001600160a01b0385163314806110d657506110d68533610900565b61113d5760405162461bcd60e51b815260206004820152603260248201527f455243313135353a207472616e736665722063616c6c6572206973206e6f74206044820152711bdddb995c881b9bdc88185c1c1c9bdd995960721b6064820152608401610a18565b61114a8585858585611c27565b5050505050565b6000818152600d6020526040902080546060919061116e90612e38565b80601f016020809104026020016040519081016040528092919081815260200182805461119a90612e38565b80156111e75780601f106111bc576101008083540402835291602001916111e7565b820191906000526020600020905b8154815290600101906020018083116111ca57829003601f168201915b50505050509050919050565b3360009081526020819052604090205460ff16611223576040516349e27cff60e01b815260040160405180910390fd5b60008481526004602052604090205415611250576040516387cf36d160e01b815260040160405180910390fd5b61125a8484610e09565b61126d846105ab3685900385018561305d565b61127784826118e7565b6112828460006114b3565b5050506000908152600d602090815260408083206006018054600160ff199182168117909255600e909352922080549091169091179055565b606081518351146113205760405162461bcd60e51b815260206004820152602960248201527f455243313135353a206163636f756e747320616e6420696473206c656e677468604482015268040dad2e6dac2e8c6d60bb1b6064820152608401610a18565b600083516001600160401b0381111561133b5761133b6125c1565b604051908082528060200260200182016040528015611364578160200160208202803683370190505b50905060005b84518110156113dc576113af85828151811061138857611388612e09565b60200260200101518583815181106113a2576113a2612e09565b60200260200101516109b0565b8282815181106113c1576113c1612e09565b60209081029190910101526113d581612e1f565b905061136a565b509392505050565b60088054610ba990612e38565b3360009081526020819052604090205460ff16611421576040516349e27cff60e01b815260040160405180910390fd5b6000828152600d6020908152604091829020835160019091018054858401518686015160ff94851661ffff1990931683176101009286169283021762ff000019166201000095909116948502179092558451878152938401529282019290925260608101919091527fd8e7c8605fecaf6228c6b5f990bc7f1e865694cc587ef62fe729b926915ef7e090608001610ca1565b3360009081526020819052604090205460ff166114e3576040516349e27cff60e01b815260040160405180910390fd5b6000828152600d602090815260409182902060040183905581518481529081018390527f415cf995faccaec43ce108f2713ebcdb2812b0e0689a8fa7dfdcabf78109ebbb9101610ca1565b3360009081526020819052604090205460ff1661155e576040516349e27cff60e01b815260040160405180910390fd5b6001600160a01b03811661157157600080fd5b600980546001600160a01b0319166001600160a01b0383169081179091556040519081527feee016301a2725a577c64816adf35ccf644d07439731069a31748ec3b9102c60906020015b60405180910390a150565b3360009081526020819052604090205460ff166115f6576040516349e27cff60e01b815260040160405180910390fd5b6002600554036116485760405162461bcd60e51b815260206004820152601f60248201527f5265656e7472616e637947756172643a207265656e7472616e742063616c6c006044820152606401610a18565b60026005556001600160a01b03811661166057600080fd5b600c5460000361168357604051632f31015b60e11b815260040160405180910390fd5b600c80546000918290556040519091906001600160a01b0384169083908381818185875af1925050503d80600081146116d8576040519150601f19603f3d011682016040523d82523d6000602084013e6116dd565b606091505b50509050806116ff57604051632f31015b60e11b815260040160405180910390fd5b6040518281527f2d5923adf91dd211e633a33f2e27918338e6a33e3b3f386e9d466d1bc52eba799060200160405180910390a15050600160055550565b3360009081526020819052604090205460ff1661176c576040516349e27cff60e01b815260040160405180910390fd5b600b8190556040518181527fb69fdb7c7f7b0e17f64074ea1590642f14193039b234aae7a3c68b26ed055adf906020016115bb565b60078054610ba990612e38565b3360009081526020819052604090205460ff166117de576040516349e27cff60e01b815260040160405180910390fd5b600a8190556040518181527f184fa17d2176718ea1955f61782c763ce239e39e790340793f227b0ba5db53e1906020016115bb565b610a8c338383611e15565b3361182857600080fd5b6000818152600d602052604090206006015460ff1661184657600080fd5b61184f81611ef5565b61187833826001604051806040016040528060048152602001630307830360e41b815250611f45565b50565b3360009081526020819052604090205460ff166118ab576040516349e27cff60e01b815260040160405180910390fd5b60086118b78282612f44565b507ffa52149a99a7016c4576d7bb33adefe5c4372aeded2a98a40f46d6ef33109c4d816040516115bb91906127ac565b3360009081526020819052604090205460ff16611917576040516349e27cff60e01b815260040160405180910390fd5b6000828152600d602090815260409182902060020180546001600160a01b0319166001600160a01b0385169081179091558251858152918201527f02df56823aeec019d75f2c2396e2a9c68868b26ccc5a4cd9412b2a78f8602f739101610ca1565b600d6020526000908152604090208054819061199490612e38565b80601f01602080910402602001604051908101604052809291908181526020018280546119c090612e38565b8015611a0d5780601f106119e257610100808354040283529160200191611a0d565b820191906000526020600020905b8154815290600101906020018083116119f057829003601f168201915b505060408051606081018252600187015460ff80821683526101008204811660208401526201000090910481169282019290925260028701546003880154600489015460058a01546006909a0154989993986001600160a01b039093169750909550935090911687565b3360009081526020819052604090205460ff16611aa7576040516349e27cff60e01b815260040160405180910390fd5b6000848152600e602052604090205460ff16611ad657604051636aa2a93760e01b815260040160405180910390fd5b611ae08484610e09565b611af3846105ab3685900385018561305d565b611afd84826118e7565b611b088460006114b3565b50505050565b606060088054611b1d90612e38565b80601f0160208091040260200160405190810160405280929190818152602001828054611b4990612e38565b8015611b965780601f10611b6b57610100808354040283529160200191611b96565b820191906000526020600020905b815481529060010190602001808311611b7957829003601f168201915b5050505050905090565b6001600160a01b038516331480611bbc5750611bbc8533610900565b611c1a5760405162461bcd60e51b815260206004820152602960248201527f455243313135353a2063616c6c6572206973206e6f74206f776e6572206e6f7260448201526808185c1c1c9bdd995960ba1b6064820152608401610a18565b61114a858585858561206a565b8151835114611c895760405162461bcd60e51b815260206004820152602860248201527f455243313135353a2069647320616e6420616d6f756e7473206c656e677468206044820152670dad2e6dac2e8c6d60c31b6064820152608401610a18565b6001600160a01b038416611caf5760405162461bcd60e51b8152600401610a1890613079565b33611cbe8187878787876121a6565b60005b8451811015611da7576000858281518110611cde57611cde612e09565b602002602001015190506000858381518110611cfc57611cfc612e09565b60209081029190910181015160008481526001835260408082206001600160a01b038e168352909352919091205490915081811015611d4d5760405162461bcd60e51b8152600401610a18906130be565b60008381526001602090815260408083206001600160a01b038e8116855292528083208585039055908b16825281208054849290611d8c908490612df1565b9250508190555050505080611da090612e1f565b9050611cc1565b50846001600160a01b0316866001600160a01b0316826001600160a01b03167f4a39dc06d4c0dbc64b70af90fd698a233a518aa5d07e595d983b8c0526c8f7fb8787604051611df7929190613108565b60405180910390a4611e0d81878787878761231f565b505050505050565b816001600160a01b0316836001600160a01b031603611e885760405162461bcd60e51b815260206004820152602960248201527f455243313135353a2073657474696e6720617070726f76616c20737461747573604482015268103337b91039b2b63360b91b6064820152608401610a18565b6001600160a01b03838116600081815260026020908152604080832094871680845294825291829020805460ff191686151590811790915591519182527f17307eab39ab6107e8899845ad3d59bd9653f200f220920489ca2b5937696c31910160405180910390a3505050565b60008111611f1657604051636aa2a93760e01b815260040160405180910390fd5b6000818152600e602052604090205460ff1661187857604051636aa2a93760e01b815260040160405180910390fd5b6001600160a01b038416611fa55760405162461bcd60e51b815260206004820152602160248201527f455243313135353a206d696e7420746f20746865207a65726f206164647265736044820152607360f81b6064820152608401610a18565b336000611fb18561247a565b90506000611fbe8561247a565b9050611fcf836000898585896121a6565b60008681526001602090815260408083206001600160a01b038b16845290915281208054879290612001908490612df1565b909155505060408051878152602081018790526001600160a01b03808a1692600092918716917fc3d58168c5ae7397731d063d5bbf3d657854427343f4c083240f7aacaa2d0f62910160405180910390a4612061836000898989896124c5565b50505050505050565b6001600160a01b0384166120905760405162461bcd60e51b8152600401610a1890613079565b33600061209c8561247a565b905060006120a98561247a565b90506120b98389898585896121a6565b60008681526001602090815260408083206001600160a01b038c168452909152902054858110156120fc5760405162461bcd60e51b8152600401610a18906130be565b60008781526001602090815260408083206001600160a01b038d8116855292528083208985039055908a1682528120805488929061213b908490612df1565b909155505060408051888152602081018890526001600160a01b03808b16928c821692918816917fc3d58168c5ae7397731d063d5bbf3d657854427343f4c083240f7aacaa2d0f62910160405180910390a461219b848a8a8a8a8a6124c5565b505050505050505050565b6001600160a01b03851661222d5760005b835181101561222b578281815181106121d2576121d2612e09565b6020026020010151600460008684815181106121f0576121f0612e09565b6020026020010151815260200190815260200160002060008282546122159190612df1565b90915550612224905081612e1f565b90506121b7565b505b6001600160a01b038416611e0d5760005b835181101561206157600084828151811061225b5761225b612e09565b60200260200101519050600084838151811061227957612279612e09565b60200260200101519050600060046000848152602001908152602001600020549050818110156122fc5760405162461bcd60e51b815260206004820152602860248201527f455243313135353a206275726e20616d6f756e74206578636565647320746f74604482015267616c537570706c7960c01b6064820152608401610a18565b6000928352600460205260409092209103905561231881612e1f565b905061223e565b6001600160a01b0384163b15611e0d5760405163bc197c8160e01b81526001600160a01b0385169063bc197c81906123639089908990889088908890600401613136565b6020604051808303816000875af192505050801561239e575060408051601f3d908101601f1916820190925261239b91810190613194565b60015b61244a576123aa6131b1565b806308c379a0036123e357506123be6131cd565b806123c957506123e5565b8060405162461bcd60e51b8152600401610a1891906127ac565b505b60405162461bcd60e51b815260206004820152603460248201527f455243313135353a207472616e7366657220746f206e6f6e20455243313135356044820152732932b1b2b4bb32b91034b6b83632b6b2b73a32b960611b6064820152608401610a18565b6001600160e01b0319811663bc197c8160e01b146120615760405162461bcd60e51b8152600401610a1890613256565b604080516001808252818301909252606091600091906020808301908036833701905050905082816000815181106124b4576124b4612e09565b602090810291909101015292915050565b6001600160a01b0384163b15611e0d5760405163f23a6e6160e01b81526001600160a01b0385169063f23a6e6190612509908990899088908890889060040161329e565b6020604051808303816000875af1925050508015612544575060408051601f3d908101601f1916820190925261254191810190613194565b60015b612550576123aa6131b1565b6001600160e01b0319811663f23a6e6160e01b146120615760405162461bcd60e51b8152600401610a1890613256565b6001600160a01b038116811461187857600080fd5b600080604083850312156125a857600080fd5b82356125b381612580565b946020939093013593505050565b634e487b7160e01b600052604160045260246000fd5b601f8201601f191681016001600160401b03811182821017156125fc576125fc6125c1565b6040525050565b60006001600160401b0382111561261c5761261c6125c1565b5060051b60200190565b600082601f83011261263757600080fd5b8135602061264482612603565b60405161265182826125d7565b83815260059390931b850182019282810191508684111561267157600080fd5b8286015b8481101561268c5780358352918301918301612675565b509695505050505050565b6000602082840312156126a957600080fd5b81356001600160401b038111156126bf57600080fd5b6126cb84828501612626565b949350505050565b6001600160e01b03198116811461187857600080fd5b6000602082840312156126fb57600080fd5b8135612706816126d3565b9392505050565b60006020828403121561271f57600080fd5b5035919050565b60608101610a46828460ff815116825260ff602082015116602083015260ff60408201511660408301525050565b60005b8381101561276f578181015183820152602001612757565b83811115611b085750506000910152565b60008151808452612798816020860160208601612754565b601f01601f19169290920160200192915050565b6020815260006127066020830184612780565b600080604083850312156127d257600080fd5b50508035926020909101359150565b6000602082840312156127f357600080fd5b813561270681612580565b600082601f83011261280f57600080fd5b81356001600160401b03811115612828576128286125c1565b60405161283f601f8301601f1916602001826125d7565b81815284602083860101111561285457600080fd5b816020850160208301376000918101602001919091529392505050565b6000806040838503121561288457600080fd5b8235915060208301356001600160401b038111156128a157600080fd5b6128ad858286016127fe565b9150509250929050565b60208152600082516101208060208501526128d6610140850183612780565b9150602085015161290a604086018260ff815116825260ff602082015116602083015260ff60408201511660408301525050565b5060018060a01b0360408601511660a0850152606085015160c0850152608085015160e085015260a085015161010085015260c0850151151581850152508091505092915050565b600080600080600060a0868803121561296a57600080fd5b853561297581612580565b9450602086013561298581612580565b935060408601356001600160401b03808211156129a157600080fd5b6129ad89838a01612626565b945060608801359150808211156129c357600080fd5b6129cf89838a01612626565b935060808801359150808211156129e557600080fd5b506129f2888289016127fe565b9150509295509295909350565b60008060008084860360c0811215612a1657600080fd5b8535945060208601356001600160401b03811115612a3357600080fd5b612a3f888289016127fe565b9450506060603f1982011215612a5457600080fd5b5060408501915060a0850135612a6981612580565b939692955090935050565b60008060408385031215612a8757600080fd5b82356001600160401b0380821115612a9e57600080fd5b818501915085601f830112612ab257600080fd5b81356020612abf82612603565b604051612acc82826125d7565b83815260059390931b8501820192828101915089841115612aec57600080fd5b948201945b83861015612b13578535612b0481612580565b82529482019490820190612af1565b96505086013592505080821115612b2957600080fd5b506128ad85828601612626565b600081518084526020808501945080840160005b83811015612b6657815187529582019590820190600101612b4a565b509495945050505050565b6020815260006127066020830184612b36565b803560ff81168114612b9557600080fd5b919050565b600060608284031215612bac57600080fd5b604051606081018181106001600160401b0382111715612bce57612bce6125c1565b604052905080612bdd83612b84565b8152612beb60208401612b84565b6020820152612bfc60408401612b84565b60408201525092915050565b60008060808385031215612c1b57600080fd5b82359150612c2c8460208501612b9a565b90509250929050565b60008060408385031215612c4857600080fd5b8235612c5381612580565b915060208301358015158114612c6857600080fd5b809150509250929050565b600060208284031215612c8557600080fd5b81356001600160401b03811115612c9b57600080fd5b6126cb848285016127fe565b60008060408385031215612cba57600080fd5b823591506020830135612c6881612580565b6000610120808352612ce08184018b612780565b915050612d10602083018960ff815116825260ff602082015116602083015260ff60408201511660408301525050565b6001600160a01b0396909616608082015260a081019490945260c084019290925260e083015215156101009091015292915050565b60008060408385031215612d5857600080fd5b8235612d6381612580565b91506020830135612c6881612580565b600080600080600060a08688031215612d8b57600080fd5b8535612d9681612580565b94506020860135612da681612580565b9350604086013592506060860135915060808601356001600160401b03811115612dcf57600080fd5b6129f2888289016127fe565b634e487b7160e01b600052601160045260246000fd5b60008219821115612e0457612e04612ddb565b500190565b634e487b7160e01b600052603260045260246000fd5b600060018201612e3157612e31612ddb565b5060010190565b600181811c90821680612e4c57607f821691505b602082108103612e6c57634e487b7160e01b600052602260045260246000fd5b50919050565b6000808454612e8081612e38565b60018281168015612e985760018114612ead57612edc565b60ff1984168752821515830287019450612edc565b8860005260208060002060005b85811015612ed35781548a820152908401908201612eba565b50505082870194505b505050508351612ef0818360208801612754565b01949350505050565b601f821115612f3f57600081815260208120601f850160051c81016020861015612f205750805b601f850160051c820191505b81811015611e0d57828155600101612f2c565b505050565b81516001600160401b03811115612f5d57612f5d6125c1565b612f7181612f6b8454612e38565b84612ef9565b602080601f831160018114612fa65760008415612f8e5750858301515b600019600386901b1c1916600185901b178555611e0d565b600085815260208120601f198616915b82811015612fd557888601518255948401946001909101908401612fb6565b5085821015612ff35787850151600019600388901b60f8161c191681555b5050505050600190811b01905550565b8281526040602082015260006126cb6040830184612780565b600081600019048311821515161561303657613036612ddb565b500290565b60008261305857634e487b7160e01b600052601260045260246000fd5b500490565b60006060828403121561306f57600080fd5b6127068383612b9a565b60208082526025908201527f455243313135353a207472616e7366657220746f20746865207a65726f206164604082015264647265737360d81b606082015260800190565b6020808252602a908201527f455243313135353a20696e73756666696369656e742062616c616e636520666f60408201526939103a3930b739b332b960b11b606082015260800190565b60408152600061311b6040830185612b36565b828103602084015261312d8185612b36565b95945050505050565b6001600160a01b0386811682528516602082015260a06040820181905260009061316290830186612b36565b82810360608401526131748186612b36565b905082810360808401526131888185612780565b98975050505050505050565b6000602082840312156131a657600080fd5b8151612706816126d3565b600060033d11156131ca5760046000803e5060005160e01c5b90565b600060443d10156131db5790565b6040516003193d81016004833e81513d6001600160401b03816024840111818411171561320a57505050505090565b82850191508151818111156132225750505050505090565b843d870101602082850101111561323c5750505050505090565b61324b602082860101876125d7565b509095945050505050565b60208082526028908201527f455243313135353a204552433131353552656365697665722072656a656374656040820152676420746f6b656e7360c01b606082015260800190565b6001600160a01b03868116825285166020820152604081018490526060810183905260a0608082018190526000906132d890830184612780565b97965050505050505056fea2646970667358221220e276e83f45b612e0a463a8e730bcde96efb697e0470fd7c4b63d28bea378eb8064736f6c634300080f0033",
  "sourcePath": "/Users/onishi/git/goerli-philand/contracts/object/FreeObject.sol",
  "compiler": {
    "name": "solc",
    "version": "0.8.15+commit.e14f2714"
  },
  "functionHashes": {
    "allObjects(uint256)": "cbdac710",
    "balanceOf(address,uint256)": "00fdd58e",
    "balanceOfBatch(address[],uint256[])": "4e1273f4",
    "baseMetadataURI()": "5b2bd79e",
    "batchGetFreeObject(uint256[])": "013bc6c5",
    "changeTokenPrice(uint256,uint256)": "62e8e8ac",
    "createObject(uint256,string,(uint8,uint8,uint8),address)": "3e545f02",
    "created(uint256)": "82cb6b72",
    "exists(uint256)": "4f558e79",
    "getBaseMetadataURI()": "ea2fe3cb",
    "getCreatorAddress(uint256)": "a30b4db9",
    "getExp(uint256)": "e498922f",
    "getFreeObject(uint256)": "ab231c32",
    "getMaxClaimed(uint256)": "9733faa5",
    "getObjectInfo(uint256)": "1d1b29e0",
    "getSize(uint256)": "023c23db",
    "getTokenPrice(uint256)": "c457fb37",
    "getTokenURI(uint256)": "3bb3a24d",
    "initObject(uint256,string,(uint8,uint8,uint8),address)": "cf467b43",
    "isApprovedForAll(address,address)": "e985e9c5",
    "name()": "06fdde03",
    "owner(address)": "666e1b39",
    "paymentBalanceOwner()": "1e4c7887",
    "removeOwner(address)": "173825d9",
    "royalityFee()": "326bb4ad",
    "royaltyInfo(uint256,uint256)": "2a55205a",
    "safeBatchTransferFrom(address,address,uint256[],uint256[],bytes)": "2eb2c2d6",
    "safeTransferFrom(address,address,uint256,uint256,bytes)": "f242432a",
    "secondaryRoyalty()": "9291671a",
    "setApprovalForAll(address,bool)": "a22cb465",
    "setCreatorAddress(uint256,address)": "bfdc4fdf",
    "setExp(uint256,uint256)": "0b68e796",
    "setMaxClaimed(uint256,uint256)": "0d09308e",
    "setOwner(address)": "13af4035",
    "setRoyalityFee(uint256)": "98f24682",
    "setSecondaryRoyalityFee(uint256)": "7061d486",
    "setSize(uint256,(uint8,uint8,uint8))": "604c7f80",
    "setTokenURI(uint256,string)": "162094c4",
    "setTreasuryAddress(address)": "6605bfda",
    "setbaseMetadataURI(string)": "b6ed6da9",
    "supportsInterface(bytes4)": "01ffc9a7",
    "symbol()": "95d89b41",
    "totalSupply(uint256)": "bd85b039",
    "treasuryAddress()": "c5f956af",
    "uri(uint256)": "0e89341c",
    "withdrawOwnerBalance(address)": "67478a35"
  },
  "gasEstimates": {
    "creation": {
      "codeDepositCost": "2616200",
      "executionCost": "infinite",
      "totalCost": "infinite"
    },
    "external": {
      "allObjects(uint256)": "infinite",
      "balanceOf(address,uint256)": "2720",
      "balanceOfBatch(address[],uint256[])": "infinite",
      "baseMetadataURI()": "infinite",
      "batchGetFreeObject(uint256[])": "infinite",
      "changeTokenPrice(uint256,uint256)": "26133",
      "createObject(uint256,string,(uint8,uint8,uint8),address)": "infinite",
      "created(uint256)": "2584",
      "exists(uint256)": "2539",
      "getBaseMetadataURI()": "infinite",
      "getCreatorAddress(uint256)": "2638",
      "getExp(uint256)": "2521",
      "getFreeObject(uint256)": "infinite",
      "getMaxClaimed(uint256)": "2522",
      "getObjectInfo(uint256)": "infinite",
      "getSize(uint256)": "7343",
      "getTokenPrice(uint256)": "2566",
      "getTokenURI(uint256)": "infinite",
      "initObject(uint256,string,(uint8,uint8,uint8),address)": "infinite",
      "isApprovedForAll(address,address)": "infinite",
      "name()": "infinite",
      "owner(address)": "2614",
      "paymentBalanceOwner()": "2352",
      "removeOwner(address)": "28473",
      "royalityFee()": "2418",
      "royaltyInfo(uint256,uint256)": "2728",
      "safeBatchTransferFrom(address,address,uint256[],uint256[],bytes)": "infinite",
      "safeTransferFrom(address,address,uint256,uint256,bytes)": "infinite",
      "secondaryRoyalty()": "2329",
      "setApprovalForAll(address,bool)": "26810",
      "setCreatorAddress(uint256,address)": "28320",
      "setExp(uint256,uint256)": "26013",
      "setMaxClaimed(uint256,uint256)": "26046",
      "setOwner(address)": "28435",
      "setRoyalityFee(uint256)": "25706",
      "setSecondaryRoyalityFee(uint256)": "25707",
      "setSize(uint256,(uint8,uint8,uint8))": "infinite",
      "setTokenURI(uint256,string)": "infinite",
      "setTreasuryAddress(address)": "27894",
      "setbaseMetadataURI(string)": "infinite",
      "supportsInterface(bytes4)": "623",
      "symbol()": "infinite",
      "totalSupply(uint256)": "2516",
      "treasuryAddress()": "2492",
      "uri(uint256)": "infinite",
      "withdrawOwnerBalance(address)": "infinite"
    },
    "internal": {
      "isValid(uint256)": "infinite"
    }
  }
}