{
  "contractName": "PremiumObject",
  "abi": [
    {
      "inputs": [
        {
          "internalType": "address payable",
          "name": "_treasuryAddress",
          "type": "address"
        }
      ],
      "stateMutability": "nonpayable",
      "type": "constructor"
    },
    {
      "inputs": [],
      "name": "ExistentToken",
      "type": "error"
    },
    {
      "inputs": [],
      "name": "InvalidOwner",
      "type": "error"
    },
    {
      "inputs": [],
      "name": "InvalidTokenID",
      "type": "error"
    },
    {
      "inputs": [],
      "name": "NoSetTokenSize",
      "type": "error"
    },
    {
      "inputs": [],
      "name": "NonExistentToken",
      "type": "error"
    },
    {
      "inputs": [],
      "name": "PaymentBalanceZero",
      "type": "error"
    },
    {
      "anonymous": false,
      "inputs": [
        {
          "indexed": true,
          "internalType": "address",
          "name": "account",
          "type": "address"
        },
        {
          "indexed": true,
          "internalType": "address",
          "name": "operator",
          "type": "address"
        },
        {
          "indexed": false,
          "internalType": "bool",
          "name": "approved",
          "type": "bool"
        }
      ],
      "name": "ApprovalForAll",
      "type": "event"
    },
    {
      "anonymous": false,
      "inputs": [
        {
          "indexed": false,
          "internalType": "uint256",
          "name": "tokenId",
          "type": "uint256"
        },
        {
          "indexed": false,
          "internalType": "uint256",
          "name": "newPrice",
          "type": "uint256"
        }
      ],
      "name": "ChangeTokenPrice",
      "type": "event"
    },
    {
      "anonymous": false,
      "inputs": [
        {
          "indexed": false,
          "internalType": "uint256",
          "name": "tokenId",
          "type": "uint256"
        },
        {
          "indexed": false,
          "internalType": "string",
          "name": "uri",
          "type": "string"
        },
        {
          "components": [
            {
              "internalType": "uint8",
              "name": "x",
              "type": "uint8"
            },
            {
              "internalType": "uint8",
              "name": "y",
              "type": "uint8"
            },
            {
              "internalType": "uint8",
              "name": "z",
              "type": "uint8"
            }
          ],
          "indexed": false,
          "internalType": "struct BaseObject.Size",
          "name": "size",
          "type": "tuple"
        },
        {
          "indexed": false,
          "internalType": "address payable",
          "name": "creator",
          "type": "address"
        },
        {
          "indexed": false,
          "internalType": "uint256",
          "name": "maxClaimed",
          "type": "uint256"
        },
        {
          "indexed": false,
          "internalType": "uint256",
          "name": "price",
          "type": "uint256"
        }
      ],
      "name": "CreateObject",
      "type": "event"
    },
    {
      "anonymous": false,
      "inputs": [
        {
          "indexed": false,
          "internalType": "uint256",
          "name": "tokenId",
          "type": "uint256"
        },
        {
          "indexed": false,
          "internalType": "string",
          "name": "tokenUri",
          "type": "string"
        },
        {
          "components": [
            {
              "internalType": "uint8",
              "name": "x",
              "type": "uint8"
            },
            {
              "internalType": "uint8",
              "name": "y",
              "type": "uint8"
            },
            {
              "internalType": "uint8",
              "name": "z",
              "type": "uint8"
            }
          ],
          "indexed": false,
          "internalType": "struct BaseObject.Size",
          "name": "size",
          "type": "tuple"
        },
        {
          "indexed": false,
          "internalType": "address payable",
          "name": "creator",
          "type": "address"
        },
        {
          "indexed": false,
          "internalType": "uint256",
          "name": "maxClaimed",
          "type": "uint256"
        },
        {
          "indexed": false,
          "internalType": "uint256",
          "name": "price",
          "type": "uint256"
        }
      ],
      "name": "InitObject",
      "type": "event"
    },
    {
      "anonymous": false,
      "inputs": [
        {
          "indexed": true,
          "internalType": "address",
          "name": "sender",
          "type": "address"
        },
        {
          "indexed": false,
          "internalType": "uint256",
          "name": "tokenId",
          "type": "uint256"
        },
        {
          "indexed": false,
          "internalType": "uint256",
          "name": "value",
          "type": "uint256"
        }
      ],
      "name": "LogbuyObject",
      "type": "event"
    },
    {
      "anonymous": false,
      "inputs": [
        {
          "indexed": true,
          "internalType": "address",
          "name": "operator",
          "type": "address"
        },
        {
          "indexed": true,
          "internalType": "address",
          "name": "target",
          "type": "address"
        }
      ],
      "name": "OwnershipGranted",
      "type": "event"
    },
    {
      "anonymous": false,
      "inputs": [
        {
          "indexed": true,
          "internalType": "address",
          "name": "operator",
          "type": "address"
        },
        {
          "indexed": true,
          "internalType": "address",
          "name": "target",
          "type": "address"
        }
      ],
      "name": "OwnershipRemoved",
      "type": "event"
    },
    {
      "anonymous": false,
      "inputs": [
        {
          "indexed": false,
          "internalType": "uint256",
          "name": "amount",
          "type": "uint256"
        }
      ],
      "name": "PaymentReceivedOwner",
      "type": "event"
    },
    {
      "anonymous": false,
      "inputs": [
        {
          "indexed": false,
          "internalType": "uint256",
          "name": "amount",
          "type": "uint256"
        }
      ],
      "name": "PaymentWithdrawnOwner",
      "type": "event"
    },
    {
      "anonymous": false,
      "inputs": [
        {
          "indexed": false,
          "internalType": "uint256",
          "name": "tokenId",
          "type": "uint256"
        },
        {
          "indexed": false,
          "internalType": "address payable",
          "name": "creator",
          "type": "address"
        }
      ],
      "name": "SetCreator",
      "type": "event"
    },
    {
      "anonymous": false,
      "inputs": [
        {
          "indexed": false,
          "internalType": "uint256",
          "name": "tokenId",
          "type": "uint256"
        },
        {
          "indexed": false,
          "internalType": "uint256",
          "name": "exp",
          "type": "uint256"
        }
      ],
      "name": "SetExp",
      "type": "event"
    },
    {
      "anonymous": false,
      "inputs": [
        {
          "indexed": false,
          "internalType": "uint256",
          "name": "tokenId",
          "type": "uint256"
        },
        {
          "indexed": false,
          "internalType": "uint256",
          "name": "newMaxClaimed",
          "type": "uint256"
        }
      ],
      "name": "SetMaxClaimed",
      "type": "event"
    },
    {
      "anonymous": false,
      "inputs": [
        {
          "indexed": false,
          "internalType": "uint256",
          "name": "royalityFee",
          "type": "uint256"
        }
      ],
      "name": "SetRoyalityFee",
      "type": "event"
    },
    {
      "anonymous": false,
      "inputs": [
        {
          "indexed": false,
          "internalType": "uint256",
          "name": "secondaryRoyalty",
          "type": "uint256"
        }
      ],
      "name": "SetSecondaryRoyalityFee",
      "type": "event"
    },
    {
      "anonymous": false,
      "inputs": [
        {
          "indexed": false,
          "internalType": "uint256",
          "name": "tokenId",
          "type": "uint256"
        },
        {
          "indexed": false,
          "internalType": "uint8",
          "name": "x",
          "type": "uint8"
        },
        {
          "indexed": false,
          "internalType": "uint8",
          "name": "y",
          "type": "uint8"
        },
        {
          "indexed": false,
          "internalType": "uint8",
          "name": "z",
          "type": "uint8"
        }
      ],
      "name": "SetSize",
      "type": "event"
    },
    {
      "anonymous": false,
      "inputs": [
        {
          "indexed": false,
          "internalType": "uint256",
          "name": "tokenId",
          "type": "uint256"
        },
        {
          "indexed": false,
          "internalType": "string",
          "name": "uri",
          "type": "string"
        }
      ],
      "name": "SetTokenURI",
      "type": "event"
    },
    {
      "anonymous": false,
      "inputs": [
        {
          "indexed": false,
          "internalType": "address payable",
          "name": "treasuryAddress",
          "type": "address"
        }
      ],
      "name": "SetTreasuryAddress",
      "type": "event"
    },
    {
      "anonymous": false,
      "inputs": [
        {
          "indexed": false,
          "internalType": "string",
          "name": "baseuri",
          "type": "string"
        }
      ],
      "name": "SetbaseMetadataURI",
      "type": "event"
    },
    {
      "anonymous": false,
      "inputs": [
        {
          "indexed": true,
          "internalType": "address",
          "name": "operator",
          "type": "address"
        },
        {
          "indexed": true,
          "internalType": "address",
          "name": "from",
          "type": "address"
        },
        {
          "indexed": true,
          "internalType": "address",
          "name": "to",
          "type": "address"
        },
        {
          "indexed": false,
          "internalType": "uint256[]",
          "name": "ids",
          "type": "uint256[]"
        },
        {
          "indexed": false,
          "internalType": "uint256[]",
          "name": "values",
          "type": "uint256[]"
        }
      ],
      "name": "TransferBatch",
      "type": "event"
    },
    {
      "anonymous": false,
      "inputs": [
        {
          "indexed": true,
          "internalType": "address",
          "name": "operator",
          "type": "address"
        },
        {
          "indexed": true,
          "internalType": "address",
          "name": "from",
          "type": "address"
        },
        {
          "indexed": true,
          "internalType": "address",
          "name": "to",
          "type": "address"
        },
        {
          "indexed": false,
          "internalType": "uint256",
          "name": "id",
          "type": "uint256"
        },
        {
          "indexed": false,
          "internalType": "uint256",
          "name": "value",
          "type": "uint256"
        }
      ],
      "name": "TransferSingle",
      "type": "event"
    },
    {
      "anonymous": false,
      "inputs": [
        {
          "indexed": false,
          "internalType": "string",
          "name": "value",
          "type": "string"
        },
        {
          "indexed": true,
          "internalType": "uint256",
          "name": "id",
          "type": "uint256"
        }
      ],
      "name": "URI",
      "type": "event"
    },
    {
      "inputs": [
        {
          "internalType": "uint256",
          "name": "",
          "type": "uint256"
        }
      ],
      "name": "allObjects",
      "outputs": [
        {
          "internalType": "string",
          "name": "tokenURI",
          "type": "string"
        },
        {
          "components": [
            {
              "internalType": "uint8",
              "name": "x",
              "type": "uint8"
            },
            {
              "internalType": "uint8",
              "name": "y",
              "type": "uint8"
            },
            {
              "internalType": "uint8",
              "name": "z",
              "type": "uint8"
            }
          ],
          "internalType": "struct BaseObject.Size",
          "name": "size",
          "type": "tuple"
        },
        {
          "internalType": "address payable",
          "name": "creator",
          "type": "address"
        },
        {
          "internalType": "uint256",
          "name": "maxClaimed",
          "type": "uint256"
        },
        {
          "internalType": "uint256",
          "name": "price",
          "type": "uint256"
        },
        {
          "internalType": "uint256",
          "name": "exp",
          "type": "uint256"
        },
        {
          "internalType": "bool",
          "name": "forSale",
          "type": "bool"
        }
      ],
      "stateMutability": "view",
      "type": "function"
    },
    {
      "inputs": [
        {
          "internalType": "address",
          "name": "account",
          "type": "address"
        },
        {
          "internalType": "uint256",
          "name": "id",
          "type": "uint256"
        }
      ],
      "name": "balanceOf",
      "outputs": [
        {
          "internalType": "uint256",
          "name": "",
          "type": "uint256"
        }
      ],
      "stateMutability": "view",
      "type": "function"
    },
    {
      "inputs": [
        {
          "internalType": "address[]",
          "name": "accounts",
          "type": "address[]"
        },
        {
          "internalType": "uint256[]",
          "name": "ids",
          "type": "uint256[]"
        }
      ],
      "name": "balanceOfBatch",
      "outputs": [
        {
          "internalType": "uint256[]",
          "name": "",
          "type": "uint256[]"
        }
      ],
      "stateMutability": "view",
      "type": "function"
    },
    {
      "inputs": [],
      "name": "baseMetadataURI",
      "outputs": [
        {
          "internalType": "string",
          "name": "",
          "type": "string"
        }
      ],
      "stateMutability": "view",
      "type": "function"
    },
    {
      "inputs": [
        {
          "internalType": "uint256[]",
          "name": "tokenIds",
          "type": "uint256[]"
        }
      ],
      "name": "batchBuyObject",
      "outputs": [],
      "stateMutability": "payable",
      "type": "function"
    },
    {
      "inputs": [
        {
          "internalType": "uint256",
          "name": "tokenId",
          "type": "uint256"
        }
      ],
      "name": "buyObject",
      "outputs": [],
      "stateMutability": "payable",
      "type": "function"
    },
    {
      "inputs": [
        {
          "internalType": "uint256",
          "name": "tokenId",
          "type": "uint256"
        },
        {
          "internalType": "uint256",
          "name": "newPrice",
          "type": "uint256"
        }
      ],
      "name": "changeTokenPrice",
      "outputs": [],
      "stateMutability": "nonpayable",
      "type": "function"
    },
    {
      "inputs": [
        {
          "internalType": "uint256",
          "name": "tokenId",
          "type": "uint256"
        },
        {
          "internalType": "string",
          "name": "tokenUri",
          "type": "string"
        },
        {
          "components": [
            {
              "internalType": "uint8",
              "name": "x",
              "type": "uint8"
            },
            {
              "internalType": "uint8",
              "name": "y",
              "type": "uint8"
            },
            {
              "internalType": "uint8",
              "name": "z",
              "type": "uint8"
            }
          ],
          "internalType": "struct BaseObject.Size",
          "name": "size",
          "type": "tuple"
        },
        {
          "internalType": "address payable",
          "name": "creator",
          "type": "address"
        },
        {
          "internalType": "uint256",
          "name": "maxClaimed",
          "type": "uint256"
        },
        {
          "internalType": "uint256",
          "name": "price",
          "type": "uint256"
        }
      ],
      "name": "createObject",
      "outputs": [],
      "stateMutability": "nonpayable",
      "type": "function"
    },
    {
      "inputs": [
        {
          "internalType": "uint256",
          "name": "",
          "type": "uint256"
        }
      ],
      "name": "created",
      "outputs": [
        {
          "internalType": "bool",
          "name": "",
          "type": "bool"
        }
      ],
      "stateMutability": "view",
      "type": "function"
    },
    {
      "inputs": [
        {
          "internalType": "uint256",
          "name": "id",
          "type": "uint256"
        }
      ],
      "name": "exists",
      "outputs": [
        {
          "internalType": "bool",
          "name": "",
          "type": "bool"
        }
      ],
      "stateMutability": "view",
      "type": "function"
    },
    {
      "inputs": [],
      "name": "getBaseMetadataURI",
      "outputs": [
        {
          "internalType": "string",
          "name": "",
          "type": "string"
        }
      ],
      "stateMutability": "view",
      "type": "function"
    },
    {
      "inputs": [
        {
          "internalType": "uint256",
          "name": "tokenId",
          "type": "uint256"
        }
      ],
      "name": "getCreatorAddress",
      "outputs": [
        {
          "internalType": "address payable",
          "name": "",
          "type": "address"
        }
      ],
      "stateMutability": "view",
      "type": "function"
    },
    {
      "inputs": [
        {
          "internalType": "uint256",
          "name": "tokenId",
          "type": "uint256"
        }
      ],
      "name": "getExp",
      "outputs": [
        {
          "internalType": "uint256",
          "name": "",
          "type": "uint256"
        }
      ],
      "stateMutability": "view",
      "type": "function"
    },
    {
      "inputs": [
        {
          "internalType": "uint256",
          "name": "tokenId",
          "type": "uint256"
        }
      ],
      "name": "getMaxClaimed",
      "outputs": [
        {
          "internalType": "uint256",
          "name": "",
          "type": "uint256"
        }
      ],
      "stateMutability": "view",
      "type": "function"
    },
    {
      "inputs": [
        {
          "internalType": "uint256",
          "name": "tokenId",
          "type": "uint256"
        }
      ],
      "name": "getObjectInfo",
      "outputs": [
        {
          "components": [
            {
              "internalType": "string",
              "name": "tokenURI",
              "type": "string"
            },
            {
              "components": [
                {
                  "internalType": "uint8",
                  "name": "x",
                  "type": "uint8"
                },
                {
                  "internalType": "uint8",
                  "name": "y",
                  "type": "uint8"
                },
                {
                  "internalType": "uint8",
                  "name": "z",
                  "type": "uint8"
                }
              ],
              "internalType": "struct BaseObject.Size",
              "name": "size",
              "type": "tuple"
            },
            {
              "internalType": "address payable",
              "name": "creator",
              "type": "address"
            },
            {
              "internalType": "uint256",
              "name": "maxClaimed",
              "type": "uint256"
            },
            {
              "internalType": "uint256",
              "name": "price",
              "type": "uint256"
            },
            {
              "internalType": "uint256",
              "name": "exp",
              "type": "uint256"
            },
            {
              "internalType": "bool",
              "name": "forSale",
              "type": "bool"
            }
          ],
          "internalType": "struct BaseObject.Object",
          "name": "",
          "type": "tuple"
        }
      ],
      "stateMutability": "view",
      "type": "function"
    },
    {
      "inputs": [],
      "name": "getRoyalityFee",
      "outputs": [
        {
          "internalType": "uint256",
          "name": "",
          "type": "uint256"
        }
      ],
      "stateMutability": "view",
      "type": "function"
    },
    {
      "inputs": [
        {
          "internalType": "uint256",
          "name": "tokenId",
          "type": "uint256"
        }
      ],
      "name": "getSize",
      "outputs": [
        {
          "components": [
            {
              "internalType": "uint8",
              "name": "x",
              "type": "uint8"
            },
            {
              "internalType": "uint8",
              "name": "y",
              "type": "uint8"
            },
            {
              "internalType": "uint8",
              "name": "z",
              "type": "uint8"
            }
          ],
          "internalType": "struct BaseObject.Size",
          "name": "",
          "type": "tuple"
        }
      ],
      "stateMutability": "view",
      "type": "function"
    },
    {
      "inputs": [
        {
          "internalType": "uint256",
          "name": "tokenId",
          "type": "uint256"
        }
      ],
      "name": "getTokenPrice",
      "outputs": [
        {
          "internalType": "uint256",
          "name": "",
          "type": "uint256"
        }
      ],
      "stateMutability": "view",
      "type": "function"
    },
    {
      "inputs": [
        {
          "internalType": "uint256",
          "name": "tokenId",
          "type": "uint256"
        }
      ],
      "name": "getTokenURI",
      "outputs": [
        {
          "internalType": "string",
          "name": "",
          "type": "string"
        }
      ],
      "stateMutability": "view",
      "type": "function"
    },
    {
      "inputs": [
        {
          "internalType": "uint256",
          "name": "tokenId",
          "type": "uint256"
        },
        {
          "internalType": "string",
          "name": "tokenUri",
          "type": "string"
        },
        {
          "components": [
            {
              "internalType": "uint8",
              "name": "x",
              "type": "uint8"
            },
            {
              "internalType": "uint8",
              "name": "y",
              "type": "uint8"
            },
            {
              "internalType": "uint8",
              "name": "z",
              "type": "uint8"
            }
          ],
          "internalType": "struct BaseObject.Size",
          "name": "size",
          "type": "tuple"
        },
        {
          "internalType": "address payable",
          "name": "creator",
          "type": "address"
        },
        {
          "internalType": "uint256",
          "name": "maxClaimed",
          "type": "uint256"
        },
        {
          "internalType": "uint256",
          "name": "price",
          "type": "uint256"
        }
      ],
      "name": "initObject",
      "outputs": [],
      "stateMutability": "nonpayable",
      "type": "function"
    },
    {
      "inputs": [
        {
          "internalType": "address",
          "name": "account",
          "type": "address"
        },
        {
          "internalType": "address",
          "name": "operator",
          "type": "address"
        }
      ],
      "name": "isApprovedForAll",
      "outputs": [
        {
          "internalType": "bool",
          "name": "",
          "type": "bool"
        }
      ],
      "stateMutability": "view",
      "type": "function"
    },
    {
      "inputs": [],
      "name": "name",
      "outputs": [
        {
          "internalType": "string",
          "name": "",
          "type": "string"
        }
      ],
      "stateMutability": "view",
      "type": "function"
    },
    {
      "inputs": [
        {
          "internalType": "address",
          "name": "targetAddress",
          "type": "address"
        }
      ],
      "name": "owner",
      "outputs": [
        {
          "internalType": "bool",
          "name": "",
          "type": "bool"
        }
      ],
      "stateMutability": "nonpayable",
      "type": "function"
    },
    {
      "inputs": [],
      "name": "paymentBalanceOwner",
      "outputs": [
        {
          "internalType": "uint256",
          "name": "",
          "type": "uint256"
        }
      ],
      "stateMutability": "view",
      "type": "function"
    },
    {
      "inputs": [
        {
          "internalType": "address",
          "name": "oldOwner",
          "type": "address"
        }
      ],
      "name": "removeOwner",
      "outputs": [],
      "stateMutability": "nonpayable",
      "type": "function"
    },
    {
      "inputs": [],
      "name": "royalityFee",
      "outputs": [
        {
          "internalType": "uint256",
          "name": "",
          "type": "uint256"
        }
      ],
      "stateMutability": "view",
      "type": "function"
    },
    {
      "inputs": [
        {
          "internalType": "uint256",
          "name": "",
          "type": "uint256"
        },
        {
          "internalType": "uint256",
          "name": "salePrice",
          "type": "uint256"
        }
      ],
      "name": "royaltyInfo",
      "outputs": [
        {
          "internalType": "address",
          "name": "receiver",
          "type": "address"
        },
        {
          "internalType": "uint256",
          "name": "royaltyAmount",
          "type": "uint256"
        }
      ],
      "stateMutability": "view",
      "type": "function"
    },
    {
      "inputs": [
        {
          "internalType": "address",
          "name": "from",
          "type": "address"
        },
        {
          "internalType": "address",
          "name": "to",
          "type": "address"
        },
        {
          "internalType": "uint256[]",
          "name": "ids",
          "type": "uint256[]"
        },
        {
          "internalType": "uint256[]",
          "name": "amounts",
          "type": "uint256[]"
        },
        {
          "internalType": "bytes",
          "name": "data",
          "type": "bytes"
        }
      ],
      "name": "safeBatchTransferFrom",
      "outputs": [],
      "stateMutability": "nonpayable",
      "type": "function"
    },
    {
      "inputs": [
        {
          "internalType": "address",
          "name": "from",
          "type": "address"
        },
        {
          "internalType": "address",
          "name": "to",
          "type": "address"
        },
        {
          "internalType": "uint256",
          "name": "id",
          "type": "uint256"
        },
        {
          "internalType": "uint256",
          "name": "amount",
          "type": "uint256"
        },
        {
          "internalType": "bytes",
          "name": "data",
          "type": "bytes"
        }
      ],
      "name": "safeTransferFrom",
      "outputs": [],
      "stateMutability": "nonpayable",
      "type": "function"
    },
    {
      "inputs": [],
      "name": "secondaryRoyalty",
      "outputs": [
        {
          "internalType": "uint256",
          "name": "",
          "type": "uint256"
        }
      ],
      "stateMutability": "view",
      "type": "function"
    },
    {
      "inputs": [
        {
          "internalType": "address",
          "name": "operator",
          "type": "address"
        },
        {
          "internalType": "bool",
          "name": "approved",
          "type": "bool"
        }
      ],
      "name": "setApprovalForAll",
      "outputs": [],
      "stateMutability": "nonpayable",
      "type": "function"
    },
    {
      "inputs": [
        {
          "internalType": "uint256",
          "name": "tokenId",
          "type": "uint256"
        },
        {
          "internalType": "address payable",
          "name": "creator",
          "type": "address"
        }
      ],
      "name": "setCreatorAddress",
      "outputs": [],
      "stateMutability": "nonpayable",
      "type": "function"
    },
    {
      "inputs": [
        {
          "internalType": "uint256",
          "name": "tokenId",
          "type": "uint256"
        },
        {
          "internalType": "uint256",
          "name": "exp",
          "type": "uint256"
        }
      ],
      "name": "setExp",
      "outputs": [],
      "stateMutability": "nonpayable",
      "type": "function"
    },
    {
      "inputs": [
        {
          "internalType": "uint256",
          "name": "tokenId",
          "type": "uint256"
        },
        {
          "internalType": "uint256",
          "name": "newMaxClaimed",
          "type": "uint256"
        }
      ],
      "name": "setMaxClaimed",
      "outputs": [],
      "stateMutability": "nonpayable",
      "type": "function"
    },
    {
      "inputs": [
        {
          "internalType": "address",
          "name": "newOwner",
          "type": "address"
        }
      ],
      "name": "setOwner",
      "outputs": [],
      "stateMutability": "nonpayable",
      "type": "function"
    },
    {
      "inputs": [
        {
          "internalType": "uint256",
          "name": "newRoyalityFee",
          "type": "uint256"
        }
      ],
      "name": "setRoyalityFee",
      "outputs": [],
      "stateMutability": "nonpayable",
      "type": "function"
    },
    {
      "inputs": [
        {
          "internalType": "uint256",
          "name": "newSecondaryRoyalty",
          "type": "uint256"
        }
      ],
      "name": "setSecondaryRoyalityFee",
      "outputs": [],
      "stateMutability": "nonpayable",
      "type": "function"
    },
    {
      "inputs": [
        {
          "internalType": "uint256",
          "name": "tokenId",
          "type": "uint256"
        },
        {
          "components": [
            {
              "internalType": "uint8",
              "name": "x",
              "type": "uint8"
            },
            {
              "internalType": "uint8",
              "name": "y",
              "type": "uint8"
            },
            {
              "internalType": "uint8",
              "name": "z",
              "type": "uint8"
            }
          ],
          "internalType": "struct BaseObject.Size",
          "name": "size",
          "type": "tuple"
        }
      ],
      "name": "setSize",
      "outputs": [],
      "stateMutability": "nonpayable",
      "type": "function"
    },
    {
      "inputs": [
        {
          "internalType": "uint256",
          "name": "tokenId",
          "type": "uint256"
        },
        {
          "internalType": "string",
          "name": "uri",
          "type": "string"
        }
      ],
      "name": "setTokenURI",
      "outputs": [],
      "stateMutability": "nonpayable",
      "type": "function"
    },
    {
      "inputs": [
        {
          "internalType": "address payable",
          "name": "newTreasuryAddress",
          "type": "address"
        }
      ],
      "name": "setTreasuryAddress",
      "outputs": [],
      "stateMutability": "nonpayable",
      "type": "function"
    },
    {
      "inputs": [
        {
          "internalType": "string",
          "name": "newBaseMetadataURI",
          "type": "string"
        }
      ],
      "name": "setbaseMetadataURI",
      "outputs": [],
      "stateMutability": "nonpayable",
      "type": "function"
    },
    {
      "inputs": [
        {
          "internalType": "bytes4",
          "name": "interfaceId",
          "type": "bytes4"
        }
      ],
      "name": "supportsInterface",
      "outputs": [
        {
          "internalType": "bool",
          "name": "",
          "type": "bool"
        }
      ],
      "stateMutability": "view",
      "type": "function"
    },
    {
      "inputs": [],
      "name": "symbol",
      "outputs": [
        {
          "internalType": "string",
          "name": "",
          "type": "string"
        }
      ],
      "stateMutability": "view",
      "type": "function"
    },
    {
      "inputs": [
        {
          "internalType": "uint256",
          "name": "id",
          "type": "uint256"
        }
      ],
      "name": "totalSupply",
      "outputs": [
        {
          "internalType": "uint256",
          "name": "",
          "type": "uint256"
        }
      ],
      "stateMutability": "view",
      "type": "function"
    },
    {
      "inputs": [],
      "name": "treasuryAddress",
      "outputs": [
        {
          "internalType": "address payable",
          "name": "",
          "type": "address"
        }
      ],
      "stateMutability": "view",
      "type": "function"
    },
    {
      "inputs": [
        {
          "internalType": "uint256",
          "name": "tokenId",
          "type": "uint256"
        }
      ],
      "name": "uri",
      "outputs": [
        {
          "internalType": "string",
          "name": "",
          "type": "string"
        }
      ],
      "stateMutability": "view",
      "type": "function"
    },
    {
      "inputs": [
        {
          "internalType": "address",
          "name": "withdrawTo",
          "type": "address"
        }
      ],
      "name": "withdrawOwnerBalance",
      "outputs": [],
      "stateMutability": "nonpayable",
      "type": "function"
    },
    {
      "stateMutability": "payable",
      "type": "receive"
    }
  ],
  "bytecode": "60806040523480156200001157600080fd5b5060405162003bb938038062003bb9833981016040819052620000349162000164565b604080516020808201835260008083523381529081905291909120805460ff19166001179055620000658162000152565b5060016005556001600160a01b0381166200007f57600080fd5b60408051808201909152600e81526d141c995b5a5d5b4813d89a9958dd60921b6020820152600690620000b390826200023b565b50604080518082019091526003815262504f5360e81b6020820152600790620000dd90826200023b565b5060408051808201909152601881527f68747470733a2f2f7777772e617277656176652e6e65742f000000000000000060208201526008906200012190826200023b565b50600980546001600160a01b0319166001600160a01b03929092169190911790556000600a556064600b5562000307565b60036200016082826200023b565b5050565b6000602082840312156200017757600080fd5b81516001600160a01b03811681146200018f57600080fd5b9392505050565b634e487b7160e01b600052604160045260246000fd5b600181811c90821680620001c157607f821691505b602082108103620001e257634e487b7160e01b600052602260045260246000fd5b50919050565b601f8211156200023657600081815260208120601f850160051c81016020861015620002115750805b601f850160051c820191505b8181101562000232578281556001016200021d565b5050505b505050565b81516001600160401b0381111562000257576200025762000196565b6200026f81620002688454620001ac565b84620001e8565b602080601f831160018114620002a757600084156200028e5750858301515b600019600386901b1c1916600185901b17855562000232565b600085815260208120601f198616915b82811015620002d857888601518255948401946001909101908401620002b7565b5085821015620002f75787850151600019600388901b60f8161c191681555b5050505050600190811b01905550565b6138a280620003176000396000f3fe60806040526004361061028b5760003560e01c806362e8e8ac1161015a578063a22cb465116100c1578063c5f956af1161007a578063c5f956af14610868578063cbdac71014610888578063e498922f146108bb578063e985e9c5146108eb578063ea2fe3cb14610934578063f242432a1461094957600080fd5b8063a22cb4651461075a578063a30b4db91461077a578063b6ed6da9146107cb578063bd85b039146107eb578063bfdc4fdf14610818578063c457fb371461083857600080fd5b806380b5c1f41161011357806380b5c1f41461069c57806382cb6b72146106af5780639291671a146106df57806395d89b41146106f55780639733faa51461070a57806398f246821461073a57600080fd5b806362e8e8ac146105ce578063653f0884146105ee5780636605bfda14610603578063666e1b391461062357806367478a351461065c5780637061d4861461067c57600080fd5b80631d1b29e0116101fe5780633bb3a24d116101b75780633bb3a24d1461050a5780634e1273f41461052a5780634f558e791461055757806358467941146105865780635b2bd79e14610599578063604c7f80146105ae57600080fd5b80631d1b29e0146104325780631e4c78871461045f5780632a55205a146104755780632df918a1146104b45780632eb2c2d6146104d4578063326bb4ad146104f457600080fd5b80630c68a790116102505780630c68a790146103725780630d09308e146103925780630e89341c146103b257806313af4035146103d2578063162094c4146103f2578063173825d91461041257600080fd5b8062fdd58e146102a057806301ffc9a7146102d3578063023c23db1461030357806306fdde03146103305780630b68e7961461035257600080fd5b3661029b5761029934610969565b005b600080fd5b3480156102ac57600080fd5b506102c06102bb366004612aac565b6109b6565b6040519081526020015b60405180910390f35b3480156102df57600080fd5b506102f36102ee366004612aee565b610a52565b60405190151581526020016102ca565b34801561030f57600080fd5b5061032361031e366004612b12565b610aa2565b6040516102ca9190612b2b565b34801561033c57600080fd5b50610345610b5e565b6040516102ca9190612bb5565b34801561035e57600080fd5b5061029961036d366004612bc8565b610bec565b34801561037e57600080fd5b5061029961038d366004612d23565b610c6f565b34801561039e57600080fd5b506102996103ad366004612bc8565b610d49565b3480156103be57600080fd5b506103456103cd366004612b12565b610dc4565b3480156103de57600080fd5b506102996103ed366004612da0565b610e28565b3480156103fe57600080fd5b5061029961040d366004612dbd565b610ea5565b34801561041e57600080fd5b5061029961042d366004612da0565b610f1f565b34801561043e57600080fd5b5061045261044d366004612b12565b610f99565b6040516102ca9190612e03565b34801561046b57600080fd5b506102c0600c5481565b34801561048157600080fd5b50610495610490366004612bc8565b61112c565b604080516001600160a01b0390931683526020830191909152016102ca565b3480156104c057600080fd5b506102996104cf366004612d23565b611156565b3480156104e057600080fd5b506102996104ef366004612f32565b611253565b34801561050057600080fd5b506102c0600a5481565b34801561051657600080fd5b50610345610525366004612b12565b6112ea565b34801561053657600080fd5b5061054a610545366004612fdf565b61138c565b6040516102ca91906130dc565b34801561056357600080fd5b506102f3610572366004612b12565b600090815260046020526040902054151590565b6102996105943660046130ef565b6114b5565b3480156105a557600080fd5b5061034561183d565b3480156105ba57600080fd5b506102996105c936600461312b565b61184a565b3480156105da57600080fd5b506102996105e9366004612bc8565b61190c565b3480156105fa57600080fd5b50600a546102c0565b34801561060f57600080fd5b5061029961061e366004612da0565b611987565b34801561062f57600080fd5b506102f361063e366004612da0565b6001600160a01b031660009081526020819052604090205460ff1690565b34801561066857600080fd5b50610299610677366004612da0565b611a1f565b34801561068857600080fd5b50610299610697366004612b12565b611b95565b6102996106aa366004612b12565b611bfa565b3480156106bb57600080fd5b506102f36106ca366004612b12565b600e6020526000908152604090205460ff1681565b3480156106eb57600080fd5b506102c0600b5481565b34801561070157600080fd5b50610345611d7f565b34801561071657600080fd5b506102c0610725366004612b12565b6000908152600d602052604090206003015490565b34801561074657600080fd5b50610299610755366004612b12565b611d8c565b34801561076657600080fd5b50610299610775366004613158565b611df1565b34801561078657600080fd5b506107b3610795366004612b12565b6000908152600d60205260409020600201546001600160a01b031690565b6040516001600160a01b0390911681526020016102ca565b3480156107d757600080fd5b506102996107e6366004613196565b611e00565b3480156107f757600080fd5b506102c0610806366004612b12565b60009081526004602052604090205490565b34801561082457600080fd5b506102996108333660046131ca565b611e6c565b34801561084457600080fd5b506102c0610853366004612b12565b6000908152600d602052604090206004015490565b34801561087457600080fd5b506009546107b3906001600160a01b031681565b34801561089457600080fd5b506108a86108a3366004612b12565b611efe565b6040516102ca97969594939291906131ef565b3480156108c757600080fd5b506102c06108d6366004612b12565b6000908152600d602052604090206005015490565b3480156108f757600080fd5b506102f3610906366004613268565b6001600160a01b03918216600090815260026020908152604080832093909416825291909152205460ff1690565b34801561094057600080fd5b50610345611ffc565b34801561095557600080fd5b50610299610964366004613296565b61208e565b6040518181527faab58724194bfb12b018298382453c333764e73d19ec73cb98d26f8dd10d29cc9060200160405180910390a180600c60008282546109ae9190613314565b909155505050565b60006001600160a01b038316610a275760405162461bcd60e51b815260206004820152602b60248201527f455243313135353a2062616c616e636520717565727920666f7220746865207a60448201526a65726f206164647265737360a81b60648201526084015b60405180910390fd5b5060008181526001602090815260408083206001600160a01b03861684529091529020545b92915050565b60006001600160e01b03198216636cdb3d1360e11b1480610a8357506001600160e01b031982166303a24d0760e21b145b80610a4c57506301ffc9a760e01b6001600160e01b0319831614610a4c565b60408051606081018252600080825260208201819052918101919091526000828152600d602052604090206001015460ff161580610af757506000828152600d6020526040902060010154610100900460ff16155b15610b155760405163a8e3a97360e01b815260040160405180910390fd5b506000908152600d6020908152604091829020825160608101845260019091015460ff808216835261010082048116938301939093526201000090049091169181019190915290565b60068054610b6b9061332c565b80601f0160208091040260200160405190810160405280929190818152602001828054610b979061332c565b8015610be45780601f10610bb957610100808354040283529160200191610be4565b820191906000526020600020905b815481529060010190602001808311610bc757829003601f168201915b505050505081565b3360009081526020819052604090205460ff16610c1c576040516349e27cff60e01b815260040160405180910390fd5b6000828152600d602090815260409182902060050183905581518481529081018390527f1e1ef21dc18e8f45f4e05a47d70fbffe8371dbcc8b4815e8dbca1dbd620c436691015b60405180910390a15050565b3360009081526020819052604090205460ff16610c9f576040516349e27cff60e01b815260040160405180910390fd5b6000868152600e602052604090205460ff16610cce57604051636aa2a93760e01b815260040160405180910390fd5b610cd88683610d49565b610ce28686610ea5565b610cec868561184a565b610cf68684611e6c565b610d00868261190c565b7f1258929afb31c53cd7169f29f3a15c7c8f0be7dcc4eb325fd85863bd73d5d8fe868686868686604051610d3996959493929190613366565b60405180910390a1505050505050565b3360009081526020819052604090205460ff16610d79576040516349e27cff60e01b815260040160405180910390fd5b6000828152600d602090815260409182902060030183905581518481529081018390527fad41bb8f5516e8c7946d99bc48fd3ff0a07239c8ffcf2d103a0612b9ab44a60a9101610c63565b6000818152600e602052604090205460609060ff16610df657604051636aa2a93760e01b815260040160405180910390fd5b6008610e01836112ea565b604051602001610e129291906133d6565b6040516020818303038152906040529050919050565b3360009081526020819052604090205460ff16610e58576040516349e27cff60e01b815260040160405180910390fd5b6001600160a01b038116600081815260208190526040808220805460ff191660011790555133917f619792ba07bec101df538ab277befa333e4cf1c0274f11de7be2a9507b9c9a0691a350565b3360009081526020819052604090205460ff16610ed5576040516349e27cff60e01b815260040160405180910390fd5b6000828152600d60205260409020610eed82826134a3565b507fd2d827dddfc9c9a02afc5fc68d3251684b36e213a7999ebd90a861f25df4077e8282604051610c63929190613562565b3360009081526020819052604090205460ff16610f4f576040516349e27cff60e01b815260040160405180910390fd5b6001600160a01b038116600081815260208190526040808220805460ff191690555133917fc191551a88c5609788f3532bd94c06479b61b0040eec65f9cd985428ffea643091a350565b610ffc6040805160e08101825260608082528251908101835260008082526020828101829052938201529091820190815260200160006001600160a01b031681526020016000815260200160008152602001600081526020016000151581525090565b6000828152600d602052604090819020815160e081019092528054829082906110249061332c565b80601f01602080910402602001604051908101604052809291908181526020018280546110509061332c565b801561109d5780601f106110725761010080835404028352916020019161109d565b820191906000526020600020905b81548152906001019060200180831161108057829003601f168201915b50505091835250506040805160608082018352600185015460ff808216845261010082048116602085810191909152620100009092048116848601529085019290925260028501546001600160a01b03169284019290925260038401549183019190915260048301546080830152600583015460a0830152600690920154909116151560c09091015292915050565b60008030612710600b5485611141919061357b565b61114b919061359a565b915091509250929050565b3360009081526020819052604090205460ff16611186576040516349e27cff60e01b815260040160405180910390fd5b600086815260046020526040902054156111b3576040516387cf36d160e01b815260040160405180910390fd5b6111bd8686610ea5565b6111c7868561184a565b6111d18684611e6c565b6111db8683610d49565b6111e5868261190c565b6000868152600d602090815260408083206006018054600160ff199182168117909255600e9093529281902080549092169092179055517f011f15764fe9a5da131e9b5235e88ca3a6d4cf0a19d17c4a845d3d406099dc1490610d3990889088908890889088908890613366565b6001600160a01b03851633148061126f575061126f8533610906565b6112d65760405162461bcd60e51b815260206004820152603260248201527f455243313135353a207472616e736665722063616c6c6572206973206e6f74206044820152711bdddb995c881b9bdc88185c1c1c9bdd995960721b6064820152608401610a1e565b6112e38585858585612115565b5050505050565b6000818152600d602052604090208054606091906113079061332c565b80601f01602080910402602001604051908101604052809291908181526020018280546113339061332c565b80156113805780601f1061135557610100808354040283529160200191611380565b820191906000526020600020905b81548152906001019060200180831161136357829003601f168201915b50505050509050919050565b606081518351146113f15760405162461bcd60e51b815260206004820152602960248201527f455243313135353a206163636f756e747320616e6420696473206c656e677468604482015268040dad2e6dac2e8c6d60bb1b6064820152608401610a1e565b600083516001600160401b0381111561140c5761140c612bea565b604051908082528060200260200182016040528015611435578160200160208202803683370190505b50905060005b84518110156114ad57611480858281518110611459576114596135bc565b6020026020010151858381518110611473576114736135bc565b60200260200101516109b6565b828281518110611492576114926135bc565b60209081029190910101526114a6816135d2565b905061143b565b509392505050565b6000336114c157600080fd5b60005b825181101561151c57600d60008483815181106114e3576114e36135bc565b6020026020010151815260200190815260200160002060040154826115089190613314565b915080611514816135d2565b9150506114c4565b5080341461152957600080fd5b60005b82518110156118385761155783828151811061154a5761154a6135bc565b6020026020010151612303565b600d600084838151811061156d5761156d6135bc565b60209081029190910181015182528101919091526040016000206006015460ff1661159757600080fd5b600d60008483815181106115ad576115ad6135bc565b60200260200101518152602001908152602001600020600301546115f68483815181106115dc576115dc6135bc565b602002602001015160009081526004602052604090205490565b111561160157600080fd5b6000612710600a54600d600087868151811061161f5761161f6135bc565b6020026020010151815260200190815260200160002060040154611643919061357b565b61164d919061359a565b9050600d6000858481518110611665576116656135bc565b6020026020010151815260200190815260200160002060020160009054906101000a90046001600160a01b03166001600160a01b03166108fc829081150290604051600060405180830381858888f193505050501580156116ca573d6000803e3d6000fd5b50600960009054906101000a90046001600160a01b03166001600160a01b03166108fc82600d6000888781518110611704576117046135bc565b602002602001015181526020019081526020016000206004015461172891906135eb565b6040518115909202916000818181858888f19350505050158015611750573d6000803e3d6000fd5b5061179133858481518110611767576117676135bc565b6020026020010151600160405180604001604052806002815260200161060f60f31b81525061237c565b336001600160a01b03167fd3b86309a326aa8b879c8faf109abfcbe86d0414b14554db7a15312215d236ae8584815181106117ce576117ce6135bc565b6020026020010151600d60008887815181106117ec576117ec6135bc565b602002602001015181526020019081526020016000206004015460405161181d929190918252602082015260400190565b60405180910390a25080611830816135d2565b91505061152c565b505050565b60088054610b6b9061332c565b3360009081526020819052604090205460ff1661187a576040516349e27cff60e01b815260040160405180910390fd5b6000828152600d6020908152604091829020835160019091018054858401518686015160ff94851661ffff1990931683176101009286169283021762ff000019166201000095909116948502179092558451878152938401529282019290925260608101919091527fd8e7c8605fecaf6228c6b5f990bc7f1e865694cc587ef62fe729b926915ef7e090608001610c63565b3360009081526020819052604090205460ff1661193c576040516349e27cff60e01b815260040160405180910390fd5b6000828152600d602090815260409182902060040183905581518481529081018390527f415cf995faccaec43ce108f2713ebcdb2812b0e0689a8fa7dfdcabf78109ebbb9101610c63565b3360009081526020819052604090205460ff166119b7576040516349e27cff60e01b815260040160405180910390fd5b6001600160a01b0381166119ca57600080fd5b600980546001600160a01b0319166001600160a01b0383169081179091556040519081527feee016301a2725a577c64816adf35ccf644d07439731069a31748ec3b9102c60906020015b60405180910390a150565b3360009081526020819052604090205460ff16611a4f576040516349e27cff60e01b815260040160405180910390fd5b600260055403611aa15760405162461bcd60e51b815260206004820152601f60248201527f5265656e7472616e637947756172643a207265656e7472616e742063616c6c006044820152606401610a1e565b60026005556001600160a01b038116611ab957600080fd5b600c54600003611adc57604051632f31015b60e11b815260040160405180910390fd5b600c80546000918290556040519091906001600160a01b0384169083908381818185875af1925050503d8060008114611b31576040519150601f19603f3d011682016040523d82523d6000602084013e611b36565b606091505b5050905080611b5857604051632f31015b60e11b815260040160405180910390fd5b6040518281527f2d5923adf91dd211e633a33f2e27918338e6a33e3b3f386e9d466d1bc52eba799060200160405180910390a15050600160055550565b3360009081526020819052604090205460ff16611bc5576040516349e27cff60e01b815260040160405180910390fd5b600b8190556040518181527fb69fdb7c7f7b0e17f64074ea1590642f14193039b234aae7a3c68b26ed055adf90602001611a14565b33611c0457600080fd5b611c0d81612303565b6000818152600d60205260409020600401543414611c2a57600080fd5b6000818152600d602052604090206006015460ff16611c4857600080fd5b6000818152600d60209081526040808320600301546004909252909120541115611c7157600080fd5b6000612710600a5434611c84919061357b565b611c8e919061359a565b6000838152600d60205260408082206002015490519293506001600160a01b03169183156108fc0291849190818181858888f19350505050158015611cd7573d6000803e3d6000fd5b506009546001600160a01b03166108fc611cf183346135eb565b6040518115909202916000818181858888f19350505050158015611d19573d6000803e3d6000fd5b50611d413383600160405180604001604052806002815260200161060f60f31b81525061237c565b6040805183815234602082015233917fd3b86309a326aa8b879c8faf109abfcbe86d0414b14554db7a15312215d236ae910160405180910390a25050565b60078054610b6b9061332c565b3360009081526020819052604090205460ff16611dbc576040516349e27cff60e01b815260040160405180910390fd5b600a8190556040518181527f184fa17d2176718ea1955f61782c763ce239e39e790340793f227b0ba5db53e190602001611a14565b611dfc3383836124a1565b5050565b3360009081526020819052604090205460ff16611e30576040516349e27cff60e01b815260040160405180910390fd5b6008611e3c82826134a3565b507ffa52149a99a7016c4576d7bb33adefe5c4372aeded2a98a40f46d6ef33109c4d81604051611a149190612bb5565b3360009081526020819052604090205460ff16611e9c576040516349e27cff60e01b815260040160405180910390fd5b6000828152600d602090815260409182902060020180546001600160a01b0319166001600160a01b0385169081179091558251858152918201527f02df56823aeec019d75f2c2396e2a9c68868b26ccc5a4cd9412b2a78f8602f739101610c63565b600d60205260009081526040902080548190611f199061332c565b80601f0160208091040260200160405190810160405280929190818152602001828054611f459061332c565b8015611f925780601f10611f6757610100808354040283529160200191611f92565b820191906000526020600020905b815481529060010190602001808311611f7557829003601f168201915b505060408051606081018252600187015460ff80821683526101008204811660208401526201000090910481169282019290925260028701546003880154600489015460058a01546006909a0154989993986001600160a01b039093169750909550935090911687565b60606008805461200b9061332c565b80601f01602080910402602001604051908101604052809291908181526020018280546120379061332c565b80156120845780601f1061205957610100808354040283529160200191612084565b820191906000526020600020905b81548152906001019060200180831161206757829003601f168201915b5050505050905090565b6001600160a01b0385163314806120aa57506120aa8533610906565b6121085760405162461bcd60e51b815260206004820152602960248201527f455243313135353a2063616c6c6572206973206e6f74206f776e6572206e6f7260448201526808185c1c1c9bdd995960ba1b6064820152608401610a1e565b6112e38585858585612581565b81518351146121775760405162461bcd60e51b815260206004820152602860248201527f455243313135353a2069647320616e6420616d6f756e7473206c656e677468206044820152670dad2e6dac2e8c6d60c31b6064820152608401610a1e565b6001600160a01b03841661219d5760405162461bcd60e51b8152600401610a1e90613602565b336121ac8187878787876126bd565b60005b84518110156122955760008582815181106121cc576121cc6135bc565b6020026020010151905060008583815181106121ea576121ea6135bc565b60209081029190910181015160008481526001835260408082206001600160a01b038e16835290935291909120549091508181101561223b5760405162461bcd60e51b8152600401610a1e90613647565b60008381526001602090815260408083206001600160a01b038e8116855292528083208585039055908b1682528120805484929061227a908490613314565b925050819055505050508061228e906135d2565b90506121af565b50846001600160a01b0316866001600160a01b0316826001600160a01b03167f4a39dc06d4c0dbc64b70af90fd698a233a518aa5d07e595d983b8c0526c8f7fb87876040516122e5929190613691565b60405180910390a46122fb818787878787612836565b505050505050565b80158061232c57506000818152600d602090815260408083206003015460049092529091205410155b1561234a57604051636aa2a93760e01b815260040160405180910390fd5b6000818152600e602052604090205460ff1661237957604051636aa2a93760e01b815260040160405180910390fd5b50565b6001600160a01b0384166123dc5760405162461bcd60e51b815260206004820152602160248201527f455243313135353a206d696e7420746f20746865207a65726f206164647265736044820152607360f81b6064820152608401610a1e565b3360006123e885612991565b905060006123f585612991565b9050612406836000898585896126bd565b60008681526001602090815260408083206001600160a01b038b16845290915281208054879290612438908490613314565b909155505060408051878152602081018790526001600160a01b03808a1692600092918716917fc3d58168c5ae7397731d063d5bbf3d657854427343f4c083240f7aacaa2d0f62910160405180910390a4612498836000898989896129dc565b50505050505050565b816001600160a01b0316836001600160a01b0316036125145760405162461bcd60e51b815260206004820152602960248201527f455243313135353a2073657474696e6720617070726f76616c20737461747573604482015268103337b91039b2b63360b91b6064820152608401610a1e565b6001600160a01b03838116600081815260026020908152604080832094871680845294825291829020805460ff191686151590811790915591519182527f17307eab39ab6107e8899845ad3d59bd9653f200f220920489ca2b5937696c31910160405180910390a3505050565b6001600160a01b0384166125a75760405162461bcd60e51b8152600401610a1e90613602565b3360006125b385612991565b905060006125c085612991565b90506125d08389898585896126bd565b60008681526001602090815260408083206001600160a01b038c168452909152902054858110156126135760405162461bcd60e51b8152600401610a1e90613647565b60008781526001602090815260408083206001600160a01b038d8116855292528083208985039055908a16825281208054889290612652908490613314565b909155505060408051888152602081018890526001600160a01b03808b16928c821692918816917fc3d58168c5ae7397731d063d5bbf3d657854427343f4c083240f7aacaa2d0f62910160405180910390a46126b2848a8a8a8a8a6129dc565b505050505050505050565b6001600160a01b0385166127445760005b8351811015612742578281815181106126e9576126e96135bc565b602002602001015160046000868481518110612707576127076135bc565b60200260200101518152602001908152602001600020600082825461272c9190613314565b9091555061273b9050816135d2565b90506126ce565b505b6001600160a01b0384166122fb5760005b8351811015612498576000848281518110612772576127726135bc565b602002602001015190506000848381518110612790576127906135bc565b60200260200101519050600060046000848152602001908152602001600020549050818110156128135760405162461bcd60e51b815260206004820152602860248201527f455243313135353a206275726e20616d6f756e74206578636565647320746f74604482015267616c537570706c7960c01b6064820152608401610a1e565b6000928352600460205260409092209103905561282f816135d2565b9050612755565b6001600160a01b0384163b156122fb5760405163bc197c8160e01b81526001600160a01b0385169063bc197c819061287a90899089908890889088906004016136bf565b6020604051808303816000875af19250505080156128b5575060408051601f3d908101601f191682019092526128b29181019061371d565b60015b612961576128c161373a565b806308c379a0036128fa57506128d5613756565b806128e057506128fc565b8060405162461bcd60e51b8152600401610a1e9190612bb5565b505b60405162461bcd60e51b815260206004820152603460248201527f455243313135353a207472616e7366657220746f206e6f6e20455243313135356044820152732932b1b2b4bb32b91034b6b83632b6b2b73a32b960611b6064820152608401610a1e565b6001600160e01b0319811663bc197c8160e01b146124985760405162461bcd60e51b8152600401610a1e906137df565b604080516001808252818301909252606091600091906020808301908036833701905050905082816000815181106129cb576129cb6135bc565b602090810291909101015292915050565b6001600160a01b0384163b156122fb5760405163f23a6e6160e01b81526001600160a01b0385169063f23a6e6190612a209089908990889088908890600401613827565b6020604051808303816000875af1925050508015612a5b575060408051601f3d908101601f19168201909252612a589181019061371d565b60015b612a67576128c161373a565b6001600160e01b0319811663f23a6e6160e01b146124985760405162461bcd60e51b8152600401610a1e906137df565b6001600160a01b038116811461237957600080fd5b60008060408385031215612abf57600080fd5b8235612aca81612a97565b946020939093013593505050565b6001600160e01b03198116811461237957600080fd5b600060208284031215612b0057600080fd5b8135612b0b81612ad8565b9392505050565b600060208284031215612b2457600080fd5b5035919050565b60608101610a4c828460ff815116825260ff602082015116602083015260ff60408201511660408301525050565b60005b83811015612b74578181015183820152602001612b5c565b83811115612b83576000848401525b50505050565b60008151808452612ba1816020860160208601612b59565b601f01601f19169290920160200192915050565b602081526000612b0b6020830184612b89565b60008060408385031215612bdb57600080fd5b50508035926020909101359150565b634e487b7160e01b600052604160045260246000fd5b601f8201601f191681016001600160401b0381118282101715612c2557612c25612bea565b6040525050565b600082601f830112612c3d57600080fd5b81356001600160401b03811115612c5657612c56612bea565b604051612c6d601f8301601f191660200182612c00565b818152846020838601011115612c8257600080fd5b816020850160208301376000918101602001919091529392505050565b803560ff81168114612cb057600080fd5b919050565b600060608284031215612cc757600080fd5b604051606081018181106001600160401b0382111715612ce957612ce9612bea565b604052905080612cf883612c9f565b8152612d0660208401612c9f565b6020820152612d1760408401612c9f565b60408201525092915050565b6000806000806000806101008789031215612d3d57600080fd5b8635955060208701356001600160401b03811115612d5a57600080fd5b612d6689828a01612c2c565b955050612d768860408901612cb5565b935060a0870135612d8681612a97565b9598949750929560c08101359460e0909101359350915050565b600060208284031215612db257600080fd5b8135612b0b81612a97565b60008060408385031215612dd057600080fd5b8235915060208301356001600160401b03811115612ded57600080fd5b612df985828601612c2c565b9150509250929050565b6020815260008251610120806020850152612e22610140850183612b89565b91506020850151612e56604086018260ff815116825260ff602082015116602083015260ff60408201511660408301525050565b5060018060a01b0360408601511660a0850152606085015160c0850152608085015160e085015260a085015161010085015260c0850151151581850152508091505092915050565b60006001600160401b03821115612eb757612eb7612bea565b5060051b60200190565b600082601f830112612ed257600080fd5b81356020612edf82612e9e565b604051612eec8282612c00565b83815260059390931b8501820192828101915086841115612f0c57600080fd5b8286015b84811015612f275780358352918301918301612f10565b509695505050505050565b600080600080600060a08688031215612f4a57600080fd5b8535612f5581612a97565b94506020860135612f6581612a97565b935060408601356001600160401b0380821115612f8157600080fd5b612f8d89838a01612ec1565b94506060880135915080821115612fa357600080fd5b612faf89838a01612ec1565b93506080880135915080821115612fc557600080fd5b50612fd288828901612c2c565b9150509295509295909350565b60008060408385031215612ff257600080fd5b82356001600160401b038082111561300957600080fd5b818501915085601f83011261301d57600080fd5b8135602061302a82612e9e565b6040516130378282612c00565b83815260059390931b850182019282810191508984111561305757600080fd5b948201945b8386101561307e57853561306f81612a97565b8252948201949082019061305c565b9650508601359250508082111561309457600080fd5b50612df985828601612ec1565b600081518084526020808501945080840160005b838110156130d1578151875295820195908201906001016130b5565b509495945050505050565b602081526000612b0b60208301846130a1565b60006020828403121561310157600080fd5b81356001600160401b0381111561311757600080fd5b61312384828501612ec1565b949350505050565b6000806080838503121561313e57600080fd5b8235915061314f8460208501612cb5565b90509250929050565b6000806040838503121561316b57600080fd5b823561317681612a97565b91506020830135801515811461318b57600080fd5b809150509250929050565b6000602082840312156131a857600080fd5b81356001600160401b038111156131be57600080fd5b61312384828501612c2c565b600080604083850312156131dd57600080fd5b82359150602083013561318b81612a97565b60006101208083526132038184018b612b89565b915050613233602083018960ff815116825260ff602082015116602083015260ff60408201511660408301525050565b6001600160a01b0396909616608082015260a081019490945260c084019290925260e083015215156101009091015292915050565b6000806040838503121561327b57600080fd5b823561328681612a97565b9150602083013561318b81612a97565b600080600080600060a086880312156132ae57600080fd5b85356132b981612a97565b945060208601356132c981612a97565b9350604086013592506060860135915060808601356001600160401b038111156132f257600080fd5b612fd288828901612c2c565b634e487b7160e01b600052601160045260246000fd5b60008219821115613327576133276132fe565b500190565b600181811c9082168061334057607f821691505b60208210810361336057634e487b7160e01b600052602260045260246000fd5b50919050565b600061010088835280602084015261338081840189612b89565b9150506133b0604083018760ff815116825260ff602082015116602083015260ff60408201511660408301525050565b6001600160a01b039490941660a082015260c081019290925260e0909101529392505050565b60008084546133e48161332c565b600182811680156133fc576001811461341157613440565b60ff1984168752821515830287019450613440565b8860005260208060002060005b858110156134375781548a82015290840190820161341e565b50505082870194505b505050508351613454818360208801612b59565b01949350505050565b601f82111561183857600081815260208120601f850160051c810160208610156134845750805b601f850160051c820191505b818110156122fb57828155600101613490565b81516001600160401b038111156134bc576134bc612bea565b6134d0816134ca845461332c565b8461345d565b602080601f83116001811461350557600084156134ed5750858301515b600019600386901b1c1916600185901b1785556122fb565b600085815260208120601f198616915b8281101561353457888601518255948401946001909101908401613515565b50858210156135525787850151600019600388901b60f8161c191681555b5050505050600190811b01905550565b8281526040602082015260006131236040830184612b89565b6000816000190483118215151615613595576135956132fe565b500290565b6000826135b757634e487b7160e01b600052601260045260246000fd5b500490565b634e487b7160e01b600052603260045260246000fd5b6000600182016135e4576135e46132fe565b5060010190565b6000828210156135fd576135fd6132fe565b500390565b60208082526025908201527f455243313135353a207472616e7366657220746f20746865207a65726f206164604082015264647265737360d81b606082015260800190565b6020808252602a908201527f455243313135353a20696e73756666696369656e742062616c616e636520666f60408201526939103a3930b739b332b960b11b606082015260800190565b6040815260006136a460408301856130a1565b82810360208401526136b681856130a1565b95945050505050565b6001600160a01b0386811682528516602082015260a0604082018190526000906136eb908301866130a1565b82810360608401526136fd81866130a1565b905082810360808401526137118185612b89565b98975050505050505050565b60006020828403121561372f57600080fd5b8151612b0b81612ad8565b600060033d11156137535760046000803e5060005160e01c5b90565b600060443d10156137645790565b6040516003193d81016004833e81513d6001600160401b03816024840111818411171561379357505050505090565b82850191508151818111156137ab5750505050505090565b843d87010160208285010111156137c55750505050505090565b6137d460208286010187612c00565b509095945050505050565b60208082526028908201527f455243313135353a204552433131353552656365697665722072656a656374656040820152676420746f6b656e7360c01b606082015260800190565b6001600160a01b03868116825285166020820152604081018490526060810183905260a06080820181905260009061386190830184612b89565b97965050505050505056fea2646970667358221220aa5f12f7d95e96a9e9d41f07561e3cce6b6f924ffa3ade36263c471a2901b6c664736f6c634300080f0033",
  "sourcePath": "/Users/onishi/git/goerli-philand/contracts/object/PremiumObject.sol",
  "compiler": {
    "name": "solc",
    "version": "0.8.15+commit.e14f2714"
  },
  "functionHashes": {
    "allObjects(uint256)": "cbdac710",
    "balanceOf(address,uint256)": "00fdd58e",
    "balanceOfBatch(address[],uint256[])": "4e1273f4",
    "baseMetadataURI()": "5b2bd79e",
    "batchBuyObject(uint256[])": "58467941",
    "buyObject(uint256)": "80b5c1f4",
    "changeTokenPrice(uint256,uint256)": "62e8e8ac",
    "createObject(uint256,string,(uint8,uint8,uint8),address,uint256,uint256)": "2df918a1",
    "created(uint256)": "82cb6b72",
    "exists(uint256)": "4f558e79",
    "getBaseMetadataURI()": "ea2fe3cb",
    "getCreatorAddress(uint256)": "a30b4db9",
    "getExp(uint256)": "e498922f",
    "getMaxClaimed(uint256)": "9733faa5",
    "getObjectInfo(uint256)": "1d1b29e0",
    "getRoyalityFee()": "653f0884",
    "getSize(uint256)": "023c23db",
    "getTokenPrice(uint256)": "c457fb37",
    "getTokenURI(uint256)": "3bb3a24d",
    "initObject(uint256,string,(uint8,uint8,uint8),address,uint256,uint256)": "0c68a790",
    "isApprovedForAll(address,address)": "e985e9c5",
    "name()": "06fdde03",
    "owner(address)": "666e1b39",
    "paymentBalanceOwner()": "1e4c7887",
    "removeOwner(address)": "173825d9",
    "royalityFee()": "326bb4ad",
    "royaltyInfo(uint256,uint256)": "2a55205a",
    "safeBatchTransferFrom(address,address,uint256[],uint256[],bytes)": "2eb2c2d6",
    "safeTransferFrom(address,address,uint256,uint256,bytes)": "f242432a",
    "secondaryRoyalty()": "9291671a",
    "setApprovalForAll(address,bool)": "a22cb465",
    "setCreatorAddress(uint256,address)": "bfdc4fdf",
    "setExp(uint256,uint256)": "0b68e796",
    "setMaxClaimed(uint256,uint256)": "0d09308e",
    "setOwner(address)": "13af4035",
    "setRoyalityFee(uint256)": "98f24682",
    "setSecondaryRoyalityFee(uint256)": "7061d486",
    "setSize(uint256,(uint8,uint8,uint8))": "604c7f80",
    "setTokenURI(uint256,string)": "162094c4",
    "setTreasuryAddress(address)": "6605bfda",
    "setbaseMetadataURI(string)": "b6ed6da9",
    "supportsInterface(bytes4)": "01ffc9a7",
    "symbol()": "95d89b41",
    "totalSupply(uint256)": "bd85b039",
    "treasuryAddress()": "c5f956af",
    "uri(uint256)": "0e89341c",
    "withdrawOwnerBalance(address)": "67478a35"
  },
  "gasEstimates": {
    "creation": {
      "codeDepositCost": "2899600",
      "executionCost": "infinite",
      "totalCost": "infinite"
    },
    "external": {
      "allObjects(uint256)": "infinite",
      "balanceOf(address,uint256)": "2720",
      "balanceOfBatch(address[],uint256[])": "infinite",
      "baseMetadataURI()": "infinite",
      "batchBuyObject(uint256[])": "infinite",
      "buyObject(uint256)": "infinite",
      "changeTokenPrice(uint256,uint256)": "26024",
      "createObject(uint256,string,(uint8,uint8,uint8),address,uint256,uint256)": "infinite",
      "created(uint256)": "2517",
      "exists(uint256)": "2539",
      "getBaseMetadataURI()": "infinite",
      "getCreatorAddress(uint256)": "2550",
      "getExp(uint256)": "2521",
      "getMaxClaimed(uint256)": "2566",
      "getObjectInfo(uint256)": "infinite",
      "getRoyalityFee()": "2349",
      "getSize(uint256)": "7321",
      "getTokenPrice(uint256)": "2588",
      "getTokenURI(uint256)": "infinite",
      "initObject(uint256,string,(uint8,uint8,uint8),address,uint256,uint256)": "infinite",
      "isApprovedForAll(address,address)": "infinite",
      "name()": "infinite",
      "owner(address)": "2658",
      "paymentBalanceOwner()": "2352",
      "removeOwner(address)": "28473",
      "royalityFee()": "2440",
      "royaltyInfo(uint256,uint256)": "2728",
      "safeBatchTransferFrom(address,address,uint256[],uint256[],bytes)": "infinite",
      "safeTransferFrom(address,address,uint256,uint256,bytes)": "infinite",
      "secondaryRoyalty()": "2373",
      "setApprovalForAll(address,bool)": "26722",
      "setCreatorAddress(uint256,address)": "28342",
      "setExp(uint256,uint256)": "26102",
      "setMaxClaimed(uint256,uint256)": "26046",
      "setOwner(address)": "28435",
      "setRoyalityFee(uint256)": "25750",
      "setSecondaryRoyalityFee(uint256)": "25751",
      "setSize(uint256,(uint8,uint8,uint8))": "infinite",
      "setTokenURI(uint256,string)": "infinite",
      "setTreasuryAddress(address)": "27938",
      "setbaseMetadataURI(string)": "infinite",
      "supportsInterface(bytes4)": "601",
      "symbol()": "infinite",
      "totalSupply(uint256)": "2538",
      "treasuryAddress()": "2381",
      "uri(uint256)": "infinite",
      "withdrawOwnerBalance(address)": "infinite"
    },
    "internal": {
      "isValid(uint256)": "infinite"
    }
  }
}