{
  "contractName": "PhiMap",
  "abi": [
    {
      "inputs": [],
      "stateMutability": "nonpayable",
      "type": "constructor"
    },
    {
      "inputs": [
        {
          "internalType": "address",
          "name": "sender",
          "type": "address"
        }
      ],
      "name": "NotAdminCall",
      "type": "error"
    },
    {
      "inputs": [
        {
          "internalType": "string",
          "name": "name",
          "type": "string"
        },
        {
          "internalType": "address",
          "name": "sender",
          "type": "address"
        },
        {
          "internalType": "address",
          "name": "contractAddress",
          "type": "address"
        },
        {
          "internalType": "uint256",
          "name": "tokenId",
          "type": "uint256"
        },
        {
          "internalType": "uint256",
          "name": "currentDepositAmount",
          "type": "uint256"
        },
        {
          "internalType": "uint256",
          "name": "currentDepositUsed",
          "type": "uint256"
        },
        {
          "internalType": "uint256",
          "name": "updateDepositAmount",
          "type": "uint256"
        },
        {
          "internalType": "uint256",
          "name": "userBalance",
          "type": "uint256"
        }
      ],
      "name": "NotBalanceEnough",
      "type": "error"
    },
    {
      "inputs": [
        {
          "internalType": "string",
          "name": "name",
          "type": "string"
        },
        {
          "internalType": "address",
          "name": "sender",
          "type": "address"
        },
        {
          "internalType": "address",
          "name": "contractAddress",
          "type": "address"
        },
        {
          "internalType": "uint256",
          "name": "tokenId",
          "type": "uint256"
        }
      ],
      "name": "NotBalanceWallPaper",
      "type": "error"
    },
    {
      "inputs": [
        {
          "internalType": "address",
          "name": "sender",
          "type": "address"
        },
        {
          "internalType": "address",
          "name": "owner",
          "type": "address"
        },
        {
          "internalType": "uint256",
          "name": "token_id",
          "type": "uint256"
        }
      ],
      "name": "NotDeposit",
      "type": "error"
    },
    {
      "inputs": [
        {
          "internalType": "string",
          "name": "name",
          "type": "string"
        },
        {
          "internalType": "address",
          "name": "contractAddress",
          "type": "address"
        },
        {
          "internalType": "uint256",
          "name": "tokenId",
          "type": "uint256"
        },
        {
          "internalType": "uint256",
          "name": "used",
          "type": "uint256"
        },
        {
          "internalType": "uint256",
          "name": "amount",
          "type": "uint256"
        }
      ],
      "name": "NotDepositEnough",
      "type": "error"
    },
    {
      "inputs": [
        {
          "internalType": "address",
          "name": "sender",
          "type": "address"
        },
        {
          "internalType": "uint256",
          "name": "sizeX",
          "type": "uint256"
        },
        {
          "internalType": "uint256",
          "name": "sizeY",
          "type": "uint256"
        },
        {
          "internalType": "uint256",
          "name": "mapSizeX",
          "type": "uint256"
        },
        {
          "internalType": "uint256",
          "name": "mapSizeY",
          "type": "uint256"
        }
      ],
      "name": "NotFitWallPaper",
      "type": "error"
    },
    {
      "inputs": [
        {
          "internalType": "address",
          "name": "sender",
          "type": "address"
        },
        {
          "internalType": "address",
          "name": "owner",
          "type": "address"
        }
      ],
      "name": "NotPhilandOwner",
      "type": "error"
    },
    {
      "inputs": [
        {
          "internalType": "address",
          "name": "sender",
          "type": "address"
        },
        {
          "internalType": "uint256",
          "name": "object_index",
          "type": "uint256"
        }
      ],
      "name": "NotReadyObject",
      "type": "error"
    },
    {
      "inputs": [
        {
          "internalType": "address",
          "name": "sender",
          "type": "address"
        },
        {
          "internalType": "address",
          "name": "owner",
          "type": "address"
        }
      ],
      "name": "NotReadyPhiland",
      "type": "error"
    },
    {
      "inputs": [
        {
          "components": [
            {
              "internalType": "address",
              "name": "contractAddress",
              "type": "address"
            },
            {
              "internalType": "uint256",
              "name": "tokenId",
              "type": "uint256"
            },
            {
              "internalType": "uint256",
              "name": "xStart",
              "type": "uint256"
            },
            {
              "internalType": "uint256",
              "name": "yStart",
              "type": "uint256"
            },
            {
              "internalType": "uint256",
              "name": "xEnd",
              "type": "uint256"
            },
            {
              "internalType": "uint256",
              "name": "yEnd",
              "type": "uint256"
            },
            {
              "components": [
                {
                  "internalType": "string",
                  "name": "title",
                  "type": "string"
                },
                {
                  "internalType": "string",
                  "name": "url",
                  "type": "string"
                }
              ],
              "internalType": "struct PhiMap.Link",
              "name": "link",
              "type": "tuple"
            }
          ],
          "internalType": "struct PhiMap.ObjectInfo",
          "name": "writeObjectInfo",
          "type": "tuple"
        },
        {
          "components": [
            {
              "internalType": "address",
              "name": "contractAddress",
              "type": "address"
            },
            {
              "internalType": "uint256",
              "name": "tokenId",
              "type": "uint256"
            },
            {
              "internalType": "uint256",
              "name": "xStart",
              "type": "uint256"
            },
            {
              "internalType": "uint256",
              "name": "yStart",
              "type": "uint256"
            },
            {
              "internalType": "uint256",
              "name": "xEnd",
              "type": "uint256"
            },
            {
              "internalType": "uint256",
              "name": "yEnd",
              "type": "uint256"
            },
            {
              "components": [
                {
                  "internalType": "string",
                  "name": "title",
                  "type": "string"
                },
                {
                  "internalType": "string",
                  "name": "url",
                  "type": "string"
                }
              ],
              "internalType": "struct PhiMap.Link",
              "name": "link",
              "type": "tuple"
            }
          ],
          "internalType": "struct PhiMap.ObjectInfo",
          "name": "userObjectInfo",
          "type": "tuple"
        },
        {
          "internalType": "string",
          "name": "error_boader",
          "type": "string"
        }
      ],
      "name": "ObjectCollision",
      "type": "error"
    },
    {
      "inputs": [
        {
          "internalType": "uint256",
          "name": "a",
          "type": "uint256"
        },
        {
          "internalType": "string",
          "name": "error_boader",
          "type": "string"
        }
      ],
      "name": "OutofMapRange",
      "type": "error"
    },
    {
      "inputs": [
        {
          "internalType": "uint256",
          "name": "amount",
          "type": "uint256"
        },
        {
          "internalType": "uint256",
          "name": "mapUnUsedBalance",
          "type": "uint256"
        }
      ],
      "name": "withdrawError",
      "type": "error"
    },
    {
      "anonymous": false,
      "inputs": [
        {
          "indexed": false,
          "internalType": "string",
          "name": "name",
          "type": "string"
        },
        {
          "indexed": true,
          "internalType": "address",
          "name": "sender",
          "type": "address"
        }
      ],
      "name": "ChangePhilandOwner",
      "type": "event"
    },
    {
      "anonymous": false,
      "inputs": [
        {
          "indexed": false,
          "internalType": "string",
          "name": "name",
          "type": "string"
        },
        {
          "indexed": false,
          "internalType": "address",
          "name": "contractAddress",
          "type": "address"
        },
        {
          "indexed": false,
          "internalType": "uint256",
          "name": "tokenId",
          "type": "uint256"
        }
      ],
      "name": "ChangeWallPaper",
      "type": "event"
    },
    {
      "anonymous": false,
      "inputs": [
        {
          "indexed": false,
          "internalType": "string",
          "name": "name",
          "type": "string"
        },
        {
          "indexed": true,
          "internalType": "address",
          "name": "sender",
          "type": "address"
        },
        {
          "indexed": false,
          "internalType": "uint256",
          "name": "numberOfLand",
          "type": "uint256"
        }
      ],
      "name": "CreatedMap",
      "type": "event"
    },
    {
      "anonymous": false,
      "inputs": [
        {
          "indexed": true,
          "internalType": "address",
          "name": "sender",
          "type": "address"
        },
        {
          "indexed": false,
          "internalType": "string",
          "name": "name",
          "type": "string"
        },
        {
          "indexed": false,
          "internalType": "address",
          "name": "contractAddress",
          "type": "address"
        },
        {
          "indexed": false,
          "internalType": "uint256",
          "name": "tokenId",
          "type": "uint256"
        },
        {
          "indexed": false,
          "internalType": "uint256",
          "name": "amount",
          "type": "uint256"
        }
      ],
      "name": "DepositSuccess",
      "type": "event"
    },
    {
      "anonymous": false,
      "inputs": [],
      "name": "Hello",
      "type": "event"
    },
    {
      "anonymous": false,
      "inputs": [
        {
          "indexed": false,
          "internalType": "uint8",
          "name": "version",
          "type": "uint8"
        }
      ],
      "name": "Initialized",
      "type": "event"
    },
    {
      "anonymous": false,
      "inputs": [
        {
          "indexed": false,
          "internalType": "string",
          "name": "iname",
          "type": "string"
        },
        {
          "indexed": true,
          "internalType": "address",
          "name": "sender",
          "type": "address"
        }
      ],
      "name": "MapInitialization",
      "type": "event"
    },
    {
      "anonymous": false,
      "inputs": [
        {
          "indexed": false,
          "internalType": "string",
          "name": "name",
          "type": "string"
        },
        {
          "indexed": false,
          "internalType": "uint256",
          "name": "index",
          "type": "uint256"
        }
      ],
      "name": "RemoveLink",
      "type": "event"
    },
    {
      "anonymous": false,
      "inputs": [
        {
          "indexed": false,
          "internalType": "string",
          "name": "name",
          "type": "string"
        },
        {
          "indexed": false,
          "internalType": "uint256",
          "name": "index",
          "type": "uint256"
        }
      ],
      "name": "RemoveObject",
      "type": "event"
    },
    {
      "anonymous": false,
      "inputs": [
        {
          "indexed": true,
          "internalType": "bytes32",
          "name": "role",
          "type": "bytes32"
        },
        {
          "indexed": true,
          "internalType": "bytes32",
          "name": "previousAdminRole",
          "type": "bytes32"
        },
        {
          "indexed": true,
          "internalType": "bytes32",
          "name": "newAdminRole",
          "type": "bytes32"
        }
      ],
      "name": "RoleAdminChanged",
      "type": "event"
    },
    {
      "anonymous": false,
      "inputs": [
        {
          "indexed": true,
          "internalType": "bytes32",
          "name": "role",
          "type": "bytes32"
        },
        {
          "indexed": true,
          "internalType": "address",
          "name": "account",
          "type": "address"
        },
        {
          "indexed": true,
          "internalType": "address",
          "name": "sender",
          "type": "address"
        }
      ],
      "name": "RoleGranted",
      "type": "event"
    },
    {
      "anonymous": false,
      "inputs": [
        {
          "indexed": true,
          "internalType": "bytes32",
          "name": "role",
          "type": "bytes32"
        },
        {
          "indexed": true,
          "internalType": "address",
          "name": "account",
          "type": "address"
        },
        {
          "indexed": true,
          "internalType": "address",
          "name": "sender",
          "type": "address"
        }
      ],
      "name": "RoleRevoked",
      "type": "event"
    },
    {
      "anonymous": false,
      "inputs": [
        {
          "indexed": false,
          "internalType": "string",
          "name": "name",
          "type": "string"
        },
        {
          "indexed": true,
          "internalType": "address",
          "name": "sender",
          "type": "address"
        }
      ],
      "name": "Save",
      "type": "event"
    },
    {
      "anonymous": false,
      "inputs": [
        {
          "indexed": true,
          "internalType": "address",
          "name": "sender",
          "type": "address"
        },
        {
          "indexed": false,
          "internalType": "string",
          "name": "name",
          "type": "string"
        },
        {
          "indexed": false,
          "internalType": "address",
          "name": "contractAddress",
          "type": "address"
        },
        {
          "indexed": false,
          "internalType": "uint256",
          "name": "tokenId",
          "type": "uint256"
        },
        {
          "indexed": false,
          "internalType": "uint256",
          "name": "amount",
          "type": "uint256"
        }
      ],
      "name": "WithdrawSuccess",
      "type": "event"
    },
    {
      "anonymous": false,
      "inputs": [
        {
          "indexed": false,
          "internalType": "string",
          "name": "name",
          "type": "string"
        },
        {
          "indexed": false,
          "internalType": "address",
          "name": "contractAddress",
          "type": "address"
        },
        {
          "indexed": false,
          "internalType": "uint256",
          "name": "tokenId",
          "type": "uint256"
        },
        {
          "indexed": false,
          "internalType": "string",
          "name": "title",
          "type": "string"
        },
        {
          "indexed": false,
          "internalType": "string",
          "name": "url",
          "type": "string"
        }
      ],
      "name": "WriteLink",
      "type": "event"
    },
    {
      "anonymous": false,
      "inputs": [
        {
          "indexed": false,
          "internalType": "string",
          "name": "name",
          "type": "string"
        },
        {
          "indexed": false,
          "internalType": "address",
          "name": "contractAddress",
          "type": "address"
        },
        {
          "indexed": false,
          "internalType": "uint256",
          "name": "tokenId",
          "type": "uint256"
        },
        {
          "indexed": false,
          "internalType": "uint256",
          "name": "xStart",
          "type": "uint256"
        },
        {
          "indexed": false,
          "internalType": "uint256",
          "name": "yStart",
          "type": "uint256"
        }
      ],
      "name": "WriteObject",
      "type": "event"
    },
    {
      "inputs": [],
      "name": "DEFAULT_ADMIN_ROLE",
      "outputs": [
        {
          "internalType": "bytes32",
          "name": "",
          "type": "bytes32"
        }
      ],
      "stateMutability": "view",
      "type": "function"
    },
    {
      "inputs": [
        {
          "internalType": "string",
          "name": "name",
          "type": "string"
        },
        {
          "internalType": "address[]",
          "name": "contractAddresses",
          "type": "address[]"
        },
        {
          "internalType": "uint256[]",
          "name": "tokenIds",
          "type": "uint256[]"
        },
        {
          "internalType": "uint256[]",
          "name": "amounts",
          "type": "uint256[]"
        }
      ],
      "name": "batchDeposit",
      "outputs": [],
      "stateMutability": "nonpayable",
      "type": "function"
    },
    {
      "inputs": [
        {
          "internalType": "string",
          "name": "name",
          "type": "string"
        },
        {
          "internalType": "uint256[]",
          "name": "removeIndexArray",
          "type": "uint256[]"
        },
        {
          "internalType": "bool",
          "name": "removeCheck",
          "type": "bool"
        },
        {
          "components": [
            {
              "internalType": "address",
              "name": "contractAddress",
              "type": "address"
            },
            {
              "internalType": "uint256",
              "name": "tokenId",
              "type": "uint256"
            },
            {
              "internalType": "uint256",
              "name": "xStart",
              "type": "uint256"
            },
            {
              "internalType": "uint256",
              "name": "yStart",
              "type": "uint256"
            }
          ],
          "internalType": "struct PhiMap.Object[]",
          "name": "objectDatas",
          "type": "tuple[]"
        },
        {
          "components": [
            {
              "internalType": "string",
              "name": "title",
              "type": "string"
            },
            {
              "internalType": "string",
              "name": "url",
              "type": "string"
            }
          ],
          "internalType": "struct PhiMap.Link[]",
          "name": "links",
          "type": "tuple[]"
        }
      ],
      "name": "batchRemoveAndWrite",
      "outputs": [],
      "stateMutability": "nonpayable",
      "type": "function"
    },
    {
      "inputs": [
        {
          "internalType": "string",
          "name": "name",
          "type": "string"
        },
        {
          "internalType": "uint256[]",
          "name": "indexArray",
          "type": "uint256[]"
        }
      ],
      "name": "batchRemoveObjectFromLand",
      "outputs": [],
      "stateMutability": "nonpayable",
      "type": "function"
    },
    {
      "inputs": [
        {
          "internalType": "string",
          "name": "name",
          "type": "string"
        },
        {
          "internalType": "address[]",
          "name": "contractAddresses",
          "type": "address[]"
        },
        {
          "internalType": "uint256[]",
          "name": "tokenIds",
          "type": "uint256[]"
        },
        {
          "internalType": "uint256[]",
          "name": "amounts",
          "type": "uint256[]"
        }
      ],
      "name": "batchWithdraw",
      "outputs": [],
      "stateMutability": "nonpayable",
      "type": "function"
    },
    {
      "inputs": [
        {
          "internalType": "string",
          "name": "name",
          "type": "string"
        },
        {
          "internalType": "uint256[]",
          "name": "objectIndexes",
          "type": "uint256[]"
        },
        {
          "components": [
            {
              "internalType": "string",
              "name": "title",
              "type": "string"
            },
            {
              "internalType": "string",
              "name": "url",
              "type": "string"
            }
          ],
          "internalType": "struct PhiMap.Link[]",
          "name": "links",
          "type": "tuple[]"
        }
      ],
      "name": "batchWriteLinkToObject",
      "outputs": [],
      "stateMutability": "nonpayable",
      "type": "function"
    },
    {
      "inputs": [
        {
          "internalType": "string",
          "name": "name",
          "type": "string"
        },
        {
          "components": [
            {
              "internalType": "address",
              "name": "contractAddress",
              "type": "address"
            },
            {
              "internalType": "uint256",
              "name": "tokenId",
              "type": "uint256"
            },
            {
              "internalType": "uint256",
              "name": "xStart",
              "type": "uint256"
            },
            {
              "internalType": "uint256",
              "name": "yStart",
              "type": "uint256"
            }
          ],
          "internalType": "struct PhiMap.Object[]",
          "name": "objectData",
          "type": "tuple[]"
        },
        {
          "components": [
            {
              "internalType": "string",
              "name": "title",
              "type": "string"
            },
            {
              "internalType": "string",
              "name": "url",
              "type": "string"
            }
          ],
          "internalType": "struct PhiMap.Link[]",
          "name": "link",
          "type": "tuple[]"
        }
      ],
      "name": "batchWriteObjectToLand",
      "outputs": [],
      "stateMutability": "nonpayable",
      "type": "function"
    },
    {
      "inputs": [
        {
          "internalType": "string",
          "name": "name",
          "type": "string"
        },
        {
          "internalType": "address",
          "name": "caller",
          "type": "address"
        }
      ],
      "name": "changePhilandOwner",
      "outputs": [],
      "stateMutability": "nonpayable",
      "type": "function"
    },
    {
      "inputs": [
        {
          "internalType": "string",
          "name": "name",
          "type": "string"
        },
        {
          "internalType": "address",
          "name": "contractAddress",
          "type": "address"
        },
        {
          "internalType": "uint256",
          "name": "tokenId",
          "type": "uint256"
        }
      ],
      "name": "changeWallPaper",
      "outputs": [],
      "stateMutability": "nonpayable",
      "type": "function"
    },
    {
      "inputs": [
        {
          "internalType": "string",
          "name": "name",
          "type": "string"
        }
      ],
      "name": "checkAllDepositStatus",
      "outputs": [
        {
          "components": [
            {
              "internalType": "address",
              "name": "contractAddress",
              "type": "address"
            },
            {
              "internalType": "uint256",
              "name": "tokenId",
              "type": "uint256"
            },
            {
              "internalType": "uint256",
              "name": "amount",
              "type": "uint256"
            },
            {
              "internalType": "uint256",
              "name": "used",
              "type": "uint256"
            },
            {
              "internalType": "uint256",
              "name": "timestamp",
              "type": "uint256"
            }
          ],
          "internalType": "struct PhiMap.DepositInfo[]",
          "name": "",
          "type": "tuple[]"
        }
      ],
      "stateMutability": "view",
      "type": "function"
    },
    {
      "inputs": [
        {
          "internalType": "string",
          "name": "name",
          "type": "string"
        },
        {
          "internalType": "address",
          "name": "contractAddress",
          "type": "address"
        },
        {
          "internalType": "uint256",
          "name": "tokenId",
          "type": "uint256"
        }
      ],
      "name": "checkDepositStatus",
      "outputs": [
        {
          "components": [
            {
              "internalType": "address",
              "name": "contractAddress",
              "type": "address"
            },
            {
              "internalType": "uint256",
              "name": "tokenId",
              "type": "uint256"
            },
            {
              "internalType": "uint256",
              "name": "amount",
              "type": "uint256"
            },
            {
              "internalType": "uint256",
              "name": "used",
              "type": "uint256"
            },
            {
              "internalType": "uint256",
              "name": "timestamp",
              "type": "uint256"
            }
          ],
          "internalType": "struct PhiMap.DepositInfo",
          "name": "",
          "type": "tuple"
        }
      ],
      "stateMutability": "view",
      "type": "function"
    },
    {
      "inputs": [
        {
          "internalType": "string",
          "name": "name",
          "type": "string"
        }
      ],
      "name": "checkWallPaper",
      "outputs": [
        {
          "components": [
            {
              "internalType": "address",
              "name": "contractAddress",
              "type": "address"
            },
            {
              "internalType": "uint256",
              "name": "tokenId",
              "type": "uint256"
            },
            {
              "internalType": "uint256",
              "name": "timestamp",
              "type": "uint256"
            }
          ],
          "internalType": "struct PhiMap.WallPaper",
          "name": "",
          "type": "tuple"
        }
      ],
      "stateMutability": "view",
      "type": "function"
    },
    {
      "inputs": [
        {
          "internalType": "string",
          "name": "name",
          "type": "string"
        },
        {
          "internalType": "address",
          "name": "caller",
          "type": "address"
        }
      ],
      "name": "create",
      "outputs": [],
      "stateMutability": "nonpayable",
      "type": "function"
    },
    {
      "inputs": [
        {
          "internalType": "string",
          "name": "name",
          "type": "string"
        },
        {
          "internalType": "address",
          "name": "contractAddress",
          "type": "address"
        },
        {
          "internalType": "uint256",
          "name": "tokenId",
          "type": "uint256"
        },
        {
          "internalType": "uint256",
          "name": "amount",
          "type": "uint256"
        }
      ],
      "name": "deposit",
      "outputs": [],
      "stateMutability": "nonpayable",
      "type": "function"
    },
    {
      "inputs": [
        {
          "internalType": "string",
          "name": "",
          "type": "string"
        },
        {
          "internalType": "address",
          "name": "",
          "type": "address"
        },
        {
          "internalType": "uint256",
          "name": "",
          "type": "uint256"
        }
      ],
      "name": "depositInfo",
      "outputs": [
        {
          "internalType": "address",
          "name": "contractAddress",
          "type": "address"
        },
        {
          "internalType": "uint256",
          "name": "tokenId",
          "type": "uint256"
        },
        {
          "internalType": "uint256",
          "name": "amount",
          "type": "uint256"
        },
        {
          "internalType": "uint256",
          "name": "used",
          "type": "uint256"
        },
        {
          "internalType": "uint256",
          "name": "timestamp",
          "type": "uint256"
        }
      ],
      "stateMutability": "view",
      "type": "function"
    },
    {
      "inputs": [
        {
          "internalType": "string",
          "name": "",
          "type": "string"
        },
        {
          "internalType": "address",
          "name": "",
          "type": "address"
        },
        {
          "internalType": "uint256",
          "name": "",
          "type": "uint256"
        }
      ],
      "name": "depositTime",
      "outputs": [
        {
          "internalType": "uint256",
          "name": "",
          "type": "uint256"
        }
      ],
      "stateMutability": "view",
      "type": "function"
    },
    {
      "inputs": [
        {
          "internalType": "bytes32",
          "name": "role",
          "type": "bytes32"
        }
      ],
      "name": "getRoleAdmin",
      "outputs": [
        {
          "internalType": "bytes32",
          "name": "",
          "type": "bytes32"
        }
      ],
      "stateMutability": "view",
      "type": "function"
    },
    {
      "inputs": [
        {
          "internalType": "bytes32",
          "name": "role",
          "type": "bytes32"
        },
        {
          "internalType": "address",
          "name": "account",
          "type": "address"
        }
      ],
      "name": "grantRole",
      "outputs": [],
      "stateMutability": "nonpayable",
      "type": "function"
    },
    {
      "inputs": [
        {
          "internalType": "bytes32",
          "name": "role",
          "type": "bytes32"
        },
        {
          "internalType": "address",
          "name": "account",
          "type": "address"
        }
      ],
      "name": "hasRole",
      "outputs": [
        {
          "internalType": "bool",
          "name": "",
          "type": "bool"
        }
      ],
      "stateMutability": "view",
      "type": "function"
    },
    {
      "inputs": [
        {
          "internalType": "address",
          "name": "admin",
          "type": "address"
        }
      ],
      "name": "initialize",
      "outputs": [],
      "stateMutability": "nonpayable",
      "type": "function"
    },
    {
      "inputs": [
        {
          "internalType": "string",
          "name": "name",
          "type": "string"
        }
      ],
      "name": "mapInitialization",
      "outputs": [],
      "stateMutability": "nonpayable",
      "type": "function"
    },
    {
      "inputs": [],
      "name": "mapSettings",
      "outputs": [
        {
          "internalType": "uint256",
          "name": "minX",
          "type": "uint256"
        },
        {
          "internalType": "uint256",
          "name": "maxX",
          "type": "uint256"
        },
        {
          "internalType": "uint256",
          "name": "minY",
          "type": "uint256"
        },
        {
          "internalType": "uint256",
          "name": "maxY",
          "type": "uint256"
        }
      ],
      "stateMutability": "view",
      "type": "function"
    },
    {
      "inputs": [],
      "name": "numberOfLand",
      "outputs": [
        {
          "internalType": "uint256",
          "name": "",
          "type": "uint256"
        }
      ],
      "stateMutability": "view",
      "type": "function"
    },
    {
      "inputs": [],
      "name": "numberOfObject",
      "outputs": [
        {
          "internalType": "uint256",
          "name": "",
          "type": "uint256"
        }
      ],
      "stateMutability": "view",
      "type": "function"
    },
    {
      "inputs": [
        {
          "internalType": "address",
          "name": "operator",
          "type": "address"
        },
        {
          "internalType": "address",
          "name": "from",
          "type": "address"
        },
        {
          "internalType": "uint256[]",
          "name": "ids",
          "type": "uint256[]"
        },
        {
          "internalType": "uint256[]",
          "name": "values",
          "type": "uint256[]"
        },
        {
          "internalType": "bytes",
          "name": "data",
          "type": "bytes"
        }
      ],
      "name": "onERC1155BatchReceived",
      "outputs": [
        {
          "internalType": "bytes4",
          "name": "",
          "type": "bytes4"
        }
      ],
      "stateMutability": "pure",
      "type": "function"
    },
    {
      "inputs": [
        {
          "internalType": "address",
          "name": "operator",
          "type": "address"
        },
        {
          "internalType": "address",
          "name": "from",
          "type": "address"
        },
        {
          "internalType": "uint256",
          "name": "id",
          "type": "uint256"
        },
        {
          "internalType": "uint256",
          "name": "value",
          "type": "uint256"
        },
        {
          "internalType": "bytes",
          "name": "data",
          "type": "bytes"
        }
      ],
      "name": "onERC1155Received",
      "outputs": [
        {
          "internalType": "bytes4",
          "name": "",
          "type": "bytes4"
        }
      ],
      "stateMutability": "pure",
      "type": "function"
    },
    {
      "inputs": [
        {
          "internalType": "string",
          "name": "",
          "type": "string"
        }
      ],
      "name": "ownerLists",
      "outputs": [
        {
          "internalType": "address",
          "name": "",
          "type": "address"
        }
      ],
      "stateMutability": "view",
      "type": "function"
    },
    {
      "inputs": [
        {
          "internalType": "string",
          "name": "name",
          "type": "string"
        }
      ],
      "name": "ownerOfPhiland",
      "outputs": [
        {
          "internalType": "address",
          "name": "",
          "type": "address"
        }
      ],
      "stateMutability": "view",
      "type": "function"
    },
    {
      "inputs": [
        {
          "internalType": "string",
          "name": "name",
          "type": "string"
        },
        {
          "internalType": "uint256",
          "name": "objectIndex",
          "type": "uint256"
        }
      ],
      "name": "removeLinkFromObject",
      "outputs": [],
      "stateMutability": "nonpayable",
      "type": "function"
    },
    {
      "inputs": [
        {
          "internalType": "string",
          "name": "name",
          "type": "string"
        },
        {
          "internalType": "uint256",
          "name": "index",
          "type": "uint256"
        }
      ],
      "name": "removeObjectFromLand",
      "outputs": [],
      "stateMutability": "nonpayable",
      "type": "function"
    },
    {
      "inputs": [
        {
          "internalType": "bytes32",
          "name": "role",
          "type": "bytes32"
        },
        {
          "internalType": "address",
          "name": "account",
          "type": "address"
        }
      ],
      "name": "renounceRole",
      "outputs": [],
      "stateMutability": "nonpayable",
      "type": "function"
    },
    {
      "inputs": [
        {
          "internalType": "bytes32",
          "name": "role",
          "type": "bytes32"
        },
        {
          "internalType": "address",
          "name": "account",
          "type": "address"
        }
      ],
      "name": "revokeRole",
      "outputs": [],
      "stateMutability": "nonpayable",
      "type": "function"
    },
    {
      "inputs": [
        {
          "internalType": "string",
          "name": "name",
          "type": "string"
        },
        {
          "internalType": "uint256[]",
          "name": "removeIndexArray",
          "type": "uint256[]"
        },
        {
          "internalType": "bool",
          "name": "removeCheck",
          "type": "bool"
        },
        {
          "components": [
            {
              "internalType": "address",
              "name": "contractAddress",
              "type": "address"
            },
            {
              "internalType": "uint256",
              "name": "tokenId",
              "type": "uint256"
            },
            {
              "internalType": "uint256",
              "name": "xStart",
              "type": "uint256"
            },
            {
              "internalType": "uint256",
              "name": "yStart",
              "type": "uint256"
            }
          ],
          "internalType": "struct PhiMap.Object[]",
          "name": "objectDatas",
          "type": "tuple[]"
        },
        {
          "components": [
            {
              "internalType": "string",
              "name": "title",
              "type": "string"
            },
            {
              "internalType": "string",
              "name": "url",
              "type": "string"
            }
          ],
          "internalType": "struct PhiMap.Link[]",
          "name": "links",
          "type": "tuple[]"
        },
        {
          "internalType": "bool",
          "name": "changeWallCheck",
          "type": "bool"
        },
        {
          "internalType": "address",
          "name": "contractAddress",
          "type": "address"
        },
        {
          "internalType": "uint256",
          "name": "tokenId",
          "type": "uint256"
        }
      ],
      "name": "save",
      "outputs": [],
      "stateMutability": "nonpayable",
      "type": "function"
    },
    {
      "inputs": [
        {
          "internalType": "bytes4",
          "name": "interfaceId",
          "type": "bytes4"
        }
      ],
      "name": "supportsInterface",
      "outputs": [
        {
          "internalType": "bool",
          "name": "",
          "type": "bool"
        }
      ],
      "stateMutability": "view",
      "type": "function"
    },
    {
      "inputs": [
        {
          "internalType": "string",
          "name": "",
          "type": "string"
        },
        {
          "internalType": "uint256",
          "name": "",
          "type": "uint256"
        }
      ],
      "name": "userObject",
      "outputs": [
        {
          "internalType": "address",
          "name": "contractAddress",
          "type": "address"
        },
        {
          "internalType": "uint256",
          "name": "tokenId",
          "type": "uint256"
        },
        {
          "internalType": "uint256",
          "name": "xStart",
          "type": "uint256"
        },
        {
          "internalType": "uint256",
          "name": "yStart",
          "type": "uint256"
        },
        {
          "internalType": "uint256",
          "name": "xEnd",
          "type": "uint256"
        },
        {
          "internalType": "uint256",
          "name": "yEnd",
          "type": "uint256"
        },
        {
          "components": [
            {
              "internalType": "string",
              "name": "title",
              "type": "string"
            },
            {
              "internalType": "string",
              "name": "url",
              "type": "string"
            }
          ],
          "internalType": "struct PhiMap.Link",
          "name": "link",
          "type": "tuple"
        }
      ],
      "stateMutability": "view",
      "type": "function"
    },
    {
      "inputs": [
        {
          "internalType": "string",
          "name": "",
          "type": "string"
        },
        {
          "internalType": "uint256",
          "name": "",
          "type": "uint256"
        }
      ],
      "name": "userObjectDeposit",
      "outputs": [
        {
          "internalType": "address",
          "name": "contractAddress",
          "type": "address"
        },
        {
          "internalType": "uint256",
          "name": "tokenId",
          "type": "uint256"
        }
      ],
      "stateMutability": "view",
      "type": "function"
    },
    {
      "inputs": [
        {
          "internalType": "string",
          "name": "name",
          "type": "string"
        }
      ],
      "name": "viewLinks",
      "outputs": [
        {
          "components": [
            {
              "internalType": "string",
              "name": "title",
              "type": "string"
            },
            {
              "internalType": "string",
              "name": "url",
              "type": "string"
            }
          ],
          "internalType": "struct PhiMap.Link[]",
          "name": "",
          "type": "tuple[]"
        }
      ],
      "stateMutability": "view",
      "type": "function"
    },
    {
      "inputs": [],
      "name": "viewNumberOfObject",
      "outputs": [
        {
          "internalType": "uint256",
          "name": "",
          "type": "uint256"
        }
      ],
      "stateMutability": "view",
      "type": "function"
    },
    {
      "inputs": [],
      "name": "viewNumberOfPhiland",
      "outputs": [
        {
          "internalType": "uint256",
          "name": "",
          "type": "uint256"
        }
      ],
      "stateMutability": "view",
      "type": "function"
    },
    {
      "inputs": [
        {
          "internalType": "string",
          "name": "name",
          "type": "string"
        },
        {
          "internalType": "uint256",
          "name": "objectIndex",
          "type": "uint256"
        }
      ],
      "name": "viewObjectLink",
      "outputs": [
        {
          "components": [
            {
              "internalType": "string",
              "name": "title",
              "type": "string"
            },
            {
              "internalType": "string",
              "name": "url",
              "type": "string"
            }
          ],
          "internalType": "struct PhiMap.Link",
          "name": "",
          "type": "tuple"
        }
      ],
      "stateMutability": "view",
      "type": "function"
    },
    {
      "inputs": [
        {
          "internalType": "string",
          "name": "name",
          "type": "string"
        }
      ],
      "name": "viewPhiland",
      "outputs": [
        {
          "components": [
            {
              "internalType": "address",
              "name": "contractAddress",
              "type": "address"
            },
            {
              "internalType": "uint256",
              "name": "tokenId",
              "type": "uint256"
            },
            {
              "internalType": "uint256",
              "name": "xStart",
              "type": "uint256"
            },
            {
              "internalType": "uint256",
              "name": "yStart",
              "type": "uint256"
            },
            {
              "internalType": "uint256",
              "name": "xEnd",
              "type": "uint256"
            },
            {
              "internalType": "uint256",
              "name": "yEnd",
              "type": "uint256"
            },
            {
              "components": [
                {
                  "internalType": "string",
                  "name": "title",
                  "type": "string"
                },
                {
                  "internalType": "string",
                  "name": "url",
                  "type": "string"
                }
              ],
              "internalType": "struct PhiMap.Link",
              "name": "link",
              "type": "tuple"
            }
          ],
          "internalType": "struct PhiMap.ObjectInfo[]",
          "name": "",
          "type": "tuple[]"
        }
      ],
      "stateMutability": "view",
      "type": "function"
    },
    {
      "inputs": [
        {
          "internalType": "string",
          "name": "name",
          "type": "string"
        }
      ],
      "name": "viewPhilandArray",
      "outputs": [
        {
          "internalType": "uint256[]",
          "name": "",
          "type": "uint256[]"
        }
      ],
      "stateMutability": "view",
      "type": "function"
    },
    {
      "inputs": [
        {
          "internalType": "string",
          "name": "",
          "type": "string"
        }
      ],
      "name": "wallPaper",
      "outputs": [
        {
          "internalType": "address",
          "name": "contractAddress",
          "type": "address"
        },
        {
          "internalType": "uint256",
          "name": "tokenId",
          "type": "uint256"
        },
        {
          "internalType": "uint256",
          "name": "timestamp",
          "type": "uint256"
        }
      ],
      "stateMutability": "view",
      "type": "function"
    },
    {
      "inputs": [
        {
          "internalType": "string",
          "name": "name",
          "type": "string"
        },
        {
          "internalType": "address",
          "name": "contractAddress",
          "type": "address"
        },
        {
          "internalType": "uint256",
          "name": "tokenId",
          "type": "uint256"
        },
        {
          "internalType": "uint256",
          "name": "amount",
          "type": "uint256"
        }
      ],
      "name": "withdraw",
      "outputs": [],
      "stateMutability": "nonpayable",
      "type": "function"
    },
    {
      "inputs": [
        {
          "internalType": "string",
          "name": "name",
          "type": "string"
        }
      ],
      "name": "withdrawWallPaper",
      "outputs": [],
      "stateMutability": "nonpayable",
      "type": "function"
    },
    {
      "inputs": [
        {
          "internalType": "string",
          "name": "name",
          "type": "string"
        },
        {
          "internalType": "uint256",
          "name": "objectIndex",
          "type": "uint256"
        },
        {
          "components": [
            {
              "internalType": "string",
              "name": "title",
              "type": "string"
            },
            {
              "internalType": "string",
              "name": "url",
              "type": "string"
            }
          ],
          "internalType": "struct PhiMap.Link",
          "name": "link",
          "type": "tuple"
        }
      ],
      "name": "writeLinkToObject",
      "outputs": [],
      "stateMutability": "nonpayable",
      "type": "function"
    },
    {
      "inputs": [
        {
          "internalType": "string",
          "name": "name",
          "type": "string"
        },
        {
          "components": [
            {
              "internalType": "address",
              "name": "contractAddress",
              "type": "address"
            },
            {
              "internalType": "uint256",
              "name": "tokenId",
              "type": "uint256"
            },
            {
              "internalType": "uint256",
              "name": "xStart",
              "type": "uint256"
            },
            {
              "internalType": "uint256",
              "name": "yStart",
              "type": "uint256"
            }
          ],
          "internalType": "struct PhiMap.Object",
          "name": "objectData",
          "type": "tuple"
        },
        {
          "components": [
            {
              "internalType": "string",
              "name": "title",
              "type": "string"
            },
            {
              "internalType": "string",
              "name": "url",
              "type": "string"
            }
          ],
          "internalType": "struct PhiMap.Link",
          "name": "link",
          "type": "tuple"
        }
      ],
      "name": "writeObjectToLand",
      "outputs": [],
      "stateMutability": "nonpayable",
      "type": "function"
    }
  ],
  "bytecode": "60806040523480156200001157600080fd5b50600062000020600162000087565b9050801562000039576000805461ff0019166101001790555b801562000080576000805461ff0019169055604051600181527f7f26b83ff96e1f2b6a682f133852f6798a09c465da95921460cefb38474024989060200160405180910390a15b50620001a8565b60008054610100900460ff161562000120578160ff166001148015620000c05750620000be306200019960201b6200377e1760201c565b155b620001185760405162461bcd60e51b815260206004820152602e60248201526000805160206200582383398151915260448201526d191e481a5b9a5d1a585b1a5e995960921b60648201526084015b60405180910390fd5b506000919050565b60005460ff8084169116106200017f5760405162461bcd60e51b815260206004820152602e60248201526000805160206200582383398151915260448201526d191e481a5b9a5d1a585b1a5e995960921b60648201526084016200010f565b506000805460ff191660ff92909216919091179055600190565b6001600160a01b03163b151590565b61566b80620001b86000396000f3fe608060405234801561001057600080fd5b50600436106102955760003560e01c8063ac25377b11610167578063d35fd873116100ce578063e4b2b13111610087578063e4b2b131146107b4578063e5ac2f15146107e6578063ecaf5e23146107f9578063f23a6e611461080c578063f393825f14610845578063fdbe676e1461087b57600080fd5b8063d35fd873146106ea578063d547741f146106fd578063d731d40514610710578063d7482bb514610779578063d8034e0714610799578063e44fa907146107ac57600080fd5b8063c10ef76111610120578063c10ef76114610636578063c4d66de81461063f578063c697066b14610652578063c7c4974914610665578063c8c28b7914610678578063cfc76fe2146106ac57600080fd5b8063ac25377b14610572578063b14a6c0b14610585578063b80861a614610598578063b855548f146105be578063bc197c81146105d1578063be21c7211461062357600080fd5b806348d740a51161020b57806391d14854116101c457806391d14854146104615780639250a4351461047457806392adbe85146104b557806395bd8ab71461054f5780639aa22f4d14610562578063a217fddf1461056a57600080fd5b806348d740a5146103c857806349643fc0146103db5780634be5f3dc146103fb57806361f0a8031461040e5780636930a2241461042e57806384b47b0f1461044e57600080fd5b8063248a9ca31161025d578063248a9ca3146103395780632f2ff15d1461035c57806330d25b1e1461036f57806336568abe1461038257806339700f86146103955780633fb46561146103b557600080fd5b806301ffc9a71461029a57806305c81566146102c2578063096fb374146102ed5780630bdfc67d1461030d57806311eeba5814610322575b600080fd5b6102ad6102a836600461411d565b61088e565b60405190151581526020015b60405180910390f35b6102d56102d03660046141fc565b6108c5565b6040516001600160a01b0390911681526020016102b9565b6103006102fb3660046141fc565b61093b565b6040516102b99190614238565b61032061031b366004614442565b610b00565b005b61032b609b5481565b6040519081526020016102b9565b61032b6103473660046144c9565b60009081526065602052604090206001015490565b61032061036a3660046144f9565b610be2565b61032061037d366004614525565b610c0c565b6103206103903660046144f9565b610e58565b6103a86103a33660046141fc565b610ed6565b6040516102b99190614616565b6103206103c3366004614678565b611122565b6103206103d636600461477f565b6111db565b6103ee6103e93660046147c3565b6112b9565b6040516102b99190614807565b6103206104093660046147c3565b611444565b61042161041c3660046141fc565b611813565b6040516102b9919061481a565b61044161043c366004614852565b611acd565b6040516102b991906148a8565b61032061045c36600461477f565b611b53565b6102ad61046f3660046144f9565b611c01565b61032b610482366004614852565b825160208185018101805160a2825292820195820195909520919094528352600091825260408083209093528152205481565b61051d6104c3366004614852565b825160208185018101805160a18252928201958201959095209190945283526000918252604080832090935281522080546001820154600283015460038401546004909401546001600160a01b0390931693919290919085565b604080516001600160a01b0390961686526020860194909452928401919091526060830152608082015260a0016102b9565b61032061055d3660046147c3565b611c2c565b609d5461032b565b61032b600081565b6103206105803660046148e6565b611d38565b6103206105933660046141fc565b611d79565b6105ab6105a63660046147c3565b611f90565b6040516102b99796959493929190614949565b6103206105cc366004614995565b612135565b61060a6105df366004614a39565b7fbc197c819b3e337a6f9652dd10becd7eef83032af3b9d958d3d42f66941466219695505050505050565b6040516001600160e01b031990911681526020016102b9565b610320610631366004614995565b61258e565b61032b609d5481565b61032061064d366004614ae8565b61286d565b610320610660366004614b6d565b61292e565b6103206106733660046141fc565b612cdd565b6102d56106863660046141fc565b8051602081830181018051609c825292820191909301209152546001600160a01b031681565b6106bf6106ba3660046141fc565b612e8f565b6040805182516001600160a01b031681526020808401519082015291810151908201526060016102b9565b6103206106f8366004614c3e565b612f0b565b61032061070b3660046144f9565b612fec565b61075461071e3660046141fc565b8051602081830181018051609f825292820191909301209152805460018201546002909201546001600160a01b03909116919083565b604080516001600160a01b0390941684526020840192909252908201526060016102b9565b61078c6107873660046141fc565b613011565b6040516102b99190614d7f565b6103206107a7366004614678565b61320c565b609b5461032b565b6107c76107c23660046147c3565b6132bc565b604080516001600160a01b0390931683526020830191909152016102b9565b6103206107f4366004614dd4565b613311565b610320610807366004614852565b613372565b61060a61081a366004614e2e565b7ff23a6e612e1ff4830e658fe43f4e3cb4a5f8170bd5d9e69fb5d7a7fa9e4fdf979695505050505050565b609754609854609954609a5461085b9392919084565b6040805194855260208501939093529183015260608201526080016102b9565b610320610889366004614e93565b61375c565b60006001600160e01b03198216637965db0b60e01b14806108bf57506301ffc9a760e01b6001600160e01b03198316145b92915050565b6000806001600160a01b0316609c836040516108e19190614f50565b908152604051908190036020019020546001600160a01b03161461092e57609c8260405161090f9190614f50565b908152604051908190036020019020546001600160a01b031692915050565b506000919050565b919050565b6060600060a08360405161094f9190614f50565b908152604051908190036020019020546001600160401b0381111561097657610976614147565b6040519080825280602002602001820160405280156109af57816020015b61099c614097565b8152602001906001900390816109945790505b50905060005b60a0846040516109c59190614f50565b90815260405190819003602001902054811015610af957600060a0856040516109ee9190614f50565b90815260200160405180910390208281548110610a0d57610a0d614f6c565b60009182526020808320604080518082018252600290940290910180546001600160a01b0316845260010154918301919091525190925060a190610a52908890614f50565b90815260408051918290036020908101832085516001600160a01b03908116600090815291835283822087840151835283529083902060a085018452805490911684526001810154918401919091526002810154918301919091526003810154606083015260040154608082015284519091508190859085908110610ad957610ad9614f6c565b602002602001018190525050508080610af190614f98565b9150506109b5565b5092915050565b826000610b0c826108c5565b90506001600160a01b038116610b425733816040516304ac6caf60e51b8152600401610b39929190614fb1565b60405180910390fd5b846000610b4e826108c5565b90506001600160a01b0381163314610b7d573381604051637d81493960e01b8152600401610b39929190614fb1565b60005b8651811015610bd857610bc688888381518110610b9f57610b9f614f6c565b6020026020010151888481518110610bb957610bb9614f6c565b6020026020010151610c0c565b80610bd081614f98565b915050610b80565b5050505050505050565b600082815260656020526040902060010154610bfd8161378d565b610c07838361379a565b505050565b826000610c18826108c5565b90506001600160a01b038116610c455733816040516304ac6caf60e51b8152600401610b39929190614fb1565b846000610c51826108c5565b90506001600160a01b0381163314610c80573381604051637d81493960e01b8152600401610b39929190614fb1565b86866000610c8d836108c5565b905060006001600160a01b0316609e84604051610caa9190614f50565b90815260200160405180910390208381548110610cc957610cc9614f6c565b60009182526020909120600890910201546001600160a01b031603610d0a5760405163a302af1160e01b815233600482015260248101839052604401610b39565b87609e8b604051610d1b9190614f50565b90815260200160405180910390208a81548110610d3a57610d3a614f6c565b90600052602060002090600802016006016000820151816000019081610d609190615053565b5060208201516001820190610d759082615053565b509050507fc7765bf4a8ba984b83e53266f5ae20c8eee0bb3120f5b938bb5cb4c76b2bfff58a609e8c604051610dab9190614f50565b90815260200160405180910390208b81548110610dca57610dca614f6c565b60009182526020909120600890910201546040516001600160a01b0390911690609e90610df8908f90614f50565b90815260200160405180910390208c81548110610e1757610e17614f6c565b9060005260206000209060080201600101548b600001518c60200151604051610e44959493929190615112565b60405180910390a150505050505050505050565b6001600160a01b0381163314610ec85760405162461bcd60e51b815260206004820152602f60248201527f416363657373436f6e74726f6c3a2063616e206f6e6c792072656e6f756e636560448201526e103937b632b9903337b91039b2b63360891b6064820152608401610b39565b610ed28282613820565b5050565b60606000609e83604051610eea9190614f50565b908152604051908190036020019020546001600160401b03811115610f1157610f11614147565b604051908082528060200260200182016040528015610f5657816020015b6040805180820190915260608082526020820152815260200190600190039081610f2f5790505b50905060005b609e84604051610f6c9190614f50565b90815260405190819003602001902054811015610af957609e84604051610f939190614f50565b90815260200160405180910390208181548110610fb257610fb2614f6c565b9060005260206000209060080201600601604051806040016040529081600082018054610fde90614fcb565b80601f016020809104026020016040519081016040528092919081815260200182805461100a90614fcb565b80156110575780601f1061102c57610100808354040283529160200191611057565b820191906000526020600020905b81548152906001019060200180831161103a57829003601f168201915b5050505050815260200160018201805461107090614fcb565b80601f016020809104026020016040519081016040528092919081815260200182805461109c90614fcb565b80156110e95780601f106110be576101008083540402835291602001916110e9565b820191906000526020600020905b8154815290600101906020018083116110cc57829003601f168201915b50505050508152505082828151811061110457611104614f6c565b6020026020010181905250808061111a90614f98565b915050610f5c565b83600061112e826108c5565b90506001600160a01b038116331461115d573381604051637d81493960e01b8152600401610b39929190614fb1565b60005b84518110156111d2576111c08787838151811061117f5761117f614f6c565b602002602001015187848151811061119957611199614f6c565b60200260200101518785815181106111b3576111b3614f6c565b602002602001015161258e565b806111ca81614f98565b915050611160565b50505050505050565b6111e6600033611c01565b61120557604051631a35241360e31b8152336004820152602401610b39565b816000611211826108c5565b90506001600160a01b03811661123e5733816040516304ac6caf60e51b8152600401610b39929190614fb1565b82609c8560405161124f9190614f50565b90815260405190819003602001812080546001600160a01b039384166001600160a01b0319909116179055908416907f7b86fdb86d611db06b78f6b0410ec805661e7e23b772bb7234dcfffa2a6d48f5906112ab90879061516d565b60405180910390a250505050565b6040805180820190915260608082526020820152609e836040516112dd9190614f50565b908152602001604051809103902082815481106112fc576112fc614f6c565b906000526020600020906008020160060160405180604001604052908160008201805461132890614fcb565b80601f016020809104026020016040519081016040528092919081815260200182805461135490614fcb565b80156113a15780601f10611376576101008083540402835291602001916113a1565b820191906000526020600020905b81548152906001019060200180831161138457829003601f168201915b505050505081526020016001820180546113ba90614fcb565b80601f01602080910402602001604051908101604052809291908181526020018280546113e690614fcb565b80156114335780601f1061140857610100808354040283529160200191611433565b820191906000526020600020905b81548152906001019060200180831161141657829003601f168201915b505050505081525050905092915050565b816000611450826108c5565b90506001600160a01b03811661147d5733816040516304ac6caf60e51b8152600401610b39929190614fb1565b836000611489826108c5565b90506001600160a01b03811633146114b8573381604051637d81493960e01b8152600401610b39929190614fb1565b6000609e876040516114ca9190614f50565b908152602001604051809103902086815481106114e9576114e9614f6c565b90600052602060002090600802016040518060e00160405290816000820160009054906101000a90046001600160a01b03166001600160a01b03166001600160a01b0316815260200160018201548152602001600282015481526020016003820154815260200160048201548152602001600582015481526020016006820160405180604001604052908160008201805461158390614fcb565b80601f01602080910402602001604051908101604052809291908181526020018280546115af90614fcb565b80156115fc5780601f106115d1576101008083540402835291602001916115fc565b820191906000526020600020905b8154815290600101906020018083116115df57829003601f168201915b5050505050815260200160018201805461161590614fcb565b80601f016020809104026020016040519081016040528092919081815260200182805461164190614fcb565b801561168e5780601f106116635761010080835404028352916020019161168e565b820191906000526020600020905b81548152906001019060200180831161167157829003601f168201915b505050505081525050815250509050600160a1886040516116af9190614f50565b908152604080516020928190038301902084516001600160a01b031660009081529083528181208584015182529092529020600301546116ef9190615180565b60a1886040516116ff9190614f50565b90815260408051918290036020908101832085516001600160a01b031660009081529082528281208683015182529091522060030191909155609e90611746908990614f50565b9081526020016040518091039020868154811061176557611765614f6c565b60009182526020822060089091020180546001600160a01b031916815560018101829055600281018290556003810182905560048101829055600581018290559060068201816117b582826140cf565b6117c36001830160006140cf565b505050507fa7104ff61c7afb7d32b760e5a072de7ae7972b59c80bad62946599fac498304387876040516117f8929190615197565b60405180910390a15050609d80546000190190555050505050565b6060816000611821826108c5565b90506001600160a01b03811661184e5733816040516304ac6caf60e51b8152600401610b39929190614fb1565b609854609a54600061186082846151b9565b6001600160401b0381111561187757611877614147565b6040519080825280602002602001820160405280156118a0578160200160208202803683370190505b50905060005b609e886040516118b69190614f50565b90815260405190819003602001902054811015611ac25760006001600160a01b0316609e896040516118e89190614f50565b9081526020016040518091039020828154811061190757611907614f6c565b60009182526020909120600890910201546001600160a01b031614611ab0576000609e896040516119389190614f50565b9081526020016040518091039020828154811061195757611957614f6c565b90600052602060002090600802016002015490506000609e8a60405161197d9190614f50565b9081526020016040518091039020838154811061199c5761199c614f6c565b90600052602060002090600802016004015490506000609e8b6040516119c29190614f50565b908152602001604051809103902084815481106119e1576119e1614f6c565b90600052602060002090600802016003015490506000609e8c604051611a079190614f50565b90815260200160405180910390208581548110611a2657611a26614f6c565b906000526020600020906008020160050154905060008490505b83811015611aaa57825b82811015611a9757600188611a608360106151b9565b611a6a90856151d8565b81518110611a7a57611a7a614f6c565b602090810291909101015280611a8f81614f98565b915050611a4a565b5080611aa281614f98565b915050611a40565b50505050505b80611aba81614f98565b9150506118a6565b509695505050505050565b611ad5614097565b60a184604051611ae59190614f50565b90815260408051602092819003830181206001600160a01b0396871660009081529084528281209581529483529381902060a0850182528054909516845260018501549184019190915260028401549083015250600382015460608201526004909101546080820152919050565b611b5e600033611c01565b611b7d57604051631a35241360e31b8152336004820152602401610b39565b80609c83604051611b8e9190614f50565b90815260405190819003602001812080546001600160a01b039384166001600160a01b0319909116179055609b805460010190819055918316917fae4e3801dffddd526636d3b5f971dbe3023865ff2ee85267da82ba7a4d7c663391611bf5918691615197565b60405180910390a25050565b60009182526065602090815260408084206001600160a01b0393909316845291905290205460ff1690565b816000611c38826108c5565b90506001600160a01b0381163314611c67573381604051637d81493960e01b8152600401610b39929190614fb1565b6040805160608101825260008183018181528252825160208181018552918152908201529051609e90611c9b908790614f50565b90815260200160405180910390208481548110611cba57611cba614f6c565b90600052602060002090600802016006016000820151816000019081611ce09190615053565b5060208201516001820190611cf59082615053565b509050507f165112bd24c3fc689c966aeccef295a1bb405a6f50c7cd2a6be8bc33f0f11a118484604051611d2a929190615197565b60405180910390a150505050565b60005b8151811015610c0757611d6783838381518110611d5a57611d5a614f6c565b6020026020010151611444565b80611d7181614f98565b915050611d3b565b806000611d85826108c5565b90506001600160a01b038116611db25733816040516304ac6caf60e51b8152600401610b39929190614fb1565b826000611dbe826108c5565b90506001600160a01b0381163314611ded573381604051637d81493960e01b8152600401610b39929190614fb1565b6000609e86604051611dff9190614f50565b90815260405190819003602001902054905060005b81811015611e915760006001600160a01b0316609e88604051611e379190614f50565b90815260200160405180910390208281548110611e5657611e56614f6c565b60009182526020909120600890910201546001600160a01b031614611e7f57611e7f8782611444565b80611e8981614f98565b915050611e14565b5060005b81811015611f4657609e87604051611ead9190614f50565b9081526020016040518091039020805480611eca57611eca6151f0565b60008281526020812060086000199093019283020180546001600160a01b03191681556001810182905560028101829055600381018290556004810182905560058101829055906006820181611f2082826140cf565b611f2e6001830160006140cf565b50505091555080611f3e81614f98565b915050611e95565b50336001600160a01b03167f1dcac8221bcba2b18efe1a3ea25187cabbe6241e70eaa5cd1f2bd686e2d09ec687604051611f80919061516d565b60405180910390a2505050505050565b8151602081840181018051609e825292820191850191909120919052805482908110611fbb57600080fd5b60009182526020909120600890910201805460018201546002830154600384015460048501546005860154604080518082019091526006880180546001600160a01b039098169a509598509396929591949093918290829061201c90614fcb565b80601f016020809104026020016040519081016040528092919081815260200182805461204890614fcb565b80156120955780601f1061206a57610100808354040283529160200191612095565b820191906000526020600020905b81548152906001019060200180831161207857829003601f168201915b505050505081526020016001820180546120ae90614fcb565b80601f01602080910402602001604051908101604052809291908181526020018280546120da90614fcb565b80156121275780601f106120fc57610100808354040283529160200191612127565b820191906000526020600020905b81548152906001019060200180831161210a57829003601f168201915b505050505081525050905087565b836000612141826108c5565b90506001600160a01b0381163314612170573381604051637d81493960e01b8152600401610b39929190614fb1565b600060a1876040516121829190614f50565b90815260408051602092819003830190206001600160a01b038916600090815290835281812088825290925281206002015491506121c085836151d8565b9050600060a1896040516121d49190614f50565b90815260408051602092819003830181206001600160a01b038c1660008181529185528382208c835290945291822060030154627eeac760e11b8252336004830152602482018b905293508a929062fdd58e90604401602060405180830381865afa158015612247573d6000803e3d6000fd5b505050506040513d601f19601f8201168201806040525081019061226b9190615206565b90506122778585615180565b8110156122a7578a338b8b8887898760405163053cdb7b60e01b8152600401610b3998979695949392919061521f565b6040518060a001604052808b6001600160a01b031681526020018a81526020018581526020018481526020014281525060a18c6040516122e79190614f50565b908152602001604051809103902060008c6001600160a01b03166001600160a01b0316815260200190815260200160002060008b815260200190815260200160002060008201518160000160006101000a8154816001600160a01b0302191690836001600160a01b0316021790555060208201518160010155604082015181600201556060820151816003015560808201518160040155905050600060405180604001604052808c6001600160a01b031681526020018b81525090506000805b60a08e6040516123b79190614f50565b9081526040519081900360200190205481101561246f57600060a08f6040516123e09190614f50565b908152602001604051809103902082815481106123ff576123ff614f6c565b60009182526020918290206040805180820190915260029092020180546001600160a01b0390811680845260019092015493830193909352909250908f1614801561244d57508c8160200151145b1561245c57600192505061246f565b508061246781614f98565b9150506123a7565b50806124d45760a08d6040516124859190614f50565b90815260405160209181900382019020805460018082018355600092835291839020855160029092020180546001600160a01b0319166001600160a01b03909216919091178155918401519101555b836001600160a01b031663f242432a33308e8e6040518563ffffffff1660e01b81526004016125069493929190615276565b600060405180830381600087803b15801561252057600080fd5b505af1158015612534573d6000803e3d6000fd5b50505050336001600160a01b03167f1f0203141ac020f145b95f3cbed883b1ee8fa74625a730a476135945f58dfafb8e8e8e8e60405161257794939291906152bb565b60405180910390a250505050505050505050505050565b83600061259a826108c5565b90506001600160a01b03811633146125c9573381604051637d81493960e01b8152600401610b39929190614fb1565b600060a1876040516125db9190614f50565b90815260408051602092819003830181206001600160a01b038a166000908152908452828120898252909352908220600301549250829060a190612620908b90614f50565b90815260408051602092819003830190206001600160a01b038b1660009081529083528181208a825290925290206002015461265c9190615180565b90508085111561268957604051635a6c146d60e01b81526004810186905260248101829052604401610b39565b604051879060a19061269c908b90614f50565b90815260408051602092819003830190206001600160a01b038b1660009081529083528181208a82529092529020600401546126d89042615180565b60a28a6040516126e89190614f50565b90815260408051602092819003830190206001600160a01b038c1660009081529083528181208b8252909252812080549091906127269084906151d8565b925050819055508560a18a60405161273e9190614f50565b90815260408051602092819003830190206001600160a01b038c1660009081529083528181208b825290925290206002015461277a9190615180565b60a18a60405161278a9190614f50565b90815260408051602092819003830181206001600160a01b038d811660009081529185528382208d83529094529190912060020192909255637921219560e11b825282169063f242432a906127e990309033908c908c90600401615276565b600060405180830381600087803b15801561280357600080fd5b505af1158015612817573d6000803e3d6000fd5b50505050336001600160a01b03167f5388772baa6ef185a1b93dc0c5ae54a4cd075e842eb4bb889e69a956bb2392d48a8a8a8a60405161285a94939291906152bb565b60405180910390a2505050505050505050565b60006128796001613887565b90508015612891576000805461ff0019166101001790555b6000609b819055609d8190556040805160808101825282815260106020820181905291810183905260600181905260978290556098819055609991909155609a556128da613907565b6128e5600083613974565b8015610ed2576000805461ff0019169055604051600181527f7f26b83ff96e1f2b6a682f133852f6798a09c465da95921460cefb38474024989060200160405180910390a15050565b82600061293a826108c5565b90506001600160a01b0381163314612969573381604051637d81493960e01b8152600401610b39929190614fb1565b84846000612976836108c5565b905060a1836040516129889190614f50565b908152604080516020928190038301902084516001600160a01b0316600090815290835281812085840151825290925281206002015490036129fb57602082015160405163122e1c0960e31b81523360048201526001600160a01b03831660248201526044810191909152606401610b39565b612a0e888860000151896020015161397e565b60a188604051612a1e9190614f50565b908152604080516020928190038301902089516001600160a01b031660009081529083528181208a84015182529092528120600301805491612a5f83614f98565b90915550508651602088015160405163023c23db60e01b81526000916001600160a01b0384169163023c23db91612a9c9160040190815260200190565b606060405180830381865afa158015612ab9573d6000803e3d6000fd5b505050506040513d601f19601f82011682018060405250810190612add9190615304565b905060006040518060e001604052808b600001516001600160a01b031681526020018b6020015181526020018b6040015181526020018b606001518152602001836000015160ff168c60400151612b3491906151d8565b8152602001836020015160ff168c60600151612b5091906151d8565b81526020018a90529050612b648b82613ab2565b609e8b604051612b749190614f50565b9081526040805160209281900383019020805460018082018355600092835291849020855160089092020180546001600160a01b0319166001600160a01b0390921691909117815592840151908301558201516002820155606082015160038201556080820151600482015560a0820151600582015560c082015180518392919060068301908190612c069082615053565b5060208201516001820190612c1b9082615053565b5050505050609d600081548092919060010191905055507ff23ca0c6b47a80c1a0fbfb1b5fcba46a8b99aa1da64571108186d5fe483e52308b8b600001518c602001518d604001518e60600151604051612c7995949392919061536f565b60405180910390a17fc7765bf4a8ba984b83e53266f5ae20c8eee0bb3120f5b938bb5cb4c76b2bfff58b8b600001518c602001518c600001518d60200151604051612cc8959493929190615112565b60405180910390a15050505050505050505050565b806000612ce9826108c5565b90506001600160a01b0381163314612d18573381604051637d81493960e01b8152600401610b39929190614fb1565b826000612d24826108c5565b90506001600160a01b038116612d515733816040516304ac6caf60e51b8152600401610b39929190614fb1565b6000609f86604051612d639190614f50565b908152604051908190036020018120546001600160a01b03169150600090609f90612d8f908990614f50565b9081526040519081900360200190206001015490506001600160a01b03821615612e1c57604051637921219560e11b815282906001600160a01b0382169063f242432a90612de890309033908790600190600401615276565b600060405180830381600087803b158015612e0257600080fd5b505af1158015612e16573d6000803e3d6000fd5b50505050505b604080516060810182526000808252602082015242818301529051609f90612e45908a90614f50565b9081526040805160209281900383019020835181546001600160a01b0319166001600160a01b03909116178155918301516001830155919091015160029091015550505050505050565b612ebc604051806060016040528060006001600160a01b0316815260200160008152602001600081525090565b609f82604051612ecc9190614f50565b90815260408051918290036020908101832060608401835280546001600160a01b03168452600181015491840191909152600201549082015292915050565b876000612f17826108c5565b90506001600160a01b038116612f445733816040516304ac6caf60e51b8152600401610b39929190614fb1565b896000612f50826108c5565b90506001600160a01b0381163314612f7f573381604051637d81493960e01b8152600401610b39929190614fb1565b612f8c8c8c8c8c8c61375c565b8615612f9d57612f9d8c8787613372565b336001600160a01b03167faa82b8d4efcd47ed06725c23611bb6b40e8afd00135f4914aba2a281e353e9858d604051612fd6919061516d565b60405180910390a2505050505050505050505050565b6000828152606560205260409020600101546130078161378d565b610c078383613820565b6060609e826040516130239190614f50565b9081526020016040518091039020805480602002602001604051908101604052809291908181526020016000905b828210156132015760008481526020908190206040805160e0810182526008860290920180546001600160a01b031683526001810154938301939093526002830154828201526003830154606083015260048301546080830152600583015460a0830152805180820190915260068301805492939260c08501929190829082906130da90614fcb565b80601f016020809104026020016040519081016040528092919081815260200182805461310690614fcb565b80156131535780601f1061312857610100808354040283529160200191613153565b820191906000526020600020905b81548152906001019060200180831161313657829003601f168201915b5050505050815260200160018201805461316c90614fcb565b80601f016020809104026020016040519081016040528092919081815260200182805461319890614fcb565b80156131e55780601f106131ba576101008083540402835291602001916131e5565b820191906000526020600020905b8154815290600101906020018083116131c857829003601f168201915b5050505050815250508152505081526020019060010190613051565b505050509050919050565b836000613218826108c5565b90506001600160a01b0381163314613247573381604051637d81493960e01b8152600401610b39929190614fb1565b60005b84518110156111d2576132aa8787838151811061326957613269614f6c565b602002602001015187848151811061328357613283614f6c565b602002602001015187858151811061329d5761329d614f6c565b6020026020010151612135565b806132b481614f98565b91505061324a565b815160208184018101805160a08252928201918501919091209190528054829081106132e757600080fd5b6000918252602090912060029091020180546001909101546001600160a01b039091169250905082565b60005b825181101561336c5761335a8484838151811061333357613333614f6c565b602002602001015184848151811061334d5761334d614f6c565b602002602001015161292e565b8061336481614f98565b915050613314565b50505050565b82600061337e826108c5565b90506001600160a01b03811633146133ad573381604051637d81493960e01b8152600401610b39929190614fb1565b8460006133b9826108c5565b90506001600160a01b0381166133e65733816040516304ac6caf60e51b8152600401610b39929190614fb1565b6000609f886040516133f89190614f50565b908152604051908190036020018120546001600160a01b03169150600090609f90613424908b90614f50565b9081526040519081900360200190206001015490506001600160a01b038216156134b157604051637921219560e11b815282906001600160a01b0382169063f242432a9061347d90309033908790600190600401615276565b600060405180830381600087803b15801561349757600080fd5b505af11580156134ab573d6000803e3d6000fd5b50505050505b60405163023c23db60e01b81526004810188905288906000906001600160a01b0383169063023c23db90602401606060405180830381865afa1580156134fb573d6000803e3d6000fd5b505050506040513d601f19601f8201168201806040525081019061351f9190615304565b609854815191925060ff9091161415806135425750609a54602082015160ff1614155b1561358c5780516020820151609854609a5460405163d6017db560e01b815233600482015260ff94851660248201529390921660448401526064830152608482015260a401610b39565b604051627eeac760e11b8152336004820152602481018a90526000906001600160a01b0384169062fdd58e90604401602060405180830381865afa1580156135d8573d6000803e3d6000fd5b505050506040513d601f19601f820116820180604052508101906135fc9190615206565b90506001811015613628578b338c8c6040516302e7214d60e21b8152600401610b3994939291906153af565b60405180606001604052808c6001600160a01b031681526020018b815260200142815250609f8d60405161365c9190614f50565b908152602001604051809103902060008201518160000160006101000a8154816001600160a01b0302191690836001600160a01b031602179055506020820151816001015560408201518160020155905050826001600160a01b031663f242432a33308d60016040518563ffffffff1660e01b81526004016136e19493929190615276565b600060405180830381600087803b1580156136fb57600080fd5b505af115801561370f573d6000803e3d6000fd5b505050507fe03c31cafd50f650ebba0c7b740c41ae889d577abc8c7234beb84585a85e22ff8c8c8c604051613746939291906153e5565b60405180910390a1505050505050505050505050565b821561376c5761376c8585611d38565b613777858383613311565b5050505050565b6001600160a01b03163b151590565b6137978133613e91565b50565b6137a48282611c01565b610ed25760008281526065602090815260408083206001600160a01b03851684529091529020805460ff191660011790556137dc3390565b6001600160a01b0316816001600160a01b0316837f2f8788117e7eff1d82e926ec794901d17c78024a50270940304540a733656f0d60405160405180910390a45050565b61382a8282611c01565b15610ed25760008281526065602090815260408083206001600160a01b0385168085529252808320805460ff1916905551339285917ff6391f5c32d9c69d2a47ea670b442974b53935d1edc7fd64eb21e047a839171b9190a45050565b60008054610100900460ff16156138c6578160ff1660011480156138aa5750303b155b61092e5760405162461bcd60e51b8152600401610b3990615413565b60005460ff8084169116106138ed5760405162461bcd60e51b8152600401610b3990615413565b506000805460ff191660ff92909216919091179055600190565b600054610100900460ff166139725760405162461bcd60e51b815260206004820152602b60248201527f496e697469616c697a61626c653a20636f6e7472616374206973206e6f74206960448201526a6e697469616c697a696e6760a81b6064820152608401610b39565b565b610ed2828261379a565b60a18360405161398e9190614f50565b9081526040805191829003602090810183206001600160a01b038616600090815290825282812085825290915220600201549060a1906139cf908690614f50565b90815260408051602092819003830190206001600160a01b0386166000908152908352818120858252909252902060030154613a0c9060016151d8565b1115610c075782828260a186604051613a259190614f50565b9081526040805191829003602090810183206001600160a01b038916600090815290825282812088825290915220600301549060a190613a66908990614f50565b9081526040805191829003602090810183206001600160a01b038a1660009081529082528281208982529091522060020154638549705f60e01b8252610b39959493929160040161536f565b60975460408201511080613acb57506098546040820151115b15613b17578060400151604051630f87bdd960e31b8152600401610b39918152604060208201819052600e908201526d1a5b9d985b1a59081e14dd185c9d60921b606082015260800190565b60975460808201511080613b3057506098546080820151115b15613b7957608081015160408051630f87bdd960e31b815260048101929092526024820152600c60448201526b1a5b9d985b1a59081e115b9960a21b6064820152608401610b39565b60995460608201511080613b925750609a546060820151115b15613bdd57606081015160408051630f87bdd960e31b815260048101929092526024820152600e60448201526d1a5b9d985b1a59081e54dd185c9d60921b6064820152608401610b39565b60995460a08201511080613bf65750609a5460a0820151115b15613c3f5760a081015160408051630f87bdd960e31b815260048101929092526024820152600c60448201526b1a5b9d985b1a59081e515b9960a21b6064820152608401610b39565b609e82604051613c4f9190614f50565b90815260405190819003602001902054600003613c6a575050565b60005b609e83604051613c7d9190614f50565b90815260405190819003602001902054811015610c075760006001600160a01b0316609e84604051613caf9190614f50565b90815260200160405180910390208281548110613cce57613cce614f6c565b60009182526020909120600890910201546001600160a01b031614613e7f57609e83604051613cfd9190614f50565b90815260200160405180910390208181548110613d1c57613d1c614f6c565b9060005260206000209060080201600201548260800151111580613d8457508160400151609e84604051613d509190614f50565b90815260200160405180910390208281548110613d6f57613d6f614f6c565b90600052602060002090600802016004015411155b80613dd35750609e83604051613d9a9190614f50565b90815260200160405180910390208181548110613db957613db9614f6c565b9060005260206000209060080201600301548260a0015111155b80613e2257508160600151609e84604051613dee9190614f50565b90815260200160405180910390208281548110613e0d57613e0d614f6c565b90600052602060002090600802016005015411155b613e7f5781609e84604051613e379190614f50565b90815260200160405180910390208281548110613e5657613e56614f6c565b9060005260206000209060080201604051632efa3a6b60e11b8152600401610b39929190615506565b80613e8981614f98565b915050613c6d565b613e9b8282611c01565b610ed257613eb3816001600160a01b03166014613ef5565b613ebe836020613ef5565b604051602001613ecf9291906155a9565b60408051601f198184030181529082905262461bcd60e51b8252610b399160040161516d565b60606000613f048360026151b9565b613f0f9060026151d8565b6001600160401b03811115613f2657613f26614147565b6040519080825280601f01601f191660200182016040528015613f50576020820181803683370190505b509050600360fc1b81600081518110613f6b57613f6b614f6c565b60200101906001600160f81b031916908160001a905350600f60fb1b81600181518110613f9a57613f9a614f6c565b60200101906001600160f81b031916908160001a9053506000613fbe8460026151b9565b613fc99060016151d8565b90505b6001811115614041576f181899199a1a9b1b9c1cb0b131b232b360811b85600f1660108110613ffd57613ffd614f6c565b1a60f81b82828151811061401357614013614f6c565b60200101906001600160f81b031916908160001a90535060049490941c9361403a8161561e565b9050613fcc565b5083156140905760405162461bcd60e51b815260206004820181905260248201527f537472696e67733a20686578206c656e67746820696e73756666696369656e746044820152606401610b39565b9392505050565b6040518060a0016040528060006001600160a01b03168152602001600081526020016000815260200160008152602001600081525090565b5080546140db90614fcb565b6000825580601f106140eb575050565b601f01602090049060005260206000209081019061379791905b808211156141195760008155600101614105565b5090565b60006020828403121561412f57600080fd5b81356001600160e01b03198116811461409057600080fd5b634e487b7160e01b600052604160045260246000fd5b604051601f8201601f191681016001600160401b038111828210171561418557614185614147565b604052919050565b600082601f83011261419e57600080fd5b81356001600160401b038111156141b7576141b7614147565b6141ca601f8201601f191660200161415d565b8181528460208386010111156141df57600080fd5b816020850160208301376000918101602001919091529392505050565b60006020828403121561420e57600080fd5b81356001600160401b0381111561422457600080fd5b6142308482850161418d565b949350505050565b6020808252825182820181905260009190848201906040850190845b818110156142ab5761429883855180516001600160a01b03168252602080820151908301526040808201519083015260608082015190830152608090810151910152565b9284019260a09290920191600101614254565b50909695505050505050565b60006001600160401b038211156142d0576142d0614147565b5060051b60200190565b600082601f8301126142eb57600080fd5b813560206143006142fb836142b7565b61415d565b82815260059290921b8401810191818101908684111561431f57600080fd5b8286015b84811015611ac25780358352918301918301614323565b60006040828403121561434c57600080fd5b604051604081016001600160401b03828210818311171561436f5761436f614147565b81604052829350843591508082111561438757600080fd5b6143938683870161418d565b835260208501359150808211156143a957600080fd5b506143b68582860161418d565b6020830152505092915050565b600082601f8301126143d457600080fd5b813560206143e46142fb836142b7565b82815260059290921b8401810191818101908684111561440357600080fd5b8286015b84811015611ac25780356001600160401b038111156144265760008081fd5b6144348986838b010161433a565b845250918301918301614407565b60008060006060848603121561445757600080fd5b83356001600160401b038082111561446e57600080fd5b61447a8783880161418d565b9450602086013591508082111561449057600080fd5b61449c878388016142da565b935060408601359150808211156144b257600080fd5b506144bf868287016143c3565b9150509250925092565b6000602082840312156144db57600080fd5b5035919050565b80356001600160a01b038116811461093657600080fd5b6000806040838503121561450c57600080fd5b8235915061451c602084016144e2565b90509250929050565b60008060006060848603121561453a57600080fd5b83356001600160401b038082111561455157600080fd5b61455d8783880161418d565b945060208601359350604086013591508082111561457a57600080fd5b506144bf8682870161433a565b60005b838110156145a257818101518382015260200161458a565b8381111561336c5750506000910152565b600081518084526145cb816020860160208601614587565b601f01601f19169290920160200192915050565b60008151604084526145f460408501826145b3565b90506020830151848203602086015261460d82826145b3565b95945050505050565b6000602080830181845280855180835260408601915060408160051b870101925083870160005b8281101561466b57603f198886030184526146598583516145df565b9450928501929085019060010161463d565b5092979650505050505050565b6000806000806080858703121561468e57600080fd5b84356001600160401b03808211156146a557600080fd5b6146b18883890161418d565b95506020915081870135818111156146c857600080fd5b8701601f810189136146d957600080fd5b80356146e76142fb826142b7565b81815260059190911b8201840190848101908b83111561470657600080fd5b928501925b8284101561472b5761471c846144e2565b8252928501929085019061470b565b9750505050604087013591508082111561474457600080fd5b614750888389016142da565b9350606087013591508082111561476657600080fd5b50614773878288016142da565b91505092959194509250565b6000806040838503121561479257600080fd5b82356001600160401b038111156147a857600080fd5b6147b48582860161418d565b92505061451c602084016144e2565b600080604083850312156147d657600080fd5b82356001600160401b038111156147ec57600080fd5b6147f88582860161418d565b95602094909401359450505050565b60208152600061409060208301846145df565b6020808252825182820181905260009190848201906040850190845b818110156142ab57835183529284019291840191600101614836565b60008060006060848603121561486757600080fd5b83356001600160401b0381111561487d57600080fd5b6148898682870161418d565b935050614898602085016144e2565b9150604084013590509250925092565b81516001600160a01b031681526020808301519082015260408083015190820152606080830151908201526080808301519082015260a081016108bf565b600080604083850312156148f957600080fd5b82356001600160401b038082111561491057600080fd5b61491c8683870161418d565b9350602085013591508082111561493257600080fd5b5061493f858286016142da565b9150509250929050565b60018060a01b03881681528660208201528560408201528460608201528360808201528260a082015260e060c0820152600061498860e08301846145df565b9998505050505050505050565b600080600080608085870312156149ab57600080fd5b84356001600160401b038111156149c157600080fd5b6149cd8782880161418d565b9450506149dc602086016144e2565b93969395505050506040820135916060013590565b60008083601f840112614a0357600080fd5b5081356001600160401b03811115614a1a57600080fd5b602083019150836020828501011115614a3257600080fd5b9250929050565b60008060008060008060a08789031215614a5257600080fd5b614a5b876144e2565b9550614a69602088016144e2565b945060408701356001600160401b0380821115614a8557600080fd5b614a918a838b016142da565b95506060890135915080821115614aa757600080fd5b614ab38a838b016142da565b94506080890135915080821115614ac957600080fd5b50614ad689828a016149f1565b979a9699509497509295939492505050565b600060208284031215614afa57600080fd5b614090826144e2565b600060808284031215614b1557600080fd5b604051608081018181106001600160401b0382111715614b3757614b37614147565b604052905080614b46836144e2565b81526020830135602082015260408301356040820152606083013560608201525092915050565b600080600060c08486031215614b8257600080fd5b83356001600160401b0380821115614b9957600080fd5b614ba58783880161418d565b9450614bb48760208801614b03565b935060a086013591508082111561457a57600080fd5b8035801515811461093657600080fd5b600082601f830112614beb57600080fd5b81356020614bfb6142fb836142b7565b82815260079290921b84018101918181019086841115614c1a57600080fd5b8286015b84811015611ac257614c308882614b03565b835291830191608001614c1e565b600080600080600080600080610100898b031215614c5b57600080fd5b88356001600160401b0380821115614c7257600080fd5b614c7e8c838d0161418d565b995060208b0135915080821115614c9457600080fd5b614ca08c838d016142da565b9850614cae60408c01614bca565b975060608b0135915080821115614cc457600080fd5b614cd08c838d01614bda565b965060808b0135915080821115614ce657600080fd5b50614cf38b828c016143c3565b945050614d0260a08a01614bca565b9250614d1060c08a016144e2565b915060e089013590509295985092959890939650565b60018060a01b0381511682526020810151602083015260408101516040830152606081015160608301526080810151608083015260a081015160a0830152600060c082015160e060c085015261423060e08501826145df565b6000602080830181845280855180835260408601915060408160051b870101925083870160005b8281101561466b57603f19888603018452614dc2858351614d26565b94509285019290850190600101614da6565b600080600060608486031215614de957600080fd5b83356001600160401b0380821115614e0057600080fd5b614e0c8783880161418d565b94506020860135915080821115614e2257600080fd5b61449c87838801614bda565b60008060008060008060a08789031215614e4757600080fd5b614e50876144e2565b9550614e5e602088016144e2565b9450604087013593506060870135925060808701356001600160401b03811115614e8757600080fd5b614ad689828a016149f1565b600080600080600060a08688031215614eab57600080fd5b85356001600160401b0380821115614ec257600080fd5b614ece89838a0161418d565b96506020880135915080821115614ee457600080fd5b614ef089838a016142da565b9550614efe60408901614bca565b94506060880135915080821115614f1457600080fd5b614f2089838a01614bda565b93506080880135915080821115614f3657600080fd5b50614f43888289016143c3565b9150509295509295909350565b60008251614f62818460208701614587565b9190910192915050565b634e487b7160e01b600052603260045260246000fd5b634e487b7160e01b600052601160045260246000fd5b600060018201614faa57614faa614f82565b5060010190565b6001600160a01b0392831681529116602082015260400190565b600181811c90821680614fdf57607f821691505b602082108103614fff57634e487b7160e01b600052602260045260246000fd5b50919050565b601f821115610c0757600081815260208120601f850160051c8101602086101561502c5750805b601f850160051c820191505b8181101561504b57828155600101615038565b505050505050565b81516001600160401b0381111561506c5761506c614147565b6150808161507a8454614fcb565b84615005565b602080601f8311600181146150b5576000841561509d5750858301515b600019600386901b1c1916600185901b17855561504b565b600085815260208120601f198616915b828110156150e4578886015182559484019460019091019084016150c5565b50858210156151025787850151600019600388901b60f8161c191681555b5050505050600190811b01905550565b60a08152600061512560a08301886145b3565b6001600160a01b038716602084015260408301869052828103606084015261514d81866145b3565b9050828103608084015261516181856145b3565b98975050505050505050565b60208152600061409060208301846145b3565b60008282101561519257615192614f82565b500390565b6040815260006151aa60408301856145b3565b90508260208301529392505050565b60008160001904831182151516156151d3576151d3614f82565b500290565b600082198211156151eb576151eb614f82565b500190565b634e487b7160e01b600052603160045260246000fd5b60006020828403121561521857600080fd5b5051919050565b60006101008083526152338184018c6145b3565b6001600160a01b039a8b166020850152989099166040830152506060810195909552608085019390935260a084019190915260c083015260e09091015292915050565b6001600160a01b0394851681529290931660208301526040820152606081019190915260a060808201819052600490820152630307830360e41b60c082015260e00190565b6080815260006152ce60808301876145b3565b6001600160a01b03959095166020830152506040810192909252606090910152919050565b805160ff8116811461093657600080fd5b60006060828403121561531657600080fd5b604051606081018181106001600160401b038211171561533857615338614147565b604052615344836152f3565b8152615352602084016152f3565b6020820152615363604084016152f3565b60408201529392505050565b60a08152600061538260a08301886145b3565b6001600160a01b039690961660208301525060408101939093526060830191909152608090910152919050565b6080815260006153c260808301876145b3565b6001600160a01b0395861660208401529390941660408201526060015292915050565b6060815260006153f860608301866145b3565b6001600160a01b039490941660208301525060400152919050565b6020808252602e908201527f496e697469616c697a61626c653a20636f6e747261637420697320616c72656160408201526d191e481a5b9a5d1a585b1a5e995960921b606082015260800190565b6000815461546e81614fcb565b80855260206001838116801561548b57600181146154a5576154d3565b60ff1985168884015283151560051b8801830195506154d3565b866000528260002060005b858110156154cb5781548a82018601529083019084016154b0565b890184019650505b505050505092915050565b6040825260006154f16040840183615461565b83810360208501526142308160018501615461565b6060815260006155196060830185614d26565b828103602084015260018060a01b03845416815260018401546020820152600284015460408201526003840154606082015260048401546080820152600584015460a082015260e060c082015261557660e08201600686016154de565b9050828103604084015261460d816012815271696e76616c6964206f626a656374496e666f60701b602082015260400190565b7f416363657373436f6e74726f6c3a206163636f756e74200000000000000000008152600083516155e1816017850160208801614587565b7001034b99036b4b9b9b4b733903937b6329607d1b6017918401918201528351615612816028840160208801614587565b01602801949350505050565b60008161562d5761562d614f82565b50600019019056fea2646970667358221220b77cd1643892c36001b45bd4587fa8679f9bf0bb10cf2d16894cbe7ad8c60a0e64736f6c634300080f0033496e697469616c697a61626c653a20636f6e747261637420697320616c726561",
  "sourcePath": "/Users/onishi/git/goerli-philand/contracts/PhiMap.sol",
  "compiler": {
    "name": "solc",
    "version": "0.8.15+commit.e14f2714"
  },
  "functionHashes": {
    "DEFAULT_ADMIN_ROLE()": "a217fddf",
    "batchDeposit(string,address[],uint256[],uint256[])": "d8034e07",
    "batchRemoveAndWrite(string,uint256[],bool,(address,uint256,uint256,uint256)[],(string,string)[])": "fdbe676e",
    "batchRemoveObjectFromLand(string,uint256[])": "ac25377b",
    "batchWithdraw(string,address[],uint256[],uint256[])": "3fb46561",
    "batchWriteLinkToObject(string,uint256[],(string,string)[])": "0bdfc67d",
    "batchWriteObjectToLand(string,(address,uint256,uint256,uint256)[],(string,string)[])": "e5ac2f15",
    "changePhilandOwner(string,address)": "48d740a5",
    "changeWallPaper(string,address,uint256)": "ecaf5e23",
    "checkAllDepositStatus(string)": "096fb374",
    "checkDepositStatus(string,address,uint256)": "6930a224",
    "checkWallPaper(string)": "cfc76fe2",
    "create(string,address)": "84b47b0f",
    "deposit(string,address,uint256,uint256)": "b855548f",
    "depositInfo(string,address,uint256)": "92adbe85",
    "depositTime(string,address,uint256)": "9250a435",
    "getRoleAdmin(bytes32)": "248a9ca3",
    "grantRole(bytes32,address)": "2f2ff15d",
    "hasRole(bytes32,address)": "91d14854",
    "initialize(address)": "c4d66de8",
    "mapInitialization(string)": "b14a6c0b",
    "mapSettings()": "f393825f",
    "numberOfLand()": "11eeba58",
    "numberOfObject()": "c10ef761",
    "onERC1155BatchReceived(address,address,uint256[],uint256[],bytes)": "bc197c81",
    "onERC1155Received(address,address,uint256,uint256,bytes)": "f23a6e61",
    "ownerLists(string)": "c8c28b79",
    "ownerOfPhiland(string)": "05c81566",
    "removeLinkFromObject(string,uint256)": "95bd8ab7",
    "removeObjectFromLand(string,uint256)": "4be5f3dc",
    "renounceRole(bytes32,address)": "36568abe",
    "revokeRole(bytes32,address)": "d547741f",
    "save(string,uint256[],bool,(address,uint256,uint256,uint256)[],(string,string)[],bool,address,uint256)": "d35fd873",
    "supportsInterface(bytes4)": "01ffc9a7",
    "userObject(string,uint256)": "b80861a6",
    "userObjectDeposit(string,uint256)": "e4b2b131",
    "viewLinks(string)": "39700f86",
    "viewNumberOfObject()": "9aa22f4d",
    "viewNumberOfPhiland()": "e44fa907",
    "viewObjectLink(string,uint256)": "49643fc0",
    "viewPhiland(string)": "d7482bb5",
    "viewPhilandArray(string)": "61f0a803",
    "wallPaper(string)": "d731d405",
    "withdraw(string,address,uint256,uint256)": "be21c721",
    "withdrawWallPaper(string)": "c7c49749",
    "writeLinkToObject(string,uint256,(string,string))": "30d25b1e",
    "writeObjectToLand(string,(address,uint256,uint256,uint256),(string,string))": "c697066b"
  },
  "gasEstimates": {
    "creation": {
      "codeDepositCost": "4424600",
      "executionCost": "infinite",
      "totalCost": "infinite"
    },
    "external": {
      "DEFAULT_ADMIN_ROLE()": "350",
      "batchDeposit(string,address[],uint256[],uint256[])": "infinite",
      "batchRemoveAndWrite(string,uint256[],bool,(address,uint256,uint256,uint256)[],(string,string)[])": "infinite",
      "batchRemoveObjectFromLand(string,uint256[])": "infinite",
      "batchWithdraw(string,address[],uint256[],uint256[])": "infinite",
      "batchWriteLinkToObject(string,uint256[],(string,string)[])": "infinite",
      "batchWriteObjectToLand(string,(address,uint256,uint256,uint256)[],(string,string)[])": "infinite",
      "changePhilandOwner(string,address)": "infinite",
      "changeWallPaper(string,address,uint256)": "infinite",
      "checkAllDepositStatus(string)": "infinite",
      "checkDepositStatus(string,address,uint256)": "infinite",
      "checkWallPaper(string)": "infinite",
      "create(string,address)": "infinite",
      "deposit(string,address,uint256,uint256)": "infinite",
      "depositInfo(string,address,uint256)": "infinite",
      "depositTime(string,address,uint256)": "infinite",
      "getRoleAdmin(bytes32)": "2490",
      "grantRole(bytes32,address)": "infinite",
      "hasRole(bytes32,address)": "2699",
      "initialize(address)": "173714",
      "mapInitialization(string)": "infinite",
      "mapSettings()": "8805",
      "numberOfLand()": "2430",
      "numberOfObject()": "2340",
      "onERC1155BatchReceived(address,address,uint256[],uint256[],bytes)": "infinite",
      "onERC1155Received(address,address,uint256,uint256,bytes)": "infinite",
      "ownerLists(string)": "infinite",
      "ownerOfPhiland(string)": "infinite",
      "removeLinkFromObject(string,uint256)": "infinite",
      "removeObjectFromLand(string,uint256)": "infinite",
      "renounceRole(bytes32,address)": "29113",
      "revokeRole(bytes32,address)": "infinite",
      "save(string,uint256[],bool,(address,uint256,uint256,uint256)[],(string,string)[],bool,address,uint256)": "infinite",
      "supportsInterface(bytes4)": "473",
      "userObject(string,uint256)": "infinite",
      "userObjectDeposit(string,uint256)": "infinite",
      "viewLinks(string)": "infinite",
      "viewNumberOfObject()": "2425",
      "viewNumberOfPhiland()": "2447",
      "viewObjectLink(string,uint256)": "infinite",
      "viewPhiland(string)": "infinite",
      "viewPhilandArray(string)": "infinite",
      "wallPaper(string)": "infinite",
      "withdraw(string,address,uint256,uint256)": "infinite",
      "withdrawWallPaper(string)": "infinite",
      "writeLinkToObject(string,uint256,(string,string))": "infinite",
      "writeObjectToLand(string,(address,uint256,uint256,uint256),(string,string))": "infinite"
    },
    "internal": {
      "checkCollision(string memory,struct PhiMap.ObjectInfo memory)": "infinite",
      "checkDepositAvailable(string memory,address,uint256)": "infinite"
    }
  }
}