{
  "_format": "hh-sol-artifact-1",
  "contractName": "PremiumObject",
  "sourceName": "contracts/object/PremiumObject.sol",
  "abi": [
    {
      "inputs": [
        {
          "internalType": "address payable",
          "name": "_treasuryAddress",
          "type": "address"
        },
        {
          "internalType": "address",
          "name": "_phiMapAddress",
          "type": "address"
        }
      ],
      "stateMutability": "nonpayable",
      "type": "constructor"
    },
    {
      "inputs": [],
      "name": "ExistentToken",
      "type": "error"
    },
    {
      "inputs": [],
      "name": "InvalidOwner",
      "type": "error"
    },
    {
      "inputs": [],
      "name": "InvalidTokenID",
      "type": "error"
    },
    {
      "inputs": [],
      "name": "NoSetTokenSize",
      "type": "error"
    },
    {
      "inputs": [],
      "name": "NonExistentToken",
      "type": "error"
    },
    {
      "inputs": [],
      "name": "PaymentBalanceZero",
      "type": "error"
    },
    {
      "anonymous": false,
      "inputs": [
        {
          "indexed": true,
          "internalType": "address",
          "name": "account",
          "type": "address"
        },
        {
          "indexed": true,
          "internalType": "address",
          "name": "operator",
          "type": "address"
        },
        {
          "indexed": false,
          "internalType": "bool",
          "name": "approved",
          "type": "bool"
        }
      ],
      "name": "ApprovalForAll",
      "type": "event"
    },
    {
      "anonymous": false,
      "inputs": [
        {
          "indexed": false,
          "internalType": "uint256",
          "name": "tokenId",
          "type": "uint256"
        },
        {
          "indexed": false,
          "internalType": "uint256",
          "name": "newPrice",
          "type": "uint256"
        }
      ],
      "name": "ChangeTokenPrice",
      "type": "event"
    },
    {
      "anonymous": false,
      "inputs": [
        {
          "indexed": false,
          "internalType": "uint256",
          "name": "tokenId",
          "type": "uint256"
        },
        {
          "indexed": false,
          "internalType": "string",
          "name": "uri",
          "type": "string"
        },
        {
          "components": [
            {
              "internalType": "uint8",
              "name": "x",
              "type": "uint8"
            },
            {
              "internalType": "uint8",
              "name": "y",
              "type": "uint8"
            },
            {
              "internalType": "uint8",
              "name": "z",
              "type": "uint8"
            }
          ],
          "indexed": false,
          "internalType": "struct BaseObject.Size",
          "name": "size",
          "type": "tuple"
        },
        {
          "indexed": false,
          "internalType": "address payable",
          "name": "creator",
          "type": "address"
        },
        {
          "indexed": false,
          "internalType": "uint256",
          "name": "maxClaimed",
          "type": "uint256"
        },
        {
          "indexed": false,
          "internalType": "uint256",
          "name": "price",
          "type": "uint256"
        }
      ],
      "name": "CreatePremiumObject",
      "type": "event"
    },
    {
      "anonymous": false,
      "inputs": [
        {
          "indexed": true,
          "internalType": "address",
          "name": "sender",
          "type": "address"
        },
        {
          "indexed": false,
          "internalType": "uint256",
          "name": "tokenId",
          "type": "uint256"
        },
        {
          "indexed": false,
          "internalType": "uint256",
          "name": "value",
          "type": "uint256"
        }
      ],
      "name": "LogBuyObject",
      "type": "event"
    },
    {
      "anonymous": false,
      "inputs": [
        {
          "indexed": true,
          "internalType": "address",
          "name": "operator",
          "type": "address"
        },
        {
          "indexed": true,
          "internalType": "address",
          "name": "target",
          "type": "address"
        }
      ],
      "name": "OwnershipGranted",
      "type": "event"
    },
    {
      "anonymous": false,
      "inputs": [
        {
          "indexed": true,
          "internalType": "address",
          "name": "operator",
          "type": "address"
        },
        {
          "indexed": true,
          "internalType": "address",
          "name": "target",
          "type": "address"
        }
      ],
      "name": "OwnershipRemoved",
      "type": "event"
    },
    {
      "anonymous": false,
      "inputs": [
        {
          "indexed": false,
          "internalType": "uint256",
          "name": "amount",
          "type": "uint256"
        }
      ],
      "name": "PaymentReceivedOwner",
      "type": "event"
    },
    {
      "anonymous": false,
      "inputs": [
        {
          "indexed": false,
          "internalType": "uint256",
          "name": "amount",
          "type": "uint256"
        }
      ],
      "name": "PaymentWithdrawnOwner",
      "type": "event"
    },
    {
      "anonymous": false,
      "inputs": [
        {
          "indexed": false,
          "internalType": "uint256",
          "name": "tokenId",
          "type": "uint256"
        },
        {
          "indexed": false,
          "internalType": "address payable",
          "name": "creator",
          "type": "address"
        }
      ],
      "name": "SetCreator",
      "type": "event"
    },
    {
      "anonymous": false,
      "inputs": [
        {
          "indexed": false,
          "internalType": "uint256",
          "name": "tokenId",
          "type": "uint256"
        },
        {
          "indexed": false,
          "internalType": "uint256",
          "name": "exp",
          "type": "uint256"
        }
      ],
      "name": "SetExp",
      "type": "event"
    },
    {
      "anonymous": false,
      "inputs": [
        {
          "indexed": false,
          "internalType": "uint256",
          "name": "tokenId",
          "type": "uint256"
        },
        {
          "indexed": false,
          "internalType": "uint256",
          "name": "newMaxClaimed",
          "type": "uint256"
        }
      ],
      "name": "SetMaxClaimed",
      "type": "event"
    },
    {
      "anonymous": false,
      "inputs": [
        {
          "indexed": false,
          "internalType": "uint256",
          "name": "tokenId",
          "type": "uint256"
        },
        {
          "indexed": false,
          "internalType": "bool",
          "name": "check",
          "type": "bool"
        }
      ],
      "name": "SetOpenForSale",
      "type": "event"
    },
    {
      "anonymous": false,
      "inputs": [
        {
          "indexed": false,
          "internalType": "uint256",
          "name": "royalityFee",
          "type": "uint256"
        }
      ],
      "name": "SetRoyalityFee",
      "type": "event"
    },
    {
      "anonymous": false,
      "inputs": [
        {
          "indexed": false,
          "internalType": "uint256",
          "name": "secondaryRoyalty",
          "type": "uint256"
        }
      ],
      "name": "SetSecondaryRoyalityFee",
      "type": "event"
    },
    {
      "anonymous": false,
      "inputs": [
        {
          "indexed": false,
          "internalType": "address",
          "name": "shopAddress",
          "type": "address"
        }
      ],
      "name": "SetShopAddress",
      "type": "event"
    },
    {
      "anonymous": false,
      "inputs": [
        {
          "indexed": false,
          "internalType": "uint256",
          "name": "tokenId",
          "type": "uint256"
        },
        {
          "indexed": false,
          "internalType": "uint8",
          "name": "x",
          "type": "uint8"
        },
        {
          "indexed": false,
          "internalType": "uint8",
          "name": "y",
          "type": "uint8"
        },
        {
          "indexed": false,
          "internalType": "uint8",
          "name": "z",
          "type": "uint8"
        }
      ],
      "name": "SetSize",
      "type": "event"
    },
    {
      "anonymous": false,
      "inputs": [
        {
          "indexed": false,
          "internalType": "uint256",
          "name": "tokenId",
          "type": "uint256"
        },
        {
          "indexed": false,
          "internalType": "string",
          "name": "uri",
          "type": "string"
        }
      ],
      "name": "SetTokenURI",
      "type": "event"
    },
    {
      "anonymous": false,
      "inputs": [
        {
          "indexed": false,
          "internalType": "address payable",
          "name": "treasuryAddress",
          "type": "address"
        }
      ],
      "name": "SetTreasuryAddress",
      "type": "event"
    },
    {
      "anonymous": false,
      "inputs": [
        {
          "indexed": false,
          "internalType": "string",
          "name": "baseuri",
          "type": "string"
        }
      ],
      "name": "SetbaseMetadataURI",
      "type": "event"
    },
    {
      "anonymous": false,
      "inputs": [
        {
          "indexed": true,
          "internalType": "address",
          "name": "operator",
          "type": "address"
        },
        {
          "indexed": true,
          "internalType": "address",
          "name": "from",
          "type": "address"
        },
        {
          "indexed": true,
          "internalType": "address",
          "name": "to",
          "type": "address"
        },
        {
          "indexed": false,
          "internalType": "uint256[]",
          "name": "ids",
          "type": "uint256[]"
        },
        {
          "indexed": false,
          "internalType": "uint256[]",
          "name": "values",
          "type": "uint256[]"
        }
      ],
      "name": "TransferBatch",
      "type": "event"
    },
    {
      "anonymous": false,
      "inputs": [
        {
          "indexed": true,
          "internalType": "address",
          "name": "operator",
          "type": "address"
        },
        {
          "indexed": true,
          "internalType": "address",
          "name": "from",
          "type": "address"
        },
        {
          "indexed": true,
          "internalType": "address",
          "name": "to",
          "type": "address"
        },
        {
          "indexed": false,
          "internalType": "uint256",
          "name": "id",
          "type": "uint256"
        },
        {
          "indexed": false,
          "internalType": "uint256",
          "name": "value",
          "type": "uint256"
        }
      ],
      "name": "TransferSingle",
      "type": "event"
    },
    {
      "anonymous": false,
      "inputs": [
        {
          "indexed": false,
          "internalType": "string",
          "name": "value",
          "type": "string"
        },
        {
          "indexed": true,
          "internalType": "uint256",
          "name": "id",
          "type": "uint256"
        }
      ],
      "name": "URI",
      "type": "event"
    },
    {
      "inputs": [
        {
          "internalType": "uint256",
          "name": "",
          "type": "uint256"
        }
      ],
      "name": "allObjects",
      "outputs": [
        {
          "internalType": "string",
          "name": "tokenURI",
          "type": "string"
        },
        {
          "components": [
            {
              "internalType": "uint8",
              "name": "x",
              "type": "uint8"
            },
            {
              "internalType": "uint8",
              "name": "y",
              "type": "uint8"
            },
            {
              "internalType": "uint8",
              "name": "z",
              "type": "uint8"
            }
          ],
          "internalType": "struct BaseObject.Size",
          "name": "size",
          "type": "tuple"
        },
        {
          "internalType": "address payable",
          "name": "creator",
          "type": "address"
        },
        {
          "internalType": "uint256",
          "name": "maxClaimed",
          "type": "uint256"
        },
        {
          "internalType": "uint256",
          "name": "price",
          "type": "uint256"
        },
        {
          "internalType": "uint256",
          "name": "exp",
          "type": "uint256"
        },
        {
          "internalType": "bool",
          "name": "forSale",
          "type": "bool"
        }
      ],
      "stateMutability": "view",
      "type": "function"
    },
    {
      "inputs": [
        {
          "internalType": "address",
          "name": "account",
          "type": "address"
        },
        {
          "internalType": "uint256",
          "name": "id",
          "type": "uint256"
        }
      ],
      "name": "balanceOf",
      "outputs": [
        {
          "internalType": "uint256",
          "name": "",
          "type": "uint256"
        }
      ],
      "stateMutability": "view",
      "type": "function"
    },
    {
      "inputs": [
        {
          "internalType": "address[]",
          "name": "accounts",
          "type": "address[]"
        },
        {
          "internalType": "uint256[]",
          "name": "ids",
          "type": "uint256[]"
        }
      ],
      "name": "balanceOfBatch",
      "outputs": [
        {
          "internalType": "uint256[]",
          "name": "",
          "type": "uint256[]"
        }
      ],
      "stateMutability": "view",
      "type": "function"
    },
    {
      "inputs": [],
      "name": "baseMetadataURI",
      "outputs": [
        {
          "internalType": "string",
          "name": "",
          "type": "string"
        }
      ],
      "stateMutability": "view",
      "type": "function"
    },
    {
      "inputs": [
        {
          "internalType": "uint256[]",
          "name": "tokenIds",
          "type": "uint256[]"
        }
      ],
      "name": "batchBuyObject",
      "outputs": [],
      "stateMutability": "payable",
      "type": "function"
    },
    {
      "inputs": [
        {
          "internalType": "address",
          "name": "to",
          "type": "address"
        },
        {
          "internalType": "uint256[]",
          "name": "tokenIds",
          "type": "uint256[]"
        }
      ],
      "name": "batchBuyObjectFromShop",
      "outputs": [],
      "stateMutability": "payable",
      "type": "function"
    },
    {
      "inputs": [
        {
          "internalType": "uint256",
          "name": "tokenId",
          "type": "uint256"
        },
        {
          "internalType": "uint256",
          "name": "newPrice",
          "type": "uint256"
        }
      ],
      "name": "changeTokenPrice",
      "outputs": [],
      "stateMutability": "nonpayable",
      "type": "function"
    },
    {
      "inputs": [
        {
          "internalType": "uint256",
          "name": "tokenId",
          "type": "uint256"
        },
        {
          "internalType": "string",
          "name": "tokenUri",
          "type": "string"
        },
        {
          "components": [
            {
              "internalType": "uint8",
              "name": "x",
              "type": "uint8"
            },
            {
              "internalType": "uint8",
              "name": "y",
              "type": "uint8"
            },
            {
              "internalType": "uint8",
              "name": "z",
              "type": "uint8"
            }
          ],
          "internalType": "struct BaseObject.Size",
          "name": "size",
          "type": "tuple"
        },
        {
          "internalType": "address payable",
          "name": "creator",
          "type": "address"
        },
        {
          "internalType": "uint256",
          "name": "maxClaimed",
          "type": "uint256"
        },
        {
          "internalType": "uint256",
          "name": "price",
          "type": "uint256"
        }
      ],
      "name": "createObject",
      "outputs": [],
      "stateMutability": "nonpayable",
      "type": "function"
    },
    {
      "inputs": [
        {
          "internalType": "uint256",
          "name": "",
          "type": "uint256"
        }
      ],
      "name": "created",
      "outputs": [
        {
          "internalType": "bool",
          "name": "",
          "type": "bool"
        }
      ],
      "stateMutability": "view",
      "type": "function"
    },
    {
      "inputs": [
        {
          "internalType": "uint256",
          "name": "id",
          "type": "uint256"
        }
      ],
      "name": "exists",
      "outputs": [
        {
          "internalType": "bool",
          "name": "",
          "type": "bool"
        }
      ],
      "stateMutability": "view",
      "type": "function"
    },
    {
      "inputs": [
        {
          "internalType": "uint256",
          "name": "tokenId",
          "type": "uint256"
        }
      ],
      "name": "getCreatorAddress",
      "outputs": [
        {
          "internalType": "address payable",
          "name": "",
          "type": "address"
        }
      ],
      "stateMutability": "view",
      "type": "function"
    },
    {
      "inputs": [
        {
          "internalType": "uint256",
          "name": "tokenId",
          "type": "uint256"
        }
      ],
      "name": "getExp",
      "outputs": [
        {
          "internalType": "uint256",
          "name": "",
          "type": "uint256"
        }
      ],
      "stateMutability": "view",
      "type": "function"
    },
    {
      "inputs": [
        {
          "internalType": "uint256",
          "name": "tokenId",
          "type": "uint256"
        }
      ],
      "name": "getMaxClaimed",
      "outputs": [
        {
          "internalType": "uint256",
          "name": "",
          "type": "uint256"
        }
      ],
      "stateMutability": "view",
      "type": "function"
    },
    {
      "inputs": [
        {
          "internalType": "uint256",
          "name": "tokenId",
          "type": "uint256"
        }
      ],
      "name": "getObjectInfo",
      "outputs": [
        {
          "components": [
            {
              "internalType": "string",
              "name": "tokenURI",
              "type": "string"
            },
            {
              "components": [
                {
                  "internalType": "uint8",
                  "name": "x",
                  "type": "uint8"
                },
                {
                  "internalType": "uint8",
                  "name": "y",
                  "type": "uint8"
                },
                {
                  "internalType": "uint8",
                  "name": "z",
                  "type": "uint8"
                }
              ],
              "internalType": "struct BaseObject.Size",
              "name": "size",
              "type": "tuple"
            },
            {
              "internalType": "address payable",
              "name": "creator",
              "type": "address"
            },
            {
              "internalType": "uint256",
              "name": "maxClaimed",
              "type": "uint256"
            },
            {
              "internalType": "uint256",
              "name": "price",
              "type": "uint256"
            },
            {
              "internalType": "uint256",
              "name": "exp",
              "type": "uint256"
            },
            {
              "internalType": "bool",
              "name": "forSale",
              "type": "bool"
            }
          ],
          "internalType": "struct BaseObject.Object",
          "name": "",
          "type": "tuple"
        }
      ],
      "stateMutability": "view",
      "type": "function"
    },
    {
      "inputs": [
        {
          "internalType": "uint256[]",
          "name": "tokenIds",
          "type": "uint256[]"
        }
      ],
      "name": "getObjectsPrice",
      "outputs": [
        {
          "internalType": "uint256",
          "name": "",
          "type": "uint256"
        }
      ],
      "stateMutability": "view",
      "type": "function"
    },
    {
      "inputs": [
        {
          "internalType": "uint256",
          "name": "tokenId",
          "type": "uint256"
        }
      ],
      "name": "getOpenForSale",
      "outputs": [
        {
          "internalType": "bool",
          "name": "",
          "type": "bool"
        }
      ],
      "stateMutability": "view",
      "type": "function"
    },
    {
      "inputs": [
        {
          "internalType": "uint256",
          "name": "tokenId",
          "type": "uint256"
        }
      ],
      "name": "getSize",
      "outputs": [
        {
          "components": [
            {
              "internalType": "uint8",
              "name": "x",
              "type": "uint8"
            },
            {
              "internalType": "uint8",
              "name": "y",
              "type": "uint8"
            },
            {
              "internalType": "uint8",
              "name": "z",
              "type": "uint8"
            }
          ],
          "internalType": "struct BaseObject.Size",
          "name": "",
          "type": "tuple"
        }
      ],
      "stateMutability": "view",
      "type": "function"
    },
    {
      "inputs": [
        {
          "internalType": "uint256",
          "name": "tokenId",
          "type": "uint256"
        }
      ],
      "name": "getTokenPrice",
      "outputs": [
        {
          "internalType": "uint256",
          "name": "",
          "type": "uint256"
        }
      ],
      "stateMutability": "view",
      "type": "function"
    },
    {
      "inputs": [
        {
          "internalType": "uint256",
          "name": "tokenId",
          "type": "uint256"
        }
      ],
      "name": "getTokenURI",
      "outputs": [
        {
          "internalType": "string",
          "name": "",
          "type": "string"
        }
      ],
      "stateMutability": "view",
      "type": "function"
    },
    {
      "inputs": [
        {
          "internalType": "address",
          "name": "account",
          "type": "address"
        },
        {
          "internalType": "address",
          "name": "operator",
          "type": "address"
        }
      ],
      "name": "isApprovedForAll",
      "outputs": [
        {
          "internalType": "bool",
          "name": "",
          "type": "bool"
        }
      ],
      "stateMutability": "view",
      "type": "function"
    },
    {
      "inputs": [],
      "name": "name",
      "outputs": [
        {
          "internalType": "string",
          "name": "",
          "type": "string"
        }
      ],
      "stateMutability": "view",
      "type": "function"
    },
    {
      "inputs": [
        {
          "internalType": "address",
          "name": "targetAddress",
          "type": "address"
        }
      ],
      "name": "ownerCheck",
      "outputs": [
        {
          "internalType": "bool",
          "name": "",
          "type": "bool"
        }
      ],
      "stateMutability": "view",
      "type": "function"
    },
    {
      "inputs": [],
      "name": "paymentBalanceOwner",
      "outputs": [
        {
          "internalType": "uint256",
          "name": "",
          "type": "uint256"
        }
      ],
      "stateMutability": "view",
      "type": "function"
    },
    {
      "inputs": [],
      "name": "phiMapAddress",
      "outputs": [
        {
          "internalType": "address",
          "name": "",
          "type": "address"
        }
      ],
      "stateMutability": "view",
      "type": "function"
    },
    {
      "inputs": [
        {
          "internalType": "address",
          "name": "oldOwner",
          "type": "address"
        }
      ],
      "name": "removeOwner",
      "outputs": [],
      "stateMutability": "nonpayable",
      "type": "function"
    },
    {
      "inputs": [],
      "name": "royalityFee",
      "outputs": [
        {
          "internalType": "uint256",
          "name": "",
          "type": "uint256"
        }
      ],
      "stateMutability": "view",
      "type": "function"
    },
    {
      "inputs": [
        {
          "internalType": "uint256",
          "name": "",
          "type": "uint256"
        },
        {
          "internalType": "uint256",
          "name": "salePrice",
          "type": "uint256"
        }
      ],
      "name": "royaltyInfo",
      "outputs": [
        {
          "internalType": "address",
          "name": "receiver",
          "type": "address"
        },
        {
          "internalType": "uint256",
          "name": "royaltyAmount",
          "type": "uint256"
        }
      ],
      "stateMutability": "view",
      "type": "function"
    },
    {
      "inputs": [
        {
          "internalType": "address",
          "name": "from",
          "type": "address"
        },
        {
          "internalType": "address",
          "name": "to",
          "type": "address"
        },
        {
          "internalType": "uint256[]",
          "name": "ids",
          "type": "uint256[]"
        },
        {
          "internalType": "uint256[]",
          "name": "amounts",
          "type": "uint256[]"
        },
        {
          "internalType": "bytes",
          "name": "data",
          "type": "bytes"
        }
      ],
      "name": "safeBatchTransferFrom",
      "outputs": [],
      "stateMutability": "nonpayable",
      "type": "function"
    },
    {
      "inputs": [
        {
          "internalType": "address",
          "name": "from",
          "type": "address"
        },
        {
          "internalType": "address",
          "name": "to",
          "type": "address"
        },
        {
          "internalType": "uint256",
          "name": "id",
          "type": "uint256"
        },
        {
          "internalType": "uint256",
          "name": "amount",
          "type": "uint256"
        },
        {
          "internalType": "bytes",
          "name": "data",
          "type": "bytes"
        }
      ],
      "name": "safeTransferFrom",
      "outputs": [],
      "stateMutability": "nonpayable",
      "type": "function"
    },
    {
      "inputs": [],
      "name": "secondaryRoyalty",
      "outputs": [
        {
          "internalType": "uint256",
          "name": "",
          "type": "uint256"
        }
      ],
      "stateMutability": "view",
      "type": "function"
    },
    {
      "inputs": [
        {
          "internalType": "address",
          "name": "operator",
          "type": "address"
        },
        {
          "internalType": "bool",
          "name": "approved",
          "type": "bool"
        }
      ],
      "name": "setApprovalForAll",
      "outputs": [],
      "stateMutability": "nonpayable",
      "type": "function"
    },
    {
      "inputs": [
        {
          "internalType": "uint256",
          "name": "tokenId",
          "type": "uint256"
        },
        {
          "internalType": "address payable",
          "name": "creator",
          "type": "address"
        }
      ],
      "name": "setCreatorAddress",
      "outputs": [],
      "stateMutability": "nonpayable",
      "type": "function"
    },
    {
      "inputs": [
        {
          "internalType": "uint256",
          "name": "tokenId",
          "type": "uint256"
        },
        {
          "internalType": "uint256",
          "name": "exp",
          "type": "uint256"
        }
      ],
      "name": "setExp",
      "outputs": [],
      "stateMutability": "nonpayable",
      "type": "function"
    },
    {
      "inputs": [
        {
          "internalType": "uint256",
          "name": "tokenId",
          "type": "uint256"
        },
        {
          "internalType": "uint256",
          "name": "newMaxClaimed",
          "type": "uint256"
        }
      ],
      "name": "setMaxClaimed",
      "outputs": [],
      "stateMutability": "nonpayable",
      "type": "function"
    },
    {
      "inputs": [
        {
          "internalType": "uint256",
          "name": "tokenId",
          "type": "uint256"
        },
        {
          "internalType": "bool",
          "name": "check",
          "type": "bool"
        }
      ],
      "name": "setOpenForSale",
      "outputs": [],
      "stateMutability": "nonpayable",
      "type": "function"
    },
    {
      "inputs": [
        {
          "internalType": "address",
          "name": "newOwner",
          "type": "address"
        }
      ],
      "name": "setOwner",
      "outputs": [],
      "stateMutability": "nonpayable",
      "type": "function"
    },
    {
      "inputs": [
        {
          "internalType": "uint256",
          "name": "newRoyalityFee",
          "type": "uint256"
        }
      ],
      "name": "setRoyalityFee",
      "outputs": [],
      "stateMutability": "nonpayable",
      "type": "function"
    },
    {
      "inputs": [
        {
          "internalType": "uint256",
          "name": "newSecondaryRoyalty",
          "type": "uint256"
        }
      ],
      "name": "setSecondaryRoyalityFee",
      "outputs": [],
      "stateMutability": "nonpayable",
      "type": "function"
    },
    {
      "inputs": [
        {
          "internalType": "address",
          "name": "_shopAddress",
          "type": "address"
        }
      ],
      "name": "setShopAddress",
      "outputs": [],
      "stateMutability": "nonpayable",
      "type": "function"
    },
    {
      "inputs": [
        {
          "internalType": "uint256",
          "name": "tokenId",
          "type": "uint256"
        },
        {
          "components": [
            {
              "internalType": "uint8",
              "name": "x",
              "type": "uint8"
            },
            {
              "internalType": "uint8",
              "name": "y",
              "type": "uint8"
            },
            {
              "internalType": "uint8",
              "name": "z",
              "type": "uint8"
            }
          ],
          "internalType": "struct BaseObject.Size",
          "name": "size",
          "type": "tuple"
        }
      ],
      "name": "setSize",
      "outputs": [],
      "stateMutability": "nonpayable",
      "type": "function"
    },
    {
      "inputs": [
        {
          "internalType": "uint256",
          "name": "tokenId",
          "type": "uint256"
        },
        {
          "internalType": "string",
          "name": "uri",
          "type": "string"
        }
      ],
      "name": "setTokenURI",
      "outputs": [],
      "stateMutability": "nonpayable",
      "type": "function"
    },
    {
      "inputs": [
        {
          "internalType": "address payable",
          "name": "newTreasuryAddress",
          "type": "address"
        }
      ],
      "name": "setTreasuryAddress",
      "outputs": [],
      "stateMutability": "nonpayable",
      "type": "function"
    },
    {
      "inputs": [
        {
          "internalType": "string",
          "name": "newBaseMetadataURI",
          "type": "string"
        }
      ],
      "name": "setbaseMetadataURI",
      "outputs": [],
      "stateMutability": "nonpayable",
      "type": "function"
    },
    {
      "inputs": [],
      "name": "shopAddress",
      "outputs": [
        {
          "internalType": "address",
          "name": "",
          "type": "address"
        }
      ],
      "stateMutability": "view",
      "type": "function"
    },
    {
      "inputs": [
        {
          "internalType": "bytes4",
          "name": "interfaceId",
          "type": "bytes4"
        }
      ],
      "name": "supportsInterface",
      "outputs": [
        {
          "internalType": "bool",
          "name": "",
          "type": "bool"
        }
      ],
      "stateMutability": "view",
      "type": "function"
    },
    {
      "inputs": [],
      "name": "symbol",
      "outputs": [
        {
          "internalType": "string",
          "name": "",
          "type": "string"
        }
      ],
      "stateMutability": "view",
      "type": "function"
    },
    {
      "inputs": [
        {
          "internalType": "uint256",
          "name": "id",
          "type": "uint256"
        }
      ],
      "name": "totalSupply",
      "outputs": [
        {
          "internalType": "uint256",
          "name": "",
          "type": "uint256"
        }
      ],
      "stateMutability": "view",
      "type": "function"
    },
    {
      "inputs": [],
      "name": "treasuryAddress",
      "outputs": [
        {
          "internalType": "address payable",
          "name": "",
          "type": "address"
        }
      ],
      "stateMutability": "view",
      "type": "function"
    },
    {
      "inputs": [
        {
          "internalType": "uint256",
          "name": "tokenId",
          "type": "uint256"
        }
      ],
      "name": "uri",
      "outputs": [
        {
          "internalType": "string",
          "name": "",
          "type": "string"
        }
      ],
      "stateMutability": "view",
      "type": "function"
    },
    {
      "inputs": [
        {
          "internalType": "address",
          "name": "withdrawTo",
          "type": "address"
        }
      ],
      "name": "withdrawOwnerBalance",
      "outputs": [],
      "stateMutability": "nonpayable",
      "type": "function"
    },
    {
      "stateMutability": "payable",
      "type": "receive"
    }
  ],
  "bytecode": "0x60a06040523480156200001157600080fd5b50604051620046b0380380620046b0833981016040819052620000349162000210565b604080516020808201835260008083523381529081905291909120805460ff1916600190811790915580556200006a81620001e5565b506001600160a01b038216620000bc5760405162461bcd60e51b8152602060048201526012602482015271063616e7420736574206164647265737320360741b60448201526064015b60405180910390fd5b6001600160a01b038116620001095760405162461bcd60e51b8152602060048201526012602482015271063616e7420736574206164647265737320360741b6044820152606401620000b3565b604080518082019091526012815271141a1a48141c995b5a5d5b4813d89a9958dd60721b6020820152600290620001419082620002f4565b506040805180820190915260078152665068692d504f5360c81b60208201526003906200016f9082620002f4565b5060408051808201909152601881527f68747470733a2f2f7777772e617277656176652e6e65742f00000000000000006020820152600490620001b39082620002f4565b50600680546001600160a01b0319166001600160a01b039384161790551660805260006007556101f4600855620003c0565b600e620001f38282620002f4565b5050565b6001600160a01b03811681146200020d57600080fd5b50565b600080604083850312156200022457600080fd5b82516200023181620001f7565b60208401519092506200024481620001f7565b809150509250929050565b634e487b7160e01b600052604160045260246000fd5b600181811c908216806200027a57607f821691505b6020821081036200029b57634e487b7160e01b600052602260045260246000fd5b50919050565b601f821115620002ef57600081815260208120601f850160051c81016020861015620002ca5750805b601f850160051c820191505b81811015620002eb57828155600101620002d6565b5050505b505050565b81516001600160401b038111156200031057620003106200024f565b620003288162000321845462000265565b84620002a1565b602080601f831160018114620003605760008415620003475750858301515b600019600386901b1c1916600185901b178555620002eb565b600085815260208120601f198616915b82811015620003915788860151825594840194600190910190840162000370565b5085821015620003b05787850151600019600388901b60f8161c191681555b5050505050600190811b01905550565b6080516142cd620003e36000396000818161067301526120d901526142cd6000f3fe60806040526004361061032b5760003560e01c80634f558e79116101a557806398f24682116100ec578063bfdc4fdf11610095578063cbdac7101161006f578063cbdac710146109da578063e498922f14610a0d578063e985e9c514610a3d578063f242432a14610a5d57600080fd5b8063bfdc4fdf1461096a578063c457fb371461098a578063c5f956af146109ba57600080fd5b8063a6a41a29116100c6578063a6a41a29146108fd578063b6ed6da91461091d578063bd85b0391461093d57600080fd5b806398f2468214610884578063a22cb465146108a4578063a30b4db9146108c457600080fd5b806367478a351161014e5780639291671a116101285780639291671a1461082957806395d89b411461083f5780639733faa51461085457600080fd5b806367478a35146107b95780637061d486146107d957806382cb6b72146107f957600080fd5b8063604c7f801161017f578063604c7f801461075957806362e8e8ac146107795780636605bfda1461079957600080fd5b80634f558e791461070257806358467941146107315780635b2bd79e1461074457600080fd5b80631d1b29e0116102745780632df918a11161021d57806339b67b6d116101f757806339b67b6d146106615780633bb3a24d146106955780633ec963cb146106b55780634e1273f4146106d557600080fd5b80632df918a11461060b5780632eb2c2d61461062b578063326bb4ad1461064b57600080fd5b806323bf2f671161024e57806323bf2f67146105605780632a55205a146105995780632c383ee8146105d857600080fd5b80631d1b29e0146104e55780631e4c78871461051257806322446fb81461052857600080fd5b80630b68e796116102d657806313af4035116102b057806313af403514610485578063162094c4146104a5578063173825d9146104c557600080fd5b80630b68e796146104255780630d09308e146104455780630e89341c1461046557600080fd5b8063023c23db11610307578063023c23db146103b657806306fdde03146103e35780630a1eeb0c1461040557600080fd5b80628788cb14610340578062fdd58e1461035357806301ffc9a71461038657600080fd5b3661033b5761033934610a7d565b005b600080fd5b61033961034e366004613632565b610aca565b34801561035f57600080fd5b5061037361036e366004613682565b610c0f565b6040519081526020015b60405180910390f35b34801561039257600080fd5b506103a66103a13660046136c4565b610cb8565b604051901515815260200161037d565b3480156103c257600080fd5b506103d66103d13660046136e1565b610d08565b60405161037d91906136fa565b3480156103ef57600080fd5b506103f8610dc4565b60405161037d9190613778565b34801561041157600080fd5b506103396104203660046137a0565b610e52565b34801561043157600080fd5b506103396104403660046137cc565b610edf565b34801561045157600080fd5b506103396104603660046137cc565b610f5a565b34801561047157600080fd5b506103f86104803660046136e1565b610fd5565b34801561049157600080fd5b506103396104a03660046137ee565b611039565b3480156104b157600080fd5b506103396104c036600461387f565b6110b6565b3480156104d157600080fd5b506103396104e03660046137ee565b611130565b3480156104f157600080fd5b506105056105003660046136e1565b6111aa565b60405161037d91906138bc565b34801561051e57600080fd5b5061037360095481565b34801561053457600080fd5b50600554610548906001600160a01b031681565b6040516001600160a01b03909116815260200161037d565b34801561056c57600080fd5b506103a661057b3660046137ee565b6001600160a01b031660009081526020819052604090205460ff1690565b3480156105a557600080fd5b506105b96105b43660046137cc565b61133d565b604080516001600160a01b03909316835260208301919091520161037d565b3480156105e457600080fd5b506103a66105f33660046136e1565b6000908152600a602052604090206006015460ff1690565b34801561061757600080fd5b506103396106263660046139d8565b611368565b34801561063757600080fd5b50610339610646366004613a56565b611465565b34801561065757600080fd5b5061037360075481565b34801561066d57600080fd5b506105487f000000000000000000000000000000000000000000000000000000000000000081565b3480156106a157600080fd5b506103f86106b03660046136e1565b611500565b3480156106c157600080fd5b506103396106d03660046137ee565b6115a2565b3480156106e157600080fd5b506106f56106f0366004613b04565b61168a565b60405161037d9190613c02565b34801561070e57600080fd5b506103a661071d3660046136e1565b6000908152600f6020526040902054151590565b61033961073f366004613c15565b6117c8565b34801561075057600080fd5b506103f8611964565b34801561076557600080fd5b50610339610774366004613c52565b611971565b34801561078557600080fd5b506103396107943660046137cc565b611a33565b3480156107a557600080fd5b506103396107b43660046137ee565b611aae565b3480156107c557600080fd5b506103396107d43660046137ee565b611b85565b3480156107e557600080fd5b506103396107f43660046136e1565b611d33565b34801561080557600080fd5b506103a66108143660046136e1565b600b6020526000908152604090205460ff1681565b34801561083557600080fd5b5061037360085481565b34801561084b57600080fd5b506103f8611d98565b34801561086057600080fd5b5061037361086f3660046136e1565b6000908152600a602052604090206003015490565b34801561089057600080fd5b5061033961089f3660046136e1565b611da5565b3480156108b057600080fd5b506103396108bf366004613c76565b611e0a565b3480156108d057600080fd5b506105486108df3660046136e1565b6000908152600a60205260409020600201546001600160a01b031690565b34801561090957600080fd5b50610373610918366004613c15565b611e19565b34801561092957600080fd5b50610339610938366004613ca2565b611e80565b34801561094957600080fd5b506103736109583660046136e1565b6000908152600f602052604090205490565b34801561097657600080fd5b50610339610985366004613cd7565b611eec565b34801561099657600080fd5b506103736109a53660046136e1565b6000908152600a602052604090206004015490565b3480156109c657600080fd5b50600654610548906001600160a01b031681565b3480156109e657600080fd5b506109fa6109f53660046136e1565b611fd7565b60405161037d9796959493929190613d07565b348015610a1957600080fd5b50610373610a283660046136e1565b6000908152600a602052604090206005015490565b348015610a4957600080fd5b506103a6610a58366004613d80565b6120d5565b348015610a6957600080fd5b50610339610a78366004613dae565b612149565b6040518181527faab58724194bfb12b018298382453c333764e73d19ec73cb98d26f8dd10d29cc9060200160405180910390a18060096000828254610ac29190613e2d565b909155505050565b6005546001600160a01b03163314610b1e5760405162461bcd60e51b81526020600482015260126024820152711b5cd9c81cd95b99195c881a5b9d985b1a5960721b60448201526064015b60405180910390fd5b80516000805b82811015610b7957600a6000858381518110610b4257610b42613e40565b602002602001015181526020019081526020016000206004015482610b679190613e2d565b9150610b7281613e56565b9050610b24565b5080341015610bca5760405162461bcd60e51b815260206004820152601060248201527f6e6f7420656e6f7567682076616c7565000000000000000000000000000000006044820152606401610b15565b60005b82811015610c0857610bf885858381518110610beb57610beb613e40565b60200260200101516121e4565b610c0181613e56565b9050610bcd565b5050505050565b60006001600160a01b038316610c8d5760405162461bcd60e51b815260206004820152602b60248201527f455243313135353a2062616c616e636520717565727920666f7220746865207a60448201527f65726f20616464726573730000000000000000000000000000000000000000006064820152608401610b15565b506000818152600c602090815260408083206001600160a01b03861684529091529020545b92915050565b60006001600160e01b03198216636cdb3d1360e11b1480610ce957506001600160e01b031982166303a24d0760e21b145b80610cb257506301ffc9a760e01b6001600160e01b0319831614610cb2565b60408051606081018252600080825260208201819052918101919091526000828152600a602052604090206001015460ff161580610d5d57506000828152600a6020526040902060010154610100900460ff16155b15610d7b5760405163a8e3a97360e01b815260040160405180910390fd5b506000908152600a6020908152604091829020825160608101845260019091015460ff808216835261010082048116938301939093526201000090049091169181019190915290565b60028054610dd190613e6f565b80601f0160208091040260200160405190810160405280929190818152602001828054610dfd90613e6f565b8015610e4a5780601f10610e1f57610100808354040283529160200191610e4a565b820191906000526020600020905b815481529060010190602001808311610e2d57829003601f168201915b505050505081565b3360009081526020819052604090205460ff16610e82576040516349e27cff60e01b815260040160405180910390fd5b6000828152600a6020908152604091829020600601805460ff19168415159081179091558251858152918201527fd24cd22e1990320c8f339b920aee0413e3ac1cfdfb6200d6d967befa1fa1573c91015b60405180910390a15050565b3360009081526020819052604090205460ff16610f0f576040516349e27cff60e01b815260040160405180910390fd5b6000828152600a602090815260409182902060050183905581518481529081018390527f1e1ef21dc18e8f45f4e05a47d70fbffe8371dbcc8b4815e8dbca1dbd620c43669101610ed3565b3360009081526020819052604090205460ff16610f8a576040516349e27cff60e01b815260040160405180910390fd5b6000828152600a602090815260409182902060030183905581518481529081018390527fad41bb8f5516e8c7946d99bc48fd3ff0a07239c8ffcf2d103a0612b9ab44a60a9101610ed3565b6000818152600b602052604090205460609060ff1661100757604051636aa2a93760e01b815260040160405180910390fd5b600461101283611500565b604051602001611023929190613ea9565b6040516020818303038152906040529050919050565b3360009081526020819052604090205460ff16611069576040516349e27cff60e01b815260040160405180910390fd5b6001600160a01b038116600081815260208190526040808220805460ff191660011790555133917f619792ba07bec101df538ab277befa333e4cf1c0274f11de7be2a9507b9c9a0691a350565b3360009081526020819052604090205460ff166110e6576040516349e27cff60e01b815260040160405180910390fd5b6000828152600a602052604090206110fe8282613f7b565b507fd2d827dddfc9c9a02afc5fc68d3251684b36e213a7999ebd90a861f25df4077e8282604051610ed392919061403b565b3360009081526020819052604090205460ff16611160576040516349e27cff60e01b815260040160405180910390fd5b6001600160a01b038116600081815260208190526040808220805460ff191690555133917fc191551a88c5609788f3532bd94c06479b61b0040eec65f9cd985428ffea643091a350565b61120d6040805160e08101825260608082528251908101835260008082526020828101829052938201529091820190815260200160006001600160a01b031681526020016000815260200160008152602001600081526020016000151581525090565b6000828152600a602052604090819020815160e0810190925280548290829061123590613e6f565b80601f016020809104026020016040519081016040528092919081815260200182805461126190613e6f565b80156112ae5780601f10611283576101008083540402835291602001916112ae565b820191906000526020600020905b81548152906001019060200180831161129157829003601f168201915b50505091835250506040805160608082018352600185015460ff808216845261010082048116602085810191909152620100009092048116848601529085019290925260028501546001600160a01b03169284019290925260038401549183019190915260048301546080830152600583015460a0830152600690920154909116151560c09091015292915050565b60008030612710600854856113529190614054565b61135c9190614089565b915091505b9250929050565b3360009081526020819052604090205460ff16611398576040516349e27cff60e01b815260040160405180910390fd5b6000868152600f6020526040902054156113c5576040516387cf36d160e01b815260040160405180910390fd5b6113cf86866110b6565b6113d98685611971565b6113e38684611eec565b6113ed8683610f5a565b6113f78682611a33565b611402866001610e52565b6000868152600b602052604090819020805460ff19166001179055517f78cc551ff3fdb4a4dcb0dffd46bf4ae594f62e47ef18f6cb8bf0b5ae91bd346790611455908890889088908890889088906140ab565b60405180910390a1505050505050565b6001600160a01b038516331480611481575061148185336120d5565b6114f35760405162461bcd60e51b815260206004820152603260248201527f455243313135353a207472616e736665722063616c6c6572206973206e6f742060448201527f6f776e6572206e6f7220617070726f76656400000000000000000000000000006064820152608401610b15565b610c0885858585856125b5565b6000818152600a6020526040902080546060919061151d90613e6f565b80601f016020809104026020016040519081016040528092919081815260200182805461154990613e6f565b80156115965780601f1061156b57610100808354040283529160200191611596565b820191906000526020600020905b81548152906001019060200180831161157957829003601f168201915b50505050509050919050565b3360009081526020819052604090205460ff166115d2576040516349e27cff60e01b815260040160405180910390fd5b6001600160a01b0381166116285760405162461bcd60e51b815260206004820152601260248201527f63616e74207365742061646472657373203000000000000000000000000000006044820152606401610b15565b6005805473ffffffffffffffffffffffffffffffffffffffff19166001600160a01b0383169081179091556040519081527fcefd22c602a88b1f72d74d02bad4b2cb1e05e85530bb77114da7c723d2aca9db906020015b60405180910390a150565b606081518351146117035760405162461bcd60e51b815260206004820152602960248201527f455243313135353a206163636f756e747320616e6420696473206c656e67746860448201527f206d69736d6174636800000000000000000000000000000000000000000000006064820152608401610b15565b6000835167ffffffffffffffff81111561171f5761171f61355a565b604051908082528060200260200182016040528015611748578160200160208202803683370190505b50905060005b84518110156117c05761179385828151811061176c5761176c613e40565b602002602001015185838151811061178657611786613e40565b6020026020010151610c0f565b8282815181106117a5576117a5613e40565b60209081029190910101526117b981613e56565b905061174e565b509392505050565b60003361180c5760405162461bcd60e51b81526020600482015260126024820152711b5cd9c81cd95b99195c881a5b9d985b1a5960721b6044820152606401610b15565b3332146118505760405162461bcd60e51b81526020600482015260126024820152711b5cd9c81cd95b99195c881a5b9d985b1a5960721b6044820152606401610b15565b815160005b818110156118aa57600a600085838151811061187357611873613e40565b6020026020010151815260200190815260200160002060040154836118989190613e2d565b92506118a381613e56565b9050611855565b50813410156119215760405162461bcd60e51b815260206004820152603160248201527f73686f756c6420626520657175616c20746f206f72206d6f7265207468616e2060448201527f74686520746f6b656e27732070726963650000000000000000000000000000006064820152608401610b15565b60005b8181101561195e5761194e84828151811061194157611941613e40565b6020026020010151612839565b61195781613e56565b9050611924565b50505050565b60048054610dd190613e6f565b3360009081526020819052604090205460ff166119a1576040516349e27cff60e01b815260040160405180910390fd5b6000828152600a6020908152604091829020835160019091018054858401518686015160ff94851661ffff1990931683176101009286169283021762ff000019166201000095909116948502179092558451878152938401529282019290925260608101919091527fd8e7c8605fecaf6228c6b5f990bc7f1e865694cc587ef62fe729b926915ef7e090608001610ed3565b3360009081526020819052604090205460ff16611a63576040516349e27cff60e01b815260040160405180910390fd5b6000828152600a602090815260409182902060040183905581518481529081018390527f415cf995faccaec43ce108f2713ebcdb2812b0e0689a8fa7dfdcabf78109ebbb9101610ed3565b3360009081526020819052604090205460ff16611ade576040516349e27cff60e01b815260040160405180910390fd5b6001600160a01b038116611b2a5760405162461bcd60e51b815260206004820152601360248201527263616e7420736574206164647265737328302960681b6044820152606401610b15565b6006805473ffffffffffffffffffffffffffffffffffffffff19166001600160a01b0383169081179091556040519081527feee016301a2725a577c64816adf35ccf644d07439731069a31748ec3b9102c609060200161167f565b3360009081526020819052604090205460ff16611bb5576040516349e27cff60e01b815260040160405180910390fd5b600260015403611c075760405162461bcd60e51b815260206004820152601f60248201527f5265656e7472616e637947756172643a207265656e7472616e742063616c6c006044820152606401610b15565b60026001556001600160a01b038116611c585760405162461bcd60e51b815260206004820152601360248201527263616e7420736574206164647265737328302960681b6044820152606401610b15565b600954600003611c7b57604051632f31015b60e11b815260040160405180910390fd5b600980546000918290556040519091906001600160a01b0384169083908381818185875af1925050503d8060008114611cd0576040519150601f19603f3d011682016040523d82523d6000602084013e611cd5565b606091505b5050905080611cf757604051632f31015b60e11b815260040160405180910390fd5b6040518281527f2d5923adf91dd211e633a33f2e27918338e6a33e3b3f386e9d466d1bc52eba799060200160405180910390a150506001805550565b3360009081526020819052604090205460ff16611d63576040516349e27cff60e01b815260040160405180910390fd5b60088190556040518181527fb69fdb7c7f7b0e17f64074ea1590642f14193039b234aae7a3c68b26ed055adf9060200161167f565b60038054610dd190613e6f565b3360009081526020819052604090205460ff16611dd5576040516349e27cff60e01b815260040160405180910390fd5b60078190556040518181527f184fa17d2176718ea1955f61782c763ce239e39e790340793f227b0ba5db53e19060200161167f565b611e15338383612c00565b5050565b80516000908190815b81811015611e7757600a6000868381518110611e4057611e40613e40565b602002602001015181526020019081526020016000206004015483611e659190613e2d565b9250611e7081613e56565b9050611e22565b50909392505050565b3360009081526020819052604090205460ff16611eb0576040516349e27cff60e01b815260040160405180910390fd5b6004611ebc8282613f7b565b507ffa52149a99a7016c4576d7bb33adefe5c4372aeded2a98a40f46d6ef33109c4d8160405161167f9190613778565b3360009081526020819052604090205460ff16611f1c576040516349e27cff60e01b815260040160405180910390fd5b6001600160a01b038116611f685760405162461bcd60e51b815260206004820152601360248201527263616e7420736574206164647265737328302960681b6044820152606401610b15565b6000828152600a6020908152604091829020600201805473ffffffffffffffffffffffffffffffffffffffff19166001600160a01b0385169081179091558251858152918201527f02df56823aeec019d75f2c2396e2a9c68868b26ccc5a4cd9412b2a78f8602f739101610ed3565b600a60205260009081526040902080548190611ff290613e6f565b80601f016020809104026020016040519081016040528092919081815260200182805461201e90613e6f565b801561206b5780601f106120405761010080835404028352916020019161206b565b820191906000526020600020905b81548152906001019060200180831161204e57829003601f168201915b505060408051606081018252600187015460ff80821683526101008204811660208401526201000090910481169282019290925260028701546003880154600489015460058a01546006909a0154989993986001600160a01b039093169750909550935090911687565b60007f00000000000000000000000000000000000000000000000000000000000000006001600160a01b0316826001600160a01b03160361211857506001610cb2565b6001600160a01b038084166000908152600d602090815260408083209386168352929052205460ff165b9392505050565b6001600160a01b038516331480612165575061216585336120d5565b6121d75760405162461bcd60e51b815260206004820152602960248201527f455243313135353a2063616c6c6572206973206e6f74206f776e6572206e6f7260448201527f20617070726f76656400000000000000000000000000000000000000000000006064820152608401610b15565b610c088585858585612cf4565b6002600154036122365760405162461bcd60e51b815260206004820152601f60248201527f5265656e7472616e637947756172643a207265656e7472616e742063616c6c006044820152606401610b15565b600260015561224481612eb1565b6000818152600a602052604090206006015460ff166122a55760405162461bcd60e51b815260206004820152601160248201527f6e6f74206f70656e20666f722073616c650000000000000000000000000000006044820152606401610b15565b6000818152600a6020908152604080832060030154600f9092529091205411156123115760405162461bcd60e51b815260206004820152600e60248201527f7265616368206d6178436c61696d0000000000000000000000000000000000006044820152606401610b15565b6000818152600a6020526040812060040154600754829161233191612f2a565b915091508161236f5760405162461bcd60e51b815260206004820152600a60248201526931b0b6319032b93937b960b11b6044820152606401610b15565b60008061237e83612710612f73565b91509150816123bc5760405162461bcd60e51b815260206004820152600a60248201526931b0b6319032b93937b960b11b6044820152606401610b15565b6000858152600a60205260408082206002015490516001600160a01b039091169083908381818185875af1925050503d8060008114612417576040519150601f19603f3d011682016040523d82523d6000602084013e61241c565b606091505b505090508061246d5760405162461bcd60e51b815260206004820152601160248201527f63616e742070617920726f79616c6974790000000000000000000000000000006044820152606401610b15565b6006546000878152600a602052604081206004015490916001600160a01b03169061249990859061411b565b604051600081818185875af1925050503d80600081146124d5576040519150601f19603f3d011682016040523d82523d6000602084013e6124da565b606091505b505090508061252b5760405162461bcd60e51b815260206004820152601360248201527f63616e74207472616e736665722073616c6573000000000000000000000000006044820152606401610b15565b6125528888600160405180604001604052806002815260200161060f60f31b815250612fa6565b6000878152600a60209081526040918290206004015482518a8152918201526001600160a01b038a16917f55d70b93fcd0e9f09c69e1e1103a6af64cc3b6f641a2858e5a254ea1891c5a65910160405180910390a2505060018055505050505050565b815183511461262c5760405162461bcd60e51b815260206004820152602860248201527f455243313135353a2069647320616e6420616d6f756e7473206c656e6774682060448201527f6d69736d617463680000000000000000000000000000000000000000000000006064820152608401610b15565b6001600160a01b0384166126905760405162461bcd60e51b815260206004820152602560248201527f455243313135353a207472616e7366657220746f20746865207a65726f206164604482015264647265737360d81b6064820152608401610b15565b3361269f8187878787876130cb565b60005b84518110156127cb5760008582815181106126bf576126bf613e40565b6020026020010151905060008583815181106126dd576126dd613e40565b6020908102919091018101516000848152600c835260408082206001600160a01b038e1683529093529190912054909150818110156127715760405162461bcd60e51b815260206004820152602a60248201527f455243313135353a20696e73756666696369656e742062616c616e636520666f60448201526939103a3930b739b332b960b11b6064820152608401610b15565b6000838152600c602090815260408083206001600160a01b038e8116855292528083208585039055908b168252812080548492906127b0908490613e2d565b92505081905550505050806127c490613e56565b90506126a2565b50846001600160a01b0316866001600160a01b0316826001600160a01b03167f4a39dc06d4c0dbc64b70af90fd698a233a518aa5d07e595d983b8c0526c8f7fb878760405161281b92919061412e565b60405180910390a4612831818787878787613259565b505050505050565b60026001540361288b5760405162461bcd60e51b815260206004820152601f60248201527f5265656e7472616e637947756172643a207265656e7472616e742063616c6c006044820152606401610b15565b600260015561289981612eb1565b6000818152600a602052604090206006015460ff166128fa5760405162461bcd60e51b815260206004820152601160248201527f6e6f74206f70656e20666f722073616c650000000000000000000000000000006044820152606401610b15565b6000818152600a6020908152604080832060030154600f9092529091205411156129665760405162461bcd60e51b815260206004820152601060248201527f7265616368206d6178436c61696d6564000000000000000000000000000000006044820152606401610b15565b6000818152600a6020526040812060040154600754829161298691612f2a565b91509150816129c45760405162461bcd60e51b815260206004820152600a60248201526931b0b6319032b93937b960b11b6044820152606401610b15565b6000806129d383612710612f73565b9150915081612a115760405162461bcd60e51b815260206004820152600a60248201526931b0b6319032b93937b960b11b6044820152606401610b15565b6000858152600a60205260408082206002015490516001600160a01b039091169083908381818185875af1925050503d8060008114612a6c576040519150601f19603f3d011682016040523d82523d6000602084013e612a71565b606091505b5050905080612ac25760405162461bcd60e51b815260206004820152601160248201527f63616e742070617920726f79616c6974790000000000000000000000000000006044820152606401610b15565b6006546000878152600a602052604081206004015490916001600160a01b031690612aee90859061411b565b604051600081818185875af1925050503d8060008114612b2a576040519150601f19603f3d011682016040523d82523d6000602084013e612b2f565b606091505b5050905080612b805760405162461bcd60e51b815260206004820152601360248201527f63616e74207472616e736665722073616c6573000000000000000000000000006044820152606401610b15565b612ba73388600160405180604001604052806002815260200161060f60f31b815250612fa6565b6000878152600a60209081526040918290206004015482518a81529182015233917f55d70b93fcd0e9f09c69e1e1103a6af64cc3b6f641a2858e5a254ea1891c5a65910160405180910390a25050600180555050505050565b816001600160a01b0316836001600160a01b031603612c875760405162461bcd60e51b815260206004820152602960248201527f455243313135353a2073657474696e6720617070726f76616c2073746174757360448201527f20666f722073656c6600000000000000000000000000000000000000000000006064820152608401610b15565b6001600160a01b038381166000818152600d6020908152604080832094871680845294825291829020805460ff191686151590811790915591519182527f17307eab39ab6107e8899845ad3d59bd9653f200f220920489ca2b5937696c31910160405180910390a3505050565b6001600160a01b038416612d585760405162461bcd60e51b815260206004820152602560248201527f455243313135353a207472616e7366657220746f20746865207a65726f206164604482015264647265737360d81b6064820152608401610b15565b336000612d64856133fe565b90506000612d71856133fe565b9050612d818389898585896130cb565b6000868152600c602090815260408083206001600160a01b038c16845290915290205485811015612e075760405162461bcd60e51b815260206004820152602a60248201527f455243313135353a20696e73756666696369656e742062616c616e636520666f60448201526939103a3930b739b332b960b11b6064820152608401610b15565b6000878152600c602090815260408083206001600160a01b038d8116855292528083208985039055908a16825281208054889290612e46908490613e2d565b909155505060408051888152602081018890526001600160a01b03808b16928c821692918816917fc3d58168c5ae7397731d063d5bbf3d657854427343f4c083240f7aacaa2d0f62910160405180910390a4612ea6848a8a8a8a8a613449565b505050505050505050565b801580612eda57506000818152600a6020908152604080832060030154600f9092529091205410155b15612ef857604051636aa2a93760e01b815260040160405180910390fd5b6000818152600b602052604090205460ff16612f2757604051636aa2a93760e01b815260040160405180910390fd5b50565b60008083600003612f415750600190506000611361565b83830283858281612f5457612f54614073565b0414612f67576000809250925050611361565b60019590945092505050565b60008082600003612f8957506000905080611361565b6001838581612f9a57612f9a614073565b04915091509250929050565b6001600160a01b0384166130065760405162461bcd60e51b815260206004820152602160248201527f455243313135353a206d696e7420746f20746865207a65726f206164647265736044820152607360f81b6064820152608401610b15565b336000613012856133fe565b9050600061301f856133fe565b9050613030836000898585896130cb565b6000868152600c602090815260408083206001600160a01b038b16845290915281208054879290613062908490613e2d565b909155505060408051878152602081018790526001600160a01b03808a1692600092918716917fc3d58168c5ae7397731d063d5bbf3d657854427343f4c083240f7aacaa2d0f62910160405180910390a46130c283600089898989613449565b50505050505050565b6001600160a01b0385166131525760005b8351811015613150578281815181106130f7576130f7613e40565b6020026020010151600f600086848151811061311557613115613e40565b60200260200101518152602001908152602001600020600082825461313a9190613e2d565b90915550613149905081613e56565b90506130dc565b505b6001600160a01b0384166128315760005b83518110156130c257600084828151811061318057613180613e40565b60200260200101519050600084838151811061319e5761319e613e40565b602002602001015190506000600f6000848152602001908152602001600020549050818110156132365760405162461bcd60e51b815260206004820152602860248201527f455243313135353a206275726e20616d6f756e74206578636565647320746f7460448201527f616c537570706c790000000000000000000000000000000000000000000000006064820152608401610b15565b6000928352600f60205260409092209103905561325281613e56565b9050613163565b6001600160a01b0384163b156128315760405163bc197c8160e01b81526001600160a01b0385169063bc197c819061329d908990899088908890889060040161415c565b6020604051808303816000875af19250505080156132d8575060408051601f3d908101601f191682019092526132d5918101906141ba565b60015b61338d576132e46141d7565b806308c379a00361331d57506132f86141f3565b80613303575061331f565b8060405162461bcd60e51b8152600401610b159190613778565b505b60405162461bcd60e51b815260206004820152603460248201527f455243313135353a207472616e7366657220746f206e6f6e204552433131353560448201527f526563656976657220696d706c656d656e7465720000000000000000000000006064820152608401610b15565b6001600160e01b0319811663bc197c8160e01b146130c25760405162461bcd60e51b815260206004820152602860248201527f455243313135353a204552433131353552656365697665722072656a656374656044820152676420746f6b656e7360c01b6064820152608401610b15565b6040805160018082528183019092526060916000919060208083019080368337019050509050828160008151811061343857613438613e40565b602090810291909101015292915050565b6001600160a01b0384163b156128315760405163f23a6e6160e01b81526001600160a01b0385169063f23a6e619061348d908990899088908890889060040161427d565b6020604051808303816000875af19250505080156134c8575060408051601f3d908101601f191682019092526134c5918101906141ba565b60015b6134d4576132e46141d7565b6001600160e01b0319811663f23a6e6160e01b146130c25760405162461bcd60e51b815260206004820152602860248201527f455243313135353a204552433131353552656365697665722072656a656374656044820152676420746f6b656e7360c01b6064820152608401610b15565b6001600160a01b0381168114612f2757600080fd5b634e487b7160e01b600052604160045260246000fd5b601f8201601f1916810167ffffffffffffffff811182821017156135965761359661355a565b6040525050565b600067ffffffffffffffff8211156135b7576135b761355a565b5060051b60200190565b600082601f8301126135d257600080fd5b813560206135df8261359d565b6040516135ec8282613570565b83815260059390931b850182019282810191508684111561360c57600080fd5b8286015b848110156136275780358352918301918301613610565b509695505050505050565b6000806040838503121561364557600080fd5b823561365081613545565b9150602083013567ffffffffffffffff81111561366c57600080fd5b613678858286016135c1565b9150509250929050565b6000806040838503121561369557600080fd5b82356136a081613545565b946020939093013593505050565b6001600160e01b031981168114612f2757600080fd5b6000602082840312156136d657600080fd5b8135612142816136ae565b6000602082840312156136f357600080fd5b5035919050565b60608101610cb2828460ff815116825260ff602082015116602083015260ff60408201511660408301525050565b60005b8381101561374357818101518382015260200161372b565b50506000910152565b60008151808452613764816020860160208601613728565b601f01601f19169290920160200192915050565b602081526000612142602083018461374c565b8035801515811461379b57600080fd5b919050565b600080604083850312156137b357600080fd5b823591506137c36020840161378b565b90509250929050565b600080604083850312156137df57600080fd5b50508035926020909101359150565b60006020828403121561380057600080fd5b813561214281613545565b600082601f83011261381c57600080fd5b813567ffffffffffffffff8111156138365761383661355a565b60405161384d601f8301601f191660200182613570565b81815284602083860101111561386257600080fd5b816020850160208301376000918101602001919091529392505050565b6000806040838503121561389257600080fd5b82359150602083013567ffffffffffffffff8111156138b057600080fd5b6136788582860161380b565b60208152600082516101208060208501526138db61014085018361374c565b9150602085015161390f604086018260ff815116825260ff602082015116602083015260ff60408201511660408301525050565b506001600160a01b0360408601511660a0850152606085015160c0850152608085015160e085015260a085015161010085015260c0850151151581850152508091505092915050565b803560ff8116811461379b57600080fd5b60006060828403121561397b57600080fd5b6040516060810181811067ffffffffffffffff8211171561399e5761399e61355a565b6040529050806139ad83613958565b81526139bb60208401613958565b60208201526139cc60408401613958565b60408201525092915050565b60008060008060008061010087890312156139f257600080fd5b86359550602087013567ffffffffffffffff811115613a1057600080fd5b613a1c89828a0161380b565b955050613a2c8860408901613969565b935060a0870135613a3c81613545565b9598949750929560c08101359460e0909101359350915050565b600080600080600060a08688031215613a6e57600080fd5b8535613a7981613545565b94506020860135613a8981613545565b9350604086013567ffffffffffffffff80821115613aa657600080fd5b613ab289838a016135c1565b94506060880135915080821115613ac857600080fd5b613ad489838a016135c1565b93506080880135915080821115613aea57600080fd5b50613af78882890161380b565b9150509295509295909350565b60008060408385031215613b1757600080fd5b823567ffffffffffffffff80821115613b2f57600080fd5b818501915085601f830112613b4357600080fd5b81356020613b508261359d565b604051613b5d8282613570565b83815260059390931b8501820192828101915089841115613b7d57600080fd5b948201945b83861015613ba4578535613b9581613545565b82529482019490820190613b82565b96505086013592505080821115613bba57600080fd5b50613678858286016135c1565b600081518084526020808501945080840160005b83811015613bf757815187529582019590820190600101613bdb565b509495945050505050565b6020815260006121426020830184613bc7565b600060208284031215613c2757600080fd5b813567ffffffffffffffff811115613c3e57600080fd5b613c4a848285016135c1565b949350505050565b60008060808385031215613c6557600080fd5b823591506137c38460208501613969565b60008060408385031215613c8957600080fd5b8235613c9481613545565b91506137c36020840161378b565b600060208284031215613cb457600080fd5b813567ffffffffffffffff811115613ccb57600080fd5b613c4a8482850161380b565b60008060408385031215613cea57600080fd5b823591506020830135613cfc81613545565b809150509250929050565b6000610120808352613d1b8184018b61374c565b915050613d4b602083018960ff815116825260ff602082015116602083015260ff60408201511660408301525050565b6001600160a01b0396909616608082015260a081019490945260c084019290925260e083015215156101009091015292915050565b60008060408385031215613d9357600080fd5b8235613d9e81613545565b91506020830135613cfc81613545565b600080600080600060a08688031215613dc657600080fd5b8535613dd181613545565b94506020860135613de181613545565b93506040860135925060608601359150608086013567ffffffffffffffff811115613e0b57600080fd5b613af78882890161380b565b634e487b7160e01b600052601160045260246000fd5b80820180821115610cb257610cb2613e17565b634e487b7160e01b600052603260045260246000fd5b600060018201613e6857613e68613e17565b5060010190565b600181811c90821680613e8357607f821691505b602082108103613ea357634e487b7160e01b600052602260045260246000fd5b50919050565b6000808454613eb781613e6f565b60018281168015613ecf5760018114613ee457613f13565b60ff1984168752821515830287019450613f13565b8860005260208060002060005b85811015613f0a5781548a820152908401908201613ef1565b50505082870194505b505050508351613f27818360208801613728565b01949350505050565b601f821115613f7657600081815260208120601f850160051c81016020861015613f575750805b601f850160051c820191505b8181101561283157828155600101613f63565b505050565b815167ffffffffffffffff811115613f9557613f9561355a565b613fa981613fa38454613e6f565b84613f30565b602080601f831160018114613fde5760008415613fc65750858301515b600019600386901b1c1916600185901b178555612831565b600085815260208120601f198616915b8281101561400d57888601518255948401946001909101908401613fee565b508582101561402b5787850151600019600388901b60f8161c191681555b5050505050600190811b01905550565b828152604060208201526000613c4a604083018461374c565b600081600019048311821515161561406e5761406e613e17565b500290565b634e487b7160e01b600052601260045260246000fd5b6000826140a657634e487b7160e01b600052601260045260246000fd5b500490565b60006101008883528060208401526140c58184018961374c565b9150506140f5604083018760ff815116825260ff602082015116602083015260ff60408201511660408301525050565b6001600160a01b03851660a08301528360c08301528260e0830152979650505050505050565b81810381811115610cb257610cb2613e17565b6040815260006141416040830185613bc7565b82810360208401526141538185613bc7565b95945050505050565b60006001600160a01b03808816835280871660208401525060a0604083015261418860a0830186613bc7565b828103606084015261419a8186613bc7565b905082810360808401526141ae818561374c565b98975050505050505050565b6000602082840312156141cc57600080fd5b8151612142816136ae565b600060033d11156141f05760046000803e5060005160e01c5b90565b600060443d10156142015790565b6040516003193d81016004833e81513d67ffffffffffffffff816024840111818411171561423157505050505090565b82850191508151818111156142495750505050505090565b843d87010160208285010111156142635750505050505090565b61427260208286010187613570565b509095945050505050565b60006001600160a01b03808816835280871660208401525084604083015283606083015260a060808301526142b560a083018461374c565b97965050505050505056fea164736f6c6343000810000a",
  "linkReferences": {},
  "deployedLinkReferences": {}
}