{
  "_format": "hh-sol-artifact-1",
  "contractName": "QuestObject",
  "sourceName": "contracts/object/QuestObject.sol",
  "abi": [
    {
      "inputs": [
        {
          "internalType": "address payable",
          "name": "_treasuryAddress",
          "type": "address"
        },
        {
          "internalType": "address",
          "name": "_phiMapAddress",
          "type": "address"
        }
      ],
      "stateMutability": "nonpayable",
      "type": "constructor"
    },
    {
      "inputs": [],
      "name": "ExistentToken",
      "type": "error"
    },
    {
      "inputs": [],
      "name": "InvalidOwner",
      "type": "error"
    },
    {
      "inputs": [],
      "name": "InvalidTokenID",
      "type": "error"
    },
    {
      "inputs": [],
      "name": "NoSetTokenSize",
      "type": "error"
    },
    {
      "inputs": [],
      "name": "NonExistentToken",
      "type": "error"
    },
    {
      "inputs": [],
      "name": "PaymentBalanceZero",
      "type": "error"
    },
    {
      "anonymous": false,
      "inputs": [
        {
          "indexed": true,
          "internalType": "address",
          "name": "account",
          "type": "address"
        },
        {
          "indexed": true,
          "internalType": "address",
          "name": "operator",
          "type": "address"
        },
        {
          "indexed": false,
          "internalType": "bool",
          "name": "approved",
          "type": "bool"
        }
      ],
      "name": "ApprovalForAll",
      "type": "event"
    },
    {
      "anonymous": false,
      "inputs": [
        {
          "indexed": false,
          "internalType": "uint256",
          "name": "tokenId",
          "type": "uint256"
        },
        {
          "indexed": false,
          "internalType": "uint256",
          "name": "newPrice",
          "type": "uint256"
        }
      ],
      "name": "ChangeTokenPrice",
      "type": "event"
    },
    {
      "anonymous": false,
      "inputs": [
        {
          "indexed": false,
          "internalType": "uint256",
          "name": "tokenId",
          "type": "uint256"
        },
        {
          "indexed": false,
          "internalType": "string",
          "name": "uri",
          "type": "string"
        },
        {
          "components": [
            {
              "internalType": "uint8",
              "name": "x",
              "type": "uint8"
            },
            {
              "internalType": "uint8",
              "name": "y",
              "type": "uint8"
            },
            {
              "internalType": "uint8",
              "name": "z",
              "type": "uint8"
            }
          ],
          "indexed": false,
          "internalType": "struct BaseObject.Size",
          "name": "size",
          "type": "tuple"
        },
        {
          "indexed": false,
          "internalType": "address payable",
          "name": "creator",
          "type": "address"
        },
        {
          "indexed": false,
          "internalType": "uint256",
          "name": "maxClaimed",
          "type": "uint256"
        },
        {
          "indexed": false,
          "internalType": "uint256",
          "name": "price",
          "type": "uint256"
        }
      ],
      "name": "CreateQuestObject",
      "type": "event"
    },
    {
      "anonymous": false,
      "inputs": [
        {
          "indexed": true,
          "internalType": "address",
          "name": "sender",
          "type": "address"
        },
        {
          "indexed": false,
          "internalType": "uint256",
          "name": "tokenId",
          "type": "uint256"
        }
      ],
      "name": "LogGetQuestObject",
      "type": "event"
    },
    {
      "anonymous": false,
      "inputs": [
        {
          "indexed": true,
          "internalType": "address",
          "name": "operator",
          "type": "address"
        },
        {
          "indexed": true,
          "internalType": "address",
          "name": "target",
          "type": "address"
        }
      ],
      "name": "OwnershipGranted",
      "type": "event"
    },
    {
      "anonymous": false,
      "inputs": [
        {
          "indexed": true,
          "internalType": "address",
          "name": "operator",
          "type": "address"
        },
        {
          "indexed": true,
          "internalType": "address",
          "name": "target",
          "type": "address"
        }
      ],
      "name": "OwnershipRemoved",
      "type": "event"
    },
    {
      "anonymous": false,
      "inputs": [
        {
          "indexed": false,
          "internalType": "uint256",
          "name": "amount",
          "type": "uint256"
        }
      ],
      "name": "PaymentReceivedOwner",
      "type": "event"
    },
    {
      "anonymous": false,
      "inputs": [
        {
          "indexed": false,
          "internalType": "uint256",
          "name": "amount",
          "type": "uint256"
        }
      ],
      "name": "PaymentWithdrawnOwner",
      "type": "event"
    },
    {
      "anonymous": false,
      "inputs": [
        {
          "indexed": false,
          "internalType": "uint256",
          "name": "tokenId",
          "type": "uint256"
        },
        {
          "indexed": false,
          "internalType": "address payable",
          "name": "creator",
          "type": "address"
        }
      ],
      "name": "SetCreator",
      "type": "event"
    },
    {
      "anonymous": false,
      "inputs": [
        {
          "indexed": false,
          "internalType": "uint256",
          "name": "tokenId",
          "type": "uint256"
        },
        {
          "indexed": false,
          "internalType": "uint256",
          "name": "exp",
          "type": "uint256"
        }
      ],
      "name": "SetExp",
      "type": "event"
    },
    {
      "anonymous": false,
      "inputs": [
        {
          "indexed": false,
          "internalType": "uint256",
          "name": "tokenId",
          "type": "uint256"
        },
        {
          "indexed": false,
          "internalType": "uint256",
          "name": "newMaxClaimed",
          "type": "uint256"
        }
      ],
      "name": "SetMaxClaimed",
      "type": "event"
    },
    {
      "anonymous": false,
      "inputs": [
        {
          "indexed": false,
          "internalType": "uint256",
          "name": "tokenId",
          "type": "uint256"
        },
        {
          "indexed": false,
          "internalType": "bool",
          "name": "check",
          "type": "bool"
        }
      ],
      "name": "SetOpenForSale",
      "type": "event"
    },
    {
      "anonymous": false,
      "inputs": [
        {
          "indexed": false,
          "internalType": "uint256",
          "name": "royalityFee",
          "type": "uint256"
        }
      ],
      "name": "SetRoyalityFee",
      "type": "event"
    },
    {
      "anonymous": false,
      "inputs": [
        {
          "indexed": false,
          "internalType": "uint256",
          "name": "secondaryRoyalty",
          "type": "uint256"
        }
      ],
      "name": "SetSecondaryRoyalityFee",
      "type": "event"
    },
    {
      "anonymous": false,
      "inputs": [
        {
          "indexed": false,
          "internalType": "address",
          "name": "shopAddress",
          "type": "address"
        }
      ],
      "name": "SetShopAddress",
      "type": "event"
    },
    {
      "anonymous": false,
      "inputs": [
        {
          "indexed": false,
          "internalType": "uint256",
          "name": "tokenId",
          "type": "uint256"
        },
        {
          "indexed": false,
          "internalType": "uint8",
          "name": "x",
          "type": "uint8"
        },
        {
          "indexed": false,
          "internalType": "uint8",
          "name": "y",
          "type": "uint8"
        },
        {
          "indexed": false,
          "internalType": "uint8",
          "name": "z",
          "type": "uint8"
        }
      ],
      "name": "SetSize",
      "type": "event"
    },
    {
      "anonymous": false,
      "inputs": [
        {
          "indexed": false,
          "internalType": "uint256",
          "name": "tokenId",
          "type": "uint256"
        },
        {
          "indexed": false,
          "internalType": "string",
          "name": "uri",
          "type": "string"
        }
      ],
      "name": "SetTokenURI",
      "type": "event"
    },
    {
      "anonymous": false,
      "inputs": [
        {
          "indexed": false,
          "internalType": "address payable",
          "name": "treasuryAddress",
          "type": "address"
        }
      ],
      "name": "SetTreasuryAddress",
      "type": "event"
    },
    {
      "anonymous": false,
      "inputs": [
        {
          "indexed": false,
          "internalType": "string",
          "name": "baseuri",
          "type": "string"
        }
      ],
      "name": "SetbaseMetadataURI",
      "type": "event"
    },
    {
      "anonymous": false,
      "inputs": [
        {
          "indexed": true,
          "internalType": "address",
          "name": "operator",
          "type": "address"
        },
        {
          "indexed": true,
          "internalType": "address",
          "name": "from",
          "type": "address"
        },
        {
          "indexed": true,
          "internalType": "address",
          "name": "to",
          "type": "address"
        },
        {
          "indexed": false,
          "internalType": "uint256[]",
          "name": "ids",
          "type": "uint256[]"
        },
        {
          "indexed": false,
          "internalType": "uint256[]",
          "name": "values",
          "type": "uint256[]"
        }
      ],
      "name": "TransferBatch",
      "type": "event"
    },
    {
      "anonymous": false,
      "inputs": [
        {
          "indexed": true,
          "internalType": "address",
          "name": "operator",
          "type": "address"
        },
        {
          "indexed": true,
          "internalType": "address",
          "name": "from",
          "type": "address"
        },
        {
          "indexed": true,
          "internalType": "address",
          "name": "to",
          "type": "address"
        },
        {
          "indexed": false,
          "internalType": "uint256",
          "name": "id",
          "type": "uint256"
        },
        {
          "indexed": false,
          "internalType": "uint256",
          "name": "value",
          "type": "uint256"
        }
      ],
      "name": "TransferSingle",
      "type": "event"
    },
    {
      "anonymous": false,
      "inputs": [
        {
          "indexed": false,
          "internalType": "string",
          "name": "value",
          "type": "string"
        },
        {
          "indexed": true,
          "internalType": "uint256",
          "name": "id",
          "type": "uint256"
        }
      ],
      "name": "URI",
      "type": "event"
    },
    {
      "inputs": [
        {
          "internalType": "uint256",
          "name": "",
          "type": "uint256"
        }
      ],
      "name": "allObjects",
      "outputs": [
        {
          "internalType": "string",
          "name": "tokenURI",
          "type": "string"
        },
        {
          "components": [
            {
              "internalType": "uint8",
              "name": "x",
              "type": "uint8"
            },
            {
              "internalType": "uint8",
              "name": "y",
              "type": "uint8"
            },
            {
              "internalType": "uint8",
              "name": "z",
              "type": "uint8"
            }
          ],
          "internalType": "struct BaseObject.Size",
          "name": "size",
          "type": "tuple"
        },
        {
          "internalType": "address payable",
          "name": "creator",
          "type": "address"
        },
        {
          "internalType": "uint256",
          "name": "maxClaimed",
          "type": "uint256"
        },
        {
          "internalType": "uint256",
          "name": "price",
          "type": "uint256"
        },
        {
          "internalType": "uint256",
          "name": "exp",
          "type": "uint256"
        },
        {
          "internalType": "bool",
          "name": "forSale",
          "type": "bool"
        }
      ],
      "stateMutability": "view",
      "type": "function"
    },
    {
      "inputs": [
        {
          "internalType": "address",
          "name": "account",
          "type": "address"
        },
        {
          "internalType": "uint256",
          "name": "id",
          "type": "uint256"
        }
      ],
      "name": "balanceOf",
      "outputs": [
        {
          "internalType": "uint256",
          "name": "",
          "type": "uint256"
        }
      ],
      "stateMutability": "view",
      "type": "function"
    },
    {
      "inputs": [
        {
          "internalType": "address[]",
          "name": "accounts",
          "type": "address[]"
        },
        {
          "internalType": "uint256[]",
          "name": "ids",
          "type": "uint256[]"
        }
      ],
      "name": "balanceOfBatch",
      "outputs": [
        {
          "internalType": "uint256[]",
          "name": "",
          "type": "uint256[]"
        }
      ],
      "stateMutability": "view",
      "type": "function"
    },
    {
      "inputs": [],
      "name": "baseMetadataURI",
      "outputs": [
        {
          "internalType": "string",
          "name": "",
          "type": "string"
        }
      ],
      "stateMutability": "view",
      "type": "function"
    },
    {
      "inputs": [
        {
          "internalType": "uint256",
          "name": "tokenId",
          "type": "uint256"
        },
        {
          "internalType": "uint256",
          "name": "newPrice",
          "type": "uint256"
        }
      ],
      "name": "changeTokenPrice",
      "outputs": [],
      "stateMutability": "nonpayable",
      "type": "function"
    },
    {
      "inputs": [
        {
          "internalType": "uint256",
          "name": "tokenId",
          "type": "uint256"
        },
        {
          "internalType": "string",
          "name": "tokenUri",
          "type": "string"
        },
        {
          "components": [
            {
              "internalType": "uint8",
              "name": "x",
              "type": "uint8"
            },
            {
              "internalType": "uint8",
              "name": "y",
              "type": "uint8"
            },
            {
              "internalType": "uint8",
              "name": "z",
              "type": "uint8"
            }
          ],
          "internalType": "struct BaseObject.Size",
          "name": "size",
          "type": "tuple"
        },
        {
          "internalType": "address payable",
          "name": "creator",
          "type": "address"
        },
        {
          "internalType": "uint256",
          "name": "maxClaimed",
          "type": "uint256"
        },
        {
          "internalType": "uint256",
          "name": "exp",
          "type": "uint256"
        }
      ],
      "name": "createObject",
      "outputs": [],
      "stateMutability": "nonpayable",
      "type": "function"
    },
    {
      "inputs": [
        {
          "internalType": "uint256",
          "name": "",
          "type": "uint256"
        }
      ],
      "name": "created",
      "outputs": [
        {
          "internalType": "bool",
          "name": "",
          "type": "bool"
        }
      ],
      "stateMutability": "view",
      "type": "function"
    },
    {
      "inputs": [
        {
          "internalType": "uint256",
          "name": "id",
          "type": "uint256"
        }
      ],
      "name": "exists",
      "outputs": [
        {
          "internalType": "bool",
          "name": "",
          "type": "bool"
        }
      ],
      "stateMutability": "view",
      "type": "function"
    },
    {
      "inputs": [
        {
          "internalType": "uint256",
          "name": "tokenId",
          "type": "uint256"
        }
      ],
      "name": "getCreatorAddress",
      "outputs": [
        {
          "internalType": "address payable",
          "name": "",
          "type": "address"
        }
      ],
      "stateMutability": "view",
      "type": "function"
    },
    {
      "inputs": [
        {
          "internalType": "uint256",
          "name": "tokenId",
          "type": "uint256"
        }
      ],
      "name": "getExp",
      "outputs": [
        {
          "internalType": "uint256",
          "name": "",
          "type": "uint256"
        }
      ],
      "stateMutability": "view",
      "type": "function"
    },
    {
      "inputs": [
        {
          "internalType": "uint256",
          "name": "tokenId",
          "type": "uint256"
        }
      ],
      "name": "getMaxClaimed",
      "outputs": [
        {
          "internalType": "uint256",
          "name": "",
          "type": "uint256"
        }
      ],
      "stateMutability": "view",
      "type": "function"
    },
    {
      "inputs": [
        {
          "internalType": "address",
          "name": "to",
          "type": "address"
        },
        {
          "internalType": "uint256",
          "name": "tokenId",
          "type": "uint256"
        }
      ],
      "name": "getObject",
      "outputs": [],
      "stateMutability": "nonpayable",
      "type": "function"
    },
    {
      "inputs": [
        {
          "internalType": "uint256",
          "name": "tokenId",
          "type": "uint256"
        }
      ],
      "name": "getObjectInfo",
      "outputs": [
        {
          "components": [
            {
              "internalType": "string",
              "name": "tokenURI",
              "type": "string"
            },
            {
              "components": [
                {
                  "internalType": "uint8",
                  "name": "x",
                  "type": "uint8"
                },
                {
                  "internalType": "uint8",
                  "name": "y",
                  "type": "uint8"
                },
                {
                  "internalType": "uint8",
                  "name": "z",
                  "type": "uint8"
                }
              ],
              "internalType": "struct BaseObject.Size",
              "name": "size",
              "type": "tuple"
            },
            {
              "internalType": "address payable",
              "name": "creator",
              "type": "address"
            },
            {
              "internalType": "uint256",
              "name": "maxClaimed",
              "type": "uint256"
            },
            {
              "internalType": "uint256",
              "name": "price",
              "type": "uint256"
            },
            {
              "internalType": "uint256",
              "name": "exp",
              "type": "uint256"
            },
            {
              "internalType": "bool",
              "name": "forSale",
              "type": "bool"
            }
          ],
          "internalType": "struct BaseObject.Object",
          "name": "",
          "type": "tuple"
        }
      ],
      "stateMutability": "view",
      "type": "function"
    },
    {
      "inputs": [
        {
          "internalType": "uint256",
          "name": "tokenId",
          "type": "uint256"
        }
      ],
      "name": "getOpenForSale",
      "outputs": [
        {
          "internalType": "bool",
          "name": "",
          "type": "bool"
        }
      ],
      "stateMutability": "view",
      "type": "function"
    },
    {
      "inputs": [
        {
          "internalType": "uint256",
          "name": "tokenId",
          "type": "uint256"
        }
      ],
      "name": "getSize",
      "outputs": [
        {
          "components": [
            {
              "internalType": "uint8",
              "name": "x",
              "type": "uint8"
            },
            {
              "internalType": "uint8",
              "name": "y",
              "type": "uint8"
            },
            {
              "internalType": "uint8",
              "name": "z",
              "type": "uint8"
            }
          ],
          "internalType": "struct BaseObject.Size",
          "name": "",
          "type": "tuple"
        }
      ],
      "stateMutability": "view",
      "type": "function"
    },
    {
      "inputs": [
        {
          "internalType": "uint256",
          "name": "tokenId",
          "type": "uint256"
        }
      ],
      "name": "getTokenPrice",
      "outputs": [
        {
          "internalType": "uint256",
          "name": "",
          "type": "uint256"
        }
      ],
      "stateMutability": "view",
      "type": "function"
    },
    {
      "inputs": [
        {
          "internalType": "uint256",
          "name": "tokenId",
          "type": "uint256"
        }
      ],
      "name": "getTokenURI",
      "outputs": [
        {
          "internalType": "string",
          "name": "",
          "type": "string"
        }
      ],
      "stateMutability": "view",
      "type": "function"
    },
    {
      "inputs": [
        {
          "internalType": "address",
          "name": "account",
          "type": "address"
        },
        {
          "internalType": "address",
          "name": "operator",
          "type": "address"
        }
      ],
      "name": "isApprovedForAll",
      "outputs": [
        {
          "internalType": "bool",
          "name": "",
          "type": "bool"
        }
      ],
      "stateMutability": "view",
      "type": "function"
    },
    {
      "inputs": [],
      "name": "name",
      "outputs": [
        {
          "internalType": "string",
          "name": "",
          "type": "string"
        }
      ],
      "stateMutability": "view",
      "type": "function"
    },
    {
      "inputs": [
        {
          "internalType": "address",
          "name": "targetAddress",
          "type": "address"
        }
      ],
      "name": "ownerCheck",
      "outputs": [
        {
          "internalType": "bool",
          "name": "",
          "type": "bool"
        }
      ],
      "stateMutability": "view",
      "type": "function"
    },
    {
      "inputs": [],
      "name": "paymentBalanceOwner",
      "outputs": [
        {
          "internalType": "uint256",
          "name": "",
          "type": "uint256"
        }
      ],
      "stateMutability": "view",
      "type": "function"
    },
    {
      "inputs": [],
      "name": "phiMapAddress",
      "outputs": [
        {
          "internalType": "address",
          "name": "",
          "type": "address"
        }
      ],
      "stateMutability": "view",
      "type": "function"
    },
    {
      "inputs": [
        {
          "internalType": "address",
          "name": "oldOwner",
          "type": "address"
        }
      ],
      "name": "removeOwner",
      "outputs": [],
      "stateMutability": "nonpayable",
      "type": "function"
    },
    {
      "inputs": [],
      "name": "royalityFee",
      "outputs": [
        {
          "internalType": "uint256",
          "name": "",
          "type": "uint256"
        }
      ],
      "stateMutability": "view",
      "type": "function"
    },
    {
      "inputs": [
        {
          "internalType": "uint256",
          "name": "",
          "type": "uint256"
        },
        {
          "internalType": "uint256",
          "name": "salePrice",
          "type": "uint256"
        }
      ],
      "name": "royaltyInfo",
      "outputs": [
        {
          "internalType": "address",
          "name": "receiver",
          "type": "address"
        },
        {
          "internalType": "uint256",
          "name": "royaltyAmount",
          "type": "uint256"
        }
      ],
      "stateMutability": "view",
      "type": "function"
    },
    {
      "inputs": [
        {
          "internalType": "address",
          "name": "from",
          "type": "address"
        },
        {
          "internalType": "address",
          "name": "to",
          "type": "address"
        },
        {
          "internalType": "uint256[]",
          "name": "ids",
          "type": "uint256[]"
        },
        {
          "internalType": "uint256[]",
          "name": "amounts",
          "type": "uint256[]"
        },
        {
          "internalType": "bytes",
          "name": "data",
          "type": "bytes"
        }
      ],
      "name": "safeBatchTransferFrom",
      "outputs": [],
      "stateMutability": "nonpayable",
      "type": "function"
    },
    {
      "inputs": [
        {
          "internalType": "address",
          "name": "from",
          "type": "address"
        },
        {
          "internalType": "address",
          "name": "to",
          "type": "address"
        },
        {
          "internalType": "uint256",
          "name": "id",
          "type": "uint256"
        },
        {
          "internalType": "uint256",
          "name": "amount",
          "type": "uint256"
        },
        {
          "internalType": "bytes",
          "name": "data",
          "type": "bytes"
        }
      ],
      "name": "safeTransferFrom",
      "outputs": [],
      "stateMutability": "nonpayable",
      "type": "function"
    },
    {
      "inputs": [],
      "name": "secondaryRoyalty",
      "outputs": [
        {
          "internalType": "uint256",
          "name": "",
          "type": "uint256"
        }
      ],
      "stateMutability": "view",
      "type": "function"
    },
    {
      "inputs": [
        {
          "internalType": "address",
          "name": "operator",
          "type": "address"
        },
        {
          "internalType": "bool",
          "name": "approved",
          "type": "bool"
        }
      ],
      "name": "setApprovalForAll",
      "outputs": [],
      "stateMutability": "nonpayable",
      "type": "function"
    },
    {
      "inputs": [
        {
          "internalType": "uint256",
          "name": "tokenId",
          "type": "uint256"
        },
        {
          "internalType": "address payable",
          "name": "creator",
          "type": "address"
        }
      ],
      "name": "setCreatorAddress",
      "outputs": [],
      "stateMutability": "nonpayable",
      "type": "function"
    },
    {
      "inputs": [
        {
          "internalType": "uint256",
          "name": "tokenId",
          "type": "uint256"
        },
        {
          "internalType": "uint256",
          "name": "exp",
          "type": "uint256"
        }
      ],
      "name": "setExp",
      "outputs": [],
      "stateMutability": "nonpayable",
      "type": "function"
    },
    {
      "inputs": [
        {
          "internalType": "uint256",
          "name": "tokenId",
          "type": "uint256"
        },
        {
          "internalType": "uint256",
          "name": "newMaxClaimed",
          "type": "uint256"
        }
      ],
      "name": "setMaxClaimed",
      "outputs": [],
      "stateMutability": "nonpayable",
      "type": "function"
    },
    {
      "inputs": [
        {
          "internalType": "uint256",
          "name": "tokenId",
          "type": "uint256"
        },
        {
          "internalType": "bool",
          "name": "check",
          "type": "bool"
        }
      ],
      "name": "setOpenForSale",
      "outputs": [],
      "stateMutability": "nonpayable",
      "type": "function"
    },
    {
      "inputs": [
        {
          "internalType": "address",
          "name": "newOwner",
          "type": "address"
        }
      ],
      "name": "setOwner",
      "outputs": [],
      "stateMutability": "nonpayable",
      "type": "function"
    },
    {
      "inputs": [
        {
          "internalType": "uint256",
          "name": "newRoyalityFee",
          "type": "uint256"
        }
      ],
      "name": "setRoyalityFee",
      "outputs": [],
      "stateMutability": "nonpayable",
      "type": "function"
    },
    {
      "inputs": [
        {
          "internalType": "uint256",
          "name": "newSecondaryRoyalty",
          "type": "uint256"
        }
      ],
      "name": "setSecondaryRoyalityFee",
      "outputs": [],
      "stateMutability": "nonpayable",
      "type": "function"
    },
    {
      "inputs": [
        {
          "internalType": "address",
          "name": "_shopAddress",
          "type": "address"
        }
      ],
      "name": "setShopAddress",
      "outputs": [],
      "stateMutability": "nonpayable",
      "type": "function"
    },
    {
      "inputs": [
        {
          "internalType": "uint256",
          "name": "tokenId",
          "type": "uint256"
        },
        {
          "components": [
            {
              "internalType": "uint8",
              "name": "x",
              "type": "uint8"
            },
            {
              "internalType": "uint8",
              "name": "y",
              "type": "uint8"
            },
            {
              "internalType": "uint8",
              "name": "z",
              "type": "uint8"
            }
          ],
          "internalType": "struct BaseObject.Size",
          "name": "size",
          "type": "tuple"
        }
      ],
      "name": "setSize",
      "outputs": [],
      "stateMutability": "nonpayable",
      "type": "function"
    },
    {
      "inputs": [
        {
          "internalType": "uint256",
          "name": "tokenId",
          "type": "uint256"
        },
        {
          "internalType": "string",
          "name": "uri",
          "type": "string"
        }
      ],
      "name": "setTokenURI",
      "outputs": [],
      "stateMutability": "nonpayable",
      "type": "function"
    },
    {
      "inputs": [
        {
          "internalType": "address payable",
          "name": "newTreasuryAddress",
          "type": "address"
        }
      ],
      "name": "setTreasuryAddress",
      "outputs": [],
      "stateMutability": "nonpayable",
      "type": "function"
    },
    {
      "inputs": [
        {
          "internalType": "string",
          "name": "newBaseMetadataURI",
          "type": "string"
        }
      ],
      "name": "setbaseMetadataURI",
      "outputs": [],
      "stateMutability": "nonpayable",
      "type": "function"
    },
    {
      "inputs": [],
      "name": "shopAddress",
      "outputs": [
        {
          "internalType": "address",
          "name": "",
          "type": "address"
        }
      ],
      "stateMutability": "view",
      "type": "function"
    },
    {
      "inputs": [
        {
          "internalType": "bytes4",
          "name": "interfaceId",
          "type": "bytes4"
        }
      ],
      "name": "supportsInterface",
      "outputs": [
        {
          "internalType": "bool",
          "name": "",
          "type": "bool"
        }
      ],
      "stateMutability": "view",
      "type": "function"
    },
    {
      "inputs": [],
      "name": "symbol",
      "outputs": [
        {
          "internalType": "string",
          "name": "",
          "type": "string"
        }
      ],
      "stateMutability": "view",
      "type": "function"
    },
    {
      "inputs": [
        {
          "internalType": "uint256",
          "name": "id",
          "type": "uint256"
        }
      ],
      "name": "totalSupply",
      "outputs": [
        {
          "internalType": "uint256",
          "name": "",
          "type": "uint256"
        }
      ],
      "stateMutability": "view",
      "type": "function"
    },
    {
      "inputs": [],
      "name": "treasuryAddress",
      "outputs": [
        {
          "internalType": "address payable",
          "name": "",
          "type": "address"
        }
      ],
      "stateMutability": "view",
      "type": "function"
    },
    {
      "inputs": [
        {
          "internalType": "uint256",
          "name": "tokenId",
          "type": "uint256"
        }
      ],
      "name": "uri",
      "outputs": [
        {
          "internalType": "string",
          "name": "",
          "type": "string"
        }
      ],
      "stateMutability": "view",
      "type": "function"
    },
    {
      "inputs": [
        {
          "internalType": "address",
          "name": "withdrawTo",
          "type": "address"
        }
      ],
      "name": "withdrawOwnerBalance",
      "outputs": [],
      "stateMutability": "nonpayable",
      "type": "function"
    },
    {
      "stateMutability": "payable",
      "type": "receive"
    }
  ],
  "bytecode": "0x60a06040523480156200001157600080fd5b5060405162003c9738038062003c97833981016040819052620000349162000205565b604080516020808201835260008083523381529081905291909120805460ff1916600190811790915580556200006a81620001da565b506001600160a01b038216620000bc5760405162461bcd60e51b8152602060048201526012602482015271063616e7420736574206164647265737320360741b60448201526064015b60405180910390fd5b6001600160a01b038116620001095760405162461bcd60e51b8152602060048201526012602482015271063616e7420736574206164647265737320360741b6044820152606401620000b3565b60408051808201909152600b81526a15195cdd0813d89a9958dd60aa1b60208201526002906200013a9082620002e9565b506040805180820190915260088152675465737420514f5360c01b6020820152600390620001699082620002e9565b5060408051808201909152601881527f68747470733a2f2f7777772e617277656176652e6e65742f00000000000000006020820152600490620001ad9082620002e9565b50600680546001600160a01b0319166001600160a01b03938416179055166080526101f4600855620003b5565b600e620001e88282620002e9565b5050565b6001600160a01b03811681146200020257600080fd5b50565b600080604083850312156200021957600080fd5b82516200022681620001ec565b60208401519092506200023981620001ec565b809150509250929050565b634e487b7160e01b600052604160045260246000fd5b600181811c908216806200026f57607f821691505b6020821081036200029057634e487b7160e01b600052602260045260246000fd5b50919050565b601f821115620002e457600081815260208120601f850160051c81016020861015620002bf5750805b601f850160051c820191505b81811015620002e057828155600101620002cb565b5050505b505050565b81516001600160401b0381111562000305576200030562000244565b6200031d816200031684546200025a565b8462000296565b602080601f8311600181146200035557600084156200033c5750858301515b600019600386901b1c1916600185901b178555620002e0565b600085815260208120601f198616915b82811015620003865788860151825594840194600190910190840162000365565b5085821015620003a55787850151600019600388901b60f8161c191681555b5050505050600190811b01905550565b6080516138bf620003d86000396000818161066b0152611f8301526138bf6000f3fe6080604052600436106103165760003560e01c80634e1273f41161019a57806398f24682116100e1578063c457fb371161008a578063e498922f11610064578063e498922f146109d2578063e985e9c514610a02578063f242432a14610a2257600080fd5b8063c457fb371461094f578063c5f956af1461097f578063cbdac7101461099f57600080fd5b8063b6ed6da9116100bb578063b6ed6da9146108e2578063bd85b03914610902578063bfdc4fdf1461092f57600080fd5b806398f2468214610869578063a22cb46514610889578063a30b4db9146108a957600080fd5b806367478a35116101435780639291671a1161011d5780639291671a1461080e57806395d89b41146108245780639733faa51461083957600080fd5b806367478a351461079e5780637061d486146107be57806382cb6b72146107de57600080fd5b8063604c7f8011610174578063604c7f801461073e57806362e8e8ac1461075e5780636605bfda1461077e57600080fd5b80634e1273f4146106cd5780634f558e79146106fa5780635b2bd79e1461072957600080fd5b80631d1b29e01161025e5780632df918a11161020757806339b67b6d116101e157806339b67b6d146106595780633bb3a24d1461068d5780633ec963cb146106ad57600080fd5b80632df918a1146106035780632eb2c2d614610623578063326bb4ad1461064357600080fd5b806323bf2f671161023857806323bf2f67146105585780632a55205a146105915780632c383ee8146105d057600080fd5b80631d1b29e0146104dd5780631e4c78871461050a57806322446fb81461052057600080fd5b80630d09308e116102c057806313af40351161029a57806313af40351461047d578063162094c41461049d578063173825d9146104bd57600080fd5b80630d09308e1461041d5780630e89341c1461043d5780630f827b641461045d57600080fd5b806306fdde03116102f157806306fdde03146103bb5780630a1eeb0c146103dd5780630b68e796146103fd57600080fd5b8062fdd58e1461032b57806301ffc9a71461035e578063023c23db1461038e57600080fd5b366103265761032434610a42565b005b600080fd5b34801561033757600080fd5b5061034b610346366004612bf0565b610a8f565b6040519081526020015b60405180910390f35b34801561036a57600080fd5b5061037e610379366004612c32565b610b3d565b6040519015158152602001610355565b34801561039a57600080fd5b506103ae6103a9366004612c4f565b610b8d565b6040516103559190612c68565b3480156103c757600080fd5b506103d0610c49565b6040516103559190612ce6565b3480156103e957600080fd5b506103246103f8366004612d0e565b610cd7565b34801561040957600080fd5b50610324610418366004612d3a565b610d64565b34801561042957600080fd5b50610324610438366004612d3a565b610ddf565b34801561044957600080fd5b506103d0610458366004612c4f565b610e5a565b34801561046957600080fd5b50610324610478366004612bf0565b610ebe565b34801561048957600080fd5b50610324610498366004612d5c565b6110d7565b3480156104a957600080fd5b506103246104b8366004612e30565b611154565b3480156104c957600080fd5b506103246104d8366004612d5c565b6111ce565b3480156104e957600080fd5b506104fd6104f8366004612c4f565b611248565b6040516103559190612e77565b34801561051657600080fd5b5061034b60095481565b34801561052c57600080fd5b50600554610540906001600160a01b031681565b6040516001600160a01b039091168152602001610355565b34801561056457600080fd5b5061037e610573366004612d5c565b6001600160a01b031660009081526020819052604090205460ff1690565b34801561059d57600080fd5b506105b16105ac366004612d3a565b6113db565b604080516001600160a01b039093168352602083019190915201610355565b3480156105dc57600080fd5b5061037e6105eb366004612c4f565b6000908152600a602052604090206006015460ff1690565b34801561060f57600080fd5b5061032461061e366004612f93565b611405565b34801561062f57600080fd5b5061032461063e3660046130a6565b61150b565b34801561064f57600080fd5b5061034b60075481565b34801561066557600080fd5b506105407f000000000000000000000000000000000000000000000000000000000000000081565b34801561069957600080fd5b506103d06106a8366004612c4f565b6115ad565b3480156106b957600080fd5b506103246106c8366004612d5c565b61164f565b3480156106d957600080fd5b506106ed6106e8366004613154565b611737565b6040516103559190613252565b34801561070657600080fd5b5061037e610715366004612c4f565b6000908152600f6020526040902054151590565b34801561073557600080fd5b506103d0611875565b34801561074a57600080fd5b50610324610759366004613265565b611882565b34801561076a57600080fd5b50610324610779366004612d3a565b611944565b34801561078a57600080fd5b50610324610799366004612d5c565b6119bf565b3480156107aa57600080fd5b506103246107b9366004612d5c565b611a96565b3480156107ca57600080fd5b506103246107d9366004612c4f565b611c44565b3480156107ea57600080fd5b5061037e6107f9366004612c4f565b600b6020526000908152604090205460ff1681565b34801561081a57600080fd5b5061034b60085481565b34801561083057600080fd5b506103d0611ca9565b34801561084557600080fd5b5061034b610854366004612c4f565b6000908152600a602052604090206003015490565b34801561087557600080fd5b50610324610884366004612c4f565b611cb6565b34801561089557600080fd5b506103246108a4366004613289565b611d1b565b3480156108b557600080fd5b506105406108c4366004612c4f565b6000908152600a60205260409020600201546001600160a01b031690565b3480156108ee57600080fd5b506103246108fd3660046132b5565b611d2a565b34801561090e57600080fd5b5061034b61091d366004612c4f565b6000908152600f602052604090205490565b34801561093b57600080fd5b5061032461094a3660046132f2565b611d96565b34801561095b57600080fd5b5061034b61096a366004612c4f565b6000908152600a602052604090206004015490565b34801561098b57600080fd5b50600654610540906001600160a01b031681565b3480156109ab57600080fd5b506109bf6109ba366004612c4f565b611e81565b6040516103559796959493929190613322565b3480156109de57600080fd5b5061034b6109ed366004612c4f565b6000908152600a602052604090206005015490565b348015610a0e57600080fd5b5061037e610a1d36600461339b565b611f7f565b348015610a2e57600080fd5b50610324610a3d3660046133c9565b611ff3565b6040518181527faab58724194bfb12b018298382453c333764e73d19ec73cb98d26f8dd10d29cc9060200160405180910390a18060096000828254610a879190613448565b909155505050565b60006001600160a01b038316610b125760405162461bcd60e51b815260206004820152602b60248201527f455243313135353a2062616c616e636520717565727920666f7220746865207a60448201527f65726f206164647265737300000000000000000000000000000000000000000060648201526084015b60405180910390fd5b506000818152600c602090815260408083206001600160a01b03861684529091529020545b92915050565b60006001600160e01b03198216636cdb3d1360e11b1480610b6e57506001600160e01b031982166303a24d0760e21b145b80610b3757506301ffc9a760e01b6001600160e01b0319831614610b37565b60408051606081018252600080825260208201819052918101919091526000828152600a602052604090206001015460ff161580610be257506000828152600a6020526040902060010154610100900460ff16155b15610c005760405163a8e3a97360e01b815260040160405180910390fd5b506000908152600a6020908152604091829020825160608101845260019091015460ff808216835261010082048116938301939093526201000090049091169181019190915290565b60028054610c569061345b565b80601f0160208091040260200160405190810160405280929190818152602001828054610c829061345b565b8015610ccf5780601f10610ca457610100808354040283529160200191610ccf565b820191906000526020600020905b815481529060010190602001808311610cb257829003601f168201915b505050505081565b3360009081526020819052604090205460ff16610d07576040516349e27cff60e01b815260040160405180910390fd5b6000828152600a6020908152604091829020600601805460ff19168415159081179091558251858152918201527fd24cd22e1990320c8f339b920aee0413e3ac1cfdfb6200d6d967befa1fa1573c91015b60405180910390a15050565b3360009081526020819052604090205460ff16610d94576040516349e27cff60e01b815260040160405180910390fd5b6000828152600a602090815260409182902060050183905581518481529081018390527f1e1ef21dc18e8f45f4e05a47d70fbffe8371dbcc8b4815e8dbca1dbd620c43669101610d58565b3360009081526020819052604090205460ff16610e0f576040516349e27cff60e01b815260040160405180910390fd5b6000828152600a602090815260409182902060030183905581518481529081018390527fad41bb8f5516e8c7946d99bc48fd3ff0a07239c8ffcf2d103a0612b9ab44a60a9101610d58565b6000818152600b602052604090205460609060ff16610e8c57604051636aa2a93760e01b815260040160405180910390fd5b6004610e97836115ad565b604051602001610ea8929190613495565b6040516020818303038152906040529050919050565b3360009081526020819052604090205460ff16610eee576040516349e27cff60e01b815260040160405180910390fd5b600260015403610f405760405162461bcd60e51b815260206004820152601f60248201527f5265656e7472616e637947756172643a207265656e7472616e742063616c6c006044820152606401610b09565b60026001556001600160a01b038216610f9b5760405162461bcd60e51b815260206004820152601060248201527f746f28302920697320696e76616c6964000000000000000000000000000000006044820152606401610b09565b6000818152600a602052604090206006015460ff16610ffc5760405162461bcd60e51b815260206004820152601060248201527f6e6f74206f70656e20666f7253616c65000000000000000000000000000000006044820152606401610b09565b6110058161208e565b6000818152600a6020908152604080832060030154600f9092529091205411156110715760405162461bcd60e51b815260206004820152601060248201527f7265616368206d6178436c61696d6564000000000000000000000000000000006044820152606401610b09565b61109a82826001604051806040016040528060048152602001630307830360e41b815250612107565b60405181815233907f1005698e1e4c39769b4d3f2e39e7331d2184323220b8d3860d5f888a7c58b8179060200160405180910390a2505060018055565b3360009081526020819052604090205460ff16611107576040516349e27cff60e01b815260040160405180910390fd5b6001600160a01b038116600081815260208190526040808220805460ff191660011790555133917f619792ba07bec101df538ab277befa333e4cf1c0274f11de7be2a9507b9c9a0691a350565b3360009081526020819052604090205460ff16611184576040516349e27cff60e01b815260040160405180910390fd5b6000828152600a6020526040902061119c8282613567565b507fd2d827dddfc9c9a02afc5fc68d3251684b36e213a7999ebd90a861f25df4077e8282604051610d58929190613627565b3360009081526020819052604090205460ff166111fe576040516349e27cff60e01b815260040160405180910390fd5b6001600160a01b038116600081815260208190526040808220805460ff191690555133917fc191551a88c5609788f3532bd94c06479b61b0040eec65f9cd985428ffea643091a350565b6112ab6040805160e08101825260608082528251908101835260008082526020828101829052938201529091820190815260200160006001600160a01b031681526020016000815260200160008152602001600081526020016000151581525090565b6000828152600a602052604090819020815160e081019092528054829082906112d39061345b565b80601f01602080910402602001604051908101604052809291908181526020018280546112ff9061345b565b801561134c5780601f106113215761010080835404028352916020019161134c565b820191906000526020600020905b81548152906001019060200180831161132f57829003601f168201915b50505091835250506040805160608082018352600185015460ff808216845261010082048116602085810191909152620100009092048116848601529085019290925260028501546001600160a01b03169284019290925260038401549183019190915260048301546080830152600583015460a0830152600690920154909116151560c09091015292915050565b60008030612710600854856113f09190613640565b6113fa919061365f565b915091509250929050565b3360009081526020819052604090205460ff16611435576040516349e27cff60e01b815260040160405180910390fd5b6000868152600f602052604090205415611462576040516387cf36d160e01b815260040160405180910390fd5b61146c8686611154565b6114768685611882565b6114808684611d96565b61148a8683610ddf565b611495866000611944565b61149f8682610d64565b6114aa866001610cd7565b6000868152600b6020526040808220805460ff19166001179055517ff9881eeba75c190779c72a233b904d4cedf052be784506f9efbda242a27e4ed7916114fb918991899189918991899190613681565b60405180910390a1505050505050565b6001600160a01b03851633148061152757506115278533611f7f565b6115995760405162461bcd60e51b815260206004820152603260248201527f455243313135353a207472616e736665722063616c6c6572206973206e6f742060448201527f6f776e6572206e6f7220617070726f76656400000000000000000000000000006064820152608401610b09565b6115a6858585858561222c565b5050505050565b6000818152600a602052604090208054606091906115ca9061345b565b80601f01602080910402602001604051908101604052809291908181526020018280546115f69061345b565b80156116435780601f1061161857610100808354040283529160200191611643565b820191906000526020600020905b81548152906001019060200180831161162657829003601f168201915b50505050509050919050565b3360009081526020819052604090205460ff1661167f576040516349e27cff60e01b815260040160405180910390fd5b6001600160a01b0381166116d55760405162461bcd60e51b815260206004820152601260248201527f63616e74207365742061646472657373203000000000000000000000000000006044820152606401610b09565b6005805473ffffffffffffffffffffffffffffffffffffffff19166001600160a01b0383169081179091556040519081527fcefd22c602a88b1f72d74d02bad4b2cb1e05e85530bb77114da7c723d2aca9db906020015b60405180910390a150565b606081518351146117b05760405162461bcd60e51b815260206004820152602960248201527f455243313135353a206163636f756e747320616e6420696473206c656e67746860448201527f206d69736d6174636800000000000000000000000000000000000000000000006064820152608401610b09565b6000835167ffffffffffffffff8111156117cc576117cc612d79565b6040519080825280602002602001820160405280156117f5578160200160208202803683370190505b50905060005b845181101561186d57611840858281518110611819576118196136f1565b6020026020010151858381518110611833576118336136f1565b6020026020010151610a8f565b828281518110611852576118526136f1565b602090810291909101015261186681613707565b90506117fb565b509392505050565b60048054610c569061345b565b3360009081526020819052604090205460ff166118b2576040516349e27cff60e01b815260040160405180910390fd5b6000828152600a6020908152604091829020835160019091018054858401518686015160ff94851661ffff1990931683176101009286169283021762ff000019166201000095909116948502179092558451878152938401529282019290925260608101919091527fd8e7c8605fecaf6228c6b5f990bc7f1e865694cc587ef62fe729b926915ef7e090608001610d58565b3360009081526020819052604090205460ff16611974576040516349e27cff60e01b815260040160405180910390fd5b6000828152600a602090815260409182902060040183905581518481529081018390527f415cf995faccaec43ce108f2713ebcdb2812b0e0689a8fa7dfdcabf78109ebbb9101610d58565b3360009081526020819052604090205460ff166119ef576040516349e27cff60e01b815260040160405180910390fd5b6001600160a01b038116611a3b5760405162461bcd60e51b815260206004820152601360248201527263616e7420736574206164647265737328302960681b6044820152606401610b09565b6006805473ffffffffffffffffffffffffffffffffffffffff19166001600160a01b0383169081179091556040519081527feee016301a2725a577c64816adf35ccf644d07439731069a31748ec3b9102c609060200161172c565b3360009081526020819052604090205460ff16611ac6576040516349e27cff60e01b815260040160405180910390fd5b600260015403611b185760405162461bcd60e51b815260206004820152601f60248201527f5265656e7472616e637947756172643a207265656e7472616e742063616c6c006044820152606401610b09565b60026001556001600160a01b038116611b695760405162461bcd60e51b815260206004820152601360248201527263616e7420736574206164647265737328302960681b6044820152606401610b09565b600954600003611b8c57604051632f31015b60e11b815260040160405180910390fd5b600980546000918290556040519091906001600160a01b0384169083908381818185875af1925050503d8060008114611be1576040519150601f19603f3d011682016040523d82523d6000602084013e611be6565b606091505b5050905080611c0857604051632f31015b60e11b815260040160405180910390fd5b6040518281527f2d5923adf91dd211e633a33f2e27918338e6a33e3b3f386e9d466d1bc52eba799060200160405180910390a150506001805550565b3360009081526020819052604090205460ff16611c74576040516349e27cff60e01b815260040160405180910390fd5b60088190556040518181527fb69fdb7c7f7b0e17f64074ea1590642f14193039b234aae7a3c68b26ed055adf9060200161172c565b60038054610c569061345b565b3360009081526020819052604090205460ff16611ce6576040516349e27cff60e01b815260040160405180910390fd5b60078190556040518181527f184fa17d2176718ea1955f61782c763ce239e39e790340793f227b0ba5db53e19060200161172c565b611d263383836124b0565b5050565b3360009081526020819052604090205460ff16611d5a576040516349e27cff60e01b815260040160405180910390fd5b6004611d668282613567565b507ffa52149a99a7016c4576d7bb33adefe5c4372aeded2a98a40f46d6ef33109c4d8160405161172c9190612ce6565b3360009081526020819052604090205460ff16611dc6576040516349e27cff60e01b815260040160405180910390fd5b6001600160a01b038116611e125760405162461bcd60e51b815260206004820152601360248201527263616e7420736574206164647265737328302960681b6044820152606401610b09565b6000828152600a6020908152604091829020600201805473ffffffffffffffffffffffffffffffffffffffff19166001600160a01b0385169081179091558251858152918201527f02df56823aeec019d75f2c2396e2a9c68868b26ccc5a4cd9412b2a78f8602f739101610d58565b600a60205260009081526040902080548190611e9c9061345b565b80601f0160208091040260200160405190810160405280929190818152602001828054611ec89061345b565b8015611f155780601f10611eea57610100808354040283529160200191611f15565b820191906000526020600020905b815481529060010190602001808311611ef857829003601f168201915b505060408051606081018252600187015460ff80821683526101008204811660208401526201000090910481169282019290925260028701546003880154600489015460058a01546006909a0154989993986001600160a01b039093169750909550935090911687565b60007f00000000000000000000000000000000000000000000000000000000000000006001600160a01b0316826001600160a01b031603611fc257506001610b37565b6001600160a01b038084166000908152600d602090815260408083209386168352929052205460ff165b9392505050565b6001600160a01b03851633148061200f575061200f8533611f7f565b6120815760405162461bcd60e51b815260206004820152602960248201527f455243313135353a2063616c6c6572206973206e6f74206f776e6572206e6f7260448201527f20617070726f76656400000000000000000000000000000000000000000000006064820152608401610b09565b6115a685858585856125a4565b8015806120b757506000818152600a6020908152604080832060030154600f9092529091205410155b156120d557604051636aa2a93760e01b815260040160405180910390fd5b6000818152600b602052604090205460ff1661210457604051636aa2a93760e01b815260040160405180910390fd5b50565b6001600160a01b0384166121675760405162461bcd60e51b815260206004820152602160248201527f455243313135353a206d696e7420746f20746865207a65726f206164647265736044820152607360f81b6064820152608401610b09565b33600061217385612761565b9050600061218085612761565b9050612191836000898585896127ac565b6000868152600c602090815260408083206001600160a01b038b168452909152812080548792906121c3908490613448565b909155505060408051878152602081018790526001600160a01b03808a1692600092918716917fc3d58168c5ae7397731d063d5bbf3d657854427343f4c083240f7aacaa2d0f62910160405180910390a46122238360008989898961293a565b50505050505050565b81518351146122a35760405162461bcd60e51b815260206004820152602860248201527f455243313135353a2069647320616e6420616d6f756e7473206c656e6774682060448201527f6d69736d617463680000000000000000000000000000000000000000000000006064820152608401610b09565b6001600160a01b0384166123075760405162461bcd60e51b815260206004820152602560248201527f455243313135353a207472616e7366657220746f20746865207a65726f206164604482015264647265737360d81b6064820152608401610b09565b336123168187878787876127ac565b60005b8451811015612442576000858281518110612336576123366136f1565b602002602001015190506000858381518110612354576123546136f1565b6020908102919091018101516000848152600c835260408082206001600160a01b038e1683529093529190912054909150818110156123e85760405162461bcd60e51b815260206004820152602a60248201527f455243313135353a20696e73756666696369656e742062616c616e636520666f60448201526939103a3930b739b332b960b11b6064820152608401610b09565b6000838152600c602090815260408083206001600160a01b038e8116855292528083208585039055908b16825281208054849290612427908490613448565b925050819055505050508061243b90613707565b9050612319565b50846001600160a01b0316866001600160a01b0316826001600160a01b03167f4a39dc06d4c0dbc64b70af90fd698a233a518aa5d07e595d983b8c0526c8f7fb8787604051612492929190613720565b60405180910390a46124a8818787878787612adf565b505050505050565b816001600160a01b0316836001600160a01b0316036125375760405162461bcd60e51b815260206004820152602960248201527f455243313135353a2073657474696e6720617070726f76616c2073746174757360448201527f20666f722073656c6600000000000000000000000000000000000000000000006064820152608401610b09565b6001600160a01b038381166000818152600d6020908152604080832094871680845294825291829020805460ff191686151590811790915591519182527f17307eab39ab6107e8899845ad3d59bd9653f200f220920489ca2b5937696c31910160405180910390a3505050565b6001600160a01b0384166126085760405162461bcd60e51b815260206004820152602560248201527f455243313135353a207472616e7366657220746f20746865207a65726f206164604482015264647265737360d81b6064820152608401610b09565b33600061261485612761565b9050600061262185612761565b90506126318389898585896127ac565b6000868152600c602090815260408083206001600160a01b038c168452909152902054858110156126b75760405162461bcd60e51b815260206004820152602a60248201527f455243313135353a20696e73756666696369656e742062616c616e636520666f60448201526939103a3930b739b332b960b11b6064820152608401610b09565b6000878152600c602090815260408083206001600160a01b038d8116855292528083208985039055908a168252812080548892906126f6908490613448565b909155505060408051888152602081018890526001600160a01b03808b16928c821692918816917fc3d58168c5ae7397731d063d5bbf3d657854427343f4c083240f7aacaa2d0f62910160405180910390a4612756848a8a8a8a8a61293a565b505050505050505050565b6040805160018082528183019092526060916000919060208083019080368337019050509050828160008151811061279b5761279b6136f1565b602090810291909101015292915050565b6001600160a01b0385166128335760005b8351811015612831578281815181106127d8576127d86136f1565b6020026020010151600f60008684815181106127f6576127f66136f1565b60200260200101518152602001908152602001600020600082825461281b9190613448565b9091555061282a905081613707565b90506127bd565b505b6001600160a01b0384166124a85760005b8351811015612223576000848281518110612861576128616136f1565b60200260200101519050600084838151811061287f5761287f6136f1565b602002602001015190506000600f6000848152602001908152602001600020549050818110156129175760405162461bcd60e51b815260206004820152602860248201527f455243313135353a206275726e20616d6f756e74206578636565647320746f7460448201527f616c537570706c790000000000000000000000000000000000000000000000006064820152608401610b09565b6000928352600f60205260409092209103905561293381613707565b9050612844565b6001600160a01b0384163b156124a85760405163f23a6e6160e01b81526001600160a01b0385169063f23a6e619061297e908990899088908890889060040161374e565b6020604051808303816000875af19250505080156129b9575060408051601f3d908101601f191682019092526129b691810190613791565b60015b612a6e576129c56137ae565b806308c379a0036129fe57506129d96137ca565b806129e45750612a00565b8060405162461bcd60e51b8152600401610b099190612ce6565b505b60405162461bcd60e51b815260206004820152603460248201527f455243313135353a207472616e7366657220746f206e6f6e204552433131353560448201527f526563656976657220696d706c656d656e7465720000000000000000000000006064820152608401610b09565b6001600160e01b0319811663f23a6e6160e01b146122235760405162461bcd60e51b815260206004820152602860248201527f455243313135353a204552433131353552656365697665722072656a656374656044820152676420746f6b656e7360c01b6064820152608401610b09565b6001600160a01b0384163b156124a85760405163bc197c8160e01b81526001600160a01b0385169063bc197c8190612b239089908990889088908890600401613854565b6020604051808303816000875af1925050508015612b5e575060408051601f3d908101601f19168201909252612b5b91810190613791565b60015b612b6a576129c56137ae565b6001600160e01b0319811663bc197c8160e01b146122235760405162461bcd60e51b815260206004820152602860248201527f455243313135353a204552433131353552656365697665722072656a656374656044820152676420746f6b656e7360c01b6064820152608401610b09565b6001600160a01b038116811461210457600080fd5b60008060408385031215612c0357600080fd5b8235612c0e81612bdb565b946020939093013593505050565b6001600160e01b03198116811461210457600080fd5b600060208284031215612c4457600080fd5b8135611fec81612c1c565b600060208284031215612c6157600080fd5b5035919050565b60608101610b37828460ff815116825260ff602082015116602083015260ff60408201511660408301525050565b60005b83811015612cb1578181015183820152602001612c99565b50506000910152565b60008151808452612cd2816020860160208601612c96565b601f01601f19169290920160200192915050565b602081526000611fec6020830184612cba565b80358015158114612d0957600080fd5b919050565b60008060408385031215612d2157600080fd5b82359150612d3160208401612cf9565b90509250929050565b60008060408385031215612d4d57600080fd5b50508035926020909101359150565b600060208284031215612d6e57600080fd5b8135611fec81612bdb565b634e487b7160e01b600052604160045260246000fd5b601f8201601f1916810167ffffffffffffffff81118282101715612db557612db5612d79565b6040525050565b600082601f830112612dcd57600080fd5b813567ffffffffffffffff811115612de757612de7612d79565b604051612dfe601f8301601f191660200182612d8f565b818152846020838601011115612e1357600080fd5b816020850160208301376000918101602001919091529392505050565b60008060408385031215612e4357600080fd5b82359150602083013567ffffffffffffffff811115612e6157600080fd5b612e6d85828601612dbc565b9150509250929050565b6020815260008251610120806020850152612e96610140850183612cba565b91506020850151612eca604086018260ff815116825260ff602082015116602083015260ff60408201511660408301525050565b506001600160a01b0360408601511660a0850152606085015160c0850152608085015160e085015260a085015161010085015260c0850151151581850152508091505092915050565b803560ff81168114612d0957600080fd5b600060608284031215612f3657600080fd5b6040516060810181811067ffffffffffffffff82111715612f5957612f59612d79565b604052905080612f6883612f13565b8152612f7660208401612f13565b6020820152612f8760408401612f13565b60408201525092915050565b6000806000806000806101008789031215612fad57600080fd5b86359550602087013567ffffffffffffffff811115612fcb57600080fd5b612fd789828a01612dbc565b955050612fe78860408901612f24565b935060a0870135612ff781612bdb565b9598949750929560c08101359460e0909101359350915050565b600067ffffffffffffffff82111561302b5761302b612d79565b5060051b60200190565b600082601f83011261304657600080fd5b8135602061305382613011565b6040516130608282612d8f565b83815260059390931b850182019282810191508684111561308057600080fd5b8286015b8481101561309b5780358352918301918301613084565b509695505050505050565b600080600080600060a086880312156130be57600080fd5b85356130c981612bdb565b945060208601356130d981612bdb565b9350604086013567ffffffffffffffff808211156130f657600080fd5b61310289838a01613035565b9450606088013591508082111561311857600080fd5b61312489838a01613035565b9350608088013591508082111561313a57600080fd5b5061314788828901612dbc565b9150509295509295909350565b6000806040838503121561316757600080fd5b823567ffffffffffffffff8082111561317f57600080fd5b818501915085601f83011261319357600080fd5b813560206131a082613011565b6040516131ad8282612d8f565b83815260059390931b85018201928281019150898411156131cd57600080fd5b948201945b838610156131f45785356131e581612bdb565b825294820194908201906131d2565b9650508601359250508082111561320a57600080fd5b50612e6d85828601613035565b600081518084526020808501945080840160005b838110156132475781518752958201959082019060010161322b565b509495945050505050565b602081526000611fec6020830184613217565b6000806080838503121561327857600080fd5b82359150612d318460208501612f24565b6000806040838503121561329c57600080fd5b82356132a781612bdb565b9150612d3160208401612cf9565b6000602082840312156132c757600080fd5b813567ffffffffffffffff8111156132de57600080fd5b6132ea84828501612dbc565b949350505050565b6000806040838503121561330557600080fd5b82359150602083013561331781612bdb565b809150509250929050565b60006101208083526133368184018b612cba565b915050613366602083018960ff815116825260ff602082015116602083015260ff60408201511660408301525050565b6001600160a01b0396909616608082015260a081019490945260c084019290925260e083015215156101009091015292915050565b600080604083850312156133ae57600080fd5b82356133b981612bdb565b9150602083013561331781612bdb565b600080600080600060a086880312156133e157600080fd5b85356133ec81612bdb565b945060208601356133fc81612bdb565b93506040860135925060608601359150608086013567ffffffffffffffff81111561342657600080fd5b61314788828901612dbc565b634e487b7160e01b600052601160045260246000fd5b80820180821115610b3757610b37613432565b600181811c9082168061346f57607f821691505b60208210810361348f57634e487b7160e01b600052602260045260246000fd5b50919050565b60008084546134a38161345b565b600182811680156134bb57600181146134d0576134ff565b60ff19841687528215158302870194506134ff565b8860005260208060002060005b858110156134f65781548a8201529084019082016134dd565b50505082870194505b505050508351613513818360208801612c96565b01949350505050565b601f82111561356257600081815260208120601f850160051c810160208610156135435750805b601f850160051c820191505b818110156124a85782815560010161354f565b505050565b815167ffffffffffffffff81111561358157613581612d79565b6135958161358f845461345b565b8461351c565b602080601f8311600181146135ca57600084156135b25750858301515b600019600386901b1c1916600185901b1785556124a8565b600085815260208120601f198616915b828110156135f9578886015182559484019460019091019084016135da565b50858210156136175787850151600019600388901b60f8161c191681555b5050505050600190811b01905550565b8281526040602082015260006132ea6040830184612cba565b600081600019048311821515161561365a5761365a613432565b500290565b60008261367c57634e487b7160e01b600052601260045260246000fd5b500490565b600061010088835280602084015261369b81840189612cba565b9150506136cb604083018760ff815116825260ff602082015116602083015260ff60408201511660408301525050565b6001600160a01b03851660a08301528360c08301528260e0830152979650505050505050565b634e487b7160e01b600052603260045260246000fd5b60006001820161371957613719613432565b5060010190565b6040815260006137336040830185613217565b82810360208401526137458185613217565b95945050505050565b60006001600160a01b03808816835280871660208401525084604083015283606083015260a0608083015261378660a0830184612cba565b979650505050505050565b6000602082840312156137a357600080fd5b8151611fec81612c1c565b600060033d11156137c75760046000803e5060005160e01c5b90565b600060443d10156137d85790565b6040516003193d81016004833e81513d67ffffffffffffffff816024840111818411171561380857505050505090565b82850191508151818111156138205750505050505090565b843d870101602082850101111561383a5750505050505090565b61384960208286010187612d8f565b509095945050505050565b60006001600160a01b03808816835280871660208401525060a0604083015261388060a0830186613217565b82810360608401526138928186613217565b905082810360808401526138a68185612cba565b9897505050505050505056fea164736f6c6343000810000a",
  "linkReferences": {},
  "deployedLinkReferences": {}
}