{
  "_format": "hh-sol-artifact-1",
  "contractName": "FreeObject",
  "sourceName": "contracts/object/FreeObject.sol",
  "abi": [
    {
      "inputs": [
        {
          "internalType": "address payable",
          "name": "_treasuryAddress",
          "type": "address"
        },
        {
          "internalType": "address",
          "name": "_phiMapAddress",
          "type": "address"
        }
      ],
      "stateMutability": "nonpayable",
      "type": "constructor"
    },
    {
      "inputs": [],
      "name": "ExistentToken",
      "type": "error"
    },
    {
      "inputs": [],
      "name": "InvalidOwner",
      "type": "error"
    },
    {
      "inputs": [],
      "name": "InvalidTokenID",
      "type": "error"
    },
    {
      "inputs": [],
      "name": "NoSetTokenSize",
      "type": "error"
    },
    {
      "inputs": [],
      "name": "NonExistentToken",
      "type": "error"
    },
    {
      "inputs": [],
      "name": "PaymentBalanceZero",
      "type": "error"
    },
    {
      "anonymous": false,
      "inputs": [
        {
          "indexed": true,
          "internalType": "address",
          "name": "account",
          "type": "address"
        },
        {
          "indexed": true,
          "internalType": "address",
          "name": "operator",
          "type": "address"
        },
        {
          "indexed": false,
          "internalType": "bool",
          "name": "approved",
          "type": "bool"
        }
      ],
      "name": "ApprovalForAll",
      "type": "event"
    },
    {
      "anonymous": false,
      "inputs": [
        {
          "indexed": false,
          "internalType": "uint256",
          "name": "tokenId",
          "type": "uint256"
        },
        {
          "indexed": false,
          "internalType": "uint256",
          "name": "newPrice",
          "type": "uint256"
        }
      ],
      "name": "ChangeTokenPrice",
      "type": "event"
    },
    {
      "anonymous": false,
      "inputs": [
        {
          "indexed": false,
          "internalType": "uint256",
          "name": "tokenId",
          "type": "uint256"
        },
        {
          "indexed": false,
          "internalType": "string",
          "name": "uri",
          "type": "string"
        },
        {
          "components": [
            {
              "internalType": "uint8",
              "name": "x",
              "type": "uint8"
            },
            {
              "internalType": "uint8",
              "name": "y",
              "type": "uint8"
            },
            {
              "internalType": "uint8",
              "name": "z",
              "type": "uint8"
            }
          ],
          "indexed": false,
          "internalType": "struct BaseObject.Size",
          "name": "size",
          "type": "tuple"
        },
        {
          "indexed": false,
          "internalType": "address payable",
          "name": "creator",
          "type": "address"
        },
        {
          "indexed": false,
          "internalType": "uint256",
          "name": "price",
          "type": "uint256"
        }
      ],
      "name": "CreateFreeObject",
      "type": "event"
    },
    {
      "anonymous": false,
      "inputs": [
        {
          "indexed": true,
          "internalType": "address",
          "name": "sender",
          "type": "address"
        },
        {
          "indexed": false,
          "internalType": "uint256",
          "name": "tokenId",
          "type": "uint256"
        }
      ],
      "name": "LogGetObject",
      "type": "event"
    },
    {
      "anonymous": false,
      "inputs": [
        {
          "indexed": true,
          "internalType": "address",
          "name": "operator",
          "type": "address"
        },
        {
          "indexed": true,
          "internalType": "address",
          "name": "target",
          "type": "address"
        }
      ],
      "name": "OwnershipGranted",
      "type": "event"
    },
    {
      "anonymous": false,
      "inputs": [
        {
          "indexed": true,
          "internalType": "address",
          "name": "operator",
          "type": "address"
        },
        {
          "indexed": true,
          "internalType": "address",
          "name": "target",
          "type": "address"
        }
      ],
      "name": "OwnershipRemoved",
      "type": "event"
    },
    {
      "anonymous": false,
      "inputs": [
        {
          "indexed": false,
          "internalType": "uint256",
          "name": "amount",
          "type": "uint256"
        }
      ],
      "name": "PaymentReceivedOwner",
      "type": "event"
    },
    {
      "anonymous": false,
      "inputs": [
        {
          "indexed": false,
          "internalType": "uint256",
          "name": "amount",
          "type": "uint256"
        }
      ],
      "name": "PaymentWithdrawnOwner",
      "type": "event"
    },
    {
      "anonymous": false,
      "inputs": [
        {
          "indexed": false,
          "internalType": "uint256",
          "name": "tokenId",
          "type": "uint256"
        },
        {
          "indexed": false,
          "internalType": "address payable",
          "name": "creator",
          "type": "address"
        }
      ],
      "name": "SetCreator",
      "type": "event"
    },
    {
      "anonymous": false,
      "inputs": [
        {
          "indexed": false,
          "internalType": "uint256",
          "name": "tokenId",
          "type": "uint256"
        },
        {
          "indexed": false,
          "internalType": "uint256",
          "name": "exp",
          "type": "uint256"
        }
      ],
      "name": "SetExp",
      "type": "event"
    },
    {
      "anonymous": false,
      "inputs": [
        {
          "indexed": false,
          "internalType": "uint256",
          "name": "tokenId",
          "type": "uint256"
        },
        {
          "indexed": false,
          "internalType": "uint256",
          "name": "newMaxClaimed",
          "type": "uint256"
        }
      ],
      "name": "SetMaxClaimed",
      "type": "event"
    },
    {
      "anonymous": false,
      "inputs": [
        {
          "indexed": false,
          "internalType": "uint256",
          "name": "tokenId",
          "type": "uint256"
        },
        {
          "indexed": false,
          "internalType": "bool",
          "name": "check",
          "type": "bool"
        }
      ],
      "name": "SetOpenForSale",
      "type": "event"
    },
    {
      "anonymous": false,
      "inputs": [
        {
          "indexed": false,
          "internalType": "uint256",
          "name": "royalityFee",
          "type": "uint256"
        }
      ],
      "name": "SetRoyalityFee",
      "type": "event"
    },
    {
      "anonymous": false,
      "inputs": [
        {
          "indexed": false,
          "internalType": "uint256",
          "name": "secondaryRoyalty",
          "type": "uint256"
        }
      ],
      "name": "SetSecondaryRoyalityFee",
      "type": "event"
    },
    {
      "anonymous": false,
      "inputs": [
        {
          "indexed": false,
          "internalType": "address",
          "name": "shopAddress",
          "type": "address"
        }
      ],
      "name": "SetShopAddress",
      "type": "event"
    },
    {
      "anonymous": false,
      "inputs": [
        {
          "indexed": false,
          "internalType": "uint256",
          "name": "tokenId",
          "type": "uint256"
        },
        {
          "indexed": false,
          "internalType": "uint8",
          "name": "x",
          "type": "uint8"
        },
        {
          "indexed": false,
          "internalType": "uint8",
          "name": "y",
          "type": "uint8"
        },
        {
          "indexed": false,
          "internalType": "uint8",
          "name": "z",
          "type": "uint8"
        }
      ],
      "name": "SetSize",
      "type": "event"
    },
    {
      "anonymous": false,
      "inputs": [
        {
          "indexed": false,
          "internalType": "uint256",
          "name": "tokenId",
          "type": "uint256"
        },
        {
          "indexed": false,
          "internalType": "string",
          "name": "uri",
          "type": "string"
        }
      ],
      "name": "SetTokenURI",
      "type": "event"
    },
    {
      "anonymous": false,
      "inputs": [
        {
          "indexed": false,
          "internalType": "address payable",
          "name": "treasuryAddress",
          "type": "address"
        }
      ],
      "name": "SetTreasuryAddress",
      "type": "event"
    },
    {
      "anonymous": false,
      "inputs": [
        {
          "indexed": false,
          "internalType": "string",
          "name": "baseuri",
          "type": "string"
        }
      ],
      "name": "SetbaseMetadataURI",
      "type": "event"
    },
    {
      "anonymous": false,
      "inputs": [
        {
          "indexed": true,
          "internalType": "address",
          "name": "operator",
          "type": "address"
        },
        {
          "indexed": true,
          "internalType": "address",
          "name": "from",
          "type": "address"
        },
        {
          "indexed": true,
          "internalType": "address",
          "name": "to",
          "type": "address"
        },
        {
          "indexed": false,
          "internalType": "uint256[]",
          "name": "ids",
          "type": "uint256[]"
        },
        {
          "indexed": false,
          "internalType": "uint256[]",
          "name": "values",
          "type": "uint256[]"
        }
      ],
      "name": "TransferBatch",
      "type": "event"
    },
    {
      "anonymous": false,
      "inputs": [
        {
          "indexed": true,
          "internalType": "address",
          "name": "operator",
          "type": "address"
        },
        {
          "indexed": true,
          "internalType": "address",
          "name": "from",
          "type": "address"
        },
        {
          "indexed": true,
          "internalType": "address",
          "name": "to",
          "type": "address"
        },
        {
          "indexed": false,
          "internalType": "uint256",
          "name": "id",
          "type": "uint256"
        },
        {
          "indexed": false,
          "internalType": "uint256",
          "name": "value",
          "type": "uint256"
        }
      ],
      "name": "TransferSingle",
      "type": "event"
    },
    {
      "anonymous": false,
      "inputs": [
        {
          "indexed": false,
          "internalType": "string",
          "name": "value",
          "type": "string"
        },
        {
          "indexed": true,
          "internalType": "uint256",
          "name": "id",
          "type": "uint256"
        }
      ],
      "name": "URI",
      "type": "event"
    },
    {
      "inputs": [
        {
          "internalType": "uint256",
          "name": "",
          "type": "uint256"
        }
      ],
      "name": "allObjects",
      "outputs": [
        {
          "internalType": "string",
          "name": "tokenURI",
          "type": "string"
        },
        {
          "components": [
            {
              "internalType": "uint8",
              "name": "x",
              "type": "uint8"
            },
            {
              "internalType": "uint8",
              "name": "y",
              "type": "uint8"
            },
            {
              "internalType": "uint8",
              "name": "z",
              "type": "uint8"
            }
          ],
          "internalType": "struct BaseObject.Size",
          "name": "size",
          "type": "tuple"
        },
        {
          "internalType": "address payable",
          "name": "creator",
          "type": "address"
        },
        {
          "internalType": "uint256",
          "name": "maxClaimed",
          "type": "uint256"
        },
        {
          "internalType": "uint256",
          "name": "price",
          "type": "uint256"
        },
        {
          "internalType": "uint256",
          "name": "exp",
          "type": "uint256"
        },
        {
          "internalType": "bool",
          "name": "forSale",
          "type": "bool"
        }
      ],
      "stateMutability": "view",
      "type": "function"
    },
    {
      "inputs": [
        {
          "internalType": "address",
          "name": "account",
          "type": "address"
        },
        {
          "internalType": "uint256",
          "name": "id",
          "type": "uint256"
        }
      ],
      "name": "balanceOf",
      "outputs": [
        {
          "internalType": "uint256",
          "name": "",
          "type": "uint256"
        }
      ],
      "stateMutability": "view",
      "type": "function"
    },
    {
      "inputs": [
        {
          "internalType": "address[]",
          "name": "accounts",
          "type": "address[]"
        },
        {
          "internalType": "uint256[]",
          "name": "ids",
          "type": "uint256[]"
        }
      ],
      "name": "balanceOfBatch",
      "outputs": [
        {
          "internalType": "uint256[]",
          "name": "",
          "type": "uint256[]"
        }
      ],
      "stateMutability": "view",
      "type": "function"
    },
    {
      "inputs": [],
      "name": "baseMetadataURI",
      "outputs": [
        {
          "internalType": "string",
          "name": "",
          "type": "string"
        }
      ],
      "stateMutability": "view",
      "type": "function"
    },
    {
      "inputs": [
        {
          "internalType": "uint256[]",
          "name": "tokenIds",
          "type": "uint256[]"
        }
      ],
      "name": "batchGetFreeObject",
      "outputs": [],
      "stateMutability": "nonpayable",
      "type": "function"
    },
    {
      "inputs": [
        {
          "internalType": "address",
          "name": "to",
          "type": "address"
        },
        {
          "internalType": "uint256[]",
          "name": "tokenIds",
          "type": "uint256[]"
        }
      ],
      "name": "batchGetFreeObjectFromShop",
      "outputs": [],
      "stateMutability": "nonpayable",
      "type": "function"
    },
    {
      "inputs": [
        {
          "internalType": "uint256",
          "name": "tokenId",
          "type": "uint256"
        },
        {
          "internalType": "uint256",
          "name": "newPrice",
          "type": "uint256"
        }
      ],
      "name": "changeTokenPrice",
      "outputs": [],
      "stateMutability": "nonpayable",
      "type": "function"
    },
    {
      "inputs": [
        {
          "internalType": "uint256",
          "name": "tokenId",
          "type": "uint256"
        },
        {
          "internalType": "string",
          "name": "tokenUri",
          "type": "string"
        },
        {
          "components": [
            {
              "internalType": "uint8",
              "name": "x",
              "type": "uint8"
            },
            {
              "internalType": "uint8",
              "name": "y",
              "type": "uint8"
            },
            {
              "internalType": "uint8",
              "name": "z",
              "type": "uint8"
            }
          ],
          "internalType": "struct BaseObject.Size",
          "name": "size",
          "type": "tuple"
        },
        {
          "internalType": "address payable",
          "name": "creator",
          "type": "address"
        }
      ],
      "name": "createObject",
      "outputs": [],
      "stateMutability": "nonpayable",
      "type": "function"
    },
    {
      "inputs": [
        {
          "internalType": "uint256",
          "name": "",
          "type": "uint256"
        }
      ],
      "name": "created",
      "outputs": [
        {
          "internalType": "bool",
          "name": "",
          "type": "bool"
        }
      ],
      "stateMutability": "view",
      "type": "function"
    },
    {
      "inputs": [
        {
          "internalType": "uint256",
          "name": "id",
          "type": "uint256"
        }
      ],
      "name": "exists",
      "outputs": [
        {
          "internalType": "bool",
          "name": "",
          "type": "bool"
        }
      ],
      "stateMutability": "view",
      "type": "function"
    },
    {
      "inputs": [
        {
          "internalType": "uint256",
          "name": "tokenId",
          "type": "uint256"
        }
      ],
      "name": "getCreatorAddress",
      "outputs": [
        {
          "internalType": "address payable",
          "name": "",
          "type": "address"
        }
      ],
      "stateMutability": "view",
      "type": "function"
    },
    {
      "inputs": [
        {
          "internalType": "uint256",
          "name": "tokenId",
          "type": "uint256"
        }
      ],
      "name": "getExp",
      "outputs": [
        {
          "internalType": "uint256",
          "name": "",
          "type": "uint256"
        }
      ],
      "stateMutability": "view",
      "type": "function"
    },
    {
      "inputs": [
        {
          "internalType": "uint256",
          "name": "tokenId",
          "type": "uint256"
        }
      ],
      "name": "getMaxClaimed",
      "outputs": [
        {
          "internalType": "uint256",
          "name": "",
          "type": "uint256"
        }
      ],
      "stateMutability": "view",
      "type": "function"
    },
    {
      "inputs": [
        {
          "internalType": "uint256",
          "name": "tokenId",
          "type": "uint256"
        }
      ],
      "name": "getObjectInfo",
      "outputs": [
        {
          "components": [
            {
              "internalType": "string",
              "name": "tokenURI",
              "type": "string"
            },
            {
              "components": [
                {
                  "internalType": "uint8",
                  "name": "x",
                  "type": "uint8"
                },
                {
                  "internalType": "uint8",
                  "name": "y",
                  "type": "uint8"
                },
                {
                  "internalType": "uint8",
                  "name": "z",
                  "type": "uint8"
                }
              ],
              "internalType": "struct BaseObject.Size",
              "name": "size",
              "type": "tuple"
            },
            {
              "internalType": "address payable",
              "name": "creator",
              "type": "address"
            },
            {
              "internalType": "uint256",
              "name": "maxClaimed",
              "type": "uint256"
            },
            {
              "internalType": "uint256",
              "name": "price",
              "type": "uint256"
            },
            {
              "internalType": "uint256",
              "name": "exp",
              "type": "uint256"
            },
            {
              "internalType": "bool",
              "name": "forSale",
              "type": "bool"
            }
          ],
          "internalType": "struct BaseObject.Object",
          "name": "",
          "type": "tuple"
        }
      ],
      "stateMutability": "view",
      "type": "function"
    },
    {
      "inputs": [
        {
          "internalType": "uint256",
          "name": "tokenId",
          "type": "uint256"
        }
      ],
      "name": "getOpenForSale",
      "outputs": [
        {
          "internalType": "bool",
          "name": "",
          "type": "bool"
        }
      ],
      "stateMutability": "view",
      "type": "function"
    },
    {
      "inputs": [
        {
          "internalType": "uint256",
          "name": "tokenId",
          "type": "uint256"
        }
      ],
      "name": "getSize",
      "outputs": [
        {
          "components": [
            {
              "internalType": "uint8",
              "name": "x",
              "type": "uint8"
            },
            {
              "internalType": "uint8",
              "name": "y",
              "type": "uint8"
            },
            {
              "internalType": "uint8",
              "name": "z",
              "type": "uint8"
            }
          ],
          "internalType": "struct BaseObject.Size",
          "name": "",
          "type": "tuple"
        }
      ],
      "stateMutability": "view",
      "type": "function"
    },
    {
      "inputs": [
        {
          "internalType": "uint256",
          "name": "tokenId",
          "type": "uint256"
        }
      ],
      "name": "getTokenPrice",
      "outputs": [
        {
          "internalType": "uint256",
          "name": "",
          "type": "uint256"
        }
      ],
      "stateMutability": "view",
      "type": "function"
    },
    {
      "inputs": [
        {
          "internalType": "uint256",
          "name": "tokenId",
          "type": "uint256"
        }
      ],
      "name": "getTokenURI",
      "outputs": [
        {
          "internalType": "string",
          "name": "",
          "type": "string"
        }
      ],
      "stateMutability": "view",
      "type": "function"
    },
    {
      "inputs": [
        {
          "internalType": "address",
          "name": "account",
          "type": "address"
        },
        {
          "internalType": "address",
          "name": "operator",
          "type": "address"
        }
      ],
      "name": "isApprovedForAll",
      "outputs": [
        {
          "internalType": "bool",
          "name": "",
          "type": "bool"
        }
      ],
      "stateMutability": "view",
      "type": "function"
    },
    {
      "inputs": [],
      "name": "name",
      "outputs": [
        {
          "internalType": "string",
          "name": "",
          "type": "string"
        }
      ],
      "stateMutability": "view",
      "type": "function"
    },
    {
      "inputs": [
        {
          "internalType": "address",
          "name": "targetAddress",
          "type": "address"
        }
      ],
      "name": "ownerCheck",
      "outputs": [
        {
          "internalType": "bool",
          "name": "",
          "type": "bool"
        }
      ],
      "stateMutability": "view",
      "type": "function"
    },
    {
      "inputs": [],
      "name": "paymentBalanceOwner",
      "outputs": [
        {
          "internalType": "uint256",
          "name": "",
          "type": "uint256"
        }
      ],
      "stateMutability": "view",
      "type": "function"
    },
    {
      "inputs": [],
      "name": "phiMapAddress",
      "outputs": [
        {
          "internalType": "address",
          "name": "",
          "type": "address"
        }
      ],
      "stateMutability": "view",
      "type": "function"
    },
    {
      "inputs": [
        {
          "internalType": "address",
          "name": "oldOwner",
          "type": "address"
        }
      ],
      "name": "removeOwner",
      "outputs": [],
      "stateMutability": "nonpayable",
      "type": "function"
    },
    {
      "inputs": [],
      "name": "royalityFee",
      "outputs": [
        {
          "internalType": "uint256",
          "name": "",
          "type": "uint256"
        }
      ],
      "stateMutability": "view",
      "type": "function"
    },
    {
      "inputs": [
        {
          "internalType": "uint256",
          "name": "",
          "type": "uint256"
        },
        {
          "internalType": "uint256",
          "name": "salePrice",
          "type": "uint256"
        }
      ],
      "name": "royaltyInfo",
      "outputs": [
        {
          "internalType": "address",
          "name": "receiver",
          "type": "address"
        },
        {
          "internalType": "uint256",
          "name": "royaltyAmount",
          "type": "uint256"
        }
      ],
      "stateMutability": "view",
      "type": "function"
    },
    {
      "inputs": [
        {
          "internalType": "address",
          "name": "from",
          "type": "address"
        },
        {
          "internalType": "address",
          "name": "to",
          "type": "address"
        },
        {
          "internalType": "uint256[]",
          "name": "ids",
          "type": "uint256[]"
        },
        {
          "internalType": "uint256[]",
          "name": "amounts",
          "type": "uint256[]"
        },
        {
          "internalType": "bytes",
          "name": "data",
          "type": "bytes"
        }
      ],
      "name": "safeBatchTransferFrom",
      "outputs": [],
      "stateMutability": "nonpayable",
      "type": "function"
    },
    {
      "inputs": [
        {
          "internalType": "address",
          "name": "from",
          "type": "address"
        },
        {
          "internalType": "address",
          "name": "to",
          "type": "address"
        },
        {
          "internalType": "uint256",
          "name": "id",
          "type": "uint256"
        },
        {
          "internalType": "uint256",
          "name": "amount",
          "type": "uint256"
        },
        {
          "internalType": "bytes",
          "name": "data",
          "type": "bytes"
        }
      ],
      "name": "safeTransferFrom",
      "outputs": [],
      "stateMutability": "nonpayable",
      "type": "function"
    },
    {
      "inputs": [],
      "name": "secondaryRoyalty",
      "outputs": [
        {
          "internalType": "uint256",
          "name": "",
          "type": "uint256"
        }
      ],
      "stateMutability": "view",
      "type": "function"
    },
    {
      "inputs": [
        {
          "internalType": "address",
          "name": "operator",
          "type": "address"
        },
        {
          "internalType": "bool",
          "name": "approved",
          "type": "bool"
        }
      ],
      "name": "setApprovalForAll",
      "outputs": [],
      "stateMutability": "nonpayable",
      "type": "function"
    },
    {
      "inputs": [
        {
          "internalType": "uint256",
          "name": "tokenId",
          "type": "uint256"
        },
        {
          "internalType": "address payable",
          "name": "creator",
          "type": "address"
        }
      ],
      "name": "setCreatorAddress",
      "outputs": [],
      "stateMutability": "nonpayable",
      "type": "function"
    },
    {
      "inputs": [
        {
          "internalType": "uint256",
          "name": "tokenId",
          "type": "uint256"
        },
        {
          "internalType": "uint256",
          "name": "exp",
          "type": "uint256"
        }
      ],
      "name": "setExp",
      "outputs": [],
      "stateMutability": "nonpayable",
      "type": "function"
    },
    {
      "inputs": [
        {
          "internalType": "uint256",
          "name": "tokenId",
          "type": "uint256"
        },
        {
          "internalType": "uint256",
          "name": "newMaxClaimed",
          "type": "uint256"
        }
      ],
      "name": "setMaxClaimed",
      "outputs": [],
      "stateMutability": "nonpayable",
      "type": "function"
    },
    {
      "inputs": [
        {
          "internalType": "uint256",
          "name": "tokenId",
          "type": "uint256"
        },
        {
          "internalType": "bool",
          "name": "check",
          "type": "bool"
        }
      ],
      "name": "setOpenForSale",
      "outputs": [],
      "stateMutability": "nonpayable",
      "type": "function"
    },
    {
      "inputs": [
        {
          "internalType": "address",
          "name": "newOwner",
          "type": "address"
        }
      ],
      "name": "setOwner",
      "outputs": [],
      "stateMutability": "nonpayable",
      "type": "function"
    },
    {
      "inputs": [
        {
          "internalType": "uint256",
          "name": "newRoyalityFee",
          "type": "uint256"
        }
      ],
      "name": "setRoyalityFee",
      "outputs": [],
      "stateMutability": "nonpayable",
      "type": "function"
    },
    {
      "inputs": [
        {
          "internalType": "uint256",
          "name": "newSecondaryRoyalty",
          "type": "uint256"
        }
      ],
      "name": "setSecondaryRoyalityFee",
      "outputs": [],
      "stateMutability": "nonpayable",
      "type": "function"
    },
    {
      "inputs": [
        {
          "internalType": "address",
          "name": "_shopAddress",
          "type": "address"
        }
      ],
      "name": "setShopAddress",
      "outputs": [],
      "stateMutability": "nonpayable",
      "type": "function"
    },
    {
      "inputs": [
        {
          "internalType": "uint256",
          "name": "tokenId",
          "type": "uint256"
        },
        {
          "components": [
            {
              "internalType": "uint8",
              "name": "x",
              "type": "uint8"
            },
            {
              "internalType": "uint8",
              "name": "y",
              "type": "uint8"
            },
            {
              "internalType": "uint8",
              "name": "z",
              "type": "uint8"
            }
          ],
          "internalType": "struct BaseObject.Size",
          "name": "size",
          "type": "tuple"
        }
      ],
      "name": "setSize",
      "outputs": [],
      "stateMutability": "nonpayable",
      "type": "function"
    },
    {
      "inputs": [
        {
          "internalType": "uint256",
          "name": "tokenId",
          "type": "uint256"
        },
        {
          "internalType": "string",
          "name": "uri",
          "type": "string"
        }
      ],
      "name": "setTokenURI",
      "outputs": [],
      "stateMutability": "nonpayable",
      "type": "function"
    },
    {
      "inputs": [
        {
          "internalType": "address payable",
          "name": "newTreasuryAddress",
          "type": "address"
        }
      ],
      "name": "setTreasuryAddress",
      "outputs": [],
      "stateMutability": "nonpayable",
      "type": "function"
    },
    {
      "inputs": [
        {
          "internalType": "string",
          "name": "newBaseMetadataURI",
          "type": "string"
        }
      ],
      "name": "setbaseMetadataURI",
      "outputs": [],
      "stateMutability": "nonpayable",
      "type": "function"
    },
    {
      "inputs": [],
      "name": "shopAddress",
      "outputs": [
        {
          "internalType": "address",
          "name": "",
          "type": "address"
        }
      ],
      "stateMutability": "view",
      "type": "function"
    },
    {
      "inputs": [
        {
          "internalType": "bytes4",
          "name": "interfaceId",
          "type": "bytes4"
        }
      ],
      "name": "supportsInterface",
      "outputs": [
        {
          "internalType": "bool",
          "name": "",
          "type": "bool"
        }
      ],
      "stateMutability": "view",
      "type": "function"
    },
    {
      "inputs": [],
      "name": "symbol",
      "outputs": [
        {
          "internalType": "string",
          "name": "",
          "type": "string"
        }
      ],
      "stateMutability": "view",
      "type": "function"
    },
    {
      "inputs": [
        {
          "internalType": "uint256",
          "name": "id",
          "type": "uint256"
        }
      ],
      "name": "totalSupply",
      "outputs": [
        {
          "internalType": "uint256",
          "name": "",
          "type": "uint256"
        }
      ],
      "stateMutability": "view",
      "type": "function"
    },
    {
      "inputs": [],
      "name": "treasuryAddress",
      "outputs": [
        {
          "internalType": "address payable",
          "name": "",
          "type": "address"
        }
      ],
      "stateMutability": "view",
      "type": "function"
    },
    {
      "inputs": [
        {
          "internalType": "uint256",
          "name": "tokenId",
          "type": "uint256"
        }
      ],
      "name": "uri",
      "outputs": [
        {
          "internalType": "string",
          "name": "",
          "type": "string"
        }
      ],
      "stateMutability": "view",
      "type": "function"
    },
    {
      "inputs": [
        {
          "internalType": "address",
          "name": "withdrawTo",
          "type": "address"
        }
      ],
      "name": "withdrawOwnerBalance",
      "outputs": [],
      "stateMutability": "nonpayable",
      "type": "function"
    },
    {
      "stateMutability": "payable",
      "type": "receive"
    }
  ],
  "bytecode": "0x60a06040523480156200001157600080fd5b5060405162003ec138038062003ec1833981016040819052620000349162000204565b604080516020808201835260008083523381529081905291909120805460ff1916600190811790915580556200006a81620001d9565b506001600160a01b038216620000bc5760405162461bcd60e51b8152602060048201526012602482015271063616e7420736574206164647265737320360741b60448201526064015b60405180910390fd5b6001600160a01b038116620001095760405162461bcd60e51b8152602060048201526012602482015271063616e7420736574206164647265737320360741b6044820152606401620000b3565b60408051808201909152600b81526a15195cdd0813d89a9958dd60aa1b60208201526002906200013a9082620002e8565b506040805180820190915260088152675465737420464f5360c01b6020820152600390620001699082620002e8565b5060408051808201909152601881527f68747470733a2f2f7777772e617277656176652e6e65742f00000000000000006020820152600490620001ad9082620002e8565b50600680546001600160a01b0319166001600160a01b03938416179055606460085516608052620003b4565b600e620001e78282620002e8565b5050565b6001600160a01b03811681146200020157600080fd5b50565b600080604083850312156200021857600080fd5b82516200022581620001eb565b60208401519092506200023881620001eb565b809150509250929050565b634e487b7160e01b600052604160045260246000fd5b600181811c908216806200026e57607f821691505b6020821081036200028f57634e487b7160e01b600052602260045260246000fd5b50919050565b601f821115620002e357600081815260208120601f850160051c81016020861015620002be5750805b601f850160051c820191505b81811015620002df57828155600101620002ca565b5050505b505050565b81516001600160401b0381111562000304576200030462000243565b6200031c8162000315845462000259565b8462000295565b602080601f8311600181146200035457600084156200033b5750858301515b600019600386901b1c1916600185901b178555620002df565b600085815260208120601f198616915b82811015620003855788860151825594840194600190910190840162000364565b5085821015620003a45787850151600019600388901b60f8161c191681555b5050505050600190811b01905550565b608051613aea620003d7600039600081816106760152611f050152613aea6000f3fe6080604052600436106103215760003560e01c80633ec963cb116101a55780639733faa5116100ec578063bfdc4fdf11610095578063cbdac7101161006f578063cbdac710146109ca578063e498922f146109fd578063e985e9c514610a2d578063f242432a14610a4d57600080fd5b8063bfdc4fdf1461095a578063c457fb371461097a578063c5f956af146109aa57600080fd5b8063a30b4db9116100c6578063a30b4db9146108d4578063b6ed6da91461090d578063bd85b0391461092d57600080fd5b80639733faa51461086457806398f2468214610894578063a22cb465146108b457600080fd5b80636605bfda1161014e57806382cb6b721161012857806382cb6b72146108095780639291671a1461083957806395d89b411461084f57600080fd5b80636605bfda146107a957806367478a35146107c95780637061d486146107e957600080fd5b80635b2bd79e1161017f5780635b2bd79e14610754578063604c7f801461076957806362e8e8ac1461078957600080fd5b80633ec963cb146106d85780634e1273f4146106f85780634f558e791461072557600080fd5b80631d1b29e0116102695780632c383ee81161021257806339b67b6d116101ec57806339b67b6d146106645780633bb3a24d146106985780633e545f02146106b857600080fd5b80632c383ee8146105fb5780632eb2c2d61461062e578063326bb4ad1461064e57600080fd5b806322446fb81161024357806322446fb81461054b57806323bf2f67146105835780632a55205a146105bc57600080fd5b80631d1b29e0146104e85780631e4c78871461051557806321f4ce3e1461052b57600080fd5b80630b68e796116102cb57806313af4035116102a557806313af403514610488578063162094c4146104a8578063173825d9146104c857600080fd5b80630b68e796146104285780630d09308e146104485780630e89341c1461046857600080fd5b8063023c23db116102fc578063023c23db146103b957806306fdde03146103e65780630a1eeb0c1461040857600080fd5b8062fdd58e14610336578063013bc6c51461036957806301ffc9a71461038957600080fd5b366103315761032f34610a6d565b005b600080fd5b34801561034257600080fd5b50610356610351366004612d91565b610aba565b6040519081526020015b60405180910390f35b34801561037557600080fd5b5061032f610384366004612e95565b610b68565b34801561039557600080fd5b506103a96103a4366004612ee8565b610c48565b6040519015158152602001610360565b3480156103c557600080fd5b506103d96103d4366004612f05565b610c98565b6040516103609190612f1e565b3480156103f257600080fd5b506103fb610d54565b6040516103609190612f9c565b34801561041457600080fd5b5061032f610423366004612fc4565b610de2565b34801561043457600080fd5b5061032f610443366004612ff0565b610e6f565b34801561045457600080fd5b5061032f610463366004612ff0565b610eea565b34801561047457600080fd5b506103fb610483366004612f05565b610f65565b34801561049457600080fd5b5061032f6104a3366004613012565b610fc9565b3480156104b457600080fd5b5061032f6104c33660046130a3565b611046565b3480156104d457600080fd5b5061032f6104e3366004613012565b6110c0565b3480156104f457600080fd5b50610508610503366004612f05565b61113a565b60405161036091906130ea565b34801561052157600080fd5b5061035660095481565b34801561053757600080fd5b5061032f610546366004613186565b6112cd565b34801561055757600080fd5b5060055461056b906001600160a01b031681565b6040516001600160a01b039091168152602001610360565b34801561058f57600080fd5b506103a961059e366004613012565b6001600160a01b031660009081526020819052604090205460ff1690565b3480156105c857600080fd5b506105dc6105d7366004612ff0565b61136d565b604080516001600160a01b039093168352602083019190915201610360565b34801561060757600080fd5b506103a9610616366004612f05565b6000908152600a602052604090206006015460ff1690565b34801561063a57600080fd5b5061032f6106493660046131cc565b611397565b34801561065a57600080fd5b5061035660075481565b34801561067057600080fd5b5061056b7f000000000000000000000000000000000000000000000000000000000000000081565b3480156106a457600080fd5b506103fb6106b3366004612f05565b611439565b3480156106c457600080fd5b5061032f6106d336600461327a565b6114db565b3480156106e457600080fd5b5061032f6106f3366004613012565b6115d1565b34801561070457600080fd5b506107186107133660046132f0565b6116b9565b60405161036091906133ee565b34801561073157600080fd5b506103a9610740366004612f05565b6000908152600f6020526040902054151590565b34801561076057600080fd5b506103fb6117f7565b34801561077557600080fd5b5061032f610784366004613481565b611804565b34801561079557600080fd5b5061032f6107a4366004612ff0565b6118c6565b3480156107b557600080fd5b5061032f6107c4366004613012565b611941565b3480156107d557600080fd5b5061032f6107e4366004613012565b611a18565b3480156107f557600080fd5b5061032f610804366004612f05565b611bc6565b34801561081557600080fd5b506103a9610824366004612f05565b600b6020526000908152604090205460ff1681565b34801561084557600080fd5b5061035660085481565b34801561085b57600080fd5b506103fb611c2b565b34801561087057600080fd5b5061035661087f366004612f05565b6000908152600a602052604090206003015490565b3480156108a057600080fd5b5061032f6108af366004612f05565b611c38565b3480156108c057600080fd5b5061032f6108cf3660046134a5565b611c9d565b3480156108e057600080fd5b5061056b6108ef366004612f05565b6000908152600a60205260409020600201546001600160a01b031690565b34801561091957600080fd5b5061032f6109283660046134d1565b611cac565b34801561093957600080fd5b50610356610948366004612f05565b6000908152600f602052604090205490565b34801561096657600080fd5b5061032f610975366004613506565b611d18565b34801561098657600080fd5b50610356610995366004612f05565b6000908152600a602052604090206004015490565b3480156109b657600080fd5b5060065461056b906001600160a01b031681565b3480156109d657600080fd5b506109ea6109e5366004612f05565b611e03565b6040516103609796959493929190613536565b348015610a0957600080fd5b50610356610a18366004612f05565b6000908152600a602052604090206005015490565b348015610a3957600080fd5b506103a9610a483660046135af565b611f01565b348015610a5957600080fd5b5061032f610a683660046135dd565b611f75565b6040518181527faab58724194bfb12b018298382453c333764e73d19ec73cb98d26f8dd10d29cc9060200160405180910390a18060096000828254610ab2919061365c565b909155505050565b60006001600160a01b038316610b3d5760405162461bcd60e51b815260206004820152602b60248201527f455243313135353a2062616c616e636520717565727920666f7220746865207a60448201527f65726f206164647265737300000000000000000000000000000000000000000060648201526084015b60405180910390fd5b506000818152600c602090815260408083206001600160a01b03861684529091529020545b92915050565b33610bb55760405162461bcd60e51b815260206004820152601160248201527f63616c6c657220697320696e76616c69640000000000000000000000000000006044820152606401610b34565b333214610c045760405162461bcd60e51b815260206004820152601260248201527f6d73672073656e64657220696e76616c696400000000000000000000000000006044820152606401610b34565b805160005b81811015610c4357610c33838281518110610c2657610c2661366f565b6020026020010151612010565b610c3c81613685565b9050610c09565b505050565b60006001600160e01b03198216636cdb3d1360e11b1480610c7957506001600160e01b031982166303a24d0760e21b145b80610b6257506301ffc9a760e01b6001600160e01b0319831614610b62565b60408051606081018252600080825260208201819052918101919091526000828152600a602052604090206001015460ff161580610ced57506000828152600a6020526040902060010154610100900460ff16155b15610d0b5760405163a8e3a97360e01b815260040160405180910390fd5b506000908152600a6020908152604091829020825160608101845260019091015460ff808216835261010082048116938301939093526201000090049091169181019190915290565b60028054610d619061369e565b80601f0160208091040260200160405190810160405280929190818152602001828054610d8d9061369e565b8015610dda5780601f10610daf57610100808354040283529160200191610dda565b820191906000526020600020905b815481529060010190602001808311610dbd57829003601f168201915b505050505081565b3360009081526020819052604090205460ff16610e12576040516349e27cff60e01b815260040160405180910390fd5b6000828152600a6020908152604091829020600601805460ff19168415159081179091558251858152918201527fd24cd22e1990320c8f339b920aee0413e3ac1cfdfb6200d6d967befa1fa1573c91015b60405180910390a15050565b3360009081526020819052604090205460ff16610e9f576040516349e27cff60e01b815260040160405180910390fd5b6000828152600a602090815260409182902060050183905581518481529081018390527f1e1ef21dc18e8f45f4e05a47d70fbffe8371dbcc8b4815e8dbca1dbd620c43669101610e63565b3360009081526020819052604090205460ff16610f1a576040516349e27cff60e01b815260040160405180910390fd5b6000828152600a602090815260409182902060030183905581518481529081018390527fad41bb8f5516e8c7946d99bc48fd3ff0a07239c8ffcf2d103a0612b9ab44a60a9101610e63565b6000818152600b602052604090205460609060ff16610f9757604051636aa2a93760e01b815260040160405180910390fd5b6004610fa283611439565b604051602001610fb39291906136d8565b6040516020818303038152906040529050919050565b3360009081526020819052604090205460ff16610ff9576040516349e27cff60e01b815260040160405180910390fd5b6001600160a01b038116600081815260208190526040808220805460ff191660011790555133917f619792ba07bec101df538ab277befa333e4cf1c0274f11de7be2a9507b9c9a0691a350565b3360009081526020819052604090205460ff16611076576040516349e27cff60e01b815260040160405180910390fd5b6000828152600a6020526040902061108e82826137a5565b507fd2d827dddfc9c9a02afc5fc68d3251684b36e213a7999ebd90a861f25df4077e8282604051610e63929190613865565b3360009081526020819052604090205460ff166110f0576040516349e27cff60e01b815260040160405180910390fd5b6001600160a01b038116600081815260208190526040808220805460ff191690555133917fc191551a88c5609788f3532bd94c06479b61b0040eec65f9cd985428ffea643091a350565b61119d6040805160e08101825260608082528251908101835260008082526020828101829052938201529091820190815260200160006001600160a01b031681526020016000815260200160008152602001600081526020016000151581525090565b6000828152600a602052604090819020815160e081019092528054829082906111c59061369e565b80601f01602080910402602001604051908101604052809291908181526020018280546111f19061369e565b801561123e5780601f106112135761010080835404028352916020019161123e565b820191906000526020600020905b81548152906001019060200180831161122157829003601f168201915b50505091835250506040805160608082018352600185015460ff808216845261010082048116602085810191909152620100009092048116848601529085019290925260028501546001600160a01b03169284019290925260038401549183019190915260048301546080830152600583015460a0830152600690920154909116151560c09091015292915050565b6005546001600160a01b031633146113275760405162461bcd60e51b815260206004820152601260248201527f6d73672073656e64657220696e76616c696400000000000000000000000000006044820152606401610b34565b805160005b81811015611367576113578484838151811061134a5761134a61366f565b6020026020010151612136565b61136081613685565b905061132c565b50505050565b6000803061271060085485611382919061387e565b61138c919061389d565b915091509250929050565b6001600160a01b0385163314806113b357506113b38533611f01565b6114255760405162461bcd60e51b815260206004820152603260248201527f455243313135353a207472616e736665722063616c6c6572206973206e6f742060448201527f6f776e6572206e6f7220617070726f76656400000000000000000000000000006064820152608401610b34565b611432858585858561226b565b5050505050565b6000818152600a602052604090208054606091906114569061369e565b80601f01602080910402602001604051908101604052809291908181526020018280546114829061369e565b80156114cf5780601f106114a4576101008083540402835291602001916114cf565b820191906000526020600020905b8154815290600101906020018083116114b257829003601f168201915b50505050509050919050565b3360009081526020819052604090205460ff1661150b576040516349e27cff60e01b815260040160405180910390fd5b6000848152600f602052604090205415611538576040516387cf36d160e01b815260040160405180910390fd5b6115428484611046565b61155584610784368590038501856138bf565b61155f8482611d18565b61156a8460006118c6565b611575846001610de2565b6000848152600b6020526040808220805460ff19166001179055517f78728f1062deeac8cffd769cb0b2c35bcb285f7179984906ce8a04ec578bd23a916115c39187918791879187916138db565b60405180910390a150505050565b3360009081526020819052604090205460ff16611601576040516349e27cff60e01b815260040160405180910390fd5b6001600160a01b0381166116575760405162461bcd60e51b815260206004820152601260248201527f63616e74207365742061646472657373203000000000000000000000000000006044820152606401610b34565b6005805473ffffffffffffffffffffffffffffffffffffffff19166001600160a01b0383169081179091556040519081527fcefd22c602a88b1f72d74d02bad4b2cb1e05e85530bb77114da7c723d2aca9db906020015b60405180910390a150565b606081518351146117325760405162461bcd60e51b815260206004820152602960248201527f455243313135353a206163636f756e747320616e6420696473206c656e67746860448201527f206d69736d6174636800000000000000000000000000000000000000000000006064820152608401610b34565b6000835167ffffffffffffffff81111561174e5761174e612dbd565b604051908082528060200260200182016040528015611777578160200160208202803683370190505b50905060005b84518110156117ef576117c285828151811061179b5761179b61366f565b60200260200101518583815181106117b5576117b561366f565b6020026020010151610aba565b8282815181106117d4576117d461366f565b60209081029190910101526117e881613685565b905061177d565b509392505050565b60048054610d619061369e565b3360009081526020819052604090205460ff16611834576040516349e27cff60e01b815260040160405180910390fd5b6000828152600a6020908152604091829020835160019091018054858401518686015160ff94851661ffff1990931683176101009286169283021762ff000019166201000095909116948502179092558451878152938401529282019290925260608101919091527fd8e7c8605fecaf6228c6b5f990bc7f1e865694cc587ef62fe729b926915ef7e090608001610e63565b3360009081526020819052604090205460ff166118f6576040516349e27cff60e01b815260040160405180910390fd5b6000828152600a602090815260409182902060040183905581518481529081018390527f415cf995faccaec43ce108f2713ebcdb2812b0e0689a8fa7dfdcabf78109ebbb9101610e63565b3360009081526020819052604090205460ff16611971576040516349e27cff60e01b815260040160405180910390fd5b6001600160a01b0381166119bd5760405162461bcd60e51b815260206004820152601360248201527263616e7420736574206164647265737328302960681b6044820152606401610b34565b6006805473ffffffffffffffffffffffffffffffffffffffff19166001600160a01b0383169081179091556040519081527feee016301a2725a577c64816adf35ccf644d07439731069a31748ec3b9102c60906020016116ae565b3360009081526020819052604090205460ff16611a48576040516349e27cff60e01b815260040160405180910390fd5b600260015403611a9a5760405162461bcd60e51b815260206004820152601f60248201527f5265656e7472616e637947756172643a207265656e7472616e742063616c6c006044820152606401610b34565b60026001556001600160a01b038116611aeb5760405162461bcd60e51b815260206004820152601360248201527263616e7420736574206164647265737328302960681b6044820152606401610b34565b600954600003611b0e57604051632f31015b60e11b815260040160405180910390fd5b600980546000918290556040519091906001600160a01b0384169083908381818185875af1925050503d8060008114611b63576040519150601f19603f3d011682016040523d82523d6000602084013e611b68565b606091505b5050905080611b8a57604051632f31015b60e11b815260040160405180910390fd5b6040518281527f2d5923adf91dd211e633a33f2e27918338e6a33e3b3f386e9d466d1bc52eba799060200160405180910390a150506001805550565b3360009081526020819052604090205460ff16611bf6576040516349e27cff60e01b815260040160405180910390fd5b60088190556040518181527fb69fdb7c7f7b0e17f64074ea1590642f14193039b234aae7a3c68b26ed055adf906020016116ae565b60038054610d619061369e565b3360009081526020819052604090205460ff16611c68576040516349e27cff60e01b815260040160405180910390fd5b60078190556040518181527f184fa17d2176718ea1955f61782c763ce239e39e790340793f227b0ba5db53e1906020016116ae565b611ca83383836124ef565b5050565b3360009081526020819052604090205460ff16611cdc576040516349e27cff60e01b815260040160405180910390fd5b6004611ce882826137a5565b507ffa52149a99a7016c4576d7bb33adefe5c4372aeded2a98a40f46d6ef33109c4d816040516116ae9190612f9c565b3360009081526020819052604090205460ff16611d48576040516349e27cff60e01b815260040160405180910390fd5b6001600160a01b038116611d945760405162461bcd60e51b815260206004820152601360248201527263616e7420736574206164647265737328302960681b6044820152606401610b34565b6000828152600a6020908152604091829020600201805473ffffffffffffffffffffffffffffffffffffffff19166001600160a01b0385169081179091558251858152918201527f02df56823aeec019d75f2c2396e2a9c68868b26ccc5a4cd9412b2a78f8602f739101610e63565b600a60205260009081526040902080548190611e1e9061369e565b80601f0160208091040260200160405190810160405280929190818152602001828054611e4a9061369e565b8015611e975780601f10611e6c57610100808354040283529160200191611e97565b820191906000526020600020905b815481529060010190602001808311611e7a57829003601f168201915b505060408051606081018252600187015460ff80821683526101008204811660208401526201000090910481169282019290925260028701546003880154600489015460058a01546006909a0154989993986001600160a01b039093169750909550935090911687565b60007f00000000000000000000000000000000000000000000000000000000000000006001600160a01b0316826001600160a01b031603611f4457506001610b62565b6001600160a01b038084166000908152600d602090815260408083209386168352929052205460ff165b9392505050565b6001600160a01b038516331480611f915750611f918533611f01565b6120035760405162461bcd60e51b815260206004820152602960248201527f455243313135353a2063616c6c6572206973206e6f74206f776e6572206e6f7260448201527f20617070726f76656400000000000000000000000000000000000000000000006064820152608401610b34565b61143285858585856125e3565b6002600154036120625760405162461bcd60e51b815260206004820152601f60248201527f5265656e7472616e637947756172643a207265656e7472616e742063616c6c006044820152606401610b34565b60026001556000818152600a602052604090206006015460ff166120c85760405162461bcd60e51b815260206004820152601160248201527f6e6f74206f70656e20666f722073616c650000000000000000000000000000006044820152606401610b34565b6120d1816127a0565b6120fa33826001604051806040016040528060048152602001630307830360e41b8152506127dd565b60405181815233907f99678068058f8bb7e05b1bb12b96b51472ba691b95ced1204288a8ca72be7df09060200160405180910390a25060018055565b6002600154036121885760405162461bcd60e51b815260206004820152601f60248201527f5265656e7472616e637947756172643a207265656e7472616e742063616c6c006044820152606401610b34565b60026001556000818152600a602052604090206006015460ff166121ee5760405162461bcd60e51b815260206004820152601160248201527f6e6f74206f70656e20666f722073616c650000000000000000000000000000006044820152606401610b34565b6121f7816127a0565b61222082826001604051806040016040528060048152602001630307830360e41b8152506127dd565b816001600160a01b03167f99678068058f8bb7e05b1bb12b96b51472ba691b95ced1204288a8ca72be7df08260405161225b91815260200190565b60405180910390a2505060018055565b81518351146122e25760405162461bcd60e51b815260206004820152602860248201527f455243313135353a2069647320616e6420616d6f756e7473206c656e6774682060448201527f6d69736d617463680000000000000000000000000000000000000000000000006064820152608401610b34565b6001600160a01b0384166123465760405162461bcd60e51b815260206004820152602560248201527f455243313135353a207472616e7366657220746f20746865207a65726f206164604482015264647265737360d81b6064820152608401610b34565b33612355818787878787612902565b60005b84518110156124815760008582815181106123755761237561366f565b6020026020010151905060008583815181106123935761239361366f565b6020908102919091018101516000848152600c835260408082206001600160a01b038e1683529093529190912054909150818110156124275760405162461bcd60e51b815260206004820152602a60248201527f455243313135353a20696e73756666696369656e742062616c616e636520666f60448201526939103a3930b739b332b960b11b6064820152608401610b34565b6000838152600c602090815260408083206001600160a01b038e8116855292528083208585039055908b1682528120805484929061246690849061365c565b925050819055505050508061247a90613685565b9050612358565b50846001600160a01b0316866001600160a01b0316826001600160a01b03167f4a39dc06d4c0dbc64b70af90fd698a233a518aa5d07e595d983b8c0526c8f7fb87876040516124d192919061394b565b60405180910390a46124e7818787878787612a90565b505050505050565b816001600160a01b0316836001600160a01b0316036125765760405162461bcd60e51b815260206004820152602960248201527f455243313135353a2073657474696e6720617070726f76616c2073746174757360448201527f20666f722073656c6600000000000000000000000000000000000000000000006064820152608401610b34565b6001600160a01b038381166000818152600d6020908152604080832094871680845294825291829020805460ff191686151590811790915591519182527f17307eab39ab6107e8899845ad3d59bd9653f200f220920489ca2b5937696c31910160405180910390a3505050565b6001600160a01b0384166126475760405162461bcd60e51b815260206004820152602560248201527f455243313135353a207472616e7366657220746f20746865207a65726f206164604482015264647265737360d81b6064820152608401610b34565b33600061265385612c35565b9050600061266085612c35565b9050612670838989858589612902565b6000868152600c602090815260408083206001600160a01b038c168452909152902054858110156126f65760405162461bcd60e51b815260206004820152602a60248201527f455243313135353a20696e73756666696369656e742062616c616e636520666f60448201526939103a3930b739b332b960b11b6064820152608401610b34565b6000878152600c602090815260408083206001600160a01b038d8116855292528083208985039055908a1682528120805488929061273590849061365c565b909155505060408051888152602081018890526001600160a01b03808b16928c821692918816917fc3d58168c5ae7397731d063d5bbf3d657854427343f4c083240f7aacaa2d0f62910160405180910390a4612795848a8a8a8a8a612c80565b505050505050505050565b8015806127bc57506000818152600b602052604090205460ff16155b156127da57604051636aa2a93760e01b815260040160405180910390fd5b50565b6001600160a01b03841661283d5760405162461bcd60e51b815260206004820152602160248201527f455243313135353a206d696e7420746f20746865207a65726f206164647265736044820152607360f81b6064820152608401610b34565b33600061284985612c35565b9050600061285685612c35565b905061286783600089858589612902565b6000868152600c602090815260408083206001600160a01b038b1684529091528120805487929061289990849061365c565b909155505060408051878152602081018790526001600160a01b03808a1692600092918716917fc3d58168c5ae7397731d063d5bbf3d657854427343f4c083240f7aacaa2d0f62910160405180910390a46128f983600089898989612c80565b50505050505050565b6001600160a01b0385166129895760005b83518110156129875782818151811061292e5761292e61366f565b6020026020010151600f600086848151811061294c5761294c61366f565b602002602001015181526020019081526020016000206000828254612971919061365c565b90915550612980905081613685565b9050612913565b505b6001600160a01b0384166124e75760005b83518110156128f95760008482815181106129b7576129b761366f565b6020026020010151905060008483815181106129d5576129d561366f565b602002602001015190506000600f600084815260200190815260200160002054905081811015612a6d5760405162461bcd60e51b815260206004820152602860248201527f455243313135353a206275726e20616d6f756e74206578636565647320746f7460448201527f616c537570706c790000000000000000000000000000000000000000000000006064820152608401610b34565b6000928352600f602052604090922091039055612a8981613685565b905061299a565b6001600160a01b0384163b156124e75760405163bc197c8160e01b81526001600160a01b0385169063bc197c8190612ad49089908990889088908890600401613979565b6020604051808303816000875af1925050508015612b0f575060408051601f3d908101601f19168201909252612b0c918101906139d7565b60015b612bc457612b1b6139f4565b806308c379a003612b545750612b2f613a10565b80612b3a5750612b56565b8060405162461bcd60e51b8152600401610b349190612f9c565b505b60405162461bcd60e51b815260206004820152603460248201527f455243313135353a207472616e7366657220746f206e6f6e204552433131353560448201527f526563656976657220696d706c656d656e7465720000000000000000000000006064820152608401610b34565b6001600160e01b0319811663bc197c8160e01b146128f95760405162461bcd60e51b815260206004820152602860248201527f455243313135353a204552433131353552656365697665722072656a656374656044820152676420746f6b656e7360c01b6064820152608401610b34565b60408051600180825281830190925260609160009190602080830190803683370190505090508281600081518110612c6f57612c6f61366f565b602090810291909101015292915050565b6001600160a01b0384163b156124e75760405163f23a6e6160e01b81526001600160a01b0385169063f23a6e6190612cc49089908990889088908890600401613a9a565b6020604051808303816000875af1925050508015612cff575060408051601f3d908101601f19168201909252612cfc918101906139d7565b60015b612d0b57612b1b6139f4565b6001600160e01b0319811663f23a6e6160e01b146128f95760405162461bcd60e51b815260206004820152602860248201527f455243313135353a204552433131353552656365697665722072656a656374656044820152676420746f6b656e7360c01b6064820152608401610b34565b6001600160a01b03811681146127da57600080fd5b60008060408385031215612da457600080fd5b8235612daf81612d7c565b946020939093013593505050565b634e487b7160e01b600052604160045260246000fd5b601f8201601f1916810167ffffffffffffffff81118282101715612df957612df9612dbd565b6040525050565b600067ffffffffffffffff821115612e1a57612e1a612dbd565b5060051b60200190565b600082601f830112612e3557600080fd5b81356020612e4282612e00565b604051612e4f8282612dd3565b83815260059390931b8501820192828101915086841115612e6f57600080fd5b8286015b84811015612e8a5780358352918301918301612e73565b509695505050505050565b600060208284031215612ea757600080fd5b813567ffffffffffffffff811115612ebe57600080fd5b612eca84828501612e24565b949350505050565b6001600160e01b0319811681146127da57600080fd5b600060208284031215612efa57600080fd5b8135611f6e81612ed2565b600060208284031215612f1757600080fd5b5035919050565b60608101610b62828460ff815116825260ff602082015116602083015260ff60408201511660408301525050565b60005b83811015612f67578181015183820152602001612f4f565b50506000910152565b60008151808452612f88816020860160208601612f4c565b601f01601f19169290920160200192915050565b602081526000611f6e6020830184612f70565b80358015158114612fbf57600080fd5b919050565b60008060408385031215612fd757600080fd5b82359150612fe760208401612faf565b90509250929050565b6000806040838503121561300357600080fd5b50508035926020909101359150565b60006020828403121561302457600080fd5b8135611f6e81612d7c565b600082601f83011261304057600080fd5b813567ffffffffffffffff81111561305a5761305a612dbd565b604051613071601f8301601f191660200182612dd3565b81815284602083860101111561308657600080fd5b816020850160208301376000918101602001919091529392505050565b600080604083850312156130b657600080fd5b82359150602083013567ffffffffffffffff8111156130d457600080fd5b6130e08582860161302f565b9150509250929050565b6020815260008251610120806020850152613109610140850183612f70565b9150602085015161313d604086018260ff815116825260ff602082015116602083015260ff60408201511660408301525050565b506001600160a01b0360408601511660a0850152606085015160c0850152608085015160e085015260a085015161010085015260c0850151151581850152508091505092915050565b6000806040838503121561319957600080fd5b82356131a481612d7c565b9150602083013567ffffffffffffffff8111156131c057600080fd5b6130e085828601612e24565b600080600080600060a086880312156131e457600080fd5b85356131ef81612d7c565b945060208601356131ff81612d7c565b9350604086013567ffffffffffffffff8082111561321c57600080fd5b61322889838a01612e24565b9450606088013591508082111561323e57600080fd5b61324a89838a01612e24565b9350608088013591508082111561326057600080fd5b5061326d8882890161302f565b9150509295509295909350565b60008060008084860360c081121561329157600080fd5b85359450602086013567ffffffffffffffff8111156132af57600080fd5b6132bb8882890161302f565b9450506060603f19820112156132d057600080fd5b5060408501915060a08501356132e581612d7c565b939692955090935050565b6000806040838503121561330357600080fd5b823567ffffffffffffffff8082111561331b57600080fd5b818501915085601f83011261332f57600080fd5b8135602061333c82612e00565b6040516133498282612dd3565b83815260059390931b850182019282810191508984111561336957600080fd5b948201945b8386101561339057853561338181612d7c565b8252948201949082019061336e565b965050860135925050808211156133a657600080fd5b506130e085828601612e24565b600081518084526020808501945080840160005b838110156133e3578151875295820195908201906001016133c7565b509495945050505050565b602081526000611f6e60208301846133b3565b803560ff81168114612fbf57600080fd5b60006060828403121561342457600080fd5b6040516060810181811067ffffffffffffffff8211171561344757613447612dbd565b60405290508061345683613401565b815261346460208401613401565b602082015261347560408401613401565b60408201525092915050565b6000806080838503121561349457600080fd5b82359150612fe78460208501613412565b600080604083850312156134b857600080fd5b82356134c381612d7c565b9150612fe760208401612faf565b6000602082840312156134e357600080fd5b813567ffffffffffffffff8111156134fa57600080fd5b612eca8482850161302f565b6000806040838503121561351957600080fd5b82359150602083013561352b81612d7c565b809150509250929050565b600061012080835261354a8184018b612f70565b91505061357a602083018960ff815116825260ff602082015116602083015260ff60408201511660408301525050565b6001600160a01b0396909616608082015260a081019490945260c084019290925260e083015215156101009091015292915050565b600080604083850312156135c257600080fd5b82356135cd81612d7c565b9150602083013561352b81612d7c565b600080600080600060a086880312156135f557600080fd5b853561360081612d7c565b9450602086013561361081612d7c565b93506040860135925060608601359150608086013567ffffffffffffffff81111561363a57600080fd5b61326d8882890161302f565b634e487b7160e01b600052601160045260246000fd5b80820180821115610b6257610b62613646565b634e487b7160e01b600052603260045260246000fd5b60006001820161369757613697613646565b5060010190565b600181811c908216806136b257607f821691505b6020821081036136d257634e487b7160e01b600052602260045260246000fd5b50919050565b60008084546136e68161369e565b600182811680156136fe576001811461371357613742565b60ff1984168752821515830287019450613742565b8860005260208060002060005b858110156137395781548a820152908401908201613720565b50505082870194505b505050508351613756818360208801612f4c565b01949350505050565b601f821115610c4357600081815260208120601f850160051c810160208610156137865750805b601f850160051c820191505b818110156124e757828155600101613792565b815167ffffffffffffffff8111156137bf576137bf612dbd565b6137d3816137cd845461369e565b8461375f565b602080601f83116001811461380857600084156137f05750858301515b600019600386901b1c1916600185901b1785556124e7565b600085815260208120601f198616915b8281101561383757888601518255948401946001909101908401613818565b50858210156138555787850151600019600388901b60f8161c191681555b5050505050600190811b01905550565b828152604060208201526000612eca6040830184612f70565b600081600019048311821515161561389857613898613646565b500290565b6000826138ba57634e487b7160e01b600052601260045260246000fd5b500490565b6000606082840312156138d157600080fd5b611f6e8383613412565b85815260e0602082015260006138f460e0830187612f70565b905060ff61390186613401565b16604083015260ff61391560208701613401565b16606083015260ff61392960408701613401565b1660808301526001600160a01b039390931660a082015260c001529392505050565b60408152600061395e60408301856133b3565b828103602084015261397081856133b3565b95945050505050565b60006001600160a01b03808816835280871660208401525060a060408301526139a560a08301866133b3565b82810360608401526139b781866133b3565b905082810360808401526139cb8185612f70565b98975050505050505050565b6000602082840312156139e957600080fd5b8151611f6e81612ed2565b600060033d1115613a0d5760046000803e5060005160e01c5b90565b600060443d1015613a1e5790565b6040516003193d81016004833e81513d67ffffffffffffffff8160248401118184111715613a4e57505050505090565b8285019150815181811115613a665750505050505090565b843d8701016020828501011115613a805750505050505090565b613a8f60208286010187612dd3565b509095945050505050565b60006001600160a01b03808816835280871660208401525084604083015283606083015260a06080830152613ad260a0830184612f70565b97965050505050505056fea164736f6c6343000810000a",
  "linkReferences": {},
  "deployedLinkReferences": {}
}