{
  "_format": "hh-sol-artifact-1",
  "contractName": "PhiClaim",
  "sourceName": "contracts/PhiClaim.sol",
  "abi": [
    {
      "inputs": [],
      "stateMutability": "nonpayable",
      "type": "constructor"
    },
    {
      "inputs": [
        {
          "internalType": "address",
          "name": "sender",
          "type": "address"
        },
        {
          "internalType": "uint256",
          "name": "tokenId",
          "type": "uint256"
        }
      ],
      "name": "AllreadyClaimedObject",
      "type": "error"
    },
    {
      "inputs": [
        {
          "internalType": "address",
          "name": "sender",
          "type": "address"
        },
        {
          "internalType": "address",
          "name": "signer",
          "type": "address"
        },
        {
          "internalType": "bytes32",
          "name": "digest",
          "type": "bytes32"
        },
        {
          "components": [
            {
              "internalType": "bytes32",
              "name": "r",
              "type": "bytes32"
            },
            {
              "internalType": "bytes32",
              "name": "s",
              "type": "bytes32"
            },
            {
              "internalType": "uint8",
              "name": "v",
              "type": "uint8"
            }
          ],
          "internalType": "struct PhiClaim.Coupon",
          "name": "coupon",
          "type": "tuple"
        }
      ],
      "name": "ECDSAInvalidSignature",
      "type": "error"
    },
    {
      "inputs": [
        {
          "internalType": "address",
          "name": "sender",
          "type": "address"
        }
      ],
      "name": "NotAdminCall",
      "type": "error"
    },
    {
      "anonymous": false,
      "inputs": [],
      "name": "Hello",
      "type": "event"
    },
    {
      "anonymous": false,
      "inputs": [
        {
          "indexed": false,
          "internalType": "uint8",
          "name": "version",
          "type": "uint8"
        }
      ],
      "name": "Initialized",
      "type": "event"
    },
    {
      "anonymous": false,
      "inputs": [
        {
          "indexed": true,
          "internalType": "address",
          "name": "sender",
          "type": "address"
        },
        {
          "indexed": false,
          "internalType": "uint256",
          "name": "tokenid",
          "type": "uint256"
        }
      ],
      "name": "LogClaimObject",
      "type": "event"
    },
    {
      "anonymous": false,
      "inputs": [
        {
          "indexed": true,
          "internalType": "bytes32",
          "name": "role",
          "type": "bytes32"
        },
        {
          "indexed": true,
          "internalType": "bytes32",
          "name": "previousAdminRole",
          "type": "bytes32"
        },
        {
          "indexed": true,
          "internalType": "bytes32",
          "name": "newAdminRole",
          "type": "bytes32"
        }
      ],
      "name": "RoleAdminChanged",
      "type": "event"
    },
    {
      "anonymous": false,
      "inputs": [
        {
          "indexed": true,
          "internalType": "bytes32",
          "name": "role",
          "type": "bytes32"
        },
        {
          "indexed": true,
          "internalType": "address",
          "name": "account",
          "type": "address"
        },
        {
          "indexed": true,
          "internalType": "address",
          "name": "sender",
          "type": "address"
        }
      ],
      "name": "RoleGranted",
      "type": "event"
    },
    {
      "anonymous": false,
      "inputs": [
        {
          "indexed": true,
          "internalType": "bytes32",
          "name": "role",
          "type": "bytes32"
        },
        {
          "indexed": true,
          "internalType": "address",
          "name": "account",
          "type": "address"
        },
        {
          "indexed": true,
          "internalType": "address",
          "name": "sender",
          "type": "address"
        }
      ],
      "name": "RoleRevoked",
      "type": "event"
    },
    {
      "anonymous": false,
      "inputs": [
        {
          "indexed": true,
          "internalType": "address",
          "name": "verifierAddress",
          "type": "address"
        }
      ],
      "name": "SetAdminSigner",
      "type": "event"
    },
    {
      "anonymous": false,
      "inputs": [
        {
          "indexed": false,
          "internalType": "string",
          "name": "condition",
          "type": "string"
        },
        {
          "indexed": false,
          "internalType": "uint256",
          "name": "tokenid",
          "type": "uint256"
        }
      ],
      "name": "SetCoupon",
      "type": "event"
    },
    {
      "inputs": [],
      "name": "DEFAULT_ADMIN_ROLE",
      "outputs": [
        {
          "internalType": "bytes32",
          "name": "",
          "type": "bytes32"
        }
      ],
      "stateMutability": "view",
      "type": "function"
    },
    {
      "inputs": [
        {
          "internalType": "address",
          "name": "sender",
          "type": "address"
        },
        {
          "internalType": "address",
          "name": "contractAddress",
          "type": "address"
        },
        {
          "internalType": "uint256",
          "name": "tokenId",
          "type": "uint256"
        }
      ],
      "name": "checkClaimedStatus",
      "outputs": [
        {
          "internalType": "uint256",
          "name": "",
          "type": "uint256"
        }
      ],
      "stateMutability": "view",
      "type": "function"
    },
    {
      "inputs": [
        {
          "internalType": "address",
          "name": "contractAddress",
          "type": "address"
        },
        {
          "internalType": "uint256",
          "name": "tokenId",
          "type": "uint256"
        },
        {
          "internalType": "string",
          "name": "condition",
          "type": "string"
        },
        {
          "components": [
            {
              "internalType": "bytes32",
              "name": "r",
              "type": "bytes32"
            },
            {
              "internalType": "bytes32",
              "name": "s",
              "type": "bytes32"
            },
            {
              "internalType": "uint8",
              "name": "v",
              "type": "uint8"
            }
          ],
          "internalType": "struct PhiClaim.Coupon",
          "name": "coupon",
          "type": "tuple"
        }
      ],
      "name": "claimQuestObject",
      "outputs": [],
      "stateMutability": "nonpayable",
      "type": "function"
    },
    {
      "inputs": [],
      "name": "getAdminSigner",
      "outputs": [
        {
          "internalType": "address",
          "name": "",
          "type": "address"
        }
      ],
      "stateMutability": "view",
      "type": "function"
    },
    {
      "inputs": [
        {
          "internalType": "string",
          "name": "condition",
          "type": "string"
        }
      ],
      "name": "getCouponType",
      "outputs": [
        {
          "internalType": "uint256",
          "name": "",
          "type": "uint256"
        }
      ],
      "stateMutability": "view",
      "type": "function"
    },
    {
      "inputs": [
        {
          "internalType": "bytes32",
          "name": "role",
          "type": "bytes32"
        }
      ],
      "name": "getRoleAdmin",
      "outputs": [
        {
          "internalType": "bytes32",
          "name": "",
          "type": "bytes32"
        }
      ],
      "stateMutability": "view",
      "type": "function"
    },
    {
      "inputs": [
        {
          "internalType": "bytes32",
          "name": "role",
          "type": "bytes32"
        },
        {
          "internalType": "address",
          "name": "account",
          "type": "address"
        }
      ],
      "name": "grantRole",
      "outputs": [],
      "stateMutability": "nonpayable",
      "type": "function"
    },
    {
      "inputs": [
        {
          "internalType": "bytes32",
          "name": "role",
          "type": "bytes32"
        },
        {
          "internalType": "address",
          "name": "account",
          "type": "address"
        }
      ],
      "name": "hasRole",
      "outputs": [
        {
          "internalType": "bool",
          "name": "",
          "type": "bool"
        }
      ],
      "stateMutability": "view",
      "type": "function"
    },
    {
      "inputs": [
        {
          "internalType": "address",
          "name": "admin",
          "type": "address"
        },
        {
          "internalType": "address",
          "name": "adminSigner",
          "type": "address"
        }
      ],
      "name": "initialize",
      "outputs": [],
      "stateMutability": "nonpayable",
      "type": "function"
    },
    {
      "inputs": [
        {
          "internalType": "address",
          "name": "",
          "type": "address"
        },
        {
          "internalType": "address",
          "name": "",
          "type": "address"
        },
        {
          "internalType": "uint256",
          "name": "",
          "type": "uint256"
        }
      ],
      "name": "phiClaimedLists",
      "outputs": [
        {
          "internalType": "uint256",
          "name": "",
          "type": "uint256"
        }
      ],
      "stateMutability": "view",
      "type": "function"
    },
    {
      "inputs": [
        {
          "internalType": "bytes32",
          "name": "role",
          "type": "bytes32"
        },
        {
          "internalType": "address",
          "name": "account",
          "type": "address"
        }
      ],
      "name": "renounceRole",
      "outputs": [],
      "stateMutability": "nonpayable",
      "type": "function"
    },
    {
      "inputs": [
        {
          "internalType": "bytes32",
          "name": "role",
          "type": "bytes32"
        },
        {
          "internalType": "address",
          "name": "account",
          "type": "address"
        }
      ],
      "name": "revokeRole",
      "outputs": [],
      "stateMutability": "nonpayable",
      "type": "function"
    },
    {
      "inputs": [
        {
          "internalType": "address",
          "name": "verifierAdderss",
          "type": "address"
        }
      ],
      "name": "setAdminSigner",
      "outputs": [],
      "stateMutability": "nonpayable",
      "type": "function"
    },
    {
      "inputs": [
        {
          "internalType": "string",
          "name": "condition",
          "type": "string"
        },
        {
          "internalType": "uint256",
          "name": "tokenId",
          "type": "uint256"
        }
      ],
      "name": "setCouponType",
      "outputs": [],
      "stateMutability": "nonpayable",
      "type": "function"
    },
    {
      "inputs": [
        {
          "internalType": "bytes4",
          "name": "interfaceId",
          "type": "bytes4"
        }
      ],
      "name": "supportsInterface",
      "outputs": [
        {
          "internalType": "bool",
          "name": "",
          "type": "bool"
        }
      ],
      "stateMutability": "view",
      "type": "function"
    }
  ],
  "bytecode": "0x60806040523480156200001157600080fd5b50600062000020600162000087565b9050801562000039576000805461ff0019166101001790555b801562000080576000805461ff0019169055604051600181527f7f26b83ff96e1f2b6a682f133852f6798a09c465da95921460cefb38474024989060200160405180910390a15b50620001a8565b60008054610100900460ff161562000120578160ff166001148015620000c05750620000be306200019960201b620009031760201c565b155b620001185760405162461bcd60e51b815260206004820152602e6024820152600080516020620015a283398151915260448201526d191e481a5b9a5d1a585b1a5e995960921b60648201526084015b60405180910390fd5b506000919050565b60005460ff8084169116106200017f5760405162461bcd60e51b815260206004820152602e6024820152600080516020620015a283398151915260448201526d191e481a5b9a5d1a585b1a5e995960921b60648201526084016200010f565b506000805460ff191660ff92909216919091179055600190565b6001600160a01b03163b151590565b6113ea80620001b86000396000f3fe608060405234801561001057600080fd5b50600436106100f55760003560e01c806391d1485411610097578063b6e9201011610066578063b6e9201014610223578063cb568fd414610254578063d547741f14610267578063d61108331461027a57600080fd5b806391d14854146101b457806392ca3180146101ed578063a217fddf14610200578063a4cfd20a1461020857600080fd5b8063248a9ca3116100d3578063248a9ca31461014a5780632f2ff15d1461017b57806336568abe1461018e578063485cc955146101a157600080fd5b806301ffc9a7146100fa5780630c01a2fd14610122578063183bbe8014610137575b600080fd5b61010d610108366004610f07565b6102ba565b60405190151581526020015b60405180910390f35b610135610130366004610f87565b6102f1565b005b610135610145366004611061565b61052d565b61016d61015836600461107c565b60009081526065602052604090206001015490565b604051908152602001610119565b610135610189366004611095565b610637565b61013561019c366004611095565b610661565b6101356101af3660046110c1565b6106ed565b61010d6101c2366004611095565b60009182526065602090815260408084206001600160a01b0393909316845291905290205460ff1690565b61016d6101fb366004611178565b61081a565b61016d600081565b6097546040516001600160a01b039091168152602001610119565b61016d6102313660046111b5565b609960209081526000938452604080852082529284528284209052825290205481565b6101356102623660046111f1565b610842565b610135610275366004611095565b6108de565b61016d6102883660046111b5565b6001600160a01b0392831660009081526099602090815260408083209490951682529283528381209181529152205490565b60006001600160e01b03198216637965db0b60e01b14806102eb57506301ffc9a760e01b6001600160e01b03198316145b92915050565b3360009081526099602090815260408083206001600160a01b03891684528252808320878452909152902054859085906000190161035057604051636ed7bf2b60e11b8152336004820152602481018290526044015b60405180910390fd5b33321461035c57600080fd5b609a858560405161036e929190611236565b908152602001604051809103902054861461038857600080fd5b6000879050600088609a88886040516103a2929190611236565b9081526020016040518091039020546103b83390565b604080516001600160a01b0394851660208201529081019290925290911660608201526080016040516020818303038152906040528051906020012090506104008186610912565b61044c5760405162461bcd60e51b815260206004820152600e60248201527f496e76616c696420636f75706f6e0000000000000000000000000000000000006044820152606401610347565b3360008181526099602090815260408083206001600160a01b038e811685529083528184208d85529092528083206001905580516303e09ed960e21b81526004810194909452602484018c90525190851692630f827b6492604480830193919282900301818387803b1580156104c157600080fd5b505af11580156104d5573d6000803e3d6000fd5b505050506104e03390565b6001600160a01b03167fa7257a8b02d81b3fb6715b360a5b4f02dcdc4a4b36e79108b7738ee77706d8cb8960405161051a91815260200190565b60405180910390a2505050505050505050565b3360009081527fffdfc1249c027f9191656349feb0761381bb32c9f557e01f419fd08754bf5a1b602052604090205460ff1661058a57335b604051631a35241360e31b81526001600160a01b039091166004820152602401610347565b6001600160a01b0381166105e05760405162461bcd60e51b815260206004820152601360248201527f63616e74207365742061646472657373283029000000000000000000000000006044820152606401610347565b6097805473ffffffffffffffffffffffffffffffffffffffff19166001600160a01b0383169081179091556040517fe962aa622975becd620ca7b16db507022a2b43cc5657b30c4b907a7ecfb8042590600090a250565b60008281526065602052604090206001015461065281610a01565b61065c8383610a0e565b505050565b6001600160a01b03811633146106df5760405162461bcd60e51b815260206004820152602f60248201527f416363657373436f6e74726f6c3a2063616e206f6e6c792072656e6f756e636560448201527f20726f6c657320666f722073656c6600000000000000000000000000000000006064820152608401610347565b6106e98282610ab0565b5050565b60006106f96001610b33565b90508015610711576000805461ff0019166101001790555b6001600160a01b0382166107675760405162461bcd60e51b815260206004820152601260248201527f63616e74207365742061646472657373203000000000000000000000000000006044820152606401610347565b6097805473ffffffffffffffffffffffffffffffffffffffff19166001600160a01b038416179055610797610c4e565b6107a2600084610ccd565b600060988190556040517fbcdfe0d5b27dd186282e187525415c57ea3077c34efb39148111e4d342e7ab0e9190a1801561065c576000805461ff0019169055604051600181527f7f26b83ff96e1f2b6a682f133852f6798a09c465da95921460cefb38474024989060200160405180910390a1505050565b6000609a8260405161082c919061126a565b9081526020016040518091039020549050919050565b3360009081527fffdfc1249c027f9191656349feb0761381bb32c9f557e01f419fd08754bf5a1b602052604090205460ff1661087e5733610565565b80609a8360405161088f919061126a565b9081526020016040518091039020819055507fd48ea628c05cf728666ea64aa7f8a243f1b39c14c572c1bfffb231d92cba27f182826040516108d29291906112b2565b60405180910390a15050565b6000828152606560205260409020600101546108f981610a01565b61065c8383610ab0565b6001600160a01b03163b151590565b6000806001848460400151856000015186602001516040516000815260200160405260405161095d949392919093845260ff9290921660208401526040830152606082015260800190565b6020604051602081039080840390855afa15801561097f573d6000803e3d6000fd5b5050604051601f1901519150506001600160a01b0381166109e9576040805163d1c36d9d60e01b81523360048201526001600160a01b03831660248201526044810186905284516064820152602085015160848201529084015160ff1660a482015260c401610347565b6097546001600160a01b039081169116149392505050565b610a0b8133610cd7565b50565b60008281526065602090815260408083206001600160a01b038516845290915290205460ff166106e95760008281526065602090815260408083206001600160a01b03851684529091529020805460ff19166001179055610a6c3390565b6001600160a01b0316816001600160a01b0316837f2f8788117e7eff1d82e926ec794901d17c78024a50270940304540a733656f0d60405160405180910390a45050565b60008281526065602090815260408083206001600160a01b038516845290915290205460ff16156106e95760008281526065602090815260408083206001600160a01b0385168085529252808320805460ff1916905551339285917ff6391f5c32d9c69d2a47ea670b442974b53935d1edc7fd64eb21e047a839171b9190a45050565b60008054610100900460ff1615610bc1578160ff166001148015610b565750303b155b610bb95760405162461bcd60e51b815260206004820152602e60248201527f496e697469616c697a61626c653a20636f6e747261637420697320616c72656160448201526d191e481a5b9a5d1a585b1a5e995960921b6064820152608401610347565b506000919050565b60005460ff808416911610610c2f5760405162461bcd60e51b815260206004820152602e60248201527f496e697469616c697a61626c653a20636f6e747261637420697320616c72656160448201526d191e481a5b9a5d1a585b1a5e995960921b6064820152608401610347565b506000805460ff191660ff92909216919091179055600190565b919050565b600054610100900460ff16610ccb5760405162461bcd60e51b815260206004820152602b60248201527f496e697469616c697a61626c653a20636f6e7472616374206973206e6f74206960448201527f6e697469616c697a696e670000000000000000000000000000000000000000006064820152608401610347565b565b6106e98282610a0e565b60008281526065602090815260408083206001600160a01b038516845290915290205460ff166106e957610d15816001600160a01b03166014610d57565b610d20836020610d57565b604051602001610d319291906112d4565b60408051601f198184030181529082905262461bcd60e51b825261034791600401611355565b60606000610d6683600261137e565b610d7190600261139d565b67ffffffffffffffff811115610d8957610d89610f48565b6040519080825280601f01601f191660200182016040528015610db3576020820181803683370190505b509050600360fc1b81600081518110610dce57610dce6113b0565b60200101906001600160f81b031916908160001a905350600f60fb1b81600181518110610dfd57610dfd6113b0565b60200101906001600160f81b031916908160001a9053506000610e2184600261137e565b610e2c90600161139d565b90505b6001811115610eb1577f303132333435363738396162636465660000000000000000000000000000000085600f1660108110610e6d57610e6d6113b0565b1a60f81b828281518110610e8357610e836113b0565b60200101906001600160f81b031916908160001a90535060049490941c93610eaa816113c6565b9050610e2f565b508315610f005760405162461bcd60e51b815260206004820181905260248201527f537472696e67733a20686578206c656e67746820696e73756666696369656e746044820152606401610347565b9392505050565b600060208284031215610f1957600080fd5b81356001600160e01b031981168114610f0057600080fd5b80356001600160a01b0381168114610c4957600080fd5b634e487b7160e01b600052604160045260246000fd5b6040516060810167ffffffffffffffff81118282101715610f8157610f81610f48565b60405290565b600080600080600085870360c0811215610fa057600080fd5b610fa987610f31565b955060208701359450604087013567ffffffffffffffff80821115610fcd57600080fd5b818901915089601f830112610fe157600080fd5b813581811115610ff057600080fd5b8a602082850101111561100257600080fd5b6020929092019550909350506060605f198201121561102057600080fd5b50611029610f5e565b606087013581526080870135602082015260a087013560ff8116811461104e57600080fd5b6040820152949793965091945092919050565b60006020828403121561107357600080fd5b610f0082610f31565b60006020828403121561108e57600080fd5b5035919050565b600080604083850312156110a857600080fd5b823591506110b860208401610f31565b90509250929050565b600080604083850312156110d457600080fd5b6110dd83610f31565b91506110b860208401610f31565b600082601f8301126110fc57600080fd5b813567ffffffffffffffff8082111561111757611117610f48565b604051601f8301601f19908116603f0116810190828211818310171561113f5761113f610f48565b8160405283815286602085880101111561115857600080fd5b836020870160208301376000602085830101528094505050505092915050565b60006020828403121561118a57600080fd5b813567ffffffffffffffff8111156111a157600080fd5b6111ad848285016110eb565b949350505050565b6000806000606084860312156111ca57600080fd5b6111d384610f31565b92506111e160208501610f31565b9150604084013590509250925092565b6000806040838503121561120457600080fd5b823567ffffffffffffffff81111561121b57600080fd5b611227858286016110eb565b95602094909401359450505050565b8183823760009101908152919050565b60005b83811015611261578181015183820152602001611249565b50506000910152565b6000825161127c818460208701611246565b9190910192915050565b6000815180845261129e816020860160208601611246565b601f01601f19169290920160200192915050565b6040815260006112c56040830185611286565b90508260208301529392505050565b7f416363657373436f6e74726f6c3a206163636f756e742000000000000000000081526000835161130c816017850160208801611246565b7f206973206d697373696e6720726f6c65200000000000000000000000000000006017918401918201528351611349816028840160208801611246565b01602801949350505050565b602081526000610f006020830184611286565b634e487b7160e01b600052601160045260246000fd5b600081600019048311821515161561139857611398611368565b500290565b808201808211156102eb576102eb611368565b634e487b7160e01b600052603260045260246000fd5b6000816113d5576113d5611368565b50600019019056fea164736f6c6343000810000a496e697469616c697a61626c653a20636f6e747261637420697320616c726561",
  "linkReferences": {},
  "deployedLinkReferences": {}
}