{
  "_format": "hh-sol-artifact-1",
  "contractName": "PhiClaim",
  "sourceName": "contracts/PhiClaim.sol",
  "abi": [
    {
      "inputs": [],
      "stateMutability": "nonpayable",
      "type": "constructor"
    },
    {
      "inputs": [
        {
          "internalType": "address",
          "name": "sender",
          "type": "address"
        },
        {
          "internalType": "uint256",
          "name": "tokenId",
          "type": "uint256"
        }
      ],
      "name": "AllreadyClaimedObject",
      "type": "error"
    },
    {
      "inputs": [
        {
          "internalType": "address",
          "name": "sender",
          "type": "address"
        },
        {
          "internalType": "address",
          "name": "signer",
          "type": "address"
        },
        {
          "internalType": "bytes32",
          "name": "digest",
          "type": "bytes32"
        },
        {
          "components": [
            {
              "internalType": "bytes32",
              "name": "r",
              "type": "bytes32"
            },
            {
              "internalType": "bytes32",
              "name": "s",
              "type": "bytes32"
            },
            {
              "internalType": "uint8",
              "name": "v",
              "type": "uint8"
            }
          ],
          "internalType": "struct PhiClaim.Coupon",
          "name": "coupon",
          "type": "tuple"
        }
      ],
      "name": "ECDSAInvalidSignature",
      "type": "error"
    },
    {
      "inputs": [
        {
          "internalType": "address",
          "name": "sender",
          "type": "address"
        }
      ],
      "name": "NotAdminCall",
      "type": "error"
    },
    {
      "anonymous": false,
      "inputs": [],
      "name": "Hello",
      "type": "event"
    },
    {
      "anonymous": false,
      "inputs": [
        {
          "indexed": false,
          "internalType": "uint8",
          "name": "version",
          "type": "uint8"
        }
      ],
      "name": "Initialized",
      "type": "event"
    },
    {
      "anonymous": false,
      "inputs": [
        {
          "indexed": true,
          "internalType": "address",
          "name": "sender",
          "type": "address"
        },
        {
          "indexed": false,
          "internalType": "uint256",
          "name": "tokenid",
          "type": "uint256"
        }
      ],
      "name": "LogClaimObject",
      "type": "event"
    },
    {
      "anonymous": false,
      "inputs": [
        {
          "indexed": true,
          "internalType": "bytes32",
          "name": "role",
          "type": "bytes32"
        },
        {
          "indexed": true,
          "internalType": "bytes32",
          "name": "previousAdminRole",
          "type": "bytes32"
        },
        {
          "indexed": true,
          "internalType": "bytes32",
          "name": "newAdminRole",
          "type": "bytes32"
        }
      ],
      "name": "RoleAdminChanged",
      "type": "event"
    },
    {
      "anonymous": false,
      "inputs": [
        {
          "indexed": true,
          "internalType": "bytes32",
          "name": "role",
          "type": "bytes32"
        },
        {
          "indexed": true,
          "internalType": "address",
          "name": "account",
          "type": "address"
        },
        {
          "indexed": true,
          "internalType": "address",
          "name": "sender",
          "type": "address"
        }
      ],
      "name": "RoleGranted",
      "type": "event"
    },
    {
      "anonymous": false,
      "inputs": [
        {
          "indexed": true,
          "internalType": "bytes32",
          "name": "role",
          "type": "bytes32"
        },
        {
          "indexed": true,
          "internalType": "address",
          "name": "account",
          "type": "address"
        },
        {
          "indexed": true,
          "internalType": "address",
          "name": "sender",
          "type": "address"
        }
      ],
      "name": "RoleRevoked",
      "type": "event"
    },
    {
      "anonymous": false,
      "inputs": [
        {
          "indexed": true,
          "internalType": "address",
          "name": "verifierAddress",
          "type": "address"
        }
      ],
      "name": "SetAdminSigner",
      "type": "event"
    },
    {
      "anonymous": false,
      "inputs": [
        {
          "indexed": false,
          "internalType": "string",
          "name": "condition",
          "type": "string"
        },
        {
          "indexed": false,
          "internalType": "uint256",
          "name": "tokenid",
          "type": "uint256"
        }
      ],
      "name": "SetCoupon",
      "type": "event"
    },
    {
      "inputs": [],
      "name": "DEFAULT_ADMIN_ROLE",
      "outputs": [
        {
          "internalType": "bytes32",
          "name": "",
          "type": "bytes32"
        }
      ],
      "stateMutability": "view",
      "type": "function"
    },
    {
      "inputs": [
        {
          "internalType": "address",
          "name": "sender",
          "type": "address"
        },
        {
          "internalType": "address",
          "name": "contractAddress",
          "type": "address"
        },
        {
          "internalType": "uint256",
          "name": "tokenId",
          "type": "uint256"
        }
      ],
      "name": "checkClaimedStatus",
      "outputs": [
        {
          "internalType": "uint256",
          "name": "",
          "type": "uint256"
        }
      ],
      "stateMutability": "view",
      "type": "function"
    },
    {
      "inputs": [],
      "name": "claimFee",
      "outputs": [
        {
          "internalType": "uint256",
          "name": "",
          "type": "uint256"
        }
      ],
      "stateMutability": "view",
      "type": "function"
    },
    {
      "inputs": [
        {
          "internalType": "address",
          "name": "contractAddress",
          "type": "address"
        },
        {
          "internalType": "uint256",
          "name": "tokenId",
          "type": "uint256"
        },
        {
          "internalType": "string",
          "name": "condition",
          "type": "string"
        },
        {
          "components": [
            {
              "internalType": "bytes32",
              "name": "r",
              "type": "bytes32"
            },
            {
              "internalType": "bytes32",
              "name": "s",
              "type": "bytes32"
            },
            {
              "internalType": "uint8",
              "name": "v",
              "type": "uint8"
            }
          ],
          "internalType": "struct PhiClaim.Coupon",
          "name": "coupon",
          "type": "tuple"
        }
      ],
      "name": "claimQuestObject",
      "outputs": [],
      "stateMutability": "payable",
      "type": "function"
    },
    {
      "inputs": [],
      "name": "getAdminSigner",
      "outputs": [
        {
          "internalType": "address",
          "name": "",
          "type": "address"
        }
      ],
      "stateMutability": "view",
      "type": "function"
    },
    {
      "inputs": [
        {
          "internalType": "string",
          "name": "condition",
          "type": "string"
        }
      ],
      "name": "getCouponType",
      "outputs": [
        {
          "internalType": "uint256",
          "name": "",
          "type": "uint256"
        }
      ],
      "stateMutability": "view",
      "type": "function"
    },
    {
      "inputs": [
        {
          "internalType": "bytes32",
          "name": "role",
          "type": "bytes32"
        }
      ],
      "name": "getRoleAdmin",
      "outputs": [
        {
          "internalType": "bytes32",
          "name": "",
          "type": "bytes32"
        }
      ],
      "stateMutability": "view",
      "type": "function"
    },
    {
      "inputs": [
        {
          "internalType": "bytes32",
          "name": "role",
          "type": "bytes32"
        },
        {
          "internalType": "address",
          "name": "account",
          "type": "address"
        }
      ],
      "name": "grantRole",
      "outputs": [],
      "stateMutability": "nonpayable",
      "type": "function"
    },
    {
      "inputs": [
        {
          "internalType": "bytes32",
          "name": "role",
          "type": "bytes32"
        },
        {
          "internalType": "address",
          "name": "account",
          "type": "address"
        }
      ],
      "name": "hasRole",
      "outputs": [
        {
          "internalType": "bool",
          "name": "",
          "type": "bool"
        }
      ],
      "stateMutability": "view",
      "type": "function"
    },
    {
      "inputs": [
        {
          "internalType": "address",
          "name": "admin",
          "type": "address"
        },
        {
          "internalType": "address",
          "name": "adminSigner",
          "type": "address"
        }
      ],
      "name": "initialize",
      "outputs": [],
      "stateMutability": "nonpayable",
      "type": "function"
    },
    {
      "inputs": [
        {
          "internalType": "address",
          "name": "",
          "type": "address"
        },
        {
          "internalType": "address",
          "name": "",
          "type": "address"
        },
        {
          "internalType": "uint256",
          "name": "",
          "type": "uint256"
        }
      ],
      "name": "phiClaimedLists",
      "outputs": [
        {
          "internalType": "uint256",
          "name": "",
          "type": "uint256"
        }
      ],
      "stateMutability": "view",
      "type": "function"
    },
    {
      "inputs": [
        {
          "internalType": "bytes32",
          "name": "role",
          "type": "bytes32"
        },
        {
          "internalType": "address",
          "name": "account",
          "type": "address"
        }
      ],
      "name": "renounceRole",
      "outputs": [],
      "stateMutability": "nonpayable",
      "type": "function"
    },
    {
      "inputs": [
        {
          "internalType": "bytes32",
          "name": "role",
          "type": "bytes32"
        },
        {
          "internalType": "address",
          "name": "account",
          "type": "address"
        }
      ],
      "name": "revokeRole",
      "outputs": [],
      "stateMutability": "nonpayable",
      "type": "function"
    },
    {
      "inputs": [
        {
          "internalType": "address",
          "name": "verifierAdderss",
          "type": "address"
        }
      ],
      "name": "setAdminSigner",
      "outputs": [],
      "stateMutability": "nonpayable",
      "type": "function"
    },
    {
      "inputs": [
        {
          "internalType": "string",
          "name": "condition",
          "type": "string"
        },
        {
          "internalType": "uint256",
          "name": "tokenId",
          "type": "uint256"
        }
      ],
      "name": "setCouponType",
      "outputs": [],
      "stateMutability": "nonpayable",
      "type": "function"
    },
    {
      "inputs": [
        {
          "internalType": "bytes4",
          "name": "interfaceId",
          "type": "bytes4"
        }
      ],
      "name": "supportsInterface",
      "outputs": [
        {
          "internalType": "bool",
          "name": "",
          "type": "bool"
        }
      ],
      "stateMutability": "view",
      "type": "function"
    },
    {
      "inputs": [],
      "name": "treasuryAddress",
      "outputs": [
        {
          "internalType": "address payable",
          "name": "",
          "type": "address"
        }
      ],
      "stateMutability": "view",
      "type": "function"
    },
    {
      "inputs": [
        {
          "internalType": "uint256",
          "name": "newClaimFee",
          "type": "uint256"
        }
      ],
      "name": "updateFee",
      "outputs": [],
      "stateMutability": "nonpayable",
      "type": "function"
    },
    {
      "inputs": [
        {
          "internalType": "address payable",
          "name": "newTreasuryAddress",
          "type": "address"
        }
      ],
      "name": "updateTreasuryAddress",
      "outputs": [],
      "stateMutability": "nonpayable",
      "type": "function"
    }
  ],
  "bytecode": "0x60806040523480156200001157600080fd5b50600062000020600162000087565b9050801562000039576000805461ff0019166101001790555b801562000080576000805461ff0019169055604051600181527f7f26b83ff96e1f2b6a682f133852f6798a09c465da95921460cefb38474024989060200160405180910390a15b50620001a8565b60008054610100900460ff161562000120578160ff166001148015620000c05750620000be306200019960201b62000c631760201c565b155b620001185760405162461bcd60e51b815260206004820152602e602482015260008051602062001b7d83398151915260448201526d191e481a5b9a5d1a585b1a5e995960921b60648201526084015b60405180910390fd5b506000919050565b60005460ff8084169116106200017f5760405162461bcd60e51b815260206004820152602e602482015260008051602062001b7d83398151915260448201526d191e481a5b9a5d1a585b1a5e995960921b60648201526084016200010f565b506000805460ff191660ff92909216919091179055600190565b6001600160a01b03163b151590565b6119c580620001b86000396000f3fe6080604052600436106101445760003560e01c806391d14854116100c0578063b6e9201011610074578063cb568fd411610059578063cb568fd4146103b2578063d547741f146103d2578063d6110833146103f257600080fd5b8063b6e9201014610354578063c5f956af1461039257600080fd5b806399d32fc4116100a557806399d32fc4146102f7578063a217fddf1461030d578063a4cfd20a1461032257600080fd5b806391d148541461029157806392ca3180146102d757600080fd5b80632f2ff15d11610117578063485cc955116100fc578063485cc95514610231578063841e4561146102515780639012c4a81461027157600080fd5b80632f2ff15d146101f157806336568abe1461021157600080fd5b806301ffc9a7146101495780630c01a2fd1461017e578063183bbe8014610193578063248a9ca3146101b3575b600080fd5b34801561015557600080fd5b506101696101643660046114d0565b61043f565b60405190151581526020015b60405180910390f35b61019161018c366004611525565b610476565b005b34801561019f57600080fd5b506101916101ae366004611617565b61078b565b3480156101bf57600080fd5b506101e36101ce366004611634565b60009081526065602052604090206001015490565b604051908152602001610175565b3480156101fd57600080fd5b5061019161020c36600461164d565b610895565b34801561021d57600080fd5b5061019161022c36600461164d565b6108bf565b34801561023d57600080fd5b5061019161024c36600461167d565b61094b565b34801561025d57600080fd5b5061019161026c366004611617565b610a78565b34801561027d57600080fd5b5061019161028c366004611634565b610b39565b34801561029d57600080fd5b506101696102ac36600461164d565b60009182526065602090815260408084206001600160a01b0393909316845291905290205460ff1690565b3480156102e357600080fd5b506101e36102f2366004611738565b610b7a565b34801561030357600080fd5b506101e3609b5481565b34801561031957600080fd5b506101e3600081565b34801561032e57600080fd5b506097546001600160a01b03165b6040516001600160a01b039091168152602001610175565b34801561036057600080fd5b506101e361036f366004611775565b609960209081526000938452604080852082529284528284209052825290205481565b34801561039e57600080fd5b50609c5461033c906001600160a01b031681565b3480156103be57600080fd5b506101916103cd3660046117b6565b610ba2565b3480156103de57600080fd5b506101916103ed36600461164d565b610c3e565b3480156103fe57600080fd5b506101e361040d366004611775565b6001600160a01b0392831660009081526099602090815260408083209490951682529283528381209181529152205490565b60006001600160e01b03198216637965db0b60e01b148061047057506301ffc9a760e01b6001600160e01b03198316145b92915050565b3360009081526099602090815260408083206001600160a01b0389168452825280832087845290915290205485908590600019016104d557604051636ed7bf2b60e11b8152336004820152602481018290526044015b60405180910390fd5b609b5434146105265760405162461bcd60e51b815260206004820152601460248201527f496e636f72726563742066656520616d6f756e7400000000000000000000000060448201526064016104cc565b609a85856040516105389291906117fb565b908152602001604051809103902054861461055257600080fd5b6000879050600088609a888860405161056c9291906117fb565b9081526020016040518091039020546105823390565b604080516001600160a01b0394851660208201529081019290925290911660608201526080016040516020818303038152906040528051906020012090506105ca8186610c72565b6106165760405162461bcd60e51b815260206004820152600e60248201527f496e76616c696420636f75706f6e00000000000000000000000000000000000060448201526064016104cc565b3360008181526099602090815260408083206001600160a01b038e811685529083528184208d85529092528083206001905580516303e09ed960e21b81526004810194909452602484018c90525190851692630f827b6492604480830193919282900301818387803b15801561068b57600080fd5b505af115801561069f573d6000803e3d6000fd5b5050609c54609b54604051600094506001600160a01b039092169250908381818185875af1925050503d80600081146106f4576040519150601f19603f3d011682016040523d82523d6000602084013e6106f9565b606091505b505090508061074a5760405162461bcd60e51b815260206004820152601460248201527f4661696c656420746f2073656e64204d6174696300000000000000000000000060448201526064016104cc565b60405189815233907fa7257a8b02d81b3fb6715b360a5b4f02dcdc4a4b36e79108b7738ee77706d8cb9060200160405180910390a250505050505050505050565b3360009081527fffdfc1249c027f9191656349feb0761381bb32c9f557e01f419fd08754bf5a1b602052604090205460ff166107e857335b604051631a35241360e31b81526001600160a01b0390911660048201526024016104cc565b6001600160a01b03811661083e5760405162461bcd60e51b815260206004820152601360248201527f63616e742073657420616464726573732830290000000000000000000000000060448201526064016104cc565b6097805473ffffffffffffffffffffffffffffffffffffffff19166001600160a01b0383169081179091556040517fe962aa622975becd620ca7b16db507022a2b43cc5657b30c4b907a7ecfb8042590600090a250565b6000828152606560205260409020600101546108b081610d04565b6108ba8383610d11565b505050565b6001600160a01b038116331461093d5760405162461bcd60e51b815260206004820152602f60248201527f416363657373436f6e74726f6c3a2063616e206f6e6c792072656e6f756e636560448201527f20726f6c657320666f722073656c66000000000000000000000000000000000060648201526084016104cc565b6109478282610db3565b5050565b60006109576001610e36565b9050801561096f576000805461ff0019166101001790555b6001600160a01b0382166109c55760405162461bcd60e51b815260206004820152601260248201527f63616e742073657420616464726573732030000000000000000000000000000060448201526064016104cc565b6097805473ffffffffffffffffffffffffffffffffffffffff19166001600160a01b0384161790556109f5610f4c565b610a00600084610fcb565b600060988190556040517fbcdfe0d5b27dd186282e187525415c57ea3077c34efb39148111e4d342e7ab0e9190a180156108ba576000805461ff0019169055604051600181527f7f26b83ff96e1f2b6a682f133852f6798a09c465da95921460cefb38474024989060200160405180910390a1505050565b3360009081527fffdfc1249c027f9191656349feb0761381bb32c9f557e01f419fd08754bf5a1b602052604090205460ff16610ab457336107c3565b6001600160a01b038116610b0a5760405162461bcd60e51b815260206004820152601360248201527f63616e742073657420616464726573732830290000000000000000000000000060448201526064016104cc565b609c805473ffffffffffffffffffffffffffffffffffffffff19166001600160a01b0392909216919091179055565b3360009081527fffdfc1249c027f9191656349feb0761381bb32c9f557e01f419fd08754bf5a1b602052604090205460ff16610b7557336107c3565b609b55565b6000609a82604051610b8c919061182f565b9081526020016040518091039020549050919050565b3360009081527fffdfc1249c027f9191656349feb0761381bb32c9f557e01f419fd08754bf5a1b602052604090205460ff16610bde57336107c3565b80609a83604051610bef919061182f565b9081526020016040518091039020819055507fd48ea628c05cf728666ea64aa7f8a243f1b39c14c572c1bfffb231d92cba27f18282604051610c32929190611877565b60405180910390a15050565b600082815260656020526040902060010154610c5981610d04565b6108ba8383610db3565b6001600160a01b03163b151590565b600080610c8d84846040015185600001518660200151610fd5565b90506001600160a01b038116610cec576040805163d1c36d9d60e01b81523360048201526001600160a01b03831660248201526044810186905284516064820152602085015160848201529084015160ff1660a482015260c4016104cc565b6097546001600160a01b039081169116149392505050565b610d0e8133610ffd565b50565b60008281526065602090815260408083206001600160a01b038516845290915290205460ff166109475760008281526065602090815260408083206001600160a01b03851684529091529020805460ff19166001179055610d6f3390565b6001600160a01b0316816001600160a01b0316837f2f8788117e7eff1d82e926ec794901d17c78024a50270940304540a733656f0d60405160405180910390a45050565b60008281526065602090815260408083206001600160a01b038516845290915290205460ff16156109475760008281526065602090815260408083206001600160a01b0385168085529252808320805460ff1916905551339285917ff6391f5c32d9c69d2a47ea670b442974b53935d1edc7fd64eb21e047a839171b9190a45050565b60008054610100900460ff1615610ec4578160ff166001148015610e595750303b155b610ebc5760405162461bcd60e51b815260206004820152602e60248201527f496e697469616c697a61626c653a20636f6e747261637420697320616c72656160448201526d191e481a5b9a5d1a585b1a5e995960921b60648201526084016104cc565b506000919050565b60005460ff808416911610610f325760405162461bcd60e51b815260206004820152602e60248201527f496e697469616c697a61626c653a20636f6e747261637420697320616c72656160448201526d191e481a5b9a5d1a585b1a5e995960921b60648201526084016104cc565b506000805460ff191660ff92909216919091179055600190565b600054610100900460ff16610fc95760405162461bcd60e51b815260206004820152602b60248201527f496e697469616c697a61626c653a20636f6e7472616374206973206e6f74206960448201527f6e697469616c697a696e6700000000000000000000000000000000000000000060648201526084016104cc565b565b6109478282610d11565b6000806000610fe68787878761107d565b91509150610ff38161116a565b5095945050505050565b60008281526065602090815260408083206001600160a01b038516845290915290205460ff166109475761103b816001600160a01b03166014611320565b611046836020611320565b604051602001611057929190611899565b60408051601f198184030181529082905262461bcd60e51b82526104cc9160040161191a565b6000807f7fffffffffffffffffffffffffffffff5d576e7357a4501ddfe92f46681b20a08311156110b45750600090506003611161565b8460ff16601b141580156110cc57508460ff16601c14155b156110dd5750600090506004611161565b6040805160008082526020820180845289905260ff881692820192909252606081018690526080810185905260019060a0016020604051602081039080840390855afa158015611131573d6000803e3d6000fd5b5050604051601f1901519150506001600160a01b03811661115a57600060019250925050611161565b9150600090505b94509492505050565b600081600481111561117e5761117e61192d565b036111865750565b600181600481111561119a5761119a61192d565b036111e75760405162461bcd60e51b815260206004820152601860248201527f45434453413a20696e76616c6964207369676e6174757265000000000000000060448201526064016104cc565b60028160048111156111fb576111fb61192d565b036112485760405162461bcd60e51b815260206004820152601f60248201527f45434453413a20696e76616c6964207369676e6174757265206c656e6774680060448201526064016104cc565b600381600481111561125c5761125c61192d565b036112b45760405162461bcd60e51b815260206004820152602260248201527f45434453413a20696e76616c6964207369676e6174757265202773272076616c604482015261756560f01b60648201526084016104cc565b60048160048111156112c8576112c861192d565b03610d0e5760405162461bcd60e51b815260206004820152602260248201527f45434453413a20696e76616c6964207369676e6174757265202776272076616c604482015261756560f01b60648201526084016104cc565b6060600061132f836002611959565b61133a906002611978565b67ffffffffffffffff8111156113525761135261150f565b6040519080825280601f01601f19166020018201604052801561137c576020820181803683370190505b509050600360fc1b816000815181106113975761139761198b565b60200101906001600160f81b031916908160001a905350600f60fb1b816001815181106113c6576113c661198b565b60200101906001600160f81b031916908160001a90535060006113ea846002611959565b6113f5906001611978565b90505b600181111561147a577f303132333435363738396162636465660000000000000000000000000000000085600f16601081106114365761143661198b565b1a60f81b82828151811061144c5761144c61198b565b60200101906001600160f81b031916908160001a90535060049490941c93611473816119a1565b90506113f8565b5083156114c95760405162461bcd60e51b815260206004820181905260248201527f537472696e67733a20686578206c656e67746820696e73756666696369656e7460448201526064016104cc565b9392505050565b6000602082840312156114e257600080fd5b81356001600160e01b0319811681146114c957600080fd5b6001600160a01b0381168114610d0e57600080fd5b634e487b7160e01b600052604160045260246000fd5b600080600080600085870360c081121561153e57600080fd5b8635611549816114fa565b955060208701359450604087013567ffffffffffffffff8082111561156d57600080fd5b818901915089601f83011261158157600080fd5b81358181111561159057600080fd5b8a60208285010111156115a257600080fd5b60208301965094506060605f19840112156115bc57600080fd5b604051925060608301915082821081831117156115db576115db61150f565b50604052606087013581526080870135602082015260a087013560ff8116811461160457600080fd5b6040820152949793965091945092919050565b60006020828403121561162957600080fd5b81356114c9816114fa565b60006020828403121561164657600080fd5b5035919050565b6000806040838503121561166057600080fd5b823591506020830135611672816114fa565b809150509250929050565b6000806040838503121561169057600080fd5b823561169b816114fa565b91506020830135611672816114fa565b600082601f8301126116bc57600080fd5b813567ffffffffffffffff808211156116d7576116d761150f565b604051601f8301601f19908116603f011681019082821181831017156116ff576116ff61150f565b8160405283815286602085880101111561171857600080fd5b836020870160208301376000602085830101528094505050505092915050565b60006020828403121561174a57600080fd5b813567ffffffffffffffff81111561176157600080fd5b61176d848285016116ab565b949350505050565b60008060006060848603121561178a57600080fd5b8335611795816114fa565b925060208401356117a5816114fa565b929592945050506040919091013590565b600080604083850312156117c957600080fd5b823567ffffffffffffffff8111156117e057600080fd5b6117ec858286016116ab565b95602094909401359450505050565b8183823760009101908152919050565b60005b8381101561182657818101518382015260200161180e565b50506000910152565b6000825161184181846020870161180b565b9190910192915050565b6000815180845261186381602086016020860161180b565b601f01601f19169290920160200192915050565b60408152600061188a604083018561184b565b90508260208301529392505050565b7f416363657373436f6e74726f6c3a206163636f756e74200000000000000000008152600083516118d181601785016020880161180b565b7f206973206d697373696e6720726f6c6520000000000000000000000000000000601791840191820152835161190e81602884016020880161180b565b01602801949350505050565b6020815260006114c9602083018461184b565b634e487b7160e01b600052602160045260246000fd5b634e487b7160e01b600052601160045260246000fd5b600081600019048311821515161561197357611973611943565b500290565b8082018082111561047057610470611943565b634e487b7160e01b600052603260045260246000fd5b6000816119b0576119b0611943565b50600019019056fea164736f6c6343000810000a496e697469616c697a61626c653a20636f6e747261637420697320616c726561",
  "linkReferences": {},
  "deployedLinkReferences": {}
}