{
  "_format": "hh-sol-artifact-1",
  "contractName": "PhiClaim",
  "sourceName": "contracts/PhiClaim.sol",
  "abi": [
    {
      "inputs": [],
      "stateMutability": "nonpayable",
      "type": "constructor"
    },
    {
      "inputs": [
        {
          "internalType": "address",
          "name": "sender",
          "type": "address"
        },
        {
          "internalType": "uint256",
          "name": "tokenId",
          "type": "uint256"
        }
      ],
      "name": "AllreadyClaimedObject",
      "type": "error"
    },
    {
      "inputs": [
        {
          "internalType": "address",
          "name": "sender",
          "type": "address"
        },
        {
          "internalType": "address",
          "name": "signer",
          "type": "address"
        },
        {
          "internalType": "bytes32",
          "name": "digest",
          "type": "bytes32"
        },
        {
          "components": [
            {
              "internalType": "bytes32",
              "name": "r",
              "type": "bytes32"
            },
            {
              "internalType": "bytes32",
              "name": "s",
              "type": "bytes32"
            },
            {
              "internalType": "uint8",
              "name": "v",
              "type": "uint8"
            }
          ],
          "internalType": "struct PhiClaim.Coupon",
          "name": "coupon",
          "type": "tuple"
        }
      ],
      "name": "ECDSAInvalidSignature",
      "type": "error"
    },
    {
      "inputs": [
        {
          "internalType": "address",
          "name": "sender",
          "type": "address"
        }
      ],
      "name": "NotAdminCall",
      "type": "error"
    },
    {
      "anonymous": false,
      "inputs": [],
      "name": "Hello",
      "type": "event"
    },
    {
      "anonymous": false,
      "inputs": [
        {
          "indexed": false,
          "internalType": "uint8",
          "name": "version",
          "type": "uint8"
        }
      ],
      "name": "Initialized",
      "type": "event"
    },
    {
      "anonymous": false,
      "inputs": [
        {
          "indexed": true,
          "internalType": "address",
          "name": "sender",
          "type": "address"
        },
        {
          "indexed": false,
          "internalType": "uint256",
          "name": "tokenid",
          "type": "uint256"
        }
      ],
      "name": "LogClaimObject",
      "type": "event"
    },
    {
      "anonymous": false,
      "inputs": [
        {
          "indexed": true,
          "internalType": "bytes32",
          "name": "role",
          "type": "bytes32"
        },
        {
          "indexed": true,
          "internalType": "bytes32",
          "name": "previousAdminRole",
          "type": "bytes32"
        },
        {
          "indexed": true,
          "internalType": "bytes32",
          "name": "newAdminRole",
          "type": "bytes32"
        }
      ],
      "name": "RoleAdminChanged",
      "type": "event"
    },
    {
      "anonymous": false,
      "inputs": [
        {
          "indexed": true,
          "internalType": "bytes32",
          "name": "role",
          "type": "bytes32"
        },
        {
          "indexed": true,
          "internalType": "address",
          "name": "account",
          "type": "address"
        },
        {
          "indexed": true,
          "internalType": "address",
          "name": "sender",
          "type": "address"
        }
      ],
      "name": "RoleGranted",
      "type": "event"
    },
    {
      "anonymous": false,
      "inputs": [
        {
          "indexed": true,
          "internalType": "bytes32",
          "name": "role",
          "type": "bytes32"
        },
        {
          "indexed": true,
          "internalType": "address",
          "name": "account",
          "type": "address"
        },
        {
          "indexed": true,
          "internalType": "address",
          "name": "sender",
          "type": "address"
        }
      ],
      "name": "RoleRevoked",
      "type": "event"
    },
    {
      "anonymous": false,
      "inputs": [
        {
          "indexed": true,
          "internalType": "address",
          "name": "verifierAddress",
          "type": "address"
        }
      ],
      "name": "SetAdminSigner",
      "type": "event"
    },
    {
      "anonymous": false,
      "inputs": [
        {
          "indexed": false,
          "internalType": "string",
          "name": "condition",
          "type": "string"
        },
        {
          "indexed": false,
          "internalType": "uint256",
          "name": "tokenid",
          "type": "uint256"
        }
      ],
      "name": "SetCoupon",
      "type": "event"
    },
    {
      "inputs": [],
      "name": "DEFAULT_ADMIN_ROLE",
      "outputs": [
        {
          "internalType": "bytes32",
          "name": "",
          "type": "bytes32"
        }
      ],
      "stateMutability": "view",
      "type": "function"
    },
    {
      "inputs": [
        {
          "internalType": "address",
          "name": "sender",
          "type": "address"
        },
        {
          "internalType": "address",
          "name": "contractAddress",
          "type": "address"
        },
        {
          "internalType": "uint256",
          "name": "tokenId",
          "type": "uint256"
        }
      ],
      "name": "checkClaimedStatus",
      "outputs": [
        {
          "internalType": "uint256",
          "name": "",
          "type": "uint256"
        }
      ],
      "stateMutability": "view",
      "type": "function"
    },
    {
      "inputs": [
        {
          "internalType": "address",
          "name": "contractAddress",
          "type": "address"
        },
        {
          "internalType": "uint256",
          "name": "tokenId",
          "type": "uint256"
        },
        {
          "internalType": "string",
          "name": "condition",
          "type": "string"
        },
        {
          "components": [
            {
              "internalType": "bytes32",
              "name": "r",
              "type": "bytes32"
            },
            {
              "internalType": "bytes32",
              "name": "s",
              "type": "bytes32"
            },
            {
              "internalType": "uint8",
              "name": "v",
              "type": "uint8"
            }
          ],
          "internalType": "struct PhiClaim.Coupon",
          "name": "coupon",
          "type": "tuple"
        }
      ],
      "name": "claimQuestObject",
      "outputs": [],
      "stateMutability": "nonpayable",
      "type": "function"
    },
    {
      "inputs": [],
      "name": "getAdminSigner",
      "outputs": [
        {
          "internalType": "address",
          "name": "",
          "type": "address"
        }
      ],
      "stateMutability": "view",
      "type": "function"
    },
    {
      "inputs": [
        {
          "internalType": "string",
          "name": "condition",
          "type": "string"
        }
      ],
      "name": "getCouponType",
      "outputs": [
        {
          "internalType": "uint256",
          "name": "",
          "type": "uint256"
        }
      ],
      "stateMutability": "view",
      "type": "function"
    },
    {
      "inputs": [
        {
          "internalType": "bytes32",
          "name": "role",
          "type": "bytes32"
        }
      ],
      "name": "getRoleAdmin",
      "outputs": [
        {
          "internalType": "bytes32",
          "name": "",
          "type": "bytes32"
        }
      ],
      "stateMutability": "view",
      "type": "function"
    },
    {
      "inputs": [
        {
          "internalType": "bytes32",
          "name": "role",
          "type": "bytes32"
        },
        {
          "internalType": "address",
          "name": "account",
          "type": "address"
        }
      ],
      "name": "grantRole",
      "outputs": [],
      "stateMutability": "nonpayable",
      "type": "function"
    },
    {
      "inputs": [
        {
          "internalType": "bytes32",
          "name": "role",
          "type": "bytes32"
        },
        {
          "internalType": "address",
          "name": "account",
          "type": "address"
        }
      ],
      "name": "hasRole",
      "outputs": [
        {
          "internalType": "bool",
          "name": "",
          "type": "bool"
        }
      ],
      "stateMutability": "view",
      "type": "function"
    },
    {
      "inputs": [
        {
          "internalType": "address",
          "name": "admin",
          "type": "address"
        },
        {
          "internalType": "address",
          "name": "adminSigner",
          "type": "address"
        }
      ],
      "name": "initialize",
      "outputs": [],
      "stateMutability": "nonpayable",
      "type": "function"
    },
    {
      "inputs": [
        {
          "internalType": "address",
          "name": "",
          "type": "address"
        },
        {
          "internalType": "address",
          "name": "",
          "type": "address"
        },
        {
          "internalType": "uint256",
          "name": "",
          "type": "uint256"
        }
      ],
      "name": "phiClaimedLists",
      "outputs": [
        {
          "internalType": "uint256",
          "name": "",
          "type": "uint256"
        }
      ],
      "stateMutability": "view",
      "type": "function"
    },
    {
      "inputs": [
        {
          "internalType": "bytes32",
          "name": "role",
          "type": "bytes32"
        },
        {
          "internalType": "address",
          "name": "account",
          "type": "address"
        }
      ],
      "name": "renounceRole",
      "outputs": [],
      "stateMutability": "nonpayable",
      "type": "function"
    },
    {
      "inputs": [
        {
          "internalType": "bytes32",
          "name": "role",
          "type": "bytes32"
        },
        {
          "internalType": "address",
          "name": "account",
          "type": "address"
        }
      ],
      "name": "revokeRole",
      "outputs": [],
      "stateMutability": "nonpayable",
      "type": "function"
    },
    {
      "inputs": [
        {
          "internalType": "address",
          "name": "verifierAdderss",
          "type": "address"
        }
      ],
      "name": "setAdminSigner",
      "outputs": [],
      "stateMutability": "nonpayable",
      "type": "function"
    },
    {
      "inputs": [
        {
          "internalType": "string",
          "name": "condition",
          "type": "string"
        },
        {
          "internalType": "uint256",
          "name": "tokenId",
          "type": "uint256"
        }
      ],
      "name": "setCouponType",
      "outputs": [],
      "stateMutability": "nonpayable",
      "type": "function"
    },
    {
      "inputs": [
        {
          "internalType": "bytes4",
          "name": "interfaceId",
          "type": "bytes4"
        }
      ],
      "name": "supportsInterface",
      "outputs": [
        {
          "internalType": "bool",
          "name": "",
          "type": "bool"
        }
      ],
      "stateMutability": "view",
      "type": "function"
    }
  ],
  "bytecode": "0x60806040523480156200001157600080fd5b50600062000020600162000087565b9050801562000039576000805461ff0019166101001790555b801562000080576000805461ff0019169055604051600181527f7f26b83ff96e1f2b6a682f133852f6798a09c465da95921460cefb38474024989060200160405180910390a15b50620001a8565b60008054610100900460ff161562000120578160ff166001148015620000c05750620000be306200019960201b620008f71760201c565b155b620001185760405162461bcd60e51b815260206004820152602e60248201526000805160206200181a83398151915260448201526d191e481a5b9a5d1a585b1a5e995960921b60648201526084015b60405180910390fd5b506000919050565b60005460ff8084169116106200017f5760405162461bcd60e51b815260206004820152602e60248201526000805160206200181a83398151915260448201526d191e481a5b9a5d1a585b1a5e995960921b60648201526084016200010f565b506000805460ff191660ff92909216919091179055600190565b6001600160a01b03163b151590565b61166280620001b86000396000f3fe608060405234801561001057600080fd5b50600436106100f55760003560e01c806391d1485411610097578063b6e9201011610066578063b6e9201014610223578063cb568fd414610254578063d547741f14610267578063d61108331461027a57600080fd5b806391d14854146101b457806392ca3180146101ed578063a217fddf14610200578063a4cfd20a1461020857600080fd5b8063248a9ca3116100d3578063248a9ca31461014a5780632f2ff15d1461017b57806336568abe1461018e578063485cc955146101a157600080fd5b806301ffc9a7146100fa5780630c01a2fd14610122578063183bbe8014610137575b600080fd5b61010d610108366004611169565b6102ba565b60405190151581526020015b60405180910390f35b6101356101303660046111e9565b6102f1565b005b6101356101453660046112c3565b610521565b61016d6101583660046112de565b60009081526065602052604090206001015490565b604051908152602001610119565b6101356101893660046112f7565b61062b565b61013561019c3660046112f7565b610655565b6101356101af366004611323565b6106e1565b61010d6101c23660046112f7565b60009182526065602090815260408084206001600160a01b0393909316845291905290205460ff1690565b61016d6101fb3660046113da565b61080e565b61016d600081565b6097546040516001600160a01b039091168152602001610119565b61016d610231366004611417565b609960209081526000938452604080852082529284528284209052825290205481565b610135610262366004611453565b610836565b6101356102753660046112f7565b6108d2565b61016d610288366004611417565b6001600160a01b0392831660009081526099602090815260408083209490951682529283528381209181529152205490565b60006001600160e01b03198216637965db0b60e01b14806102eb57506301ffc9a760e01b6001600160e01b03198316145b92915050565b3360009081526099602090815260408083206001600160a01b03891684528252808320878452909152902054859085906000190161035057604051636ed7bf2b60e11b8152336004820152602481018290526044015b60405180910390fd5b609a8585604051610362929190611498565b908152602001604051809103902054861461037c57600080fd5b6000879050600088609a8888604051610396929190611498565b9081526020016040518091039020546103ac3390565b604080516001600160a01b0394851660208201529081019290925290911660608201526080016040516020818303038152906040528051906020012090506103f48186610906565b6104405760405162461bcd60e51b815260206004820152600e60248201527f496e76616c696420636f75706f6e0000000000000000000000000000000000006044820152606401610347565b3360008181526099602090815260408083206001600160a01b038e811685529083528184208d85529092528083206001905580516303e09ed960e21b81526004810194909452602484018c90525190851692630f827b6492604480830193919282900301818387803b1580156104b557600080fd5b505af11580156104c9573d6000803e3d6000fd5b505050506104d43390565b6001600160a01b03167fa7257a8b02d81b3fb6715b360a5b4f02dcdc4a4b36e79108b7738ee77706d8cb8960405161050e91815260200190565b60405180910390a2505050505050505050565b3360009081527fffdfc1249c027f9191656349feb0761381bb32c9f557e01f419fd08754bf5a1b602052604090205460ff1661057e57335b604051631a35241360e31b81526001600160a01b039091166004820152602401610347565b6001600160a01b0381166105d45760405162461bcd60e51b815260206004820152601360248201527f63616e74207365742061646472657373283029000000000000000000000000006044820152606401610347565b6097805473ffffffffffffffffffffffffffffffffffffffff19166001600160a01b0383169081179091556040517fe962aa622975becd620ca7b16db507022a2b43cc5657b30c4b907a7ecfb8042590600090a250565b60008281526065602052604090206001015461064681610998565b61065083836109a5565b505050565b6001600160a01b03811633146106d35760405162461bcd60e51b815260206004820152602f60248201527f416363657373436f6e74726f6c3a2063616e206f6e6c792072656e6f756e636560448201527f20726f6c657320666f722073656c6600000000000000000000000000000000006064820152608401610347565b6106dd8282610a47565b5050565b60006106ed6001610aca565b90508015610705576000805461ff0019166101001790555b6001600160a01b03821661075b5760405162461bcd60e51b815260206004820152601260248201527f63616e74207365742061646472657373203000000000000000000000000000006044820152606401610347565b6097805473ffffffffffffffffffffffffffffffffffffffff19166001600160a01b03841617905561078b610be5565b610796600084610c64565b600060988190556040517fbcdfe0d5b27dd186282e187525415c57ea3077c34efb39148111e4d342e7ab0e9190a18015610650576000805461ff0019169055604051600181527f7f26b83ff96e1f2b6a682f133852f6798a09c465da95921460cefb38474024989060200160405180910390a1505050565b6000609a8260405161082091906114cc565b9081526020016040518091039020549050919050565b3360009081527fffdfc1249c027f9191656349feb0761381bb32c9f557e01f419fd08754bf5a1b602052604090205460ff166108725733610559565b80609a8360405161088391906114cc565b9081526020016040518091039020819055507fd48ea628c05cf728666ea64aa7f8a243f1b39c14c572c1bfffb231d92cba27f182826040516108c6929190611514565b60405180910390a15050565b6000828152606560205260409020600101546108ed81610998565b6106508383610a47565b6001600160a01b03163b151590565b60008061092184846040015185600001518660200151610c6e565b90506001600160a01b038116610980576040805163d1c36d9d60e01b81523360048201526001600160a01b03831660248201526044810186905284516064820152602085015160848201529084015160ff1660a482015260c401610347565b6097546001600160a01b039081169116149392505050565b6109a28133610c96565b50565b60008281526065602090815260408083206001600160a01b038516845290915290205460ff166106dd5760008281526065602090815260408083206001600160a01b03851684529091529020805460ff19166001179055610a033390565b6001600160a01b0316816001600160a01b0316837f2f8788117e7eff1d82e926ec794901d17c78024a50270940304540a733656f0d60405160405180910390a45050565b60008281526065602090815260408083206001600160a01b038516845290915290205460ff16156106dd5760008281526065602090815260408083206001600160a01b0385168085529252808320805460ff1916905551339285917ff6391f5c32d9c69d2a47ea670b442974b53935d1edc7fd64eb21e047a839171b9190a45050565b60008054610100900460ff1615610b58578160ff166001148015610aed5750303b155b610b505760405162461bcd60e51b815260206004820152602e60248201527f496e697469616c697a61626c653a20636f6e747261637420697320616c72656160448201526d191e481a5b9a5d1a585b1a5e995960921b6064820152608401610347565b506000919050565b60005460ff808416911610610bc65760405162461bcd60e51b815260206004820152602e60248201527f496e697469616c697a61626c653a20636f6e747261637420697320616c72656160448201526d191e481a5b9a5d1a585b1a5e995960921b6064820152608401610347565b506000805460ff191660ff92909216919091179055600190565b919050565b600054610100900460ff16610c625760405162461bcd60e51b815260206004820152602b60248201527f496e697469616c697a61626c653a20636f6e7472616374206973206e6f74206960448201527f6e697469616c697a696e670000000000000000000000000000000000000000006064820152608401610347565b565b6106dd82826109a5565b6000806000610c7f87878787610d16565b91509150610c8c81610e03565b5095945050505050565b60008281526065602090815260408083206001600160a01b038516845290915290205460ff166106dd57610cd4816001600160a01b03166014610fb9565b610cdf836020610fb9565b604051602001610cf0929190611536565b60408051601f198184030181529082905262461bcd60e51b8252610347916004016115b7565b6000807f7fffffffffffffffffffffffffffffff5d576e7357a4501ddfe92f46681b20a0831115610d4d5750600090506003610dfa565b8460ff16601b14158015610d6557508460ff16601c14155b15610d765750600090506004610dfa565b6040805160008082526020820180845289905260ff881692820192909252606081018690526080810185905260019060a0016020604051602081039080840390855afa158015610dca573d6000803e3d6000fd5b5050604051601f1901519150506001600160a01b038116610df357600060019250925050610dfa565b9150600090505b94509492505050565b6000816004811115610e1757610e176115ca565b03610e1f5750565b6001816004811115610e3357610e336115ca565b03610e805760405162461bcd60e51b815260206004820152601860248201527f45434453413a20696e76616c6964207369676e617475726500000000000000006044820152606401610347565b6002816004811115610e9457610e946115ca565b03610ee15760405162461bcd60e51b815260206004820152601f60248201527f45434453413a20696e76616c6964207369676e6174757265206c656e677468006044820152606401610347565b6003816004811115610ef557610ef56115ca565b03610f4d5760405162461bcd60e51b815260206004820152602260248201527f45434453413a20696e76616c6964207369676e6174757265202773272076616c604482015261756560f01b6064820152608401610347565b6004816004811115610f6157610f616115ca565b036109a25760405162461bcd60e51b815260206004820152602260248201527f45434453413a20696e76616c6964207369676e6174757265202776272076616c604482015261756560f01b6064820152608401610347565b60606000610fc88360026115f6565b610fd3906002611615565b67ffffffffffffffff811115610feb57610feb6111aa565b6040519080825280601f01601f191660200182016040528015611015576020820181803683370190505b509050600360fc1b8160008151811061103057611030611628565b60200101906001600160f81b031916908160001a905350600f60fb1b8160018151811061105f5761105f611628565b60200101906001600160f81b031916908160001a90535060006110838460026115f6565b61108e906001611615565b90505b6001811115611113577f303132333435363738396162636465660000000000000000000000000000000085600f16601081106110cf576110cf611628565b1a60f81b8282815181106110e5576110e5611628565b60200101906001600160f81b031916908160001a90535060049490941c9361110c8161163e565b9050611091565b5083156111625760405162461bcd60e51b815260206004820181905260248201527f537472696e67733a20686578206c656e67746820696e73756666696369656e746044820152606401610347565b9392505050565b60006020828403121561117b57600080fd5b81356001600160e01b03198116811461116257600080fd5b80356001600160a01b0381168114610be057600080fd5b634e487b7160e01b600052604160045260246000fd5b6040516060810167ffffffffffffffff811182821017156111e3576111e36111aa565b60405290565b600080600080600085870360c081121561120257600080fd5b61120b87611193565b955060208701359450604087013567ffffffffffffffff8082111561122f57600080fd5b818901915089601f83011261124357600080fd5b81358181111561125257600080fd5b8a602082850101111561126457600080fd5b6020929092019550909350506060605f198201121561128257600080fd5b5061128b6111c0565b606087013581526080870135602082015260a087013560ff811681146112b057600080fd5b6040820152949793965091945092919050565b6000602082840312156112d557600080fd5b61116282611193565b6000602082840312156112f057600080fd5b5035919050565b6000806040838503121561130a57600080fd5b8235915061131a60208401611193565b90509250929050565b6000806040838503121561133657600080fd5b61133f83611193565b915061131a60208401611193565b600082601f83011261135e57600080fd5b813567ffffffffffffffff80821115611379576113796111aa565b604051601f8301601f19908116603f011681019082821181831017156113a1576113a16111aa565b816040528381528660208588010111156113ba57600080fd5b836020870160208301376000602085830101528094505050505092915050565b6000602082840312156113ec57600080fd5b813567ffffffffffffffff81111561140357600080fd5b61140f8482850161134d565b949350505050565b60008060006060848603121561142c57600080fd5b61143584611193565b925061144360208501611193565b9150604084013590509250925092565b6000806040838503121561146657600080fd5b823567ffffffffffffffff81111561147d57600080fd5b6114898582860161134d565b95602094909401359450505050565b8183823760009101908152919050565b60005b838110156114c35781810151838201526020016114ab565b50506000910152565b600082516114de8184602087016114a8565b9190910192915050565b600081518084526115008160208601602086016114a8565b601f01601f19169290920160200192915050565b60408152600061152760408301856114e8565b90508260208301529392505050565b7f416363657373436f6e74726f6c3a206163636f756e742000000000000000000081526000835161156e8160178501602088016114a8565b7f206973206d697373696e6720726f6c652000000000000000000000000000000060179184019182015283516115ab8160288401602088016114a8565b01602801949350505050565b60208152600061116260208301846114e8565b634e487b7160e01b600052602160045260246000fd5b634e487b7160e01b600052601160045260246000fd5b6000816000190483118215151615611610576116106115e0565b500290565b808201808211156102eb576102eb6115e0565b634e487b7160e01b600052603260045260246000fd5b60008161164d5761164d6115e0565b50600019019056fea164736f6c6343000810000a496e697469616c697a61626c653a20636f6e747261637420697320616c726561",
  "linkReferences": {},
  "deployedLinkReferences": {}
}