{
  "_format": "hh-sol-artifact-1",
  "contractName": "BasePlate",
  "sourceName": "contracts/object/BasePlate.sol",
  "abi": [
    {
      "inputs": [
        {
          "internalType": "address payable",
          "name": "_treasuryAddress",
          "type": "address"
        },
        {
          "internalType": "address",
          "name": "_phiMapAddress",
          "type": "address"
        }
      ],
      "stateMutability": "nonpayable",
      "type": "constructor"
    },
    {
      "inputs": [],
      "name": "ExistentToken",
      "type": "error"
    },
    {
      "inputs": [],
      "name": "InvalidOwner",
      "type": "error"
    },
    {
      "inputs": [],
      "name": "InvalidTokenID",
      "type": "error"
    },
    {
      "inputs": [],
      "name": "NoSetTokenSize",
      "type": "error"
    },
    {
      "inputs": [],
      "name": "NonExistentToken",
      "type": "error"
    },
    {
      "inputs": [],
      "name": "PaymentBalanceZero",
      "type": "error"
    },
    {
      "anonymous": false,
      "inputs": [
        {
          "indexed": true,
          "internalType": "address",
          "name": "account",
          "type": "address"
        },
        {
          "indexed": true,
          "internalType": "address",
          "name": "operator",
          "type": "address"
        },
        {
          "indexed": false,
          "internalType": "bool",
          "name": "approved",
          "type": "bool"
        }
      ],
      "name": "ApprovalForAll",
      "type": "event"
    },
    {
      "anonymous": false,
      "inputs": [
        {
          "indexed": false,
          "internalType": "uint256",
          "name": "tokenId",
          "type": "uint256"
        },
        {
          "indexed": false,
          "internalType": "uint256",
          "name": "newPrice",
          "type": "uint256"
        }
      ],
      "name": "ChangeTokenPrice",
      "type": "event"
    },
    {
      "anonymous": false,
      "inputs": [
        {
          "indexed": false,
          "internalType": "uint256",
          "name": "tokenId",
          "type": "uint256"
        },
        {
          "indexed": false,
          "internalType": "string",
          "name": "tokenUri",
          "type": "string"
        },
        {
          "components": [
            {
              "internalType": "uint8",
              "name": "x",
              "type": "uint8"
            },
            {
              "internalType": "uint8",
              "name": "y",
              "type": "uint8"
            },
            {
              "internalType": "uint8",
              "name": "z",
              "type": "uint8"
            }
          ],
          "indexed": false,
          "internalType": "struct BaseObject.Size",
          "name": "size",
          "type": "tuple"
        },
        {
          "indexed": false,
          "internalType": "address payable",
          "name": "creator",
          "type": "address"
        },
        {
          "indexed": false,
          "internalType": "uint256",
          "name": "maxClaimed",
          "type": "uint256"
        },
        {
          "indexed": false,
          "internalType": "uint256",
          "name": "price",
          "type": "uint256"
        }
      ],
      "name": "CreateBasePlate",
      "type": "event"
    },
    {
      "anonymous": false,
      "inputs": [
        {
          "indexed": true,
          "internalType": "address",
          "name": "sender",
          "type": "address"
        },
        {
          "indexed": false,
          "internalType": "uint256",
          "name": "tokenId",
          "type": "uint256"
        },
        {
          "indexed": false,
          "internalType": "uint256",
          "name": "value",
          "type": "uint256"
        }
      ],
      "name": "LogBuyBasePlate",
      "type": "event"
    },
    {
      "anonymous": false,
      "inputs": [
        {
          "indexed": true,
          "internalType": "address",
          "name": "operator",
          "type": "address"
        },
        {
          "indexed": true,
          "internalType": "address",
          "name": "target",
          "type": "address"
        }
      ],
      "name": "OwnershipGranted",
      "type": "event"
    },
    {
      "anonymous": false,
      "inputs": [
        {
          "indexed": true,
          "internalType": "address",
          "name": "operator",
          "type": "address"
        },
        {
          "indexed": true,
          "internalType": "address",
          "name": "target",
          "type": "address"
        }
      ],
      "name": "OwnershipRemoved",
      "type": "event"
    },
    {
      "anonymous": false,
      "inputs": [
        {
          "indexed": false,
          "internalType": "uint256",
          "name": "amount",
          "type": "uint256"
        }
      ],
      "name": "PaymentReceivedOwner",
      "type": "event"
    },
    {
      "anonymous": false,
      "inputs": [
        {
          "indexed": false,
          "internalType": "uint256",
          "name": "amount",
          "type": "uint256"
        }
      ],
      "name": "PaymentWithdrawnOwner",
      "type": "event"
    },
    {
      "anonymous": false,
      "inputs": [
        {
          "indexed": false,
          "internalType": "uint256",
          "name": "tokenId",
          "type": "uint256"
        },
        {
          "indexed": false,
          "internalType": "address payable",
          "name": "creator",
          "type": "address"
        }
      ],
      "name": "SetCreator",
      "type": "event"
    },
    {
      "anonymous": false,
      "inputs": [
        {
          "indexed": false,
          "internalType": "uint256",
          "name": "tokenId",
          "type": "uint256"
        },
        {
          "indexed": false,
          "internalType": "uint256",
          "name": "exp",
          "type": "uint256"
        }
      ],
      "name": "SetExp",
      "type": "event"
    },
    {
      "anonymous": false,
      "inputs": [
        {
          "indexed": false,
          "internalType": "uint256",
          "name": "tokenId",
          "type": "uint256"
        },
        {
          "indexed": false,
          "internalType": "uint256",
          "name": "newMaxClaimed",
          "type": "uint256"
        }
      ],
      "name": "SetMaxClaimed",
      "type": "event"
    },
    {
      "anonymous": false,
      "inputs": [
        {
          "indexed": false,
          "internalType": "uint256",
          "name": "tokenId",
          "type": "uint256"
        },
        {
          "indexed": false,
          "internalType": "bool",
          "name": "check",
          "type": "bool"
        }
      ],
      "name": "SetOpenForSale",
      "type": "event"
    },
    {
      "anonymous": false,
      "inputs": [
        {
          "indexed": false,
          "internalType": "uint256",
          "name": "royalityFee",
          "type": "uint256"
        }
      ],
      "name": "SetRoyalityFee",
      "type": "event"
    },
    {
      "anonymous": false,
      "inputs": [
        {
          "indexed": false,
          "internalType": "uint256",
          "name": "secondaryRoyalty",
          "type": "uint256"
        }
      ],
      "name": "SetSecondaryRoyalityFee",
      "type": "event"
    },
    {
      "anonymous": false,
      "inputs": [
        {
          "indexed": false,
          "internalType": "address",
          "name": "shopAddress",
          "type": "address"
        }
      ],
      "name": "SetShopAddress",
      "type": "event"
    },
    {
      "anonymous": false,
      "inputs": [
        {
          "indexed": false,
          "internalType": "uint256",
          "name": "tokenId",
          "type": "uint256"
        },
        {
          "indexed": false,
          "internalType": "uint8",
          "name": "x",
          "type": "uint8"
        },
        {
          "indexed": false,
          "internalType": "uint8",
          "name": "y",
          "type": "uint8"
        },
        {
          "indexed": false,
          "internalType": "uint8",
          "name": "z",
          "type": "uint8"
        }
      ],
      "name": "SetSize",
      "type": "event"
    },
    {
      "anonymous": false,
      "inputs": [
        {
          "indexed": false,
          "internalType": "uint256",
          "name": "tokenId",
          "type": "uint256"
        },
        {
          "indexed": false,
          "internalType": "string",
          "name": "uri",
          "type": "string"
        }
      ],
      "name": "SetTokenURI",
      "type": "event"
    },
    {
      "anonymous": false,
      "inputs": [
        {
          "indexed": false,
          "internalType": "address payable",
          "name": "treasuryAddress",
          "type": "address"
        }
      ],
      "name": "SetTreasuryAddress",
      "type": "event"
    },
    {
      "anonymous": false,
      "inputs": [
        {
          "indexed": false,
          "internalType": "string",
          "name": "baseuri",
          "type": "string"
        }
      ],
      "name": "SetbaseMetadataURI",
      "type": "event"
    },
    {
      "anonymous": false,
      "inputs": [
        {
          "indexed": true,
          "internalType": "address",
          "name": "operator",
          "type": "address"
        },
        {
          "indexed": true,
          "internalType": "address",
          "name": "from",
          "type": "address"
        },
        {
          "indexed": true,
          "internalType": "address",
          "name": "to",
          "type": "address"
        },
        {
          "indexed": false,
          "internalType": "uint256[]",
          "name": "ids",
          "type": "uint256[]"
        },
        {
          "indexed": false,
          "internalType": "uint256[]",
          "name": "values",
          "type": "uint256[]"
        }
      ],
      "name": "TransferBatch",
      "type": "event"
    },
    {
      "anonymous": false,
      "inputs": [
        {
          "indexed": true,
          "internalType": "address",
          "name": "operator",
          "type": "address"
        },
        {
          "indexed": true,
          "internalType": "address",
          "name": "from",
          "type": "address"
        },
        {
          "indexed": true,
          "internalType": "address",
          "name": "to",
          "type": "address"
        },
        {
          "indexed": false,
          "internalType": "uint256",
          "name": "id",
          "type": "uint256"
        },
        {
          "indexed": false,
          "internalType": "uint256",
          "name": "value",
          "type": "uint256"
        }
      ],
      "name": "TransferSingle",
      "type": "event"
    },
    {
      "anonymous": false,
      "inputs": [
        {
          "indexed": false,
          "internalType": "string",
          "name": "value",
          "type": "string"
        },
        {
          "indexed": true,
          "internalType": "uint256",
          "name": "id",
          "type": "uint256"
        }
      ],
      "name": "URI",
      "type": "event"
    },
    {
      "inputs": [
        {
          "internalType": "uint256",
          "name": "",
          "type": "uint256"
        }
      ],
      "name": "allObjects",
      "outputs": [
        {
          "internalType": "string",
          "name": "tokenURI",
          "type": "string"
        },
        {
          "components": [
            {
              "internalType": "uint8",
              "name": "x",
              "type": "uint8"
            },
            {
              "internalType": "uint8",
              "name": "y",
              "type": "uint8"
            },
            {
              "internalType": "uint8",
              "name": "z",
              "type": "uint8"
            }
          ],
          "internalType": "struct BaseObject.Size",
          "name": "size",
          "type": "tuple"
        },
        {
          "internalType": "address payable",
          "name": "creator",
          "type": "address"
        },
        {
          "internalType": "uint256",
          "name": "maxClaimed",
          "type": "uint256"
        },
        {
          "internalType": "uint256",
          "name": "price",
          "type": "uint256"
        },
        {
          "internalType": "uint256",
          "name": "exp",
          "type": "uint256"
        },
        {
          "internalType": "bool",
          "name": "forSale",
          "type": "bool"
        }
      ],
      "stateMutability": "view",
      "type": "function"
    },
    {
      "inputs": [
        {
          "internalType": "address",
          "name": "account",
          "type": "address"
        },
        {
          "internalType": "uint256",
          "name": "id",
          "type": "uint256"
        }
      ],
      "name": "balanceOf",
      "outputs": [
        {
          "internalType": "uint256",
          "name": "",
          "type": "uint256"
        }
      ],
      "stateMutability": "view",
      "type": "function"
    },
    {
      "inputs": [
        {
          "internalType": "address[]",
          "name": "accounts",
          "type": "address[]"
        },
        {
          "internalType": "uint256[]",
          "name": "ids",
          "type": "uint256[]"
        }
      ],
      "name": "balanceOfBatch",
      "outputs": [
        {
          "internalType": "uint256[]",
          "name": "",
          "type": "uint256[]"
        }
      ],
      "stateMutability": "view",
      "type": "function"
    },
    {
      "inputs": [],
      "name": "baseMetadataURI",
      "outputs": [
        {
          "internalType": "string",
          "name": "",
          "type": "string"
        }
      ],
      "stateMutability": "view",
      "type": "function"
    },
    {
      "inputs": [
        {
          "internalType": "uint256[]",
          "name": "tokenIds",
          "type": "uint256[]"
        }
      ],
      "name": "batchBasePlate",
      "outputs": [],
      "stateMutability": "payable",
      "type": "function"
    },
    {
      "inputs": [
        {
          "internalType": "address",
          "name": "to",
          "type": "address"
        },
        {
          "internalType": "uint256[]",
          "name": "tokenIds",
          "type": "uint256[]"
        }
      ],
      "name": "batchBasePlateFromShop",
      "outputs": [],
      "stateMutability": "payable",
      "type": "function"
    },
    {
      "inputs": [
        {
          "internalType": "uint256",
          "name": "tokenId",
          "type": "uint256"
        },
        {
          "internalType": "uint256",
          "name": "newPrice",
          "type": "uint256"
        }
      ],
      "name": "changeTokenPrice",
      "outputs": [],
      "stateMutability": "nonpayable",
      "type": "function"
    },
    {
      "inputs": [
        {
          "internalType": "uint256",
          "name": "tokenId",
          "type": "uint256"
        },
        {
          "internalType": "string",
          "name": "tokenUri",
          "type": "string"
        },
        {
          "components": [
            {
              "internalType": "uint8",
              "name": "x",
              "type": "uint8"
            },
            {
              "internalType": "uint8",
              "name": "y",
              "type": "uint8"
            },
            {
              "internalType": "uint8",
              "name": "z",
              "type": "uint8"
            }
          ],
          "internalType": "struct BaseObject.Size",
          "name": "size",
          "type": "tuple"
        },
        {
          "internalType": "address payable",
          "name": "creator",
          "type": "address"
        },
        {
          "internalType": "uint256",
          "name": "maxClaimed",
          "type": "uint256"
        },
        {
          "internalType": "uint256",
          "name": "price",
          "type": "uint256"
        }
      ],
      "name": "createBasePlate",
      "outputs": [],
      "stateMutability": "nonpayable",
      "type": "function"
    },
    {
      "inputs": [
        {
          "internalType": "uint256",
          "name": "",
          "type": "uint256"
        }
      ],
      "name": "created",
      "outputs": [
        {
          "internalType": "bool",
          "name": "",
          "type": "bool"
        }
      ],
      "stateMutability": "view",
      "type": "function"
    },
    {
      "inputs": [
        {
          "internalType": "uint256",
          "name": "id",
          "type": "uint256"
        }
      ],
      "name": "exists",
      "outputs": [
        {
          "internalType": "bool",
          "name": "",
          "type": "bool"
        }
      ],
      "stateMutability": "view",
      "type": "function"
    },
    {
      "inputs": [
        {
          "internalType": "uint256",
          "name": "tokenId",
          "type": "uint256"
        }
      ],
      "name": "getCreatorAddress",
      "outputs": [
        {
          "internalType": "address payable",
          "name": "",
          "type": "address"
        }
      ],
      "stateMutability": "view",
      "type": "function"
    },
    {
      "inputs": [
        {
          "internalType": "uint256",
          "name": "tokenId",
          "type": "uint256"
        }
      ],
      "name": "getExp",
      "outputs": [
        {
          "internalType": "uint256",
          "name": "",
          "type": "uint256"
        }
      ],
      "stateMutability": "view",
      "type": "function"
    },
    {
      "inputs": [
        {
          "internalType": "uint256",
          "name": "tokenId",
          "type": "uint256"
        }
      ],
      "name": "getMaxClaimed",
      "outputs": [
        {
          "internalType": "uint256",
          "name": "",
          "type": "uint256"
        }
      ],
      "stateMutability": "view",
      "type": "function"
    },
    {
      "inputs": [
        {
          "internalType": "uint256",
          "name": "tokenId",
          "type": "uint256"
        }
      ],
      "name": "getObjectInfo",
      "outputs": [
        {
          "components": [
            {
              "internalType": "string",
              "name": "tokenURI",
              "type": "string"
            },
            {
              "components": [
                {
                  "internalType": "uint8",
                  "name": "x",
                  "type": "uint8"
                },
                {
                  "internalType": "uint8",
                  "name": "y",
                  "type": "uint8"
                },
                {
                  "internalType": "uint8",
                  "name": "z",
                  "type": "uint8"
                }
              ],
              "internalType": "struct BaseObject.Size",
              "name": "size",
              "type": "tuple"
            },
            {
              "internalType": "address payable",
              "name": "creator",
              "type": "address"
            },
            {
              "internalType": "uint256",
              "name": "maxClaimed",
              "type": "uint256"
            },
            {
              "internalType": "uint256",
              "name": "price",
              "type": "uint256"
            },
            {
              "internalType": "uint256",
              "name": "exp",
              "type": "uint256"
            },
            {
              "internalType": "bool",
              "name": "forSale",
              "type": "bool"
            }
          ],
          "internalType": "struct BaseObject.Object",
          "name": "",
          "type": "tuple"
        }
      ],
      "stateMutability": "view",
      "type": "function"
    },
    {
      "inputs": [
        {
          "internalType": "uint256[]",
          "name": "tokenIds",
          "type": "uint256[]"
        }
      ],
      "name": "getObjectsPrice",
      "outputs": [
        {
          "internalType": "uint256",
          "name": "",
          "type": "uint256"
        }
      ],
      "stateMutability": "view",
      "type": "function"
    },
    {
      "inputs": [
        {
          "internalType": "uint256",
          "name": "tokenId",
          "type": "uint256"
        }
      ],
      "name": "getOpenForSale",
      "outputs": [
        {
          "internalType": "bool",
          "name": "",
          "type": "bool"
        }
      ],
      "stateMutability": "view",
      "type": "function"
    },
    {
      "inputs": [
        {
          "internalType": "uint256",
          "name": "tokenId",
          "type": "uint256"
        }
      ],
      "name": "getSize",
      "outputs": [
        {
          "components": [
            {
              "internalType": "uint8",
              "name": "x",
              "type": "uint8"
            },
            {
              "internalType": "uint8",
              "name": "y",
              "type": "uint8"
            },
            {
              "internalType": "uint8",
              "name": "z",
              "type": "uint8"
            }
          ],
          "internalType": "struct BaseObject.Size",
          "name": "",
          "type": "tuple"
        }
      ],
      "stateMutability": "view",
      "type": "function"
    },
    {
      "inputs": [
        {
          "internalType": "uint256",
          "name": "tokenId",
          "type": "uint256"
        }
      ],
      "name": "getTokenPrice",
      "outputs": [
        {
          "internalType": "uint256",
          "name": "",
          "type": "uint256"
        }
      ],
      "stateMutability": "view",
      "type": "function"
    },
    {
      "inputs": [
        {
          "internalType": "uint256",
          "name": "tokenId",
          "type": "uint256"
        }
      ],
      "name": "getTokenURI",
      "outputs": [
        {
          "internalType": "string",
          "name": "",
          "type": "string"
        }
      ],
      "stateMutability": "view",
      "type": "function"
    },
    {
      "inputs": [
        {
          "internalType": "address",
          "name": "account",
          "type": "address"
        },
        {
          "internalType": "address",
          "name": "operator",
          "type": "address"
        }
      ],
      "name": "isApprovedForAll",
      "outputs": [
        {
          "internalType": "bool",
          "name": "",
          "type": "bool"
        }
      ],
      "stateMutability": "view",
      "type": "function"
    },
    {
      "inputs": [],
      "name": "name",
      "outputs": [
        {
          "internalType": "string",
          "name": "",
          "type": "string"
        }
      ],
      "stateMutability": "view",
      "type": "function"
    },
    {
      "inputs": [
        {
          "internalType": "address",
          "name": "targetAddress",
          "type": "address"
        }
      ],
      "name": "ownerCheck",
      "outputs": [
        {
          "internalType": "bool",
          "name": "",
          "type": "bool"
        }
      ],
      "stateMutability": "view",
      "type": "function"
    },
    {
      "inputs": [],
      "name": "paymentBalanceOwner",
      "outputs": [
        {
          "internalType": "uint256",
          "name": "",
          "type": "uint256"
        }
      ],
      "stateMutability": "view",
      "type": "function"
    },
    {
      "inputs": [],
      "name": "phiMapAddress",
      "outputs": [
        {
          "internalType": "address",
          "name": "",
          "type": "address"
        }
      ],
      "stateMutability": "view",
      "type": "function"
    },
    {
      "inputs": [
        {
          "internalType": "address",
          "name": "oldOwner",
          "type": "address"
        }
      ],
      "name": "removeOwner",
      "outputs": [],
      "stateMutability": "nonpayable",
      "type": "function"
    },
    {
      "inputs": [],
      "name": "royalityFee",
      "outputs": [
        {
          "internalType": "uint256",
          "name": "",
          "type": "uint256"
        }
      ],
      "stateMutability": "view",
      "type": "function"
    },
    {
      "inputs": [
        {
          "internalType": "uint256",
          "name": "",
          "type": "uint256"
        },
        {
          "internalType": "uint256",
          "name": "salePrice",
          "type": "uint256"
        }
      ],
      "name": "royaltyInfo",
      "outputs": [
        {
          "internalType": "address",
          "name": "receiver",
          "type": "address"
        },
        {
          "internalType": "uint256",
          "name": "royaltyAmount",
          "type": "uint256"
        }
      ],
      "stateMutability": "view",
      "type": "function"
    },
    {
      "inputs": [
        {
          "internalType": "address",
          "name": "from",
          "type": "address"
        },
        {
          "internalType": "address",
          "name": "to",
          "type": "address"
        },
        {
          "internalType": "uint256[]",
          "name": "ids",
          "type": "uint256[]"
        },
        {
          "internalType": "uint256[]",
          "name": "amounts",
          "type": "uint256[]"
        },
        {
          "internalType": "bytes",
          "name": "data",
          "type": "bytes"
        }
      ],
      "name": "safeBatchTransferFrom",
      "outputs": [],
      "stateMutability": "nonpayable",
      "type": "function"
    },
    {
      "inputs": [
        {
          "internalType": "address",
          "name": "from",
          "type": "address"
        },
        {
          "internalType": "address",
          "name": "to",
          "type": "address"
        },
        {
          "internalType": "uint256",
          "name": "id",
          "type": "uint256"
        },
        {
          "internalType": "uint256",
          "name": "amount",
          "type": "uint256"
        },
        {
          "internalType": "bytes",
          "name": "data",
          "type": "bytes"
        }
      ],
      "name": "safeTransferFrom",
      "outputs": [],
      "stateMutability": "nonpayable",
      "type": "function"
    },
    {
      "inputs": [],
      "name": "secondaryRoyalty",
      "outputs": [
        {
          "internalType": "uint256",
          "name": "",
          "type": "uint256"
        }
      ],
      "stateMutability": "view",
      "type": "function"
    },
    {
      "inputs": [
        {
          "internalType": "address",
          "name": "operator",
          "type": "address"
        },
        {
          "internalType": "bool",
          "name": "approved",
          "type": "bool"
        }
      ],
      "name": "setApprovalForAll",
      "outputs": [],
      "stateMutability": "nonpayable",
      "type": "function"
    },
    {
      "inputs": [
        {
          "internalType": "uint256",
          "name": "tokenId",
          "type": "uint256"
        },
        {
          "internalType": "address payable",
          "name": "creator",
          "type": "address"
        }
      ],
      "name": "setCreatorAddress",
      "outputs": [],
      "stateMutability": "nonpayable",
      "type": "function"
    },
    {
      "inputs": [
        {
          "internalType": "uint256",
          "name": "tokenId",
          "type": "uint256"
        },
        {
          "internalType": "uint256",
          "name": "exp",
          "type": "uint256"
        }
      ],
      "name": "setExp",
      "outputs": [],
      "stateMutability": "nonpayable",
      "type": "function"
    },
    {
      "inputs": [
        {
          "internalType": "uint256",
          "name": "tokenId",
          "type": "uint256"
        },
        {
          "internalType": "uint256",
          "name": "newMaxClaimed",
          "type": "uint256"
        }
      ],
      "name": "setMaxClaimed",
      "outputs": [],
      "stateMutability": "nonpayable",
      "type": "function"
    },
    {
      "inputs": [
        {
          "internalType": "uint256",
          "name": "tokenId",
          "type": "uint256"
        },
        {
          "internalType": "bool",
          "name": "check",
          "type": "bool"
        }
      ],
      "name": "setOpenForSale",
      "outputs": [],
      "stateMutability": "nonpayable",
      "type": "function"
    },
    {
      "inputs": [
        {
          "internalType": "address",
          "name": "newOwner",
          "type": "address"
        }
      ],
      "name": "setOwner",
      "outputs": [],
      "stateMutability": "nonpayable",
      "type": "function"
    },
    {
      "inputs": [
        {
          "internalType": "uint256",
          "name": "newRoyalityFee",
          "type": "uint256"
        }
      ],
      "name": "setRoyalityFee",
      "outputs": [],
      "stateMutability": "nonpayable",
      "type": "function"
    },
    {
      "inputs": [
        {
          "internalType": "uint256",
          "name": "newSecondaryRoyalty",
          "type": "uint256"
        }
      ],
      "name": "setSecondaryRoyalityFee",
      "outputs": [],
      "stateMutability": "nonpayable",
      "type": "function"
    },
    {
      "inputs": [
        {
          "internalType": "address",
          "name": "_shopAddress",
          "type": "address"
        }
      ],
      "name": "setShopAddress",
      "outputs": [],
      "stateMutability": "nonpayable",
      "type": "function"
    },
    {
      "inputs": [
        {
          "internalType": "uint256",
          "name": "tokenId",
          "type": "uint256"
        },
        {
          "components": [
            {
              "internalType": "uint8",
              "name": "x",
              "type": "uint8"
            },
            {
              "internalType": "uint8",
              "name": "y",
              "type": "uint8"
            },
            {
              "internalType": "uint8",
              "name": "z",
              "type": "uint8"
            }
          ],
          "internalType": "struct BaseObject.Size",
          "name": "size",
          "type": "tuple"
        }
      ],
      "name": "setSize",
      "outputs": [],
      "stateMutability": "nonpayable",
      "type": "function"
    },
    {
      "inputs": [
        {
          "internalType": "uint256",
          "name": "tokenId",
          "type": "uint256"
        },
        {
          "internalType": "string",
          "name": "uri",
          "type": "string"
        }
      ],
      "name": "setTokenURI",
      "outputs": [],
      "stateMutability": "nonpayable",
      "type": "function"
    },
    {
      "inputs": [
        {
          "internalType": "address payable",
          "name": "newTreasuryAddress",
          "type": "address"
        }
      ],
      "name": "setTreasuryAddress",
      "outputs": [],
      "stateMutability": "nonpayable",
      "type": "function"
    },
    {
      "inputs": [
        {
          "internalType": "string",
          "name": "newBaseMetadataURI",
          "type": "string"
        }
      ],
      "name": "setbaseMetadataURI",
      "outputs": [],
      "stateMutability": "nonpayable",
      "type": "function"
    },
    {
      "inputs": [],
      "name": "shopAddress",
      "outputs": [
        {
          "internalType": "address",
          "name": "",
          "type": "address"
        }
      ],
      "stateMutability": "view",
      "type": "function"
    },
    {
      "inputs": [
        {
          "internalType": "bytes4",
          "name": "interfaceId",
          "type": "bytes4"
        }
      ],
      "name": "supportsInterface",
      "outputs": [
        {
          "internalType": "bool",
          "name": "",
          "type": "bool"
        }
      ],
      "stateMutability": "view",
      "type": "function"
    },
    {
      "inputs": [],
      "name": "symbol",
      "outputs": [
        {
          "internalType": "string",
          "name": "",
          "type": "string"
        }
      ],
      "stateMutability": "view",
      "type": "function"
    },
    {
      "inputs": [
        {
          "internalType": "uint256",
          "name": "id",
          "type": "uint256"
        }
      ],
      "name": "totalSupply",
      "outputs": [
        {
          "internalType": "uint256",
          "name": "",
          "type": "uint256"
        }
      ],
      "stateMutability": "view",
      "type": "function"
    },
    {
      "inputs": [],
      "name": "treasuryAddress",
      "outputs": [
        {
          "internalType": "address payable",
          "name": "",
          "type": "address"
        }
      ],
      "stateMutability": "view",
      "type": "function"
    },
    {
      "inputs": [
        {
          "internalType": "uint256",
          "name": "tokenId",
          "type": "uint256"
        }
      ],
      "name": "uri",
      "outputs": [
        {
          "internalType": "string",
          "name": "",
          "type": "string"
        }
      ],
      "stateMutability": "view",
      "type": "function"
    },
    {
      "inputs": [
        {
          "internalType": "address",
          "name": "withdrawTo",
          "type": "address"
        }
      ],
      "name": "withdrawOwnerBalance",
      "outputs": [],
      "stateMutability": "nonpayable",
      "type": "function"
    },
    {
      "stateMutability": "payable",
      "type": "receive"
    }
  ],
  "bytecode": "0x60a06040523480156200001157600080fd5b50604051620046b3380380620046b383398101604081905262000034916200020b565b604080516020808201835260008083523381529081905291909120805460ff1916600190811790915580556200006a81620001e0565b506001600160a01b038216620000bc5760405162461bcd60e51b8152602060048201526012602482015271063616e7420736574206164647265737320360741b60448201526064015b60405180910390fd5b6001600160a01b038116620001095760405162461bcd60e51b8152602060048201526012602482015271063616e7420736574206164647265737320360741b6044820152606401620000b3565b60408051808201909152600d81526c5068692042617365706c61746560981b60208201526002906200013c9082620002ef565b506040805180820190915260078152665068692d42415360c81b60208201526003906200016a9082620002ef565b5060408051808201909152601881527f68747470733a2f2f7777772e617277656176652e6e65742f00000000000000006020820152600490620001ae9082620002ef565b50600680546001600160a01b0319166001600160a01b039384161790551660805260006007556101f4600855620003bb565b600e620001ee8282620002ef565b5050565b6001600160a01b03811681146200020857600080fd5b50565b600080604083850312156200021f57600080fd5b82516200022c81620001f2565b60208401519092506200023f81620001f2565b809150509250929050565b634e487b7160e01b600052604160045260246000fd5b600181811c908216806200027557607f821691505b6020821081036200029657634e487b7160e01b600052602260045260246000fd5b50919050565b601f821115620002ea57600081815260208120601f850160051c81016020861015620002c55750805b601f850160051c820191505b81811015620002e657828155600101620002d1565b5050505b505050565b81516001600160401b038111156200030b576200030b6200024a565b62000323816200031c845462000260565b846200029c565b602080601f8311600181146200035b5760008415620003425750858301515b600019600386901b1c1916600185901b178555620002e6565b600085815260208120601f198616915b828110156200038c578886015182559484019460019091019084016200036b565b5085821015620003ab5787850151600019600388901b60f8161c191681555b5050505050600190811b01905550565b6080516142d5620003de6000396000818161064101526120fb01526142d56000f3fe60806040526004361061032c5760003560e01c8063604c7f80116101a5578063a22cb465116100ec578063c457fb3711610095578063d4f2b8141161006f578063d4f2b814146109fb578063e498922f14610a0e578063e985e9c514610a3e578063f242432a14610a5e57600080fd5b8063c457fb3714610978578063c5f956af146109a8578063cbdac710146109c857600080fd5b8063b6ed6da9116100c6578063b6ed6da91461090b578063bd85b0391461092b578063bfdc4fdf1461095857600080fd5b8063a22cb46514610892578063a30b4db9146108b2578063a6a41a29146108eb57600080fd5b806382cb6b721161014e5780639733faa5116101285780639733faa51461082257806398f2468214610852578063995225ad1461087257600080fd5b806382cb6b72146107c75780639291671a146107f757806395d89b411461080d57600080fd5b806367478a351161017f57806367478a35146107745780636a957e2a146107945780637061d486146107a757600080fd5b8063604c7f801461071457806362e8e8ac146107345780636605bfda1461075457600080fd5b80631e4c788711610274578063326bb4ad1161021d5780633ec963cb116101f75780633ec963cb146106835780634e1273f4146106a35780634f558e79146106d05780635b2bd79e146106ff57600080fd5b8063326bb4ad1461061957806339b67b6d1461062f5780633bb3a24d1461066357600080fd5b80632a55205a1161024e5780632a55205a146105875780632c383ee8146105c65780632eb2c2d6146105f957600080fd5b80631e4c78871461050057806322446fb81461051657806323bf2f671461054e57600080fd5b80630d09308e116102d6578063162094c4116102b0578063162094c414610493578063173825d9146104b35780631d1b29e0146104d357600080fd5b80630d09308e146104335780630e89341c1461045357806313af40351461047357600080fd5b806306fdde031161030757806306fdde03146103d15780630a1eeb0c146103f35780630b68e7961461041357600080fd5b8062fdd58e1461034157806301ffc9a714610374578063023c23db146103a457600080fd5b3661033c5761033a34610a7e565b005b600080fd5b34801561034d57600080fd5b5061036161035c366004613562565b610acb565b6040519081526020015b60405180910390f35b34801561038057600080fd5b5061039461038f3660046135a4565b610b79565b604051901515815260200161036b565b3480156103b057600080fd5b506103c46103bf3660046135c1565b610bc9565b60405161036b91906135da565b3480156103dd57600080fd5b506103e6610c85565b60405161036b9190613658565b3480156103ff57600080fd5b5061033a61040e366004613680565b610d13565b34801561041f57600080fd5b5061033a61042e3660046136ac565b610da0565b34801561043f57600080fd5b5061033a61044e3660046136ac565b610e1b565b34801561045f57600080fd5b506103e661046e3660046135c1565b610e96565b34801561047f57600080fd5b5061033a61048e3660046136ce565b610efa565b34801561049f57600080fd5b5061033a6104ae3660046137a2565b610f77565b3480156104bf57600080fd5b5061033a6104ce3660046136ce565b610ff1565b3480156104df57600080fd5b506104f36104ee3660046135c1565b61106b565b60405161036b91906137e9565b34801561050c57600080fd5b5061036160095481565b34801561052257600080fd5b50600554610536906001600160a01b031681565b6040516001600160a01b03909116815260200161036b565b34801561055a57600080fd5b506103946105693660046136ce565b6001600160a01b031660009081526020819052604090205460ff1690565b34801561059357600080fd5b506105a76105a23660046136ac565b6111fe565b604080516001600160a01b03909316835260208301919091520161036b565b3480156105d257600080fd5b506103946105e13660046135c1565b6000908152600a602052604090206006015460ff1690565b34801561060557600080fd5b5061033a61061436600461391a565b611229565b34801561062557600080fd5b5061036160075481565b34801561063b57600080fd5b506105367f000000000000000000000000000000000000000000000000000000000000000081565b34801561066f57600080fd5b506103e661067e3660046135c1565b6112cb565b34801561068f57600080fd5b5061033a61069e3660046136ce565b61136d565b3480156106af57600080fd5b506106c36106be3660046139c8565b611455565b60405161036b9190613ac6565b3480156106dc57600080fd5b506103946106eb3660046135c1565b6000908152600f6020526040902054151590565b34801561070b57600080fd5b506103e6611593565b34801561072057600080fd5b5061033a61072f366004613b59565b6115a0565b34801561074057600080fd5b5061033a61074f3660046136ac565b611662565b34801561076057600080fd5b5061033a61076f3660046136ce565b6116dd565b34801561078057600080fd5b5061033a61078f3660046136ce565b6117b4565b61033a6107a2366004613b7d565b611962565b3480156107b357600080fd5b5061033a6107c23660046135c1565b611aa6565b3480156107d357600080fd5b506103946107e23660046135c1565b600b6020526000908152604090205460ff1681565b34801561080357600080fd5b5061036160085481565b34801561081957600080fd5b506103e6611b0b565b34801561082e57600080fd5b5061036161083d3660046135c1565b6000908152600a602052604090206003015490565b34801561085e57600080fd5b5061033a61086d3660046135c1565b611b18565b34801561087e57600080fd5b5061033a61088d366004613bc3565b611b7d565b34801561089e57600080fd5b5061033a6108ad366004613c41565b611c7a565b3480156108be57600080fd5b506105366108cd3660046135c1565b6000908152600a60205260409020600201546001600160a01b031690565b3480156108f757600080fd5b50610361610906366004613c6d565b611c89565b34801561091757600080fd5b5061033a610926366004613caa565b611cf0565b34801561093757600080fd5b506103616109463660046135c1565b6000908152600f602052604090205490565b34801561096457600080fd5b5061033a610973366004613cdf565b611d5c565b34801561098457600080fd5b506103616109933660046135c1565b6000908152600a602052604090206004015490565b3480156109b457600080fd5b50600654610536906001600160a01b031681565b3480156109d457600080fd5b506109e86109e33660046135c1565b611e47565b60405161036b9796959493929190613d0f565b61033a610a09366004613c6d565b611f45565b348015610a1a57600080fd5b50610361610a293660046135c1565b6000908152600a602052604090206005015490565b348015610a4a57600080fd5b50610394610a59366004613d88565b6120f7565b348015610a6a57600080fd5b5061033a610a79366004613db6565b61216b565b6040518181527faab58724194bfb12b018298382453c333764e73d19ec73cb98d26f8dd10d29cc9060200160405180910390a18060096000828254610ac39190613e35565b909155505050565b60006001600160a01b038316610b4e5760405162461bcd60e51b815260206004820152602b60248201527f455243313135353a2062616c616e636520717565727920666f7220746865207a60448201527f65726f206164647265737300000000000000000000000000000000000000000060648201526084015b60405180910390fd5b506000818152600c602090815260408083206001600160a01b03861684529091529020545b92915050565b60006001600160e01b03198216636cdb3d1360e11b1480610baa57506001600160e01b031982166303a24d0760e21b145b80610b7357506301ffc9a760e01b6001600160e01b0319831614610b73565b60408051606081018252600080825260208201819052918101919091526000828152600a602052604090206001015460ff161580610c1e57506000828152600a6020526040902060010154610100900460ff16155b15610c3c5760405163a8e3a97360e01b815260040160405180910390fd5b506000908152600a6020908152604091829020825160608101845260019091015460ff808216835261010082048116938301939093526201000090049091169181019190915290565b60028054610c9290613e48565b80601f0160208091040260200160405190810160405280929190818152602001828054610cbe90613e48565b8015610d0b5780601f10610ce057610100808354040283529160200191610d0b565b820191906000526020600020905b815481529060010190602001808311610cee57829003601f168201915b505050505081565b3360009081526020819052604090205460ff16610d43576040516349e27cff60e01b815260040160405180910390fd5b6000828152600a6020908152604091829020600601805460ff19168415159081179091558251858152918201527fd24cd22e1990320c8f339b920aee0413e3ac1cfdfb6200d6d967befa1fa1573c91015b60405180910390a15050565b3360009081526020819052604090205460ff16610dd0576040516349e27cff60e01b815260040160405180910390fd5b6000828152600a602090815260409182902060050183905581518481529081018390527f1e1ef21dc18e8f45f4e05a47d70fbffe8371dbcc8b4815e8dbca1dbd620c43669101610d94565b3360009081526020819052604090205460ff16610e4b576040516349e27cff60e01b815260040160405180910390fd5b6000828152600a602090815260409182902060030183905581518481529081018390527fad41bb8f5516e8c7946d99bc48fd3ff0a07239c8ffcf2d103a0612b9ab44a60a9101610d94565b6000818152600b602052604090205460609060ff16610ec857604051636aa2a93760e01b815260040160405180910390fd5b6004610ed3836112cb565b604051602001610ee4929190613e82565b6040516020818303038152906040529050919050565b3360009081526020819052604090205460ff16610f2a576040516349e27cff60e01b815260040160405180910390fd5b6001600160a01b038116600081815260208190526040808220805460ff191660011790555133917f619792ba07bec101df538ab277befa333e4cf1c0274f11de7be2a9507b9c9a0691a350565b3360009081526020819052604090205460ff16610fa7576040516349e27cff60e01b815260040160405180910390fd5b6000828152600a60205260409020610fbf8282613f54565b507fd2d827dddfc9c9a02afc5fc68d3251684b36e213a7999ebd90a861f25df4077e8282604051610d94929190614014565b3360009081526020819052604090205460ff16611021576040516349e27cff60e01b815260040160405180910390fd5b6001600160a01b038116600081815260208190526040808220805460ff191690555133917fc191551a88c5609788f3532bd94c06479b61b0040eec65f9cd985428ffea643091a350565b6110ce6040805160e08101825260608082528251908101835260008082526020828101829052938201529091820190815260200160006001600160a01b031681526020016000815260200160008152602001600081526020016000151581525090565b6000828152600a602052604090819020815160e081019092528054829082906110f690613e48565b80601f016020809104026020016040519081016040528092919081815260200182805461112290613e48565b801561116f5780601f106111445761010080835404028352916020019161116f565b820191906000526020600020905b81548152906001019060200180831161115257829003601f168201915b50505091835250506040805160608082018352600185015460ff808216845261010082048116602085810191909152620100009092048116848601529085019290925260028501546001600160a01b03169284019290925260038401549183019190915260048301546080830152600583015460a0830152600690920154909116151560c09091015292915050565b6000803061271060085485611213919061402d565b61121d9190614062565b915091505b9250929050565b6001600160a01b038516331480611245575061124585336120f7565b6112b75760405162461bcd60e51b815260206004820152603260248201527f455243313135353a207472616e736665722063616c6c6572206973206e6f742060448201527f6f776e6572206e6f7220617070726f76656400000000000000000000000000006064820152608401610b45565b6112c48585858585612206565b5050505050565b6000818152600a602052604090208054606091906112e890613e48565b80601f016020809104026020016040519081016040528092919081815260200182805461131490613e48565b80156113615780601f1061133657610100808354040283529160200191611361565b820191906000526020600020905b81548152906001019060200180831161134457829003601f168201915b50505050509050919050565b3360009081526020819052604090205460ff1661139d576040516349e27cff60e01b815260040160405180910390fd5b6001600160a01b0381166113f35760405162461bcd60e51b815260206004820152601260248201527f63616e74207365742061646472657373203000000000000000000000000000006044820152606401610b45565b6005805473ffffffffffffffffffffffffffffffffffffffff19166001600160a01b0383169081179091556040519081527fcefd22c602a88b1f72d74d02bad4b2cb1e05e85530bb77114da7c723d2aca9db906020015b60405180910390a150565b606081518351146114ce5760405162461bcd60e51b815260206004820152602960248201527f455243313135353a206163636f756e747320616e6420696473206c656e67746860448201527f206d69736d6174636800000000000000000000000000000000000000000000006064820152608401610b45565b6000835167ffffffffffffffff8111156114ea576114ea6136eb565b604051908082528060200260200182016040528015611513578160200160208202803683370190505b50905060005b845181101561158b5761155e85828151811061153757611537614084565b602002602001015185838151811061155157611551614084565b6020026020010151610acb565b82828151811061157057611570614084565b60209081029190910101526115848161409a565b9050611519565b509392505050565b60048054610c9290613e48565b3360009081526020819052604090205460ff166115d0576040516349e27cff60e01b815260040160405180910390fd5b6000828152600a6020908152604091829020835160019091018054858401518686015160ff94851661ffff1990931683176101009286169283021762ff000019166201000095909116948502179092558451878152938401529282019290925260608101919091527fd8e7c8605fecaf6228c6b5f990bc7f1e865694cc587ef62fe729b926915ef7e090608001610d94565b3360009081526020819052604090205460ff16611692576040516349e27cff60e01b815260040160405180910390fd5b6000828152600a602090815260409182902060040183905581518481529081018390527f415cf995faccaec43ce108f2713ebcdb2812b0e0689a8fa7dfdcabf78109ebbb9101610d94565b3360009081526020819052604090205460ff1661170d576040516349e27cff60e01b815260040160405180910390fd5b6001600160a01b0381166117595760405162461bcd60e51b815260206004820152601360248201527263616e7420736574206164647265737328302960681b6044820152606401610b45565b6006805473ffffffffffffffffffffffffffffffffffffffff19166001600160a01b0383169081179091556040519081527feee016301a2725a577c64816adf35ccf644d07439731069a31748ec3b9102c609060200161144a565b3360009081526020819052604090205460ff166117e4576040516349e27cff60e01b815260040160405180910390fd5b6002600154036118365760405162461bcd60e51b815260206004820152601f60248201527f5265656e7472616e637947756172643a207265656e7472616e742063616c6c006044820152606401610b45565b60026001556001600160a01b0381166118875760405162461bcd60e51b815260206004820152601360248201527263616e7420736574206164647265737328302960681b6044820152606401610b45565b6009546000036118aa57604051632f31015b60e11b815260040160405180910390fd5b600980546000918290556040519091906001600160a01b0384169083908381818185875af1925050503d80600081146118ff576040519150601f19603f3d011682016040523d82523d6000602084013e611904565b606091505b505090508061192657604051632f31015b60e11b815260040160405180910390fd5b6040518281527f2d5923adf91dd211e633a33f2e27918338e6a33e3b3f386e9d466d1bc52eba799060200160405180910390a150506001805550565b6005546001600160a01b031633146119bc5760405162461bcd60e51b815260206004820152601260248201527f6d73672073656e64657220696e76616c696400000000000000000000000000006044820152606401610b45565b80516000805b82811015611a1757600a60008583815181106119e0576119e0614084565b602002602001015181526020019081526020016000206004015482611a059190613e35565b9150611a108161409a565b90506119c2565b5080341015611a685760405162461bcd60e51b815260206004820152601060248201527f6e6f7420656e6f7567682076616c7565000000000000000000000000000000006044820152606401610b45565b60005b828110156112c457611a9685858381518110611a8957611a89614084565b602002602001015161248a565b611a9f8161409a565b9050611a6b565b3360009081526020819052604090205460ff16611ad6576040516349e27cff60e01b815260040160405180910390fd5b60088190556040518181527fb69fdb7c7f7b0e17f64074ea1590642f14193039b234aae7a3c68b26ed055adf9060200161144a565b60038054610c9290613e48565b3360009081526020819052604090205460ff16611b48576040516349e27cff60e01b815260040160405180910390fd5b60078190556040518181527f184fa17d2176718ea1955f61782c763ce239e39e790340793f227b0ba5db53e19060200161144a565b3360009081526020819052604090205460ff16611bad576040516349e27cff60e01b815260040160405180910390fd5b6000868152600f602052604090205415611bda576040516387cf36d160e01b815260040160405180910390fd5b611be48686610f77565b611bee86856115a0565b611bf88684611d5c565b611c028683610e1b565b611c0c8682611662565b611c17866001610d13565b6000868152600b602052604090819020805460ff19166001179055517f5d5a6d9833e8515975e6342bc17e72dc91f0b664b71d492089857b90b377ba9790611c6a908890889088908890889088906140b3565b60405180910390a1505050505050565b611c8533838361284e565b5050565b80516000908190815b81811015611ce757600a6000868381518110611cb057611cb0614084565b602002602001015181526020019081526020016000206004015483611cd59190613e35565b9250611ce08161409a565b9050611c92565b50909392505050565b3360009081526020819052604090205460ff16611d20576040516349e27cff60e01b815260040160405180910390fd5b6004611d2c8282613f54565b507ffa52149a99a7016c4576d7bb33adefe5c4372aeded2a98a40f46d6ef33109c4d8160405161144a9190613658565b3360009081526020819052604090205460ff16611d8c576040516349e27cff60e01b815260040160405180910390fd5b6001600160a01b038116611dd85760405162461bcd60e51b815260206004820152601360248201527263616e7420736574206164647265737328302960681b6044820152606401610b45565b6000828152600a6020908152604091829020600201805473ffffffffffffffffffffffffffffffffffffffff19166001600160a01b0385169081179091558251858152918201527f02df56823aeec019d75f2c2396e2a9c68868b26ccc5a4cd9412b2a78f8602f739101610d94565b600a60205260009081526040902080548190611e6290613e48565b80601f0160208091040260200160405190810160405280929190818152602001828054611e8e90613e48565b8015611edb5780601f10611eb057610100808354040283529160200191611edb565b820191906000526020600020905b815481529060010190602001808311611ebe57829003601f168201915b505060408051606081018252600187015460ff80821683526101008204811660208401526201000090910481169282019290925260028701546003880154600489015460058a01546006909a0154989993986001600160a01b039093169750909550935090911687565b600033611f945760405162461bcd60e51b815260206004820152601860248201527f6d73672073656e64657228302920697320696e76616c696400000000000000006044820152606401610b45565b333214611fe35760405162461bcd60e51b815260206004820152601260248201527f6d73672073656e64657220696e76616c696400000000000000000000000000006044820152606401610b45565b815160005b8181101561203d57600a600085838151811061200657612006614084565b60200260200101518152602001908152602001600020600401548361202b9190613e35565b92506120368161409a565b9050611fe8565b50813410156120b45760405162461bcd60e51b815260206004820152603160248201527f73686f756c6420626520657175616c20746f206f72206d6f7265207468616e2060448201527f74686520746f6b656e27732070726963650000000000000000000000000000006064820152608401610b45565b60005b818110156120f1576120e18482815181106120d4576120d4614084565b6020026020010151612942565b6120ea8161409a565b90506120b7565b50505050565b60007f00000000000000000000000000000000000000000000000000000000000000006001600160a01b0316826001600160a01b03160361213a57506001610b73565b6001600160a01b038084166000908152600d602090815260408083209386168352929052205460ff165b9392505050565b6001600160a01b038516331480612187575061218785336120f7565b6121f95760405162461bcd60e51b815260206004820152602960248201527f455243313135353a2063616c6c6572206973206e6f74206f776e6572206e6f7260448201527f20617070726f76656400000000000000000000000000000000000000000000006064820152608401610b45565b6112c48585858585612cfc565b815183511461227d5760405162461bcd60e51b815260206004820152602860248201527f455243313135353a2069647320616e6420616d6f756e7473206c656e6774682060448201527f6d69736d617463680000000000000000000000000000000000000000000000006064820152608401610b45565b6001600160a01b0384166122e15760405162461bcd60e51b815260206004820152602560248201527f455243313135353a207472616e7366657220746f20746865207a65726f206164604482015264647265737360d81b6064820152608401610b45565b336122f0818787878787612eb9565b60005b845181101561241c57600085828151811061231057612310614084565b60200260200101519050600085838151811061232e5761232e614084565b6020908102919091018101516000848152600c835260408082206001600160a01b038e1683529093529190912054909150818110156123c25760405162461bcd60e51b815260206004820152602a60248201527f455243313135353a20696e73756666696369656e742062616c616e636520666f60448201526939103a3930b739b332b960b11b6064820152608401610b45565b6000838152600c602090815260408083206001600160a01b038e8116855292528083208585039055908b16825281208054849290612401908490613e35565b92505081905550505050806124159061409a565b90506122f3565b50846001600160a01b0316866001600160a01b0316826001600160a01b03167f4a39dc06d4c0dbc64b70af90fd698a233a518aa5d07e595d983b8c0526c8f7fb878760405161246c929190614123565b60405180910390a4612482818787878787613050565b505050505050565b6002600154036124dc5760405162461bcd60e51b815260206004820152601f60248201527f5265656e7472616e637947756172643a207265656e7472616e742063616c6c006044820152606401610b45565b60026001556124ea816131f5565b6000818152600a602052604090206006015460ff1661254b5760405162461bcd60e51b815260206004820152601160248201527f6e6f74206f70656e20666f722073616c650000000000000000000000000000006044820152606401610b45565b6000818152600a6020908152604080832060030154600f9092529091205411156125aa5760405162461bcd60e51b815260206004820152601060248201526f1c995858da081b585e10db185a5b595960821b6044820152606401610b45565b6000818152600a602052604081206004015460075482916125ca9161326e565b91509150816126085760405162461bcd60e51b815260206004820152600a60248201526931b0b6319032b93937b960b11b6044820152606401610b45565b600080612617836127106132b7565b91509150816126555760405162461bcd60e51b815260206004820152600a60248201526931b0b6319032b93937b960b11b6044820152606401610b45565b6000858152600a60205260408082206002015490516001600160a01b039091169083908381818185875af1925050503d80600081146126b0576040519150601f19603f3d011682016040523d82523d6000602084013e6126b5565b606091505b50509050806127065760405162461bcd60e51b815260206004820152601160248201527f63616e742070617920726f79616c6974790000000000000000000000000000006044820152606401610b45565b6006546000878152600a602052604081206004015490916001600160a01b031690612732908590614151565b604051600081818185875af1925050503d806000811461276e576040519150601f19603f3d011682016040523d82523d6000602084013e612773565b606091505b50509050806127c45760405162461bcd60e51b815260206004820152601360248201527f63616e74207472616e736665722073616c6573000000000000000000000000006044820152606401610b45565b6127eb8888600160405180604001604052806002815260200161060f60f31b8152506132ea565b6000878152600a60209081526040918290206004015482518a8152918201526001600160a01b038a16917fe6218edc5f92a07a8fb7695675127a7641f59ba430ead560813bd4921f141e0e910160405180910390a2505060018055505050505050565b816001600160a01b0316836001600160a01b0316036128d55760405162461bcd60e51b815260206004820152602960248201527f455243313135353a2073657474696e6720617070726f76616c2073746174757360448201527f20666f722073656c6600000000000000000000000000000000000000000000006064820152608401610b45565b6001600160a01b038381166000818152600d6020908152604080832094871680845294825291829020805460ff191686151590811790915591519182527f17307eab39ab6107e8899845ad3d59bd9653f200f220920489ca2b5937696c31910160405180910390a3505050565b6002600154036129945760405162461bcd60e51b815260206004820152601f60248201527f5265656e7472616e637947756172643a207265656e7472616e742063616c6c006044820152606401610b45565b60026001556129a2816131f5565b6000818152600a602052604090206006015460ff16612a035760405162461bcd60e51b815260206004820152601060248201527f6e6f74206f70656e20666f7253616c65000000000000000000000000000000006044820152606401610b45565b6000818152600a6020908152604080832060030154600f909252909120541115612a625760405162461bcd60e51b815260206004820152601060248201526f1c995858da081b585e10db185a5b595960821b6044820152606401610b45565b6000818152600a60205260408120600401546007548291612a829161326e565b9150915081612ac05760405162461bcd60e51b815260206004820152600a60248201526931b0b6319032b93937b960b11b6044820152606401610b45565b600080612acf836127106132b7565b9150915081612b0d5760405162461bcd60e51b815260206004820152600a60248201526931b0b6319032b93937b960b11b6044820152606401610b45565b6000858152600a60205260408082206002015490516001600160a01b039091169083908381818185875af1925050503d8060008114612b68576040519150601f19603f3d011682016040523d82523d6000602084013e612b6d565b606091505b5050905080612bbe5760405162461bcd60e51b815260206004820152601160248201527f63616e742070617920726f79616c6974790000000000000000000000000000006044820152606401610b45565b6006546000878152600a602052604081206004015490916001600160a01b031690612bea908590614151565b604051600081818185875af1925050503d8060008114612c26576040519150601f19603f3d011682016040523d82523d6000602084013e612c2b565b606091505b5050905080612c7c5760405162461bcd60e51b815260206004820152601260248201527f63616e74207472616e736665722073616c6500000000000000000000000000006044820152606401610b45565b612ca33388600160405180604001604052806002815260200161060f60f31b8152506132ea565b6000878152600a60209081526040918290206004015482518a81529182015233917fe6218edc5f92a07a8fb7695675127a7641f59ba430ead560813bd4921f141e0e910160405180910390a25050600180555050505050565b6001600160a01b038416612d605760405162461bcd60e51b815260206004820152602560248201527f455243313135353a207472616e7366657220746f20746865207a65726f206164604482015264647265737360d81b6064820152608401610b45565b336000612d6c85613406565b90506000612d7985613406565b9050612d89838989858589612eb9565b6000868152600c602090815260408083206001600160a01b038c16845290915290205485811015612e0f5760405162461bcd60e51b815260206004820152602a60248201527f455243313135353a20696e73756666696369656e742062616c616e636520666f60448201526939103a3930b739b332b960b11b6064820152608401610b45565b6000878152600c602090815260408083206001600160a01b038d8116855292528083208985039055908a16825281208054889290612e4e908490613e35565b909155505060408051888152602081018890526001600160a01b03808b16928c821692918816917fc3d58168c5ae7397731d063d5bbf3d657854427343f4c083240f7aacaa2d0f62910160405180910390a4612eae848a8a8a8a8a613451565b505050505050505050565b6001600160a01b038516612f405760005b8351811015612f3e57828181518110612ee557612ee5614084565b6020026020010151600f6000868481518110612f0357612f03614084565b602002602001015181526020019081526020016000206000828254612f289190613e35565b90915550612f3790508161409a565b9050612eca565b505b6001600160a01b0384166124825760005b8351811015613047576000848281518110612f6e57612f6e614084565b602002602001015190506000848381518110612f8c57612f8c614084565b602002602001015190506000600f6000848152602001908152602001600020549050818110156130245760405162461bcd60e51b815260206004820152602860248201527f455243313135353a206275726e20616d6f756e74206578636565647320746f7460448201527f616c537570706c790000000000000000000000000000000000000000000000006064820152608401610b45565b6000928352600f6020526040909220910390556130408161409a565b9050612f51565b50505050505050565b6001600160a01b0384163b156124825760405163bc197c8160e01b81526001600160a01b0385169063bc197c81906130949089908990889088908890600401614164565b6020604051808303816000875af19250505080156130cf575060408051601f3d908101601f191682019092526130cc918101906141c2565b60015b613184576130db6141df565b806308c379a00361311457506130ef6141fb565b806130fa5750613116565b8060405162461bcd60e51b8152600401610b459190613658565b505b60405162461bcd60e51b815260206004820152603460248201527f455243313135353a207472616e7366657220746f206e6f6e204552433131353560448201527f526563656976657220696d706c656d656e7465720000000000000000000000006064820152608401610b45565b6001600160e01b0319811663bc197c8160e01b146130475760405162461bcd60e51b815260206004820152602860248201527f455243313135353a204552433131353552656365697665722072656a656374656044820152676420746f6b656e7360c01b6064820152608401610b45565b80158061321e57506000818152600a6020908152604080832060030154600f9092529091205410155b1561323c57604051636aa2a93760e01b815260040160405180910390fd5b6000818152600b602052604090205460ff1661326b57604051636aa2a93760e01b815260040160405180910390fd5b50565b600080836000036132855750600190506000611222565b838302838582816132985761329861404c565b04146132ab576000809250925050611222565b60019590945092505050565b600080826000036132cd57506000905080611222565b60018385816132de576132de61404c565b04915091509250929050565b6001600160a01b03841661334a5760405162461bcd60e51b815260206004820152602160248201527f455243313135353a206d696e7420746f20746865207a65726f206164647265736044820152607360f81b6064820152608401610b45565b33600061335685613406565b9050600061336385613406565b905061337483600089858589612eb9565b6000868152600c602090815260408083206001600160a01b038b168452909152812080548792906133a6908490613e35565b909155505060408051878152602081018790526001600160a01b03808a1692600092918716917fc3d58168c5ae7397731d063d5bbf3d657854427343f4c083240f7aacaa2d0f62910160405180910390a461304783600089898989613451565b6040805160018082528183019092526060916000919060208083019080368337019050509050828160008151811061344057613440614084565b602090810291909101015292915050565b6001600160a01b0384163b156124825760405163f23a6e6160e01b81526001600160a01b0385169063f23a6e61906134959089908990889088908890600401614285565b6020604051808303816000875af19250505080156134d0575060408051601f3d908101601f191682019092526134cd918101906141c2565b60015b6134dc576130db6141df565b6001600160e01b0319811663f23a6e6160e01b146130475760405162461bcd60e51b815260206004820152602860248201527f455243313135353a204552433131353552656365697665722072656a656374656044820152676420746f6b656e7360c01b6064820152608401610b45565b6001600160a01b038116811461326b57600080fd5b6000806040838503121561357557600080fd5b82356135808161354d565b946020939093013593505050565b6001600160e01b03198116811461326b57600080fd5b6000602082840312156135b657600080fd5b81356121648161358e565b6000602082840312156135d357600080fd5b5035919050565b60608101610b73828460ff815116825260ff602082015116602083015260ff60408201511660408301525050565b60005b8381101561362357818101518382015260200161360b565b50506000910152565b60008151808452613644816020860160208601613608565b601f01601f19169290920160200192915050565b602081526000612164602083018461362c565b8035801515811461367b57600080fd5b919050565b6000806040838503121561369357600080fd5b823591506136a36020840161366b565b90509250929050565b600080604083850312156136bf57600080fd5b50508035926020909101359150565b6000602082840312156136e057600080fd5b81356121648161354d565b634e487b7160e01b600052604160045260246000fd5b601f8201601f1916810167ffffffffffffffff81118282101715613727576137276136eb565b6040525050565b600082601f83011261373f57600080fd5b813567ffffffffffffffff811115613759576137596136eb565b604051613770601f8301601f191660200182613701565b81815284602083860101111561378557600080fd5b816020850160208301376000918101602001919091529392505050565b600080604083850312156137b557600080fd5b82359150602083013567ffffffffffffffff8111156137d357600080fd5b6137df8582860161372e565b9150509250929050565b602081526000825161012080602085015261380861014085018361362c565b9150602085015161383c604086018260ff815116825260ff602082015116602083015260ff60408201511660408301525050565b506001600160a01b0360408601511660a0850152606085015160c0850152608085015160e085015260a085015161010085015260c0850151151581850152508091505092915050565b600067ffffffffffffffff82111561389f5761389f6136eb565b5060051b60200190565b600082601f8301126138ba57600080fd5b813560206138c782613885565b6040516138d48282613701565b83815260059390931b85018201928281019150868411156138f457600080fd5b8286015b8481101561390f57803583529183019183016138f8565b509695505050505050565b600080600080600060a0868803121561393257600080fd5b853561393d8161354d565b9450602086013561394d8161354d565b9350604086013567ffffffffffffffff8082111561396a57600080fd5b61397689838a016138a9565b9450606088013591508082111561398c57600080fd5b61399889838a016138a9565b935060808801359150808211156139ae57600080fd5b506139bb8882890161372e565b9150509295509295909350565b600080604083850312156139db57600080fd5b823567ffffffffffffffff808211156139f357600080fd5b818501915085601f830112613a0757600080fd5b81356020613a1482613885565b604051613a218282613701565b83815260059390931b8501820192828101915089841115613a4157600080fd5b948201945b83861015613a68578535613a598161354d565b82529482019490820190613a46565b96505086013592505080821115613a7e57600080fd5b506137df858286016138a9565b600081518084526020808501945080840160005b83811015613abb57815187529582019590820190600101613a9f565b509495945050505050565b6020815260006121646020830184613a8b565b803560ff8116811461367b57600080fd5b600060608284031215613afc57600080fd5b6040516060810181811067ffffffffffffffff82111715613b1f57613b1f6136eb565b604052905080613b2e83613ad9565b8152613b3c60208401613ad9565b6020820152613b4d60408401613ad9565b60408201525092915050565b60008060808385031215613b6c57600080fd5b823591506136a38460208501613aea565b60008060408385031215613b9057600080fd5b8235613b9b8161354d565b9150602083013567ffffffffffffffff811115613bb757600080fd5b6137df858286016138a9565b6000806000806000806101008789031215613bdd57600080fd5b86359550602087013567ffffffffffffffff811115613bfb57600080fd5b613c0789828a0161372e565b955050613c178860408901613aea565b935060a0870135613c278161354d565b9598949750929560c08101359460e0909101359350915050565b60008060408385031215613c5457600080fd5b8235613c5f8161354d565b91506136a36020840161366b565b600060208284031215613c7f57600080fd5b813567ffffffffffffffff811115613c9657600080fd5b613ca2848285016138a9565b949350505050565b600060208284031215613cbc57600080fd5b813567ffffffffffffffff811115613cd357600080fd5b613ca28482850161372e565b60008060408385031215613cf257600080fd5b823591506020830135613d048161354d565b809150509250929050565b6000610120808352613d238184018b61362c565b915050613d53602083018960ff815116825260ff602082015116602083015260ff60408201511660408301525050565b6001600160a01b0396909616608082015260a081019490945260c084019290925260e083015215156101009091015292915050565b60008060408385031215613d9b57600080fd5b8235613da68161354d565b91506020830135613d048161354d565b600080600080600060a08688031215613dce57600080fd5b8535613dd98161354d565b94506020860135613de98161354d565b93506040860135925060608601359150608086013567ffffffffffffffff811115613e1357600080fd5b6139bb8882890161372e565b634e487b7160e01b600052601160045260246000fd5b80820180821115610b7357610b73613e1f565b600181811c90821680613e5c57607f821691505b602082108103613e7c57634e487b7160e01b600052602260045260246000fd5b50919050565b6000808454613e9081613e48565b60018281168015613ea85760018114613ebd57613eec565b60ff1984168752821515830287019450613eec565b8860005260208060002060005b85811015613ee35781548a820152908401908201613eca565b50505082870194505b505050508351613f00818360208801613608565b01949350505050565b601f821115613f4f57600081815260208120601f850160051c81016020861015613f305750805b601f850160051c820191505b8181101561248257828155600101613f3c565b505050565b815167ffffffffffffffff811115613f6e57613f6e6136eb565b613f8281613f7c8454613e48565b84613f09565b602080601f831160018114613fb75760008415613f9f5750858301515b600019600386901b1c1916600185901b178555612482565b600085815260208120601f198616915b82811015613fe657888601518255948401946001909101908401613fc7565b50858210156140045787850151600019600388901b60f8161c191681555b5050505050600190811b01905550565b828152604060208201526000613ca2604083018461362c565b600081600019048311821515161561404757614047613e1f565b500290565b634e487b7160e01b600052601260045260246000fd5b60008261407f57634e487b7160e01b600052601260045260246000fd5b500490565b634e487b7160e01b600052603260045260246000fd5b6000600182016140ac576140ac613e1f565b5060010190565b60006101008883528060208401526140cd8184018961362c565b9150506140fd604083018760ff815116825260ff602082015116602083015260ff60408201511660408301525050565b6001600160a01b03851660a08301528360c08301528260e0830152979650505050505050565b6040815260006141366040830185613a8b565b82810360208401526141488185613a8b565b95945050505050565b81810381811115610b7357610b73613e1f565b60006001600160a01b03808816835280871660208401525060a0604083015261419060a0830186613a8b565b82810360608401526141a28186613a8b565b905082810360808401526141b6818561362c565b98975050505050505050565b6000602082840312156141d457600080fd5b81516121648161358e565b600060033d11156141f85760046000803e5060005160e01c5b90565b600060443d10156142095790565b6040516003193d81016004833e81513d67ffffffffffffffff816024840111818411171561423957505050505090565b82850191508151818111156142515750505050505090565b843d870101602082850101111561426b5750505050505090565b61427a60208286010187613701565b509095945050505050565b60006001600160a01b03808816835280871660208401525084604083015283606083015260a060808301526142bd60a083018461362c565b97965050505050505056fea164736f6c6343000810000a",
  "linkReferences": {},
  "deployedLinkReferences": {}
}