{
  "_format": "hh-sol-artifact-1",
  "contractName": "PhiShop",
  "sourceName": "contracts/PhiShop.sol",
  "abi": [
    {
      "inputs": [
        {
          "internalType": "address",
          "name": "_freeObjectAddress",
          "type": "address"
        },
        {
          "internalType": "address",
          "name": "_premiumObjectAddress",
          "type": "address"
        },
        {
          "internalType": "address",
          "name": "_wallPaperAddress",
          "type": "address"
        },
        {
          "internalType": "address",
          "name": "_basePlateAddress",
          "type": "address"
        },
        {
          "internalType": "address",
          "name": "_mapAddress",
          "type": "address"
        }
      ],
      "stateMutability": "nonpayable",
      "type": "constructor"
    },
    {
      "inputs": [
        {
          "internalType": "address",
          "name": "sender",
          "type": "address"
        },
        {
          "internalType": "address",
          "name": "owner",
          "type": "address"
        }
      ],
      "name": "NotPhilandOwner",
      "type": "error"
    },
    {
      "anonymous": false,
      "inputs": [
        {
          "indexed": false,
          "internalType": "address",
          "name": "sender",
          "type": "address"
        },
        {
          "indexed": false,
          "internalType": "address",
          "name": "receiverAddress",
          "type": "address"
        },
        {
          "indexed": false,
          "internalType": "uint256",
          "name": "buyCount",
          "type": "uint256"
        },
        {
          "indexed": false,
          "internalType": "uint256",
          "name": "buyValue",
          "type": "uint256"
        }
      ],
      "name": "LogShopBuyObject",
      "type": "event"
    },
    {
      "anonymous": false,
      "inputs": [
        {
          "indexed": false,
          "internalType": "address",
          "name": "sender",
          "type": "address"
        },
        {
          "indexed": false,
          "internalType": "string",
          "name": "name",
          "type": "string"
        },
        {
          "indexed": false,
          "internalType": "uint256",
          "name": "depositAmount",
          "type": "uint256"
        }
      ],
      "name": "ShopDepositSuccess",
      "type": "event"
    },
    {
      "inputs": [],
      "name": "basePlateAddress",
      "outputs": [
        {
          "internalType": "address",
          "name": "",
          "type": "address"
        }
      ],
      "stateMutability": "view",
      "type": "function"
    },
    {
      "inputs": [],
      "name": "freeObjectAddress",
      "outputs": [
        {
          "internalType": "address",
          "name": "",
          "type": "address"
        }
      ],
      "stateMutability": "view",
      "type": "function"
    },
    {
      "inputs": [],
      "name": "mapAddress",
      "outputs": [
        {
          "internalType": "address",
          "name": "",
          "type": "address"
        }
      ],
      "stateMutability": "view",
      "type": "function"
    },
    {
      "inputs": [],
      "name": "premiumObjectAddress",
      "outputs": [
        {
          "internalType": "address",
          "name": "",
          "type": "address"
        }
      ],
      "stateMutability": "view",
      "type": "function"
    },
    {
      "inputs": [
        {
          "internalType": "string",
          "name": "name",
          "type": "string"
        },
        {
          "internalType": "uint256[]",
          "name": "ftokenIds",
          "type": "uint256[]"
        },
        {
          "internalType": "uint256[]",
          "name": "ptokenIds",
          "type": "uint256[]"
        },
        {
          "internalType": "uint256[]",
          "name": "wtokenIds",
          "type": "uint256[]"
        },
        {
          "internalType": "uint256[]",
          "name": "btokenIds",
          "type": "uint256[]"
        },
        {
          "internalType": "address[]",
          "name": "depositContractAddresses",
          "type": "address[]"
        },
        {
          "internalType": "uint256[]",
          "name": "depositTokenIds",
          "type": "uint256[]"
        },
        {
          "internalType": "uint256[]",
          "name": "depositAmounts",
          "type": "uint256[]"
        }
      ],
      "name": "shopBuyAndDepositObject",
      "outputs": [],
      "stateMutability": "payable",
      "type": "function"
    },
    {
      "inputs": [
        {
          "internalType": "address",
          "name": "receiverAddress",
          "type": "address"
        },
        {
          "internalType": "uint256[]",
          "name": "ftokenIds",
          "type": "uint256[]"
        },
        {
          "internalType": "uint256[]",
          "name": "ptokenIds",
          "type": "uint256[]"
        },
        {
          "internalType": "uint256[]",
          "name": "wtokenIds",
          "type": "uint256[]"
        },
        {
          "internalType": "uint256[]",
          "name": "btokenIds",
          "type": "uint256[]"
        }
      ],
      "name": "shopBuyObject",
      "outputs": [],
      "stateMutability": "payable",
      "type": "function"
    },
    {
      "inputs": [],
      "name": "wallPaperAddress",
      "outputs": [
        {
          "internalType": "address",
          "name": "",
          "type": "address"
        }
      ],
      "stateMutability": "view",
      "type": "function"
    }
  ],
  "bytecode": "0x6101206040523480156200001257600080fd5b506040516200136e3803806200136e83398101604081905262000035916200007c565b6001600160a01b0394851660805292841660a05290831660c052821660e0521661010052620000ec565b80516001600160a01b03811681146200007757600080fd5b919050565b600080600080600060a086880312156200009557600080fd5b620000a0866200005f565b9450620000b0602087016200005f565b9350620000c0604087016200005f565b9250620000d0606087016200005f565b9150620000e0608087016200005f565b90509295509295909350565b60805160a05160c05160e051610100516112006200016e600039600081816087015261021001526000818161010b015281816105dd0152610ac801526000818160d7015281816104de01526109c901526000818161019b015281816103e001526108cb01526000818161015401528181610355015261084001526112006000f3fe6080604052600436106100705760003560e01c8063882eb36a1161004e578063882eb36a1461012d5780639573557814610142578063976ec7ab14610176578063b89ec2fe1461018957600080fd5b80630a8cdcd5146100755780631dad50a3146100c55780631fa13729146100f9575b600080fd5b34801561008157600080fd5b506100a97f000000000000000000000000000000000000000000000000000000000000000081565b6040516001600160a01b03909116815260200160405180910390f35b3480156100d157600080fd5b506100a97f000000000000000000000000000000000000000000000000000000000000000081565b34801561010557600080fd5b506100a97f000000000000000000000000000000000000000000000000000000000000000081565b61014061013b366004610df2565b6101bd565b005b34801561014e57600080fd5b506100a97f000000000000000000000000000000000000000000000000000000000000000081565b610140610184366004610f32565b6107eb565b34801561019557600080fd5b506100a97f000000000000000000000000000000000000000000000000000000000000000081565b336102015760405162461bcd60e51b815260206004820152600f60248201526e696e76616c6964206164647265737360881b60448201526064015b60405180910390fd5b6040516302e40ab360e11b81527f00000000000000000000000000000000000000000000000000000000000000009033906001600160a01b038316906305c8156690610251908d9060040161103f565b6020604051808303816000875af1158015610270573d6000803e3d6000fd5b505050506040513d601f19601f820116820180604052508101906102949190611059565b6001600160a01b03161461033f576040516302e40ab360e11b815233906001600160a01b038316906305c81566906102d0908d9060040161103f565b6020604051808303816000875af11580156102ef573d6000803e3d6000fd5b505050506040513d601f19601f820116820180604052508101906103139190611059565b604051637d81493960e01b81526001600160a01b039283166004820152911660248201526044016101f8565b8751156103ca576040516310fa671f60e11b81527f0000000000000000000000000000000000000000000000000000000000000000906001600160a01b038216906321f4ce3e906103969033908d906004016110b1565b600060405180830381600087803b1580156103b057600080fd5b505af11580156103c4573d6000803e3d6000fd5b50505050505b8651156104c85760405163a6a41a2960e01b81527f0000000000000000000000000000000000000000000000000000000000000000906000906001600160a01b0383169063a6a41a2990610422908c906004016110db565b602060405180830381865afa15801561043f573d6000803e3d6000fd5b505050506040513d601f19601f8201168201806040525081019061046391906110ee565b9050816001600160a01b0316628788cb82338c6040518463ffffffff1660e01b81526004016104939291906110b1565b6000604051808303818588803b1580156104ac57600080fd5b505af11580156104c0573d6000803e3d6000fd5b505050505050505b8551156105c75760405163a6a41a2960e01b81527f0000000000000000000000000000000000000000000000000000000000000000906000906001600160a01b0383169063a6a41a2990610520908b906004016110db565b602060405180830381865afa15801561053d573d6000803e3d6000fd5b505050506040513d601f19601f8201168201806040525081019061056191906110ee565b9050816001600160a01b031663e0e0bb3b82338b6040518463ffffffff1660e01b81526004016105929291906110b1565b6000604051808303818588803b1580156105ab57600080fd5b505af11580156105bf573d6000803e3d6000fd5b505050505050505b8451156106c65760405163a6a41a2960e01b81527f0000000000000000000000000000000000000000000000000000000000000000906000906001600160a01b0383169063a6a41a299061061f908a906004016110db565b602060405180830381865afa15801561063c573d6000803e3d6000fd5b505050506040513d601f19601f8201168201806040525081019061066091906110ee565b9050816001600160a01b0316636a957e2a82338a6040518463ffffffff1660e01b81526004016106919291906110b1565b6000604051808303818588803b1580156106aa57600080fd5b505af11580156106be573d6000803e3d6000fd5b505050505050505b7f0339939b24f7ca321adc6c51ca056689d074983bf300a819ee5bfebfd518978f3333875189518c518d516106fb9190611107565b6107059190611107565b61070f9190611107565b604080516001600160a01b0394851681529390921660208401529082015234606082015260800160405180910390a1604051633bc9fcb560e21b81526001600160a01b0382169063ef27f2d490610772908c90339089908990899060040161112d565b600060405180830381600087803b15801561078c57600080fd5b505af11580156107a0573d6000803e3d6000fd5b505050507fae125efa7541c901ebf2426f6a3c2c49e665ac3d60ee52d7a6444c5441fa94ad338a84516040516107d8939291906111c1565b60405180910390a1505050505050505050565b3361082a5760405162461bcd60e51b815260206004820152600f60248201526e696e76616c6964206164647265737360881b60448201526064016101f8565b8351156108b5576040516310fa671f60e11b81527f0000000000000000000000000000000000000000000000000000000000000000906001600160a01b038216906321f4ce3e9061088190899089906004016110b1565b600060405180830381600087803b15801561089b57600080fd5b505af11580156108af573d6000803e3d6000fd5b50505050505b8251156109b35760405163a6a41a2960e01b81527f0000000000000000000000000000000000000000000000000000000000000000906000906001600160a01b0383169063a6a41a299061090d9088906004016110db565b602060405180830381865afa15801561092a573d6000803e3d6000fd5b505050506040513d601f19601f8201168201806040525081019061094e91906110ee565b9050816001600160a01b0316628788cb8289886040518463ffffffff1660e01b815260040161097e9291906110b1565b6000604051808303818588803b15801561099757600080fd5b505af11580156109ab573d6000803e3d6000fd5b505050505050505b815115610ab25760405163a6a41a2960e01b81527f0000000000000000000000000000000000000000000000000000000000000000906000906001600160a01b0383169063a6a41a2990610a0b9087906004016110db565b602060405180830381865afa158015610a28573d6000803e3d6000fd5b505050506040513d601f19601f82011682018060405250810190610a4c91906110ee565b9050816001600160a01b031663e0e0bb3b8289876040518463ffffffff1660e01b8152600401610a7d9291906110b1565b6000604051808303818588803b158015610a9657600080fd5b505af1158015610aaa573d6000803e3d6000fd5b505050505050505b805115610bb15760405163a6a41a2960e01b81527f0000000000000000000000000000000000000000000000000000000000000000906000906001600160a01b0383169063a6a41a2990610b0a9086906004016110db565b602060405180830381865afa158015610b27573d6000803e3d6000fd5b505050506040513d601f19601f82011682018060405250810190610b4b91906110ee565b9050816001600160a01b0316636a957e2a8289866040518463ffffffff1660e01b8152600401610b7c9291906110b1565b6000604051808303818588803b158015610b9557600080fd5b505af1158015610ba9573d6000803e3d6000fd5b505050505050505b7f0339939b24f7ca321adc6c51ca056689d074983bf300a819ee5bfebfd518978f33868351855188518951610be69190611107565b610bf09190611107565b610bfa9190611107565b604080516001600160a01b0394851681529390921660208401529082015234606082015260800160405180910390a15050505050565b634e487b7160e01b600052604160045260246000fd5b604051601f8201601f1916810167ffffffffffffffff81118282101715610c6f57610c6f610c30565b604052919050565b600082601f830112610c8857600080fd5b813567ffffffffffffffff811115610ca257610ca2610c30565b610cb5601f8201601f1916602001610c46565b818152846020838601011115610cca57600080fd5b816020850160208301376000918101602001919091529392505050565b600067ffffffffffffffff821115610d0157610d01610c30565b5060051b60200190565b600082601f830112610d1c57600080fd5b81356020610d31610d2c83610ce7565b610c46565b82815260059290921b84018101918181019086841115610d5057600080fd5b8286015b84811015610d6b5780358352918301918301610d54565b509695505050505050565b6001600160a01b0381168114610d8b57600080fd5b50565b600082601f830112610d9f57600080fd5b81356020610daf610d2c83610ce7565b82815260059290921b84018101918181019086841115610dce57600080fd5b8286015b84811015610d6b578035610de581610d76565b8352918301918301610dd2565b600080600080600080600080610100898b031215610e0f57600080fd5b883567ffffffffffffffff80821115610e2757600080fd5b610e338c838d01610c77565b995060208b0135915080821115610e4957600080fd5b610e558c838d01610d0b565b985060408b0135915080821115610e6b57600080fd5b610e778c838d01610d0b565b975060608b0135915080821115610e8d57600080fd5b610e998c838d01610d0b565b965060808b0135915080821115610eaf57600080fd5b610ebb8c838d01610d0b565b955060a08b0135915080821115610ed157600080fd5b610edd8c838d01610d8e565b945060c08b0135915080821115610ef357600080fd5b610eff8c838d01610d0b565b935060e08b0135915080821115610f1557600080fd5b50610f228b828c01610d0b565b9150509295985092959890939650565b600080600080600060a08688031215610f4a57600080fd5b8535610f5581610d76565b9450602086013567ffffffffffffffff80821115610f7257600080fd5b610f7e89838a01610d0b565b95506040880135915080821115610f9457600080fd5b610fa089838a01610d0b565b94506060880135915080821115610fb657600080fd5b610fc289838a01610d0b565b93506080880135915080821115610fd857600080fd5b50610fe588828901610d0b565b9150509295509295909350565b6000815180845260005b8181101561101857602081850181015186830182015201610ffc565b8181111561102a576000602083870101525b50601f01601f19169290920160200192915050565b6020815260006110526020830184610ff2565b9392505050565b60006020828403121561106b57600080fd5b815161105281610d76565b600081518084526020808501945080840160005b838110156110a65781518752958201959082019060010161108a565b509495945050505050565b6001600160a01b03831681526040602082015260006110d36040830184611076565b949350505050565b6020815260006110526020830184611076565b60006020828403121561110057600080fd5b5051919050565b6000821982111561112857634e487b7160e01b600052601160045260246000fd5b500190565b60a08152600061114060a0830188610ff2565b60206001600160a01b038089168286015284830360408601528288518085528385019150838a01945060005b8181101561118a57855184168352948401949184019160010161116c565b5050858103606087015261119e8189611076565b935050505082810360808401526111b58185611076565b98975050505050505050565b6001600160a01b03841681526060602082015260006111e36060830185610ff2565b905082604083015294935050505056fea164736f6c634300080d000a",
  "linkReferences": {},
  "deployedLinkReferences": {}
}