{
  "_format": "hh-sol-artifact-1",
  "contractName": "PhiShop",
  "sourceName": "contracts/PhiShop.sol",
  "abi": [
    {
      "inputs": [
        {
          "internalType": "address",
          "name": "_freeObjectAddress",
          "type": "address"
        },
        {
          "internalType": "address",
          "name": "_premiumObjectAddress",
          "type": "address"
        },
        {
          "internalType": "address",
          "name": "_wallPaperAddress",
          "type": "address"
        },
        {
          "internalType": "address",
          "name": "_basePlateAddress",
          "type": "address"
        },
        {
          "internalType": "address",
          "name": "_mapAddress",
          "type": "address"
        }
      ],
      "stateMutability": "nonpayable",
      "type": "constructor"
    },
    {
      "inputs": [
        {
          "internalType": "address",
          "name": "sender",
          "type": "address"
        },
        {
          "internalType": "address",
          "name": "owner",
          "type": "address"
        }
      ],
      "name": "NotPhilandOwner",
      "type": "error"
    },
    {
      "anonymous": false,
      "inputs": [
        {
          "indexed": false,
          "internalType": "address",
          "name": "sender",
          "type": "address"
        },
        {
          "indexed": false,
          "internalType": "address",
          "name": "receiverAddress",
          "type": "address"
        },
        {
          "indexed": false,
          "internalType": "uint256",
          "name": "buyCount",
          "type": "uint256"
        },
        {
          "indexed": false,
          "internalType": "uint256",
          "name": "buyValue",
          "type": "uint256"
        }
      ],
      "name": "LogShopBuyObject",
      "type": "event"
    },
    {
      "anonymous": false,
      "inputs": [
        {
          "indexed": false,
          "internalType": "address",
          "name": "sender",
          "type": "address"
        },
        {
          "indexed": false,
          "internalType": "string",
          "name": "name",
          "type": "string"
        },
        {
          "indexed": false,
          "internalType": "uint256",
          "name": "depositAmount",
          "type": "uint256"
        }
      ],
      "name": "ShopDepositSuccess",
      "type": "event"
    },
    {
      "inputs": [],
      "name": "basePlateAddress",
      "outputs": [
        {
          "internalType": "address",
          "name": "",
          "type": "address"
        }
      ],
      "stateMutability": "view",
      "type": "function"
    },
    {
      "inputs": [],
      "name": "freeObjectAddress",
      "outputs": [
        {
          "internalType": "address",
          "name": "",
          "type": "address"
        }
      ],
      "stateMutability": "view",
      "type": "function"
    },
    {
      "inputs": [],
      "name": "mapAddress",
      "outputs": [
        {
          "internalType": "address",
          "name": "",
          "type": "address"
        }
      ],
      "stateMutability": "view",
      "type": "function"
    },
    {
      "inputs": [],
      "name": "premiumObjectAddress",
      "outputs": [
        {
          "internalType": "address",
          "name": "",
          "type": "address"
        }
      ],
      "stateMutability": "view",
      "type": "function"
    },
    {
      "inputs": [
        {
          "internalType": "string",
          "name": "name",
          "type": "string"
        },
        {
          "internalType": "uint256[]",
          "name": "ftokenIds",
          "type": "uint256[]"
        },
        {
          "internalType": "uint256[]",
          "name": "ptokenIds",
          "type": "uint256[]"
        },
        {
          "internalType": "uint256[]",
          "name": "wtokenIds",
          "type": "uint256[]"
        },
        {
          "internalType": "uint256[]",
          "name": "btokenIds",
          "type": "uint256[]"
        },
        {
          "internalType": "address[]",
          "name": "depositContractAddresses",
          "type": "address[]"
        },
        {
          "internalType": "uint256[]",
          "name": "depositTokenIds",
          "type": "uint256[]"
        },
        {
          "internalType": "uint256[]",
          "name": "depositAmounts",
          "type": "uint256[]"
        }
      ],
      "name": "shopBuyAndDepositObject",
      "outputs": [],
      "stateMutability": "payable",
      "type": "function"
    },
    {
      "inputs": [
        {
          "internalType": "address",
          "name": "receiverAddress",
          "type": "address"
        },
        {
          "internalType": "uint256[]",
          "name": "ftokenIds",
          "type": "uint256[]"
        },
        {
          "internalType": "uint256[]",
          "name": "ptokenIds",
          "type": "uint256[]"
        },
        {
          "internalType": "uint256[]",
          "name": "wtokenIds",
          "type": "uint256[]"
        },
        {
          "internalType": "uint256[]",
          "name": "btokenIds",
          "type": "uint256[]"
        }
      ],
      "name": "shopBuyObject",
      "outputs": [],
      "stateMutability": "payable",
      "type": "function"
    },
    {
      "inputs": [],
      "name": "wallPaperAddress",
      "outputs": [
        {
          "internalType": "address",
          "name": "",
          "type": "address"
        }
      ],
      "stateMutability": "view",
      "type": "function"
    }
  ],
  "bytecode": "0x6101206040523480156200001257600080fd5b50604051620015ac380380620015ac8339810160408190526200003591620001e8565b60016000556001600160a01b038516620000855760405162461bcd60e51b815260206004820152601260248201526000805160206200158c83398151915260448201526064015b60405180910390fd5b6001600160a01b038416620000cc5760405162461bcd60e51b815260206004820152601260248201526000805160206200158c83398151915260448201526064016200007c565b6001600160a01b038316620001135760405162461bcd60e51b815260206004820152601260248201526000805160206200158c83398151915260448201526064016200007c565b6001600160a01b0382166200015a5760405162461bcd60e51b815260206004820152601260248201526000805160206200158c83398151915260448201526064016200007c565b6001600160a01b038116620001a15760405162461bcd60e51b815260206004820152601260248201526000805160206200158c83398151915260448201526064016200007c565b6001600160a01b0394851660805292841660a05290831660c052821660e052166101005262000258565b80516001600160a01b0381168114620001e357600080fd5b919050565b600080600080600060a086880312156200020157600080fd5b6200020c86620001cb565b94506200021c60208701620001cb565b93506200022c60408701620001cb565b92506200023c60608701620001cb565b91506200024c60808701620001cb565b90509295509295909350565b60805160a05160c05160e051610100516112b2620002da600039600081816087015261026701526000818161010b015281816106340152610b7b01526000818160d7015281816105350152610a7c01526000818161019b01528181610437015261097e015260008181610154015281816103ac01526108f301526112b26000f3fe6080604052600436106100705760003560e01c8063882eb36a1161004e578063882eb36a1461012d5780639573557814610142578063976ec7ab14610176578063b89ec2fe1461018957600080fd5b80630a8cdcd5146100755780631dad50a3146100c55780631fa13729146100f9575b600080fd5b34801561008157600080fd5b506100a97f000000000000000000000000000000000000000000000000000000000000000081565b6040516001600160a01b03909116815260200160405180910390f35b3480156100d157600080fd5b506100a97f000000000000000000000000000000000000000000000000000000000000000081565b34801561010557600080fd5b506100a97f000000000000000000000000000000000000000000000000000000000000000081565b61014061013b366004610eaa565b6101bd565b005b34801561014e57600080fd5b506100a97f000000000000000000000000000000000000000000000000000000000000000081565b610140610184366004610fea565b610847565b34801561019557600080fd5b506100a97f000000000000000000000000000000000000000000000000000000000000000081565b6002600054036102145760405162461bcd60e51b815260206004820152601f60248201527f5265656e7472616e637947756172643a207265656e7472616e742063616c6c0060448201526064015b60405180910390fd5b6002600055336102585760405162461bcd60e51b815260206004820152600f60248201526e696e76616c6964206164647265737360881b604482015260640161020b565b6040516302e40ab360e11b81527f00000000000000000000000000000000000000000000000000000000000000009033906001600160a01b038316906305c81566906102a8908d906004016110f0565b6020604051808303816000875af11580156102c7573d6000803e3d6000fd5b505050506040513d601f19601f820116820180604052508101906102eb919061110a565b6001600160a01b031614610396576040516302e40ab360e11b815233906001600160a01b038316906305c8156690610327908d906004016110f0565b6020604051808303816000875af1158015610346573d6000803e3d6000fd5b505050506040513d601f19601f8201168201806040525081019061036a919061110a565b604051637d81493960e01b81526001600160a01b0392831660048201529116602482015260440161020b565b875115610421576040516310fa671f60e11b81527f0000000000000000000000000000000000000000000000000000000000000000906001600160a01b038216906321f4ce3e906103ed9033908d90600401611162565b600060405180830381600087803b15801561040757600080fd5b505af115801561041b573d6000803e3d6000fd5b50505050505b86511561051f5760405163a6a41a2960e01b81527f0000000000000000000000000000000000000000000000000000000000000000906000906001600160a01b0383169063a6a41a2990610479908c9060040161118c565b602060405180830381865afa158015610496573d6000803e3d6000fd5b505050506040513d601f19601f820116820180604052508101906104ba919061119f565b9050816001600160a01b0316628788cb82338c6040518463ffffffff1660e01b81526004016104ea929190611162565b6000604051808303818588803b15801561050357600080fd5b505af1158015610517573d6000803e3d6000fd5b505050505050505b85511561061e5760405163a6a41a2960e01b81527f0000000000000000000000000000000000000000000000000000000000000000906000906001600160a01b0383169063a6a41a2990610577908b9060040161118c565b602060405180830381865afa158015610594573d6000803e3d6000fd5b505050506040513d601f19601f820116820180604052508101906105b8919061119f565b9050816001600160a01b031663e0e0bb3b82338b6040518463ffffffff1660e01b81526004016105e9929190611162565b6000604051808303818588803b15801561060257600080fd5b505af1158015610616573d6000803e3d6000fd5b505050505050505b84511561071d5760405163a6a41a2960e01b81527f0000000000000000000000000000000000000000000000000000000000000000906000906001600160a01b0383169063a6a41a2990610676908a9060040161118c565b602060405180830381865afa158015610693573d6000803e3d6000fd5b505050506040513d601f19601f820116820180604052508101906106b7919061119f565b9050816001600160a01b0316636a957e2a82338a6040518463ffffffff1660e01b81526004016106e8929190611162565b6000604051808303818588803b15801561070157600080fd5b505af1158015610715573d6000803e3d6000fd5b505050505050505b7f0339939b24f7ca321adc6c51ca056689d074983bf300a819ee5bfebfd518978f3333875189518b518d5161075291906111b8565b61075c91906111b8565b61076691906111b8565b604080516001600160a01b0394851681529390921660208401529082015234606082015260800160405180910390a1604051633bc9fcb560e21b81526001600160a01b0382169063ef27f2d4906107c9908c9033908990899089906004016111df565b600060405180830381600087803b1580156107e357600080fd5b505af11580156107f7573d6000803e3d6000fd5b505050507fae125efa7541c901ebf2426f6a3c2c49e665ac3d60ee52d7a6444c5441fa94ad338a845160405161082f93929190611273565b60405180910390a15050600160005550505050505050565b6002600054036108995760405162461bcd60e51b815260206004820152601f60248201527f5265656e7472616e637947756172643a207265656e7472616e742063616c6c00604482015260640161020b565b6002600055336108dd5760405162461bcd60e51b815260206004820152600f60248201526e696e76616c6964206164647265737360881b604482015260640161020b565b835115610968576040516310fa671f60e11b81527f0000000000000000000000000000000000000000000000000000000000000000906001600160a01b038216906321f4ce3e906109349089908990600401611162565b600060405180830381600087803b15801561094e57600080fd5b505af1158015610962573d6000803e3d6000fd5b50505050505b825115610a665760405163a6a41a2960e01b81527f0000000000000000000000000000000000000000000000000000000000000000906000906001600160a01b0383169063a6a41a29906109c090889060040161118c565b602060405180830381865afa1580156109dd573d6000803e3d6000fd5b505050506040513d601f19601f82011682018060405250810190610a01919061119f565b9050816001600160a01b0316628788cb8289886040518463ffffffff1660e01b8152600401610a31929190611162565b6000604051808303818588803b158015610a4a57600080fd5b505af1158015610a5e573d6000803e3d6000fd5b505050505050505b815115610b655760405163a6a41a2960e01b81527f0000000000000000000000000000000000000000000000000000000000000000906000906001600160a01b0383169063a6a41a2990610abe90879060040161118c565b602060405180830381865afa158015610adb573d6000803e3d6000fd5b505050506040513d601f19601f82011682018060405250810190610aff919061119f565b9050816001600160a01b031663e0e0bb3b8289876040518463ffffffff1660e01b8152600401610b30929190611162565b6000604051808303818588803b158015610b4957600080fd5b505af1158015610b5d573d6000803e3d6000fd5b505050505050505b805115610c645760405163a6a41a2960e01b81527f0000000000000000000000000000000000000000000000000000000000000000906000906001600160a01b0383169063a6a41a2990610bbd90869060040161118c565b602060405180830381865afa158015610bda573d6000803e3d6000fd5b505050506040513d601f19601f82011682018060405250810190610bfe919061119f565b9050816001600160a01b0316636a957e2a8289866040518463ffffffff1660e01b8152600401610c2f929190611162565b6000604051808303818588803b158015610c4857600080fd5b505af1158015610c5c573d6000803e3d6000fd5b505050505050505b7f0339939b24f7ca321adc6c51ca056689d074983bf300a819ee5bfebfd518978f33868351855187518951610c9991906111b8565b610ca391906111b8565b610cad91906111b8565b604080516001600160a01b0394851681529390921660208401529082015234606082015260800160405180910390a150506001600055505050565b634e487b7160e01b600052604160045260246000fd5b604051601f8201601f1916810167ffffffffffffffff81118282101715610d2757610d27610ce8565b604052919050565b600082601f830112610d4057600080fd5b813567ffffffffffffffff811115610d5a57610d5a610ce8565b610d6d601f8201601f1916602001610cfe565b818152846020838601011115610d8257600080fd5b816020850160208301376000918101602001919091529392505050565b600067ffffffffffffffff821115610db957610db9610ce8565b5060051b60200190565b600082601f830112610dd457600080fd5b81356020610de9610de483610d9f565b610cfe565b82815260059290921b84018101918181019086841115610e0857600080fd5b8286015b84811015610e235780358352918301918301610e0c565b509695505050505050565b6001600160a01b0381168114610e4357600080fd5b50565b600082601f830112610e5757600080fd5b81356020610e67610de483610d9f565b82815260059290921b84018101918181019086841115610e8657600080fd5b8286015b84811015610e23578035610e9d81610e2e565b8352918301918301610e8a565b600080600080600080600080610100898b031215610ec757600080fd5b883567ffffffffffffffff80821115610edf57600080fd5b610eeb8c838d01610d2f565b995060208b0135915080821115610f0157600080fd5b610f0d8c838d01610dc3565b985060408b0135915080821115610f2357600080fd5b610f2f8c838d01610dc3565b975060608b0135915080821115610f4557600080fd5b610f518c838d01610dc3565b965060808b0135915080821115610f6757600080fd5b610f738c838d01610dc3565b955060a08b0135915080821115610f8957600080fd5b610f958c838d01610e46565b945060c08b0135915080821115610fab57600080fd5b610fb78c838d01610dc3565b935060e08b0135915080821115610fcd57600080fd5b50610fda8b828c01610dc3565b9150509295985092959890939650565b600080600080600060a0868803121561100257600080fd5b853561100d81610e2e565b9450602086013567ffffffffffffffff8082111561102a57600080fd5b61103689838a01610dc3565b9550604088013591508082111561104c57600080fd5b61105889838a01610dc3565b9450606088013591508082111561106e57600080fd5b61107a89838a01610dc3565b9350608088013591508082111561109057600080fd5b5061109d88828901610dc3565b9150509295509295909350565b6000815180845260005b818110156110d0576020818501810151868301820152016110b4565b506000602082860101526020601f19601f83011685010191505092915050565b60208152600061110360208301846110aa565b9392505050565b60006020828403121561111c57600080fd5b815161110381610e2e565b600081518084526020808501945080840160005b838110156111575781518752958201959082019060010161113b565b509495945050505050565b6001600160a01b03831681526040602082015260006111846040830184611127565b949350505050565b6020815260006111036020830184611127565b6000602082840312156111b157600080fd5b5051919050565b808201808211156111d957634e487b7160e01b600052601160045260246000fd5b92915050565b60a0815260006111f260a08301886110aa565b60206001600160a01b038089168286015284830360408601528288518085528385019150838a01945060005b8181101561123c57855184168352948401949184019160010161121e565b505085810360608701526112508189611127565b935050505082810360808401526112678185611127565b98975050505050505050565b6001600160a01b038416815260606020820152600061129560608301856110aa565b905082604083015294935050505056fea164736f6c6343000810000a63616e7420736574206164647265737320300000000000000000000000000000",
  "linkReferences": {},
  "deployedLinkReferences": {}
}